{"abi":[{"type":"constructor","inputs":[],"stateMutability":"nonpayable"},{"type":"function","name":"createTradingAccount","inputs":[{"name":"referralCode","type":"bytes","internalType":"bytes"},{"name":"isCustomReferralCode","type":"bool","internalType":"bool"}],"outputs":[{"name":"","type":"uint128","internalType":"uint128"}],"stateMutability":"nonpayable"},{"type":"function","name":"createTradingAccountAndMulticall","inputs":[{"name":"data","type":"bytes[]","internalType":"bytes[]"},{"name":"referralCode","type":"bytes","internalType":"bytes"},{"name":"isCustomReferralCode","type":"bool","internalType":"bool"}],"outputs":[{"name":"results","type":"bytes[]","internalType":"bytes[]"}],"stateMutability":"payable"},{"type":"function","name":"depositMargin","inputs":[{"name":"tradingAccountId","type":"uint128","internalType":"uint128"},{"name":"collateralType","type":"address","internalType":"address"},{"name":"amount","type":"uint256","internalType":"uint256"}],"outputs":[],"stateMutability":"nonpayable"},{"type":"function","name":"getAccountEquityUsd","inputs":[{"name":"tradingAccountId","type":"uint128","internalType":"uint128"}],"outputs":[{"name":"","type":"int256","internalType":"SD59x18"}],"stateMutability":"view"},{"type":"function","name":"getAccountLeverage","inputs":[{"name":"tradingAccountId","type":"uint128","internalType":"uint128"}],"outputs":[{"name":"","type":"uint256","internalType":"UD60x18"}],"stateMutability":"view"},{"type":"function","name":"getAccountMarginBreakdown","inputs":[{"name":"tradingAccountId","type":"uint128","internalType":"uint128"}],"outputs":[{"name":"marginBalanceUsdX18","type":"int256","internalType":"SD59x18"},{"name":"initialMarginUsdX18","type":"uint256","internalType":"UD60x18"},{"name":"maintenanceMarginUsdX18","type":"uint256","internalType":"UD60x18"},{"name":"availableMarginUsdX18","type":"int256","internalType":"SD59x18"}],"stateMutability":"view"},{"type":"function","name":"getAccountMarginCollateralBalance","inputs":[{"name":"tradingAccountId","type":"uint128","internalType":"uint128"},{"name":"collateralType","type":"address","internalType":"address"}],"outputs":[{"name":"","type":"uint256","internalType":"UD60x18"}],"stateMutability":"view"},{"type":"function","name":"getAccountTotalUnrealizedPnl","inputs":[{"name":"tradingAccountId","type":"uint128","internalType":"uint128"}],"outputs":[{"name":"accountTotalUnrealizedPnlUsdX18","type":"int256","internalType":"SD59x18"}],"stateMutability":"view"},{"type":"function","name":"getPositionState","inputs":[{"name":"tradingAccountId","type":"uint128","internalType":"uint128"},{"name":"marketId","type":"uint128","internalType":"uint128"},{"name":"indexPrice","type":"uint256","internalType":"uint256"}],"outputs":[{"name":"positionState","type":"tuple","internalType":"struct Position.State","components":[{"name":"sizeX18","type":"int256","internalType":"SD59x18"},{"name":"notionalValueX18","type":"uint256","internalType":"UD60x18"},{"name":"initialMarginUsdX18","type":"uint256","internalType":"UD60x18"},{"name":"maintenanceMarginUsdX18","type":"uint256","internalType":"UD60x18"},{"name":"entryPriceX18","type":"uint256","internalType":"UD60x18"},{"name":"accruedFundingUsdX18","type":"int256","internalType":"SD59x18"},{"name":"unrealizedPnlUsdX18","type":"int256","internalType":"SD59x18"}]}],"stateMutability":"view"},{"type":"function","name":"getTradingAccountToken","inputs":[],"outputs":[{"name":"","type":"address","internalType":"address"}],"stateMutability":"view"},{"type":"function","name":"getUserReferralData","inputs":[{"name":"user","type":"address","internalType":"address"}],"outputs":[{"name":"","type":"bytes","internalType":"bytes"},{"name":"","type":"bool","internalType":"bool"}],"stateMutability":"pure"},{"type":"function","name":"isUserAccountCreated","inputs":[{"name":"user","type":"address","internalType":"address"}],"outputs":[{"name":"","type":"bool","internalType":"bool"}],"stateMutability":"view"},{"type":"function","name":"notifyAccountTransfer","inputs":[{"name":"to","type":"address","internalType":"address"},{"name":"tradingAccountId","type":"uint128","internalType":"uint128"}],"outputs":[],"stateMutability":"nonpayable"},{"type":"function","name":"owner","inputs":[],"outputs":[{"name":"","type":"address","internalType":"address"}],"stateMutability":"view"},{"type":"function","name":"renounceOwnership","inputs":[],"outputs":[],"stateMutability":"nonpayable"},{"type":"function","name":"transferOwnership","inputs":[{"name":"newOwner","type":"address","internalType":"address"}],"outputs":[],"stateMutability":"nonpayable"},{"type":"function","name":"withdrawMargin","inputs":[{"name":"tradingAccountId","type":"uint128","internalType":"uint128"},{"name":"collateralType","type":"address","internalType":"address"},{"name":"amount","type":"uint256","internalType":"uint256"}],"outputs":[],"stateMutability":"nonpayable"},{"type":"event","name":"Initialized","inputs":[{"name":"version","type":"uint64","indexed":false,"internalType":"uint64"}],"anonymous":false},{"type":"event","name":"LogCreateTradingAccount","inputs":[{"name":"tradingAccountId","type":"uint128","indexed":false,"internalType":"uint128"},{"name":"sender","type":"address","indexed":false,"internalType":"address"}],"anonymous":false},{"type":"event","name":"LogDepositMargin","inputs":[{"name":"sender","type":"address","indexed":true,"internalType":"address"},{"name":"tradingAccountId","type":"uint128","indexed":true,"internalType":"uint128"},{"name":"collateralType","type":"address","indexed":true,"internalType":"address"},{"name":"amount","type":"uint256","indexed":false,"internalType":"uint256"}],"anonymous":false},{"type":"event","name":"LogReferralSet","inputs":[{"name":"user","type":"address","indexed":true,"internalType":"address"},{"name":"referrer","type":"address","indexed":true,"internalType":"address"},{"name":"referralCode","type":"bytes","indexed":false,"internalType":"bytes"},{"name":"isCustomReferralCode","type":"bool","indexed":false,"internalType":"bool"}],"anonymous":false},{"type":"event","name":"LogWithdrawMargin","inputs":[{"name":"sender","type":"address","indexed":true,"internalType":"address"},{"name":"tradingAccountId","type":"uint128","indexed":true,"internalType":"uint128"},{"name":"collateralType","type":"address","indexed":true,"internalType":"address"},{"name":"amount","type":"uint256","indexed":false,"internalType":"uint256"}],"anonymous":false},{"type":"event","name":"OwnershipTransferred","inputs":[{"name":"previousOwner","type":"address","indexed":true,"internalType":"address"},{"name":"newOwner","type":"address","indexed":true,"internalType":"address"}],"anonymous":false},{"type":"error","name":"AccountNotFound","inputs":[{"name":"tradingAccountId","type":"uint128","internalType":"uint128"},{"name":"sender","type":"address","internalType":"address"}]},{"type":"error","name":"AccountPermissionDenied","inputs":[{"name":"tradingAccountId","type":"uint128","internalType":"uint128"},{"name":"sender","type":"address","internalType":"address"}]},{"type":"error","name":"AddressEmptyCode","inputs":[{"name":"target","type":"address","internalType":"address"}]},{"type":"error","name":"AddressInsufficientBalance","inputs":[{"name":"account","type":"address","internalType":"address"}]},{"type":"error","name":"CollateralLiquidationPriorityNotDefined","inputs":[{"name":"collateralType","type":"address","internalType":"address"}]},{"type":"error","name":"CollateralPriceFeedNotDefined","inputs":[]},{"type":"error","name":"DepositCap","inputs":[{"name":"collateralType","type":"address","internalType":"address"},{"name":"amountX18","type":"uint256","internalType":"uint256"},{"name":"depositCapX18","type":"uint256","internalType":"uint256"}]},{"type":"error","name":"FailedInnerCall","inputs":[]},{"type":"error","name":"FaucetAlreadyDeposited","inputs":[]},{"type":"error","name":"GracePeriodNotOver","inputs":[]},{"type":"error","name":"InsufficientCollateralBalance","inputs":[{"name":"amount","type":"uint256","internalType":"uint256"},{"name":"balance","type":"uint256","internalType":"uint256"}]},{"type":"error","name":"InsufficientMargin","inputs":[{"name":"tradingAccountId","type":"uint128","internalType":"uint128"},{"name":"marginBalanceUsdX18","type":"int256","internalType":"int256"},{"name":"requiredMarginUsdX18","type":"uint256","internalType":"uint256"},{"name":"totalFeesUsdX18","type":"uint256","internalType":"uint256"}]},{"type":"error","name":"InvalidInitialization","inputs":[]},{"type":"error","name":"InvalidOracleReturn","inputs":[]},{"type":"error","name":"InvalidReferralCode","inputs":[]},{"type":"error","name":"InvalidSequencerUptimeFeedReturn","inputs":[]},{"type":"error","name":"NotInitializing","inputs":[]},{"type":"error","name":"OnlyTradingAccountToken","inputs":[{"name":"sender","type":"address","internalType":"address"}]},{"type":"error","name":"OraclePriceFeedHeartbeat","inputs":[{"name":"priceFeed","type":"address","internalType":"address"}]},{"type":"error","name":"OraclePriceFeedOutOfRange","inputs":[{"name":"priceFeed","type":"address","internalType":"address"}]},{"type":"error","name":"OracleSequencerUptimeFeedIsDown","inputs":[{"name":"sequencerUptimeFeed","type":"address","internalType":"address"}]},{"type":"error","name":"OwnableInvalidOwner","inputs":[{"name":"owner","type":"address","internalType":"address"}]},{"type":"error","name":"OwnableUnauthorizedAccount","inputs":[{"name":"account","type":"address","internalType":"address"}]},{"type":"error","name":"PRBMath_MulDiv18_Overflow","inputs":[{"name":"x","type":"uint256","internalType":"uint256"},{"name":"y","type":"uint256","internalType":"uint256"}]},{"type":"error","name":"PRBMath_MulDiv_Overflow","inputs":[{"name":"x","type":"uint256","internalType":"uint256"},{"name":"y","type":"uint256","internalType":"uint256"},{"name":"denominator","type":"uint256","internalType":"uint256"}]},{"type":"error","name":"PRBMath_SD59x18_Abs_MinSD59x18","inputs":[]},{"type":"error","name":"PRBMath_SD59x18_Convert_Overflow","inputs":[{"name":"x","type":"int256","internalType":"int256"}]},{"type":"error","name":"PRBMath_SD59x18_Convert_Underflow","inputs":[{"name":"x","type":"int256","internalType":"int256"}]},{"type":"error","name":"PRBMath_SD59x18_Div_InputTooSmall","inputs":[]},{"type":"error","name":"PRBMath_SD59x18_Div_Overflow","inputs":[{"name":"x","type":"int256","internalType":"SD59x18"},{"name":"y","type":"int256","internalType":"SD59x18"}]},{"type":"error","name":"PRBMath_SD59x18_IntoUD60x18_Underflow","inputs":[{"name":"x","type":"int256","internalType":"SD59x18"}]},{"type":"error","name":"PRBMath_SD59x18_Mul_InputTooSmall","inputs":[]},{"type":"error","name":"PRBMath_SD59x18_Mul_Overflow","inputs":[{"name":"x","type":"int256","internalType":"SD59x18"},{"name":"y","type":"int256","internalType":"SD59x18"}]},{"type":"error","name":"PRBMath_UD60x18_Convert_Overflow","inputs":[{"name":"x","type":"uint256","internalType":"uint256"}]},{"type":"error","name":"PRBMath_UD60x18_IntoSD59x18_Overflow","inputs":[{"name":"x","type":"uint256","internalType":"UD60x18"}]},{"type":"error","name":"PriceAdapterNotDefined","inputs":[{"name":"marketId","type":"uint128","internalType":"uint128"}]},{"type":"error","name":"SafeCastOverflowedIntToUint","inputs":[{"name":"value","type":"int256","internalType":"int256"}]},{"type":"error","name":"SafeCastOverflowedUintDowncast","inputs":[{"name":"bits","type":"uint8","internalType":"uint8"},{"name":"value","type":"uint256","internalType":"uint256"}]},{"type":"error","name":"SafeCastOverflowedUintToInt","inputs":[{"name":"value","type":"uint256","internalType":"uint256"}]},{"type":"error","name":"SafeERC20FailedOperation","inputs":[{"name":"token","type":"address","internalType":"address"}]},{"type":"error","name":"UserAlreadyHasAccount","inputs":[]},{"type":"error","name":"ZeroInput","inputs":[{"name":"parameter","type":"string","internalType":"string"}]}],"bytecode":{"object":"0x6080604052348015600e575f80fd5b5060156019565b60c9565b7ff0c57e16840df040f15088dc2f81fe391c3923bec73e23a9662efc9c229c6a00805468010000000000000000900460ff161560685760405163f92ee8a960e01b815260040160405180910390fd5b80546001600160401b039081161460c65780546001600160401b0319166001600160401b0390811782556040519081527fc7f505b2f371ae2175ee4913f4499e1f2633a7b5936321eed1cdaeb6115181d29060200160405180910390a15b50565b613b49806100d65f395ff3fe608060405260043610610109575f3560e01c80637dec8b55116100a1578063a5773e8811610071578063e1c8e97611610057578063e1c8e97614610381578063eaf2910f146103ae578063f2fde38b146103cd575f80fd5b8063a5773e881461032b578063bd5e09a71461034a575f80fd5b80637dec8b551461025857806382fa6ada146102775780638da5cb5b146102eb5780638f55dc1f14610317575f80fd5b806349cdd2cf116100dc57806349cdd2cf146101e55780635b2f597514610206578063715018a614610225578063792fcfa314610239575f80fd5b806302d7a57d1461010d57806310422744146101515780631fe91c92146101985780633116a09e146101c5575b5f80fd5b348015610118575f80fd5b5061012c610127366004613224565b6103ec565b6040805194855260208501939093529183015260608201526080015b60405180910390f35b34801561015c575f80fd5b5061018861016b366004613251565b6001600160a01b03165f9081526020819052604090205460ff1690565b6040519015158152602001610148565b3480156101a3575f80fd5b506101b76101b2366004613224565b610517565b604051908152602001610148565b6101d86101d3366004613321565b610542565b604051610148919061340e565b3480156101f0575f80fd5b506102046101ff366004613470565b6106f4565b005b348015610211575f80fd5b506101b76102203660046134ac565b610769565b348015610230575f80fd5b5061020461078c565b348015610244575f80fd5b506101b7610253366004613224565b61079f565b348015610263575f80fd5b506102046102723660046134e1565b610881565b348015610282575f80fd5b50610296610291366004613514565b6108c6565b60405161014891905f60e082019050825182526020830151602083015260408301516040830152606083015160608301526080830151608083015260a083015160a083015260c083015160c083015292915050565b3480156102f6575f80fd5b506102ff61097f565b6040516001600160a01b039091168152602001610148565b348015610322575f80fd5b506102ff6109b3565b348015610336575f80fd5b50610204610345366004613470565b6109ce565b348015610355575f80fd5b5061036961036436600461354d565b610abc565b6040516001600160801b039091168152602001610148565b34801561038c575f80fd5b506103a061039b366004613251565b610b34565b604051610148929190613591565b3480156103b9575f80fd5b506101b76103c8366004613224565b610bfc565b3480156103d8575f80fd5b506102046103e7366004613251565b610c19565b5f805f805f6103fa86610c74565b90505f61040682610cdb565b90506104128282610db3565b95505f5b61042283600501610e52565b8110156104f8575f61043f61043a6005860184610e5b565b610e66565b90505f61044b82610eb6565b90505f6104588b84610f52565b90505f61046483610ff9565b90505f61048461047c610477855f015490565b61109c565b8590846110a9565b90505f6104918483611161565b60098601549091505f9081906104c79084906001600160801b03165b60098a0154600160801b90046001600160801b031661117b565b90925090506104d68e8361119d565b9d506104e28d8261119d565b9c50506001909701965061041695505050505050565b5061050c610505866111ab565b87906111f1565b925050509193509193565b5f8061052283610c74565b90505f61052e82610cdb565b905061053a82826111ff565b949350505050565b60605f61054f8484610abc565b90508467ffffffffffffffff81111561056a5761056a61326c565b60405190808252806020026020018201604052801561059d57816020015b60608152602001906001900390816105885790505b5091505f5b858110156106ea575f8787838181106105bd576105bd6135b4565b90506020028101906105cf91906135c8565b6105dd916004915f9161360b565b604080516001600160801b0387166020820152016040516020818303038152906040528a8a86818110610612576106126135b4565b905060200281019061062491906135c8565b61063291600490829061360b565b604051602001610646959493929190613632565b60405160208183030381529060405290505f80306001600160a01b0316836040516106719190613663565b5f60405180830381855af49150503d805f81146106a9576040519150601f19603f3d011682016040523d82523d5f602084013e6106ae565b606091505b5091509150816106c15780518060208301fd5b808685815181106106d4576106d46135b4565b60209081029190910101525050506001016105a2565b5050949350505050565b6106ff838383611266565b5f61070984610c74565b90505f610716828561133c565b905061072b8169152d02c7e14af68000001090565b15610762576040517f9a555d3f00000000000000000000000000000000000000000000000000000000815260040160405180910390fd5b5050505050565b5f8061077484610c74565b90505f610781828561133c565b925050505b92915050565b610794611355565b61079d5f6113a0565b565b5f806107aa83610c74565b90505f6107c06107b983610cdb565b8390610db3565b90505f816107da576107d18261141d565b95945050505050565b5f5b6107e884600501610e52565b811015610865575f61080061043a6005870184610e5b565b90505f61080c82610eb6565b90505f6108198984610f52565b90505f61082583610ff9565b90505f61083861047c610477855f015490565b90505f6108458483611161565b9050610851888261119d565b975050600190950194506107dc9350505050565b506107d161087c83610876846111ab565b9061145c565b61141d565b610889611559565b5f61089382610c74565b600101805473ffffffffffffffffffffffffffffffffffffffff19166001600160a01b0394909416939093179092555050565b6108ff6040518060e001604052805f81526020015f81526020015f81526020015f81526020015f81526020015f81526020015f81525090565b5f61090984610eb6565b90505f6109168686610f52565b90505f610933610929610477845f015490565b865b8591906110a9565b90505f61094a610942856115ad565b8590846115de565b60098501549091506109739084906001600160801b0380821691600160801b90041685856115f7565b98975050505050505050565b5f807f9016d09d72d40fdae2fd8ceac6b6234c7706214fd39c1cd1e609a0528c1993005b546001600160a01b031692915050565b5f6109bc6116a2565b600701546001600160a01b0316919050565b5f6109d883611703565b90505f6109e485611780565b90505f6109f18385611795565b90506109fc816117e1565b610a07828683611848565b610a1282868361189f565b5f80610a1f84828061190a565b92505091505f610a388286610db390919063ffffffff16565b9050610a468584835f611b06565b610a5a6001600160a01b0389163389611b75565b876001600160a01b0316896001600160801b0316336001600160a01b03167fcf3eb2785c5d0af849ec465278f862ac4ccbdc5db85e0988cb32ee099ac3eb248a604051610aa991815260200190565b60405180910390a4505050505050505050565b335f9081526020819052604081205460ff168015610b06576040517f905dc0bf00000000000000000000000000000000000000000000000000000000815260040160405180910390fd5b5f610b118585611bee565b335f908152602081905260409020805460ff191660011790559250505092915050565b60605f80610b4184611e5d565b6040518060400160405290815f82018054610b5b9061367e565b80601f0160208091040260200160405190810160405280929190818152602001828054610b879061367e565b8015610bd25780601f10610ba957610100808354040283529160200191610bd2565b820191905f5260205f20905b815481529060010190602001808311610bb557829003601f168201915b50505091835250506001919091015460ff1615156020918201528151910151909590945092505050565b5f80610c0783610c74565b9050610c1281610cdb565b9392505050565b610c21611355565b6001600160a01b038116610c68576040517f1e4fbdf70000000000000000000000000000000000000000000000000000000081525f60048201526024015b60405180910390fd5b610c71816113a0565b50565b5f610c7e82611ea7565b60018101549091506001600160a01b0316610cd6576040517f3a947e910000000000000000000000000000000000000000000000000000000081526001600160801b0383166004820152336024820152604401610c5f565b919050565b5f80610ce983600501610e52565b90505f5b81811015610dac575f610d0661043a6005870184610e5b565b90505f610d1282610eb6565b86549091505f90610d2c906001600160801b031684610f52565b90505f610d3883610ff9565b90505f610d4b61047c610477855f015490565b90505f610d57856115ad565b90505f610d658683856115de565b90505f610d728683611ed7565b90505f610d7f8786611f05565b9050610d9582610d8f8e84611f33565b90611f33565b9b505060019098019750610ced9650505050505050565b5050919050565b5f80610dc184600201611f41565b90505f5b81811015610e47575f80610ddc6002880184611f4b565b915091505f610dea83611703565b80549091505f90610e2090600160801b90046effffffffffffffffffffffffffffff16610e1a85610e1a86611f68565b90611fe5565b9050610e35610e2e826111ab565b8890611f33565b96505060019093019250610dc5915050565b5061053a8284611f33565b5f610786825490565b5f610c128383611ff3565b5f6001600160801b03821115610eb2576040517f6dfcc6500000000000000000000000000000000000000000000000000000000081526080600482015260248101839052604401610c5f565b5090565b5f8060ff19610ee660017f7391160f00c346d035658daa8a3c1eb1fa2f98b67b37275a9487390ac54b119f6136ca565b604051602001610ef891815260200190565b604051602081830303815290604052805190602001201683604051602001610f339291909182526001600160801b0316602082015260400190565b60408051601f1981840301815291905280516020909101209392505050565b5f8060ff19610f8260017f1bc067b952a51a4aceed0c94957339255c9d9ec48f1c55db3cdc6194155caa156136ca565b604051602001610f9491815260200190565b60405160208183030381529060405280519060200120168484604051602001610fd9939291909283526001600160801b03918216602084015216604082015260600190565b60408051601f198184030181529190528051602090910120949350505050565b6008810154600e8201545f916001600160a01b03169063ffffffff168261101e6116a2565b465f9081526011820160205260409020549091506001600160a01b039081169084166110845785546040517f2fb06fb40000000000000000000000000000000000000000000000000000000081526001600160801b039091166004820152602401610c5f565b61108f848483612019565b9695505050505050565b90565b5f610786611099836136dd565b5f806110be611099866006016006015461245d565b8554909150600160801b9004600f0b5f6110d8828461145c565b90505f6110e58388611f33565b90505f6110f2828661145c565b90505f6110fe886111ab565b90505f61111861087c61111184886124a2565b8490611f33565b90505f61113261087c61112b85876124a2565b8590611f33565b90506111516111416002612571565b61114b848461119d565b906125cf565b9c9b505050505050505050505050565b5f610c1282610e1a61087c611176875f015490565b6125e6565b5f806111878585611fe5565b91506111938584611fe5565b9050935093915050565b5f610c1261109983856136f7565b5f816001600160ff1b03811115610786576040517ff461868400000000000000000000000000000000000000000000000000000000815260048101849052602401610c5f565b5f610c12611099838561370a565b5f8061120d84600201611f41565b90505f5b81811015610e47575f806112286002880184611f4b565b915091505f61123683611703565b90505f61124683610e1a84611f68565b9050611254610e2e826111ab565b96505060019093019250611211915050565b5f61127083611703565b90505f61127c85610c74565b90505f6112898385611795565b835460028501549192506001600160801b0316906112a6836117e1565b6112b28784848461263e565b6112bb876126a0565b6112d06001600160a01b0388163330896126fd565b6112db848885612736565b866001600160a01b0316886001600160801b0316336001600160a01b03167f7b18d4a33c7ca563a6ca05e7b9e82d4a43847c0f623e59ee334fff5f697d6afd8960405161132a91815260200190565b60405180910390a45050505050505050565b5f8061134b600285018461277a565b91505061053a8190565b3361135e61097f565b6001600160a01b03161461079d576040517f118cdaa7000000000000000000000000000000000000000000000000000000008152336004820152602401610c5f565b7f9016d09d72d40fdae2fd8ceac6b6234c7706214fd39c1cd1e609a0528c199300805473ffffffffffffffffffffffffffffffffffffffff1981166001600160a01b03848116918217845560405192169182907f8be0079c531659141344cd1fd0a4f28419497f9722a3daafe3b4186f6b6457e0905f90a3505050565b5f8181811215610786576040517fbba41a1500000000000000000000000000000000000000000000000000000000815260048101849052602401610c5f565b5f8282600160ff1b8214806114745750600160ff1b81145b156114ab576040517f9fe2b45000000000000000000000000000000000000000000000000000000000815260040160405180910390fd5b5f805f84126114ba57836114be565b835f035b91505f83126114cd57826114d1565b825f035b90505f6114e783670de0b6b3a764000084612791565b90506001600160ff1b03811115611534576040517fd49c26b30000000000000000000000000000000000000000000000000000000081526004810189905260248101889052604401610c5f565b5f198585181361154c8161154857825f0390565b8290565b9998505050505050505050565b6115616109b3565b6001600160a01b0316336001600160a01b03161461079d576040517f1d4d7313000000000000000000000000000000000000000000000000000000008152336004820152602401610c5f565b5f6107866115d46115c56115c085612879565b6111ab565b6115ce856128a1565b906124a2565b6003840154610d8f565b5f61053a6115ed858585612944565b6004860154610d8f565b6116306040518060e001604052805f81526020015f81526020015f81526020015f81526020015f81526020015f81526020015f81525090565b8554815261163e8684611161565b6020820181905261164f9086611fe5565b604082015260208101516116639085611fe5565b606082015260018601546001600160801b031660808201526116858683611ed7565b60a08201526116948684611f05565b60c082015295945050505050565b5f8060ff196116d260017feeb5cd774bc9c6845792a7b59ceb11c49cb99339b2df9604c51808d2eb250cc26136ca565b6040516020016116e491815260200190565b60408051601f1981840301815291905280516020909101201692915050565b5f8060ff1961173360017f4693110e548948f348ad9c8c0e5b637b378994981b3a4246fc86241f8faded516136ca565b60405160200161174591815260200190565b604051602081830303815290604052805190602001201683604051602001610f339291909182526001600160a01b0316602082015260400190565b5f61178a82610c74565b9050610cd682612989565b81545f90600160f81b900460ff166012036117b1575080610786565b8254610c12906117cc90600160f81b900460ff166012613729565b6117d790600a61381a565b6110999084613828565b80610c71576040517f525560be00000000000000000000000000000000000000000000000000000000815260206004820152600660248201527f616d6f756e7400000000000000000000000000000000000000000000000000006044820152606401610c5f565b5f611853848461133c565b905080821115611899576040517f7be345c80000000000000000000000000000000000000000000000000000000081526004810183905260248101829052604401610c5f565b50505050565b600283015f6118b8836118b2878761133c565b906129f1565b9050806118cf576118c982856129ff565b506118df565b6118dd84825b849190612a13565b505b5f6118e985611703565b90506118fd611099856118b2846002015490565b6002909101555050505050565b5f80806001600160801b038516156119e6575f61192686610eb6565b87549091505f90611940906001600160801b031688610f52565b90505f6119508761092b85610ff9565b90505f61195f610942856115ad565b90505f61197a83610e1a61087c6111768d610d8f8a5f015490565b60098601549091505f90819061199a9084906001600160801b03166104ad565b90925090505f6119b76119ad8887611ed7565b610d8f8989611f05565b90506119c38b8461119d565b9a506119cf8a8361119d565b99506119db8982611f33565b985050505050505050505b5f6119f387600501610e52565b90505f5b81811015611afb575f611a1061043a60058b0184610e5b565b9050876001600160801b0316816001600160801b031603611a315750611af3565b5f611a3b82610eb6565b8a549091505f90611a55906001600160801b031684610f52565b90505f611a74611a6b835f0154611099906136dd565b61092b85610ff9565b90505f611a83610942856115ad565b90505f611a908484611161565b60098601549091505f908190611ab09084906001600160801b03166104ad565b90925090505f611ac36119ad8887611ed7565b9050611acf8e8461119d565b9d50611adb8d8361119d565b9c50611ae78c82611f33565b9b505050505050505050505b6001016119f7565b505093509350939050565b611b1b82611b176115c0868561119d565b1390565b156118995783546040517f4b2d3acd0000000000000000000000000000000000000000000000000000000081526001600160801b039091166004820152602481018390526044810184905260648101829052608401610c5f565b6040516001600160a01b03838116602483015260448201839052611be991859182169063a9059cbb906064015b604051602081830303815290604052915060e01b6020820180517bffffffffffffffffffffffffffffffffffffffffffffffffffffffff8381831617835250505050612a28565b505050565b5f80611bf86116a2565b600981018054919250905f90611c1b906bffffffffffffffffffffffff1661383f565b82546bffffffffffffffffffffffff9182166101009390930a838102920219161790915560078201549092506001600160a01b0316611c5a8333612aa2565b506040517f40c10f190000000000000000000000000000000000000000000000000000000081523360048201526001600160801b03841660248201526001600160a01b038216906340c10f19906044015f604051808303815f87803b158015611cc1575f80fd5b505af1158015611cd3573d5f803e3d5ffd5b5050604080516001600160801b03871681523360208201527f4cbbf2182f0e536977f6e98d1d4ba063888fbfa147949aec165e72cf726e9309935001905060405180910390a15f611d2333611e5d565b905085515f14158015611d42575080548190611d3e9061367e565b1590505b15611e54578415611da4575f611d5787612b15565b80549091506001600160a01b0316611d825760405163e55b462960e01b815260040160405180910390fd5b81611d8d88826138ad565b50506001818101805460ff19169091179055611dfe565b5f86806020019051810190611db9919061396d565b9050336001600160a01b03821603611de45760405163e55b462960e01b815260040160405180910390fd5b81611def88826138ad565b505060018101805460ff191690555b611e0781612b42565b6001600160a01b0316336001600160a01b03167fc8a50c43715a4d8e106334cf8d9b03c0312564a5e692c5a34cf4ea6deeed42ac8888604051611e4b929190613591565b60405180910390a35b50505092915050565b5f806040518060400160405280601181526020017f66692e7a61726f732e526566657272616c00000000000000000000000000000081525083604051602001610f33929190613988565b5f8060ff19610ee660017f8d53eef876fe0bd8a1041a9151a1ff19778efab77c8e1ac1a9b867962feb87e56136ca565b60018201545f908190611ef590600160801b9004600f0b84906111f1565b905061053a816115ce865f015490565b60018201545f908190611ef590611f24906001600160801b03166111ab565b611f2d856111ab565b906111f1565b5f610c1261109983856139b2565b5f61078682612c7e565b5f808080611f598686612c88565b909450925050505b9250929050565b600181015460038201545f916001600160a01b03169063ffffffff1682611f8d6116a2565b465f9081526011820160205260409020549091506001600160a01b03908116908416611084576040517ff976331100000000000000000000000000000000000000000000000000000000815260040160405180910390fd5b5f610c126110998484612cb1565b5f825f018281548110612008576120086135b4565b905f5260205f200154905092915050565b5f80846001600160a01b031663313ce5676040518163ffffffff1660e01b8152600401602060405180830381865afa158015612057573d5f803e3d5ffd5b505050506040513d601f19601f8201168201806040525081019061207b91906139d9565b9050601260ff821611156120a257604051634840b0ab60e11b815260040160405180910390fd5b6001600160a01b038316156121d557826001600160a01b031663feaf968c6040518163ffffffff1660e01b815260040160a060405180830381865afa92505050801561210b575060408051601f3d908101601f1916820190925261210891810190613a12565b60015b612141576040517f382e6b6400000000000000000000000000000000000000000000000000000000815260040160405180910390fd5b831580612185576040517fcbaf08250000000000000000000000000000000000000000000000000000000081526001600160a01b038a166004820152602401610c5f565b5f61219085426136ca565b9050610e1081116121cd576040517fd15f73b500000000000000000000000000000000000000000000000000000000815260040160405180910390fd5b505050505050505b846001600160a01b031663feaf968c6040518163ffffffff1660e01b815260040160a060405180830381865afa92505050801561222f575060408051601f3d908101601f1916820190925261222c91810190613a12565b60015b61224c57604051634840b0ab60e11b815260040160405180910390fd5b63ffffffff891661225d83426136ca565b11156122a0576040517fa1ac05690000000000000000000000000000000000000000000000000000000081526001600160a01b038b166004820152602401610c5f565b5f8a6001600160a01b031663245a7bfc6040518163ffffffff1660e01b8152600401602060405180830381865afa1580156122dd573d5f803e3d5ffd5b505050506040513d601f19601f82011682018060405250810190612301919061396d565b90505f816001600160a01b03166322adbc786040518163ffffffff1660e01b8152600401602060405180830381865afa158015612340573d5f803e3d5ffd5b505050506040513d601f19601f820116820180604052508101906123649190613a5e565b90505f826001600160a01b03166370da2f676040518163ffffffff1660e01b8152600401602060405180830381865afa1580156123a3573d5f803e3d5ffd5b505050506040513d601f19601f820116820180604052508101906123c79190613a5e565b90508160170b871315806123de57508060170b8712155b15612420576040517f045d8f840000000000000000000000000000000000000000000000000000000081526001600160a01b038e166004820152602401610c5f565b61244c61242e8a6012613729565b61243990600a61381a565b61244289612d96565b6110999190613828565b9d9c50505050505050505050505050565b5f6001600160ff1b03821115610eb2576040517f24775e0600000000000000000000000000000000000000000000000000000000815260048101839052602401610c5f565b5f8282600160ff1b8214806124ba5750600160ff1b81145b156124f1576040517fa6070c2500000000000000000000000000000000000000000000000000000000815260040160405180910390fd5b5f805f84126125005783612504565b835f035b91505f83126125135782612517565b825f035b90505f6125248383612cb1565b90506001600160ff1b03811115611534576040517f120b5b430000000000000000000000000000000000000000000000000000000081526004810189905260248101889052604401610c5f565b5f612585670de0b6b3a76400005f19613a92565b8211156125c1576040517f1cd951a700000000000000000000000000000000000000000000000000000000815260048101839052602401610c5f565b50670de0b6b3a76400000290565b5f610c1261109984670de0b6b3a764000085612791565b5f81600160ff1b8101612625576040517fec2b9e6700000000000000000000000000000000000000000000000000000000815260040160405180910390fd5b5f81126126325782610c12565b610c12611099826136dd565b6126508261264c858461119d565b1190565b15611899576040517f693c44590000000000000000000000000000000000000000000000000000000081526001600160a01b03851660048201526024810184905260448101839052606401610c5f565b5f6126a96116a2565b90505f6126b9600b830184612dd4565b905080611be9576040517f26ffe01d0000000000000000000000000000000000000000000000000000000081526001600160a01b0384166004820152602401610c5f565b6040516001600160a01b0384811660248301528381166044830152606482018390526118999186918216906323b872dd90608401611ba2565b600283015f61274f83612749878761133c565b9061119d565b905061275b84826118d5565b505f61276685611703565b90506118fd61109985612749846002015490565b5f808080611f59866001600160a01b038716612df5565b5f80805f19858709858702925082811083820303915050805f036127c8578382816127be576127be613a7e565b0492505050610c12565b838110612812576040517f63a05778000000000000000000000000000000000000000000000000000000008152600481018790526024810186905260448101859052606401610c5f565b5f8486880960026001871981018816978890046003810283188082028403028082028403028082028403028082028403028082028403029081029092039091025f889003889004909101858311909403939093029303949094049190911702949350505050565b5f61078661288962015180612571565b61114b84600501544261289c91906136ca565b612571565b600b8101545f9081906128c090611099906001600160801b031661245d565b90505f6128d6611099856006016006015461245d565b8454909150600160801b9004600f0b816128f457505f949350505050565b5f6128ff828461145c565b90505f61292d61291f612919670de0b6b3a764000061109c565b84612e35565b670de0b6b3a7640000612e4b565b905061293981866124a2565b979650505050505050565b5f806129656129536002612e54565b61087661047787610d8f8a6003015490565b90506107d1612973846111ab565b6115ce6129826115c089612879565b84906124a2565b5f61299382611ea7565b60018101549091506001600160a01b031633146129ed576040517f38d64a200000000000000000000000000000000000000000000000000000000081526001600160801b0383166004820152336024820152604401610c5f565b5050565b5f610c1261109983856136ca565b5f610c12836001600160a01b038416612efc565b5f61053a846001600160a01b03851684612f18565b5f612a3c6001600160a01b03841683612f34565b905080515f14158015612a60575080806020019051810190612a5e9190613aa5565b155b15611be9576040517f5274afe70000000000000000000000000000000000000000000000000000000081526001600160a01b0384166004820152602401610c5f565b5f612aac83611ea7565b80547fffffffffffffffffffffffffffffffff00000000000000000000000000000000166001600160801b03949094169390931783555060018201805473ffffffffffffffffffffffffffffffffffffffff19166001600160a01b039290921691909117905590565b5f80604051806060016040528060248152602001613b256024913983604051602001610f33929190613ac0565b60018101545f9060ff16612bec5781548290612b5d9061367e565b80601f0160208091040260200160405190810160405280929190818152602001828054612b899061367e565b8015612bd45780601f10612bab57610100808354040283529160200191612bd4565b820191905f5260205f20905b815481529060010190602001808311612bb757829003601f168201915b5050505050806020019051810190610786919061396d565b6109a3825f018054612bfd9061367e565b80601f0160208091040260200160405190810160405280929190818152602001828054612c299061367e565b8015612c745780601f10612c4b57610100808354040283529160200191612c74565b820191905f5260205f20905b815481529060010190602001808311612c5757829003601f168201915b5050505050612b15565b5f61078682610e52565b5f8080612c958585610e5b565b5f81815260029690960160205260409095205494959350505050565b5f80805f19848609848602925082811083820303915050805f03612ce25750670de0b6b3a764000090049050610786565b670de0b6b3a76400008110612d2d576040517f5173648d0000000000000000000000000000000000000000000000000000000081526004810186905260248101859052604401610c5f565b5f670de0b6b3a7640000858709620400008185030493109091037d40000000000000000000000000000000000000000000000000000000000002919091177faccb18165bd6fe31ae1cf318dc5b51eee0e1ba569b88cd74c1773b91fac106690291505092915050565b5f80821215610eb2576040517fa8ce443200000000000000000000000000000000000000000000000000000000815260048101839052602401610c5f565b6001600160a01b0381165f9081526001830160205260408120541515610c12565b5f818152600283016020526040812054819080612e2257612e168585612f41565b92505f9150611f619050565b600192509050611f61565b509250929050565b5f8282125b612e445781610c12565b5090919050565b5f828213612e3a565b5f612e6b670de0b6b3a7640000600160ff1b613ae4565b821215612ea7576040517f99474eeb00000000000000000000000000000000000000000000000000000000815260048101839052602401610c5f565b612ec0670de0b6b3a76400006001600160ff1b03613ae4565b8213156125c1576040517f9d58109100000000000000000000000000000000000000000000000000000000815260048101839052602401610c5f565b5f8181526002830160205260408120819055610c128383612f4c565b5f828152600284016020526040812082905561053a8484612f57565b6060610c1283835f612f62565b5f610c12838361300a565b5f610c128383613021565b5f610c12838361310b565b606081471015612fa0576040517fcd786059000000000000000000000000000000000000000000000000000000008152306004820152602401610c5f565b5f80856001600160a01b03168486604051612fbb9190613663565b5f6040518083038185875af1925050503d805f8114612ff5576040519150601f19603f3d011682016040523d82523d5f602084013e612ffa565b606091505b509150915061108f868383613157565b5f8181526001830160205260408120541515610c12565b5f81815260018301602052604081205480156130fb575f6130436001836136ca565b85549091505f90613056906001906136ca565b90508082146130b5575f865f018281548110613074576130746135b4565b905f5260205f200154905080875f018481548110613094576130946135b4565b5f918252602080832090910192909255918252600188019052604090208390555b85548690806130c6576130c6613b10565b600190038181905f5260205f20015f90559055856001015f8681526020019081526020015f205f905560019350505050610786565b5f915050610786565b5092915050565b5f81815260018301602052604081205461315057508154600181810184555f848152602080822090930184905584548482528286019093526040902091909155610786565b505f610786565b60608261316c57613167826131cc565b610c12565b815115801561318357506001600160a01b0384163b155b156131c5576040517f9996b3150000000000000000000000000000000000000000000000000000000081526001600160a01b0385166004820152602401610c5f565b5080610c12565b8051156131dc5780518082602001fd5b6040517f1425ea4200000000000000000000000000000000000000000000000000000000815260040160405180910390fd5b80356001600160801b0381168114610cd6575f80fd5b5f60208284031215613234575f80fd5b610c128261320e565b6001600160a01b0381168114610c71575f80fd5b5f60208284031215613261575f80fd5b8135610c128161323d565b634e487b7160e01b5f52604160045260245ffd5b5f82601f83011261328f575f80fd5b813567ffffffffffffffff808211156132aa576132aa61326c565b604051601f8301601f19908116603f011681019082821181831017156132d2576132d261326c565b816040528381528660208588010111156132ea575f80fd5b836020870160208301375f602085830101528094505050505092915050565b8015158114610c71575f80fd5b8035610cd681613309565b5f805f8060608587031215613334575f80fd5b843567ffffffffffffffff8082111561334b575f80fd5b818701915087601f83011261335e575f80fd5b81358181111561336c575f80fd5b8860208260051b8501011115613380575f80fd5b60209283019650945090860135908082111561339a575f80fd5b506133a787828801613280565b9250506133b660408601613316565b905092959194509250565b5f5b838110156133db5781810151838201526020016133c3565b50505f910152565b5f81518084526133fa8160208601602086016133c1565b601f01601f19169290920160200192915050565b5f60208083016020845280855180835260408601915060408160051b8701019250602087015f5b8281101561346357603f198886030184526134518583516133e3565b94509285019290850190600101613435565b5092979650505050505050565b5f805f60608486031215613482575f80fd5b61348b8461320e565b9250602084013561349b8161323d565b929592945050506040919091013590565b5f80604083850312156134bd575f80fd5b6134c68361320e565b915060208301356134d68161323d565b809150509250929050565b5f80604083850312156134f2575f80fd5b82356134fd8161323d565b915061350b6020840161320e565b90509250929050565b5f805f60608486031215613526575f80fd5b61352f8461320e565b925061353d6020850161320e565b9150604084013590509250925092565b5f806040838503121561355e575f80fd5b823567ffffffffffffffff811115613574575f80fd5b61358085828601613280565b92505060208301356134d681613309565b604081525f6135a360408301856133e3565b905082151560208301529392505050565b634e487b7160e01b5f52603260045260245ffd5b5f808335601e198436030181126135dd575f80fd5b83018035915067ffffffffffffffff8211156135f7575f80fd5b602001915036819003821315611f61575f80fd5b5f8085851115613619575f80fd5b83861115613625575f80fd5b5050820193919092039150565b848682375f8582015f8152855161364d818360208a016133c1565b01838582375f9301928352509095945050505050565b5f82516136748184602087016133c1565b9190910192915050565b600181811c9082168061369257607f821691505b6020821081036136b057634e487b7160e01b5f52602260045260245ffd5b50919050565b634e487b7160e01b5f52601160045260245ffd5b81810381811115610786576107866136b6565b5f600160ff1b82036136f1576136f16136b6565b505f0390565b80820180821115610786576107866136b6565b8181035f831280158383131683831282161715613104576131046136b6565b60ff8281168282160390811115610786576107866136b6565b600181815b80851115612e2d57815f1904821115613762576137626136b6565b8085161561376f57918102915b93841c9390800290613747565b5f8261378a57506001610786565b8161379657505f610786565b81600181146137ac57600281146137b6576137d2565b6001915050610786565b60ff8411156137c7576137c76136b6565b50506001821b610786565b5060208310610133831016604e8410600b84101617156137f5575081810a610786565b6137ff8383613742565b805f1904821115613812576138126136b6565b029392505050565b5f610c1260ff84168361377c565b8082028115828204841417610786576107866136b6565b5f6bffffffffffffffffffffffff80831681810361385f5761385f6136b6565b6001019392505050565b601f821115611be957805f5260205f20601f840160051c8101602085101561388e5750805b601f840160051c820191505b81811015610762575f815560010161389a565b815167ffffffffffffffff8111156138c7576138c761326c565b6138db816138d5845461367e565b84613869565b602080601f83116001811461390e575f84156138f75750858301515b5f19600386901b1c1916600185901b178555613965565b5f85815260208120601f198616915b8281101561393c5788860151825594840194600190910190840161391d565b508582101561395957878501515f19600388901b60f8161c191681555b505060018460011b0185555b505050505050565b5f6020828403121561397d575f80fd5b8151610c128161323d565b604081525f61399a60408301856133e3565b90506001600160a01b03831660208301529392505050565b8082018281125f8312801582168215821617156139d1576139d16136b6565b505092915050565b5f602082840312156139e9575f80fd5b815160ff81168114610c12575f80fd5b805169ffffffffffffffffffff81168114610cd6575f80fd5b5f805f805f60a08688031215613a26575f80fd5b613a2f866139f9565b9450602086015193506040860151925060608601519150613a52608087016139f9565b90509295509295909350565b5f60208284031215613a6e575f80fd5b81518060170b8114610c12575f80fd5b634e487b7160e01b5f52601260045260245ffd5b5f82613aa057613aa0613a7e565b500490565b5f60208284031215613ab5575f80fd5b8151610c1281613309565b604081525f613ad260408301856133e3565b82810360208401526107d181856133e3565b5f82613af257613af2613a7e565b600160ff1b82145f1984141615613b0b57613b0b6136b6565b500590565b634e487b7160e01b5f52603160045260245ffdfe66692e7a61726f732e437573746f6d526566657272616c436f6e66696775726174696f6e","linkReferences":{}},"methodIdentifiers":{"createTradingAccount(bytes,bool)":"bd5e09a7","createTradingAccountAndMulticall(bytes[],bytes,bool)":"3116a09e","depositMargin(uint128,address,uint256)":"49cdd2cf","getAccountEquityUsd(uint128)":"1fe91c92","getAccountLeverage(uint128)":"792fcfa3","getAccountMarginBreakdown(uint128)":"02d7a57d","getAccountMarginCollateralBalance(uint128,address)":"5b2f5975","getAccountTotalUnrealizedPnl(uint128)":"eaf2910f","getPositionState(uint128,uint128,uint256)":"82fa6ada","getTradingAccountToken()":"8f55dc1f","getUserReferralData(address)":"e1c8e976","isUserAccountCreated(address)":"10422744","notifyAccountTransfer(address,uint128)":"7dec8b55","owner()":"8da5cb5b","renounceOwnership()":"715018a6","transferOwnership(address)":"f2fde38b","withdrawMargin(uint128,address,uint256)":"a5773e88"},"id":296}