{"abi":[{"type":"function","name":"initialize","inputs":[{"name":"owner","type":"address","internalType":"address"}],"outputs":[],"stateMutability":"nonpayable"},{"type":"function","name":"owner","inputs":[],"outputs":[{"name":"","type":"address","internalType":"address"}],"stateMutability":"view"},{"type":"function","name":"renounceOwnership","inputs":[],"outputs":[],"stateMutability":"nonpayable"},{"type":"function","name":"transferOwnership","inputs":[{"name":"newOwner","type":"address","internalType":"address"}],"outputs":[],"stateMutability":"nonpayable"},{"type":"function","name":"upgrade","inputs":[{"name":"branchUpgrades","type":"tuple[]","internalType":"struct RootProxy.BranchUpgrade[]","components":[{"name":"branch","type":"address","internalType":"address"},{"name":"action","type":"uint8","internalType":"enum RootProxy.BranchUpgradeAction"},{"name":"selectors","type":"bytes4[]","internalType":"bytes4[]"}]},{"name":"initializables","type":"address[]","internalType":"address[]"},{"name":"initializePayloads","type":"bytes[]","internalType":"bytes[]"}],"outputs":[],"stateMutability":"nonpayable"},{"type":"event","name":"Initialized","inputs":[{"name":"version","type":"uint64","indexed":false,"internalType":"uint64"}],"anonymous":false},{"type":"event","name":"OwnershipTransferred","inputs":[{"name":"previousOwner","type":"address","indexed":true,"internalType":"address"},{"name":"newOwner","type":"address","indexed":true,"internalType":"address"}],"anonymous":false},{"type":"error","name":"AddressEmptyCode","inputs":[{"name":"target","type":"address","internalType":"address"}]},{"type":"error","name":"BranchIsNotContract","inputs":[{"name":"branch","type":"address","internalType":"address"}]},{"type":"error","name":"BranchIsZeroAddress","inputs":[]},{"type":"error","name":"CannotRemoveFromOtherBranch","inputs":[{"name":"branch","type":"address","internalType":"address"},{"name":"functionSelector","type":"bytes4","internalType":"bytes4"}]},{"type":"error","name":"FailedInnerCall","inputs":[]},{"type":"error","name":"FunctionAlreadyExists","inputs":[{"name":"functionSelector","type":"bytes4","internalType":"bytes4"}]},{"type":"error","name":"FunctionFromSameBranch","inputs":[{"name":"functionSelector","type":"bytes4","internalType":"bytes4"}]},{"type":"error","name":"ImmutableBranch","inputs":[]},{"type":"error","name":"IncorrectBranchUpgradeAction","inputs":[]},{"type":"error","name":"InitializableIsNotContract","inputs":[{"name":"initializable","type":"address","internalType":"address"}]},{"type":"error","name":"InvalidInitialization","inputs":[]},{"type":"error","name":"NonExistingFunction","inputs":[{"name":"functionSelector","type":"bytes4","internalType":"bytes4"}]},{"type":"error","name":"NotInitializing","inputs":[]},{"type":"error","name":"OwnableInvalidOwner","inputs":[{"name":"owner","type":"address","internalType":"address"}]},{"type":"error","name":"OwnableUnauthorizedAccount","inputs":[{"name":"account","type":"address","internalType":"address"}]},{"type":"error","name":"SelectorArrayEmpty","inputs":[{"name":"branch","type":"address","internalType":"address"}]},{"type":"error","name":"SelectorIsZero","inputs":[]}],"bytecode":{"object":"0x6080604052348015600e575f80fd5b506113058061001c5f395ff3fe608060405234801561000f575f80fd5b5060043610610064575f3560e01c8063c4d66de81161004d578063c4d66de8146100b0578063ddbb1ab9146100c3578063f2fde38b146100d6575f80fd5b8063715018a6146100685780638da5cb5b14610072575b5f80fd5b6100706100e9565b005b7f9016d09d72d40fdae2fd8ceac6b6234c7706214fd39c1cd1e609a0528c19930054604080516001600160a01b039092168252519081900360200190f35b6100706100be366004610ed1565b6100fc565b6100706100d13660046110c9565b610237565b6100706100e4366004610ed1565b61025d565b6100f16102b8565b6100fa5f61032c565b565b7ff0c57e16840df040f15088dc2f81fe391c3923bec73e23a9662efc9c229c6a00805468010000000000000000810460ff16159067ffffffffffffffff165f811580156101465750825b90505f8267ffffffffffffffff1660011480156101625750303b155b905081158015610170575080155b156101a7576040517ff92ee8a900000000000000000000000000000000000000000000000000000000815260040160405180910390fd5b845467ffffffffffffffff1916600117855583156101db57845468ff00000000000000001916680100000000000000001785555b6101e4866103a9565b831561022f57845468ff000000000000000019168555604051600181527fc7f505b2f371ae2175ee4913f4499e1f2633a7b5936321eed1cdaeb6115181d29060200160405180910390a15b505050505050565b610240836103ba565b5f6102496103c2565b905061025781858585610423565b50505050565b6102656102b8565b6001600160a01b0381166102ac576040517f1e4fbdf70000000000000000000000000000000000000000000000000000000081525f60048201526024015b60405180910390fd5b6102b58161032c565b50565b336102ea7f9016d09d72d40fdae2fd8ceac6b6234c7706214fd39c1cd1e609a0528c199300546001600160a01b031690565b6001600160a01b0316146100fa576040517f118cdaa70000000000000000000000000000000000000000000000000000000081523360048201526024016102a3565b7f9016d09d72d40fdae2fd8ceac6b6234c7706214fd39c1cd1e609a0528c199300805473ffffffffffffffffffffffffffffffffffffffff1981166001600160a01b03848116918217845560405192169182907f8be0079c531659141344cd1fd0a4f28419497f9722a3daafe3b4186f6b6457e0905f90a3505050565b6103b1610502565b6102b581610569565b6102b56102b8565b5f8060ff196103f260017f2d2da99d71d1efc4236a449de193a187f4a84e03a0841d399a2b879e1f55984f61127e565b60405160200161040491815260200190565b60408051601f1981840301815291905280516020909101201692915050565b82515f5b818110156104ef575f8582815181106104425761044261129d565b6020026020010151905061045581610571565b5f8160200151600281111561046c5761046c6112b1565b036104885761048387825f015183604001516106a0565b6104e6565b6001816020015160028111156104a0576104a06112b1565b036104b75761048387825f015183604001516107ca565b6002816020015160028111156104cf576104cf6112b1565b036104e6576104e687825f015183604001516109d9565b50600101610427565b506104fb848484610b63565b5050505050565b7ff0c57e16840df040f15088dc2f81fe391c3923bec73e23a9662efc9c229c6a005468010000000000000000900460ff166100fa576040517fd7e6bcf800000000000000000000000000000000000000000000000000000000815260040160405180910390fd5b610265610502565b600281602001516002811115610589576105896112b1565b11156105c1576040517f2f2196cb00000000000000000000000000000000000000000000000000000000815260040160405180910390fd5b80516001600160a01b0316610602576040517f63cf797900000000000000000000000000000000000000000000000000000000815260040160405180910390fd5b80516001600160a01b03163b5f036106545780516040517f934b026b0000000000000000000000000000000000000000000000000000000081526001600160a01b0390911660048201526024016102a3565b8060400151515f036102b55780516040517fe14fb4cb0000000000000000000000000000000000000000000000000000000081526001600160a01b0390911660048201526024016102a3565b6106aa8383610c0b565b5080515f5b818110156104fb575f8382815181106106ca576106ca61129d565b602090810291909101015190506001600160e01b031981166106ff5760405163058b7d8d60e01b815260040160405180910390fd5b6001600160e01b031981165f9081526002870160205260409020546001600160a01b031615610766576040517fcf24d10c0000000000000000000000000000000000000000000000000000000081526001600160e01b0319821660048201526024016102a3565b6001600160e01b031981165f8181526002880160209081526040808320805473ffffffffffffffffffffffffffffffffffffffff19166001600160a01b038b16908117909155835260038a0190915290206107c091610c28565b50506001016106af565b6107d48383610c0b565b5080515f5b818110156104fb575f8382815181106107f4576107f461129d565b6020908102919091018101516001600160e01b031981165f81815260028a019093526040909220549092506001600160a01b0316906108465760405163058b7d8d60e01b815260040160405180910390fd5b306001600160a01b0382160361086f576040516303842a5560e41b815260040160405180910390fd5b856001600160a01b0316816001600160a01b0316036108c6576040517f1ef0d6ce0000000000000000000000000000000000000000000000000000000081526001600160e01b0319831660048201526024016102a3565b6001600160a01b038116610912576040517fbd4ecf1a0000000000000000000000000000000000000000000000000000000081526001600160e01b0319831660048201526024016102a3565b6001600160e01b031982165f8181526002890160209081526040808320805473ffffffffffffffffffffffffffffffffffffffff19166001600160a01b038c16908117909155835260038b01909152902061096c91610c28565b506001600160a01b0381165f908152600388016020526040902061099a906001600160e01b03198416610c33565b506001600160a01b0381165f90815260038801602052604090206109bd90610c3e565b5f036109cf576109cd8782610c47565b505b50506001016107d9565b306001600160a01b03831603610a02576040516303842a5560e41b815260040160405180910390fd5b80515f5b81811015610b30575f838281518110610a2157610a2161129d565b602090810291909101015190506001600160e01b03198116610a565760405163058b7d8d60e01b815260040160405180910390fd5b6001600160e01b031981165f9081526002870160205260409020546001600160a01b03868116911614610ad0576040517f026edaaf0000000000000000000000000000000000000000000000000000000081526001600160a01b03861660048201526001600160e01b0319821660248201526044016102a3565b6001600160e01b031981165f8181526002880160209081526040808320805473ffffffffffffffffffffffffffffffffffffffff191690556001600160a01b038916835260038a019091529020610b2691610c33565b5050600101610a06565b506001600160a01b0383165f9081526003850160205260409020610b5390610c3e565b5f03610257576104fb8484610c47565b5f5b8251811015610257575f838281518110610b8157610b8161129d565b602002602001015190505f838381518110610b9e57610b9e61129d565b60200260200101519050816001600160a01b03163b5f03610bf6576040517fd90180e70000000000000000000000000000000000000000000000000000000081526001600160a01b03831660048201526024016102a3565b610c008282610c5b565b505050600101610b65565b5f610c1f836001600160a01b038416610ccd565b90505b92915050565b5f610c1f8383610ccd565b5f610c1f8383610d19565b5f610c22825490565b5f610c1f836001600160a01b038416610d19565b60605f80846001600160a01b031684604051610c7791906112c5565b5f60405180830381855af49150503d805f8114610caf576040519150601f19603f3d011682016040523d82523d5f602084013e610cb4565b606091505b5091509150610cc4858383610dfc565b95945050505050565b5f818152600183016020526040812054610d1257508154600181810184555f848152602080822090930184905584548482528286019093526040902091909155610c22565b505f610c22565b5f8181526001830160205260408120548015610df3575f610d3b60018361127e565b85549091505f90610d4e9060019061127e565b9050808214610dad575f865f018281548110610d6c57610d6c61129d565b905f5260205f200154905080875f018481548110610d8c57610d8c61129d565b5f918252602080832090910192909255918252600188019052604090208390555b8554869080610dbe57610dbe6112f1565b600190038181905f5260205f20015f90559055856001015f8681526020019081526020015f205f905560019350505050610c22565b5f915050610c22565b606082610e1157610e0c82610e74565b610e6d565b8151158015610e2857506001600160a01b0384163b155b15610e6a576040517f9996b3150000000000000000000000000000000000000000000000000000000081526001600160a01b03851660048201526024016102a3565b50805b9392505050565b805115610e845780518082602001fd5b6040517f1425ea4200000000000000000000000000000000000000000000000000000000815260040160405180910390fd5b80356001600160a01b0381168114610ecc575f80fd5b919050565b5f60208284031215610ee1575f80fd5b610c1f82610eb6565b634e487b7160e01b5f52604160045260245ffd5b6040516060810167ffffffffffffffff81118282101715610f2157610f21610eea565b60405290565b604051601f8201601f1916810167ffffffffffffffff81118282101715610f5057610f50610eea565b604052919050565b5f67ffffffffffffffff821115610f7157610f71610eea565b5060051b60200190565b5f82601f830112610f8a575f80fd5b81356020610f9f610f9a83610f58565b610f27565b8083825260208201915060208460051b870101935086841115610fc0575f80fd5b602086015b84811015610fe357610fd681610eb6565b8352918301918301610fc5565b509695505050505050565b5f601f83601f840112610fff575f80fd5b8235602061100f610f9a83610f58565b82815260059290921b8501810191818101908784111561102d575f80fd5b8287015b848110156110bd57803567ffffffffffffffff80821115611050575f80fd5b818a0191508a603f830112611063575f80fd5b8582013560408282111561107957611079610eea565b61108a828b01601f19168901610f27565b92508183528c8183860101111561109f575f80fd5b8181850189850137505f908201870152845250918301918301611031565b50979650505050505050565b5f805f606084860312156110db575f80fd5b67ffffffffffffffff80853511156110f1575f80fd5b8435850186601f820112611103575f80fd5b611110610f9a8235610f58565b81358082526020808301929160051b8401018981111561112e575f80fd5b602084015b8181101561122f578581351115611148575f80fd5b803585016060818d03601f1901121561115f575f80fd5b611167610efe565b61117360208301610eb6565b8152604082013560038110611186575f80fd5b602082015260608201358881111561119c575f80fd5b8083019250508c603f8301126111b0575f80fd5b60208201356111c1610f9a82610f58565b81815260059190911b83016040019060208101908f8311156111e1575f80fd5b6040850194505b828510156112195784356001600160e01b0319811614611206575f80fd5b84358252602094850194909101906111e8565b6040840152505085525060209384019301611133565b50909650505050602085013581811115611247575f80fd5b61125387828801610f7b565b935050604085013581811115611267575f80fd5b61127387828801610fee565b925050509250925092565b81810381811115610c2257634e487b7160e01b5f52601160045260245ffd5b634e487b7160e01b5f52603260045260245ffd5b634e487b7160e01b5f52602160045260245ffd5b5f82515f5b818110156112e457602081860181015185830152016112ca565b505f920191825250919050565b634e487b7160e01b5f52603160045260245ffd","linkReferences":{}},"methodIdentifiers":{"initialize(address)":"c4d66de8","owner()":"8da5cb5b","renounceOwnership()":"715018a6","transferOwnership(address)":"f2fde38b","upgrade((address,uint8,bytes4[])[],address[],bytes[])":"ddbb1ab9"},"id":168}