{"abi":[{"type":"function","name":"decimals","inputs":[],"outputs":[{"name":"","type":"uint8","internalType":"uint8"}],"stateMutability":"pure"},{"type":"function","name":"latestRoundData","inputs":[],"outputs":[{"name":"roundId","type":"uint80","internalType":"uint80"},{"name":"answer","type":"int256","internalType":"int256"},{"name":"startedAt","type":"uint256","internalType":"uint256"},{"name":"updatedAt","type":"uint256","internalType":"uint256"},{"name":"answeredInRound","type":"uint80","internalType":"uint80"}],"stateMutability":"pure"}],"bytecode":{"object":"0x6080604052348015600e575f80fd5b50607380601a5f395ff3fe6080604052348015600e575f80fd5b50600436106030575f3560e01c8063313ce567146034578063feaf968c146048575b5f80fd5b604051601281526020015b60405180910390f35b604080515f8082526020820181905291810182905260016060820152608081019190915260a001603f56","linkReferences":{}},"methodIdentifiers":{"decimals()":"313ce567","latestRoundData()":"feaf968c"},"id":258}