{"abi":[{"type":"constructor","inputs":[{"name":"owner","type":"address","internalType":"address"},{"name":"deployerBalance","type":"uint256","internalType":"uint256"}],"stateMutability":"nonpayable"},{"type":"function","name":"DOMAIN_SEPARATOR","inputs":[],"outputs":[{"name":"","type":"bytes32","internalType":"bytes32"}],"stateMutability":"view"},{"type":"function","name":"allowance","inputs":[{"name":"owner","type":"address","internalType":"address"},{"name":"spender","type":"address","internalType":"address"}],"outputs":[{"name":"","type":"uint256","internalType":"uint256"}],"stateMutability":"view"},{"type":"function","name":"approve","inputs":[{"name":"spender","type":"address","internalType":"address"},{"name":"value","type":"uint256","internalType":"uint256"}],"outputs":[{"name":"","type":"bool","internalType":"bool"}],"stateMutability":"nonpayable"},{"type":"function","name":"balanceOf","inputs":[{"name":"account","type":"address","internalType":"address"}],"outputs":[{"name":"","type":"uint256","internalType":"uint256"}],"stateMutability":"view"},{"type":"function","name":"burn","inputs":[{"name":"amount","type":"uint256","internalType":"uint256"}],"outputs":[],"stateMutability":"nonpayable"},{"type":"function","name":"decimals","inputs":[],"outputs":[{"name":"","type":"uint8","internalType":"uint8"}],"stateMutability":"view"},{"type":"function","name":"eip712Domain","inputs":[],"outputs":[{"name":"fields","type":"bytes1","internalType":"bytes1"},{"name":"name","type":"string","internalType":"string"},{"name":"version","type":"string","internalType":"string"},{"name":"chainId","type":"uint256","internalType":"uint256"},{"name":"verifyingContract","type":"address","internalType":"address"},{"name":"salt","type":"bytes32","internalType":"bytes32"},{"name":"extensions","type":"uint256[]","internalType":"uint256[]"}],"stateMutability":"view"},{"type":"function","name":"mint","inputs":[{"name":"to","type":"address","internalType":"address"},{"name":"amount","type":"uint256","internalType":"uint256"}],"outputs":[],"stateMutability":"nonpayable"},{"type":"function","name":"mockMint","inputs":[{"name":"to","type":"address","internalType":"address"},{"name":"amount","type":"uint256","internalType":"uint256"}],"outputs":[],"stateMutability":"nonpayable"},{"type":"function","name":"name","inputs":[],"outputs":[{"name":"","type":"string","internalType":"string"}],"stateMutability":"view"},{"type":"function","name":"nonces","inputs":[{"name":"owner","type":"address","internalType":"address"}],"outputs":[{"name":"","type":"uint256","internalType":"uint256"}],"stateMutability":"view"},{"type":"function","name":"owner","inputs":[],"outputs":[{"name":"","type":"address","internalType":"address"}],"stateMutability":"view"},{"type":"function","name":"permit","inputs":[{"name":"owner","type":"address","internalType":"address"},{"name":"spender","type":"address","internalType":"address"},{"name":"value","type":"uint256","internalType":"uint256"},{"name":"deadline","type":"uint256","internalType":"uint256"},{"name":"v","type":"uint8","internalType":"uint8"},{"name":"r","type":"bytes32","internalType":"bytes32"},{"name":"s","type":"bytes32","internalType":"bytes32"}],"outputs":[],"stateMutability":"nonpayable"},{"type":"function","name":"renounceOwnership","inputs":[],"outputs":[],"stateMutability":"nonpayable"},{"type":"function","name":"symbol","inputs":[],"outputs":[{"name":"","type":"string","internalType":"string"}],"stateMutability":"view"},{"type":"function","name":"totalSupply","inputs":[],"outputs":[{"name":"","type":"uint256","internalType":"uint256"}],"stateMutability":"view"},{"type":"function","name":"transfer","inputs":[{"name":"to","type":"address","internalType":"address"},{"name":"value","type":"uint256","internalType":"uint256"}],"outputs":[{"name":"","type":"bool","internalType":"bool"}],"stateMutability":"nonpayable"},{"type":"function","name":"transferFrom","inputs":[{"name":"from","type":"address","internalType":"address"},{"name":"to","type":"address","internalType":"address"},{"name":"value","type":"uint256","internalType":"uint256"}],"outputs":[{"name":"","type":"bool","internalType":"bool"}],"stateMutability":"nonpayable"},{"type":"function","name":"transferOwnership","inputs":[{"name":"newOwner","type":"address","internalType":"address"}],"outputs":[],"stateMutability":"nonpayable"},{"type":"event","name":"Approval","inputs":[{"name":"owner","type":"address","indexed":true,"internalType":"address"},{"name":"spender","type":"address","indexed":true,"internalType":"address"},{"name":"value","type":"uint256","indexed":false,"internalType":"uint256"}],"anonymous":false},{"type":"event","name":"EIP712DomainChanged","inputs":[],"anonymous":false},{"type":"event","name":"OwnershipTransferred","inputs":[{"name":"previousOwner","type":"address","indexed":true,"internalType":"address"},{"name":"newOwner","type":"address","indexed":true,"internalType":"address"}],"anonymous":false},{"type":"event","name":"Transfer","inputs":[{"name":"from","type":"address","indexed":true,"internalType":"address"},{"name":"to","type":"address","indexed":true,"internalType":"address"},{"name":"value","type":"uint256","indexed":false,"internalType":"uint256"}],"anonymous":false},{"type":"error","name":"ECDSAInvalidSignature","inputs":[]},{"type":"error","name":"ECDSAInvalidSignatureLength","inputs":[{"name":"length","type":"uint256","internalType":"uint256"}]},{"type":"error","name":"ECDSAInvalidSignatureS","inputs":[{"name":"s","type":"bytes32","internalType":"bytes32"}]},{"type":"error","name":"ERC20InsufficientAllowance","inputs":[{"name":"spender","type":"address","internalType":"address"},{"name":"allowance","type":"uint256","internalType":"uint256"},{"name":"needed","type":"uint256","internalType":"uint256"}]},{"type":"error","name":"ERC20InsufficientBalance","inputs":[{"name":"sender","type":"address","internalType":"address"},{"name":"balance","type":"uint256","internalType":"uint256"},{"name":"needed","type":"uint256","internalType":"uint256"}]},{"type":"error","name":"ERC20InvalidApprover","inputs":[{"name":"approver","type":"address","internalType":"address"}]},{"type":"error","name":"ERC20InvalidReceiver","inputs":[{"name":"receiver","type":"address","internalType":"address"}]},{"type":"error","name":"ERC20InvalidSender","inputs":[{"name":"sender","type":"address","internalType":"address"}]},{"type":"error","name":"ERC20InvalidSpender","inputs":[{"name":"spender","type":"address","internalType":"address"}]},{"type":"error","name":"ERC2612ExpiredSignature","inputs":[{"name":"deadline","type":"uint256","internalType":"uint256"}]},{"type":"error","name":"ERC2612InvalidSigner","inputs":[{"name":"signer","type":"address","internalType":"address"},{"name":"owner","type":"address","internalType":"address"}]},{"type":"error","name":"InvalidAccountNonce","inputs":[{"name":"account","type":"address","internalType":"address"},{"name":"currentNonce","type":"uint256","internalType":"uint256"}]},{"type":"error","name":"InvalidShortString","inputs":[]},{"type":"error","name":"OwnableInvalidOwner","inputs":[{"name":"owner","type":"address","internalType":"address"}]},{"type":"error","name":"OwnableUnauthorizedAccount","inputs":[{"name":"account","type":"address","internalType":"address"}]},{"type":"error","name":"StringTooLong","inputs":[{"name":"str","type":"string","internalType":"string"}]},{"type":"error","name":"ZeroInput","inputs":[{"name":"parameter","type":"string","internalType":"string"}]}],"bytecode":{"object":"0x610160604052348015610010575f80fd5b5060405161193538038061193583398101604081905261002f916103e7565b81806040518060400160405280600981526020016816985c9bdcc81554d160ba1b81525080604051806040016040528060018152602001603160f81b8152506040518060400160405280600981526020016816985c9bdcc81554d160ba1b815250604051806040016040528060048152602001632aa9a23d60e11b81525081600390816100bc91906104b6565b5060046100c982826104b6565b506100d9915083905060056101c9565b610120526100e88160066101c9565b61014052815160208084019190912060e052815190820120610100524660a05261017460e05161010051604080517f8b73c3c69bb8fe3d512ecc4cf759cc79239f7b179b0ffacaa9a75d522b39400f60208201529081019290925260608201524660808201523060a08201525f9060c00160405160208183030381529060405280519060200120905090565b60805250503060c052506001600160a01b0381166101ac57604051631e4fbdf760e01b81525f60048201526024015b60405180910390fd5b6101b5816101fb565b506101c29050828261024c565b5050610603565b5f6020835110156101e4576101dd83610284565b90506101f5565b816101ef84826104b6565b5060ff90505b92915050565b600880546001600160a01b038381166001600160a01b0319831681179093556040519116919082907f8be0079c531659141344cd1fd0a4f28419497f9722a3daafe3b4186f6b6457e0905f90a35050565b6001600160a01b0382166102755760405163ec442f0560e01b81525f60048201526024016101a3565b6102805f83836102c1565b5050565b5f80829050601f815111156102ae578260405163305a27a960e01b81526004016101a39190610575565b80516102b9826105c1565b179392505050565b6001600160a01b0383166102eb578060025f8282546102e091906105e4565b9091555061035b9050565b6001600160a01b0383165f908152602081905260409020548181101561033d5760405163391434e360e21b81526001600160a01b038516600482015260248101829052604481018390526064016101a3565b6001600160a01b0384165f9081526020819052604090209082900390555b6001600160a01b03821661037757600280548290039055610395565b6001600160a01b0382165f9081526020819052604090208054820190555b816001600160a01b0316836001600160a01b03167fddf252ad1be2c89b69c2b068fc378daa952ba7f163c4a11628f55a4df523b3ef836040516103da91815260200190565b60405180910390a3505050565b5f80604083850312156103f8575f80fd5b82516001600160a01b038116811461040e575f80fd5b6020939093015192949293505050565b634e487b7160e01b5f52604160045260245ffd5b600181811c9082168061044657607f821691505b60208210810361046457634e487b7160e01b5f52602260045260245ffd5b50919050565b601f8211156104b157805f5260205f20601f840160051c8101602085101561048f5750805b601f840160051c820191505b818110156104ae575f815560010161049b565b50505b505050565b81516001600160401b038111156104cf576104cf61041e565b6104e3816104dd8454610432565b8461046a565b602080601f831160018114610516575f84156104ff5750858301515b5f19600386901b1c1916600185901b17855561056d565b5f85815260208120601f198616915b8281101561054457888601518255948401946001909101908401610525565b508582101561056157878501515f19600388901b60f8161c191681555b505060018460011b0185555b505050505050565b5f602080835283518060208501525f5b818110156105a157858101830151858201604001528201610585565b505f604082860101526040601f19601f8301168501019250505092915050565b80516020808301519190811015610464575f1960209190910360031b1b16919050565b808201808211156101f557634e487b7160e01b5f52601160045260245ffd5b60805160a05160c05160e0516101005161012051610140516112e16106545f395f610a5001525f610a2301525f61084c01525f61082401525f61077f01525f6107a901525f6107d301526112e15ff3fe608060405234801561000f575f80fd5b5060043610610149575f3560e01c806370a08231116100c757806395d89b411161007d578063d505accf11610063578063d505accf14610299578063dd62ed3e146102ac578063f2fde38b146102e4575f80fd5b806395d89b411461027e578063a9059cbb14610286575f80fd5b80637ecebe00116100ad5780637ecebe001461023557806384b0196e146102485780638da5cb5b14610263575f80fd5b806370a0823114610205578063715018a61461022d575f80fd5b8063313ce5671161011c578063378934b411610102578063378934b4146101ca57806340c10f19146101df57806342966c68146101f2575f80fd5b8063313ce567146101b35780633644e515146101c2575f80fd5b806306fdde031461014d578063095ea7b31461016b57806318160ddd1461018e57806323b872dd146101a0575b5f80fd5b6101556102f7565b6040516101629190611060565b60405180910390f35b61017e610179366004611094565b610387565b6040519015158152602001610162565b6002545b604051908152602001610162565b61017e6101ae3660046110bc565b6103a0565b60405160128152602001610162565b6101926103c3565b6101dd6101d8366004611094565b6103d1565b005b6101dd6101ed366004611094565b6103df565b6101dd6102003660046110f5565b6103f0565b61019261021336600461110c565b6001600160a01b03165f9081526020819052604090205490565b6101dd610406565b61019261024336600461110c565b610419565b610250610436565b6040516101629796959493929190611125565b6008546040516001600160a01b039091168152602001610162565b610155610494565b61017e610294366004611094565b6104a3565b6101dd6102a73660046111d8565b6104b0565b6101926102ba366004611245565b6001600160a01b039182165f90815260016020908152604080832093909416825291909152205490565b6101dd6102f236600461110c565b61061d565b60606003805461030690611276565b80601f016020809104026020016040519081016040528092919081815260200182805461033290611276565b801561037d5780601f106103545761010080835404028352916020019161037d565b820191905f5260205f20905b81548152906001019060200180831161036057829003601f168201915b5050505050905090565b5f33610394818585610670565b60019150505b92915050565b5f336103ad858285610682565b6103b8858585610716565b506001949350505050565b5f6103cc610773565b905090565b6103db828261089c565b5050565b6103e76108d0565b6103d181610916565b6103f981610916565b610403338261097f565b50565b61040e6108d0565b6104175f6109b3565b565b6001600160a01b0381165f9081526007602052604081205461039a565b5f6060805f805f6060610447610a1c565b61044f610a49565b604080515f808252602082019092527f0f000000000000000000000000000000000000000000000000000000000000009b939a50919850469750309650945092509050565b60606004805461030690611276565b5f33610394818585610716565b834211156104f2576040517f62791302000000000000000000000000000000000000000000000000000000008152600481018590526024015b60405180910390fd5b5f7f6e71edae12b1b97f4d1f60370fef10105fa2faae0126114a169c64845d6126c988888861053d8c6001600160a01b03165f90815260076020526040902080546001810190915590565b6040805160208101969096526001600160a01b0394851690860152929091166060840152608083015260a082015260c0810186905260e0016040516020818303038152906040528051906020012090505f61059782610a76565b90505f6105a682878787610abd565b9050896001600160a01b0316816001600160a01b031614610606576040517f4b800e460000000000000000000000000000000000000000000000000000000081526001600160a01b0380831660048301528b1660248201526044016104e9565b6106118a8a8a610670565b50505050505050505050565b6106256108d0565b6001600160a01b038116610667576040517f1e4fbdf70000000000000000000000000000000000000000000000000000000081525f60048201526024016104e9565b610403816109b3565b61067d8383836001610ae9565b505050565b6001600160a01b038381165f908152600160209081526040808320938616835292905220545f1981146107105781811015610702576040517ffb8f41b20000000000000000000000000000000000000000000000000000000081526001600160a01b038416600482015260248101829052604481018390526064016104e9565b61071084848484035f610ae9565b50505050565b6001600160a01b03831661073f57604051634b637e8f60e11b81525f60048201526024016104e9565b6001600160a01b0382166107685760405163ec442f0560e01b81525f60048201526024016104e9565b61067d838383610bed565b5f306001600160a01b037f0000000000000000000000000000000000000000000000000000000000000000161480156107cb57507f000000000000000000000000000000000000000000000000000000000000000046145b156107f557507f000000000000000000000000000000000000000000000000000000000000000090565b6103cc604080517f8b73c3c69bb8fe3d512ecc4cf759cc79239f7b179b0ffacaa9a75d522b39400f60208201527f0000000000000000000000000000000000000000000000000000000000000000918101919091527f000000000000000000000000000000000000000000000000000000000000000060608201524660808201523060a08201525f9060c00160405160208183030381529060405280519060200120905090565b6001600160a01b0382166108c55760405163ec442f0560e01b81525f60048201526024016104e9565b6103db5f8383610bed565b6008546001600160a01b03163314610417576040517f118cdaa70000000000000000000000000000000000000000000000000000000081523360048201526024016104e9565b805f03610403576040517f525560be00000000000000000000000000000000000000000000000000000000815260206004820152600660248201527f616d6f756e74000000000000000000000000000000000000000000000000000060448201526064016104e9565b6001600160a01b0382166109a857604051634b637e8f60e11b81525f60048201526024016104e9565b6103db825f83610bed565b600880546001600160a01b038381167fffffffffffffffffffffffff0000000000000000000000000000000000000000831681179093556040519116919082907f8be0079c531659141344cd1fd0a4f28419497f9722a3daafe3b4186f6b6457e0905f90a35050565b60606103cc7f00000000000000000000000000000000000000000000000000000000000000006005610d2c565b60606103cc7f00000000000000000000000000000000000000000000000000000000000000006006610d2c565b5f61039a610a82610773565b836040517f19010000000000000000000000000000000000000000000000000000000000008152600281019290925260228201526042902090565b5f805f80610acd88888888610dd5565b925092509250610add8282610e9d565b50909695505050505050565b6001600160a01b038416610b2b576040517fe602df050000000000000000000000000000000000000000000000000000000081525f60048201526024016104e9565b6001600160a01b038316610b6d576040517f94280d620000000000000000000000000000000000000000000000000000000081525f60048201526024016104e9565b6001600160a01b038085165f908152600160209081526040808320938716835292905220829055801561071057826001600160a01b0316846001600160a01b03167f8c5be1e5ebec7d5bd14f71427d1e84f3dd0314c0f7b2291e5b200ac8c7c3b92584604051610bdf91815260200190565b60405180910390a350505050565b6001600160a01b038316610c17578060025f828254610c0c91906112ae565b90915550610ca09050565b6001600160a01b0383165f9081526020819052604090205481811015610c82576040517fe450d38c0000000000000000000000000000000000000000000000000000000081526001600160a01b038516600482015260248101829052604481018390526064016104e9565b6001600160a01b0384165f9081526020819052604090209082900390555b6001600160a01b038216610cbc57600280548290039055610cda565b6001600160a01b0382165f9081526020819052604090208054820190555b816001600160a01b0316836001600160a01b03167fddf252ad1be2c89b69c2b068fc378daa952ba7f163c4a11628f55a4df523b3ef83604051610d1f91815260200190565b60405180910390a3505050565b606060ff8314610d4657610d3f83610fa0565b905061039a565b818054610d5290611276565b80601f0160208091040260200160405190810160405280929190818152602001828054610d7e90611276565b8015610dc95780601f10610da057610100808354040283529160200191610dc9565b820191905f5260205f20905b815481529060010190602001808311610dac57829003601f168201915b5050505050905061039a565b5f80807f7fffffffffffffffffffffffffffffff5d576e7357a4501ddfe92f46681b20a0841115610e0e57505f91506003905082610e93565b604080515f808252602082018084528a905260ff891692820192909252606081018790526080810186905260019060a0016020604051602081039080840390855afa158015610e5f573d5f803e3d5ffd5b5050604051601f1901519150506001600160a01b038116610e8a57505f925060019150829050610e93565b92505f91508190505b9450945094915050565b5f826003811115610eb057610eb06112cd565b03610eb9575050565b6001826003811115610ecd57610ecd6112cd565b03610f04576040517ff645eedf00000000000000000000000000000000000000000000000000000000815260040160405180910390fd5b6002826003811115610f1857610f186112cd565b03610f52576040517ffce698f7000000000000000000000000000000000000000000000000000000008152600481018290526024016104e9565b6003826003811115610f6657610f666112cd565b036103db576040517fd78bce0c000000000000000000000000000000000000000000000000000000008152600481018290526024016104e9565b60605f610fac83610fdd565b6040805160208082528183019092529192505f91906020820181803683375050509182525060208101929092525090565b5f60ff8216601f81111561039a576040517fb3512b0c00000000000000000000000000000000000000000000000000000000815260040160405180910390fd5b5f81518084525f5b8181101561104157602081850181015186830182015201611025565b505f602082860101526020601f19601f83011685010191505092915050565b602081525f611072602083018461101d565b9392505050565b80356001600160a01b038116811461108f575f80fd5b919050565b5f80604083850312156110a5575f80fd5b6110ae83611079565b946020939093013593505050565b5f805f606084860312156110ce575f80fd5b6110d784611079565b92506110e560208501611079565b9150604084013590509250925092565b5f60208284031215611105575f80fd5b5035919050565b5f6020828403121561111c575f80fd5b61107282611079565b7fff00000000000000000000000000000000000000000000000000000000000000881681525f602060e0602084015261116160e084018a61101d565b8381036040850152611173818a61101d565b606085018990526001600160a01b038816608086015260a0850187905284810360c0860152855180825260208088019350909101905f5b818110156111c6578351835292840192918401916001016111aa565b50909c9b505050505050505050505050565b5f805f805f805f60e0888a0312156111ee575f80fd5b6111f788611079565b965061120560208901611079565b95506040880135945060608801359350608088013560ff81168114611228575f80fd5b9699959850939692959460a0840135945060c09093013592915050565b5f8060408385031215611256575f80fd5b61125f83611079565b915061126d60208401611079565b90509250929050565b600181811c9082168061128a57607f821691505b6020821081036112a857634e487b7160e01b5f52602260045260245ffd5b50919050565b8082018082111561039a57634e487b7160e01b5f52601160045260245ffd5b634e487b7160e01b5f52602160045260245ffd","linkReferences":{}},"methodIdentifiers":{"DOMAIN_SEPARATOR()":"3644e515","allowance(address,address)":"dd62ed3e","approve(address,uint256)":"095ea7b3","balanceOf(address)":"70a08231","burn(uint256)":"42966c68","decimals()":"313ce567","eip712Domain()":"84b0196e","mint(address,uint256)":"40c10f19","mockMint(address,uint256)":"378934b4","name()":"06fdde03","nonces(address)":"7ecebe00","owner()":"8da5cb5b","permit(address,address,uint256,uint256,uint8,bytes32,bytes32)":"d505accf","renounceOwnership()":"715018a6","symbol()":"95d89b41","totalSupply()":"18160ddd","transfer(address,uint256)":"a9059cbb","transferFrom(address,address,uint256)":"23b872dd","transferOwnership(address)":"f2fde38b"},"id":264}