{"abi":[{"type":"function","name":"exposed_addMarket","inputs":[{"name":"marketId","type":"uint128","internalType":"uint128"}],"outputs":[],"stateMutability":"nonpayable"},{"type":"function","name":"exposed_checkMarketIsEnabled","inputs":[{"name":"marketId","type":"uint128","internalType":"uint128"}],"outputs":[],"stateMutability":"view"},{"type":"function","name":"exposed_configureCollateralLiquidationPriority","inputs":[{"name":"collateralTokens","type":"address[]","internalType":"address[]"}],"outputs":[],"stateMutability":"nonpayable"},{"type":"function","name":"exposed_removeCollateralFromLiquidationPriority","inputs":[{"name":"collateralToken","type":"address","internalType":"address"}],"outputs":[],"stateMutability":"nonpayable"},{"type":"function","name":"exposed_removeMarket","inputs":[{"name":"marketId","type":"uint128","internalType":"uint128"}],"outputs":[],"stateMutability":"nonpayable"},{"type":"function","name":"workaround_getAccountIdWithActivePositions","inputs":[{"name":"index","type":"uint128","internalType":"uint128"}],"outputs":[{"name":"","type":"uint128","internalType":"uint128"}],"stateMutability":"view"},{"type":"function","name":"workaround_getAccountsIdsWithActivePositionsLength","inputs":[],"outputs":[{"name":"","type":"uint256","internalType":"uint256"}],"stateMutability":"view"},{"type":"function","name":"workaround_getCollateralLiquidationPriority","inputs":[],"outputs":[{"name":"","type":"address[]","internalType":"address[]"}],"stateMutability":"view"},{"type":"function","name":"workaround_getSequencerUptimeFeedByChainId","inputs":[{"name":"chainId","type":"uint256","internalType":"uint256"}],"outputs":[{"name":"","type":"address","internalType":"address"}],"stateMutability":"view"},{"type":"function","name":"workaround_getTradingAccountToken","inputs":[],"outputs":[{"name":"","type":"address","internalType":"address"}],"stateMutability":"view"},{"type":"function","name":"workaround_getUsdToken","inputs":[],"outputs":[{"name":"","type":"address","internalType":"address"}],"stateMutability":"view"},{"type":"error","name":"MarginCollateralAlreadyInPriority","inputs":[{"name":"collateralType","type":"address","internalType":"address"}]},{"type":"error","name":"MarginCollateralTypeNotInPriority","inputs":[{"name":"collateralType","type":"address","internalType":"address"}]},{"type":"error","name":"PerpMarketAlreadyDisabled","inputs":[{"name":"marketId","type":"uint128","internalType":"uint128"}]},{"type":"error","name":"PerpMarketAlreadyEnabled","inputs":[{"name":"marketId","type":"uint128","internalType":"uint128"}]},{"type":"error","name":"PerpMarketDisabled","inputs":[{"name":"marketId","type":"uint128","internalType":"uint128"}]},{"type":"error","name":"ZeroInput","inputs":[{"name":"parameter","type":"string","internalType":"string"}]}],"bytecode":{"object":"0x6080604052348015600e575f80fd5b50610c298061001c5f395ff3fe608060405234801561000f575f80fd5b50600436106100c4575f3560e01c806359aebb5f1161007d578063f055b81411610058578063f055b81414610186578063f986e8ba14610199578063fc8ef90e146101ac575f80fd5b806359aebb5f1461015557806375a44d021461016b578063db44ae7e1461017e575f80fd5b806336fc859a116100ad57806336fc859a14610102578063388fff6714610117578063401f3aca14610142575f80fd5b806307a400c1146100c85780632f661a91146100ed575b5f80fd5b6100d06101bf565b6040516001600160a01b0390911681526020015b60405180910390f35b6100f56101dc565b6040516100e49190610a31565b610115610110366004610a7d565b61028f565b005b61012a610125366004610a7d565b6102a8565b6040516001600160801b0390911681526020016100e4565b6100d0610150366004610aa3565b6102d1565b61015d6102f8565b6040519081526020016100e4565b610115610179366004610ad5565b610316565b6100d061032b565b610115610194366004610b02565b610348565b6101156101a7366004610a7d565b61035d565b6101156101ba366004610a7d565b610372565b5f806101c9610387565b600701546001600160a01b031692915050565b60605f6101e7610387565b90505f6101f682600b016103e8565b90505f8167ffffffffffffffff81111561021257610212610aee565b60405190808252806020026020018201604052801561023b578160200160208202803683370190505b5090505f5b8281101561028757610255600b8501826103f7565b82828151811061026757610267610bc2565b6001600160a01b0390921660209283029190910190910152600101610240565b509392505050565b5f610298610387565b90506102a48183610402565b5050565b5f806102b2610387565b90506102ca600f82016001600160801b0385166103f7565b9392505050565b5f806102db610387565b5f938452601101602052505060409020546001600160a01b031690565b5f80610302610387565b905061031081600f016103e8565b91505090565b5f61031f610387565b90506102a48183610467565b5f80610335610387565b600601546001600160a01b031692915050565b5f610351610387565b90506102a48183610612565b5f610366610387565b90506102a4818361074f565b5f61037b610387565b90506102a481836107aa565b5f8060ff196103b760017feeb5cd774bc9c6845792a7b59ceb11c49cb99339b2df9604c51808d2eb250cc2610bea565b6040516020016103c991815260200190565b60408051601f1981840301815291905280516020909101201692915050565b5f6103f1825490565b92915050565b5f6102ca8383610801565b5f610419600d84016001600160801b038416610827565b905080610462576040517fc9ff72970000000000000000000000000000000000000000000000000000000081526001600160801b03831660048201526024015b60405180910390fd5b505050565b5f610475600b840183610832565b9050806104b9576040517fb8c194470000000000000000000000000000000000000000000000000000000081526001600160a01b0383166004820152602401610459565b5f6104c684600b01610853565b80519091505f6104d7600183610bea565b67ffffffffffffffff8111156104ef576104ef610aee565b604051908082528060200260200182016040528015610518578160200160208202803683370190505b5090505f805b838110156105bb575f85828151811061053957610539610bc2565b60200260200101519050610559818a600b0161085f90919063ffffffff16565b50876001600160a01b0316816001600160a01b03160361057957506105b3565b8084848151811061058c5761058c610bc2565b6001600160a01b0390921660209283029190910190910152826105ae81610bfd565b935050505b60010161051e565b505f5b6105c9600185610bea565b811015610608576105ff8382815181106105e5576105e5610bc2565b602002602001015189600b0161087390919063ffffffff16565b506001016105be565b5050505050505050565b80515f5b81811015610749575f6001600160a01b031683828151811061063a5761063a610bc2565b60200260200101516001600160a01b0316036106b2576040517f525560be00000000000000000000000000000000000000000000000000000000815260206004820152600e60248201527f636f6c6c61746572616c547970650000000000000000000000000000000000006044820152606401610459565b6106e18382815181106106c7576106c7610bc2565b602002602001015185600b0161087390919063ffffffff16565b610741578281815181106106f7576106f7610bc2565b60200260200101516040517f889e9e6a00000000000000000000000000000000000000000000000000000000815260040161045991906001600160a01b0391909116815260200190565b600101610616565b50505050565b5f610766600d84016001600160801b038416610887565b905080610462576040517f056891470000000000000000000000000000000000000000000000000000000081526001600160801b0383166004820152602401610459565b6107c0600d83016001600160801b038316610892565b6102a4576040517f10aaa5560000000000000000000000000000000000000000000000000000000081526001600160801b0382166004820152602401610459565b5f825f01828154811061081657610816610bc2565b905f5260205f200154905092915050565b5f6102ca83836108a9565b6001600160a01b0381165f90815260018301602052604081205415156102ca565b60605f6102ca8361098c565b5f6102ca836001600160a01b0384166108a9565b5f6102ca836001600160a01b0384166109e5565b5f6102ca83836109e5565b5f81815260018301602052604081205415156102ca565b5f8181526001830160205260408120548015610983575f6108cb600183610bea565b85549091505f906108de90600190610bea565b905080821461093d575f865f0182815481106108fc576108fc610bc2565b905f5260205f200154905080875f01848154811061091c5761091c610bc2565b5f918252602080832090910192909255918252600188019052604090208390555b855486908061094e5761094e610c15565b600190038181905f5260205f20015f90559055856001015f8681526020019081526020015f205f9055600193505050506103f1565b5f9150506103f1565b6060815f018054806020026020016040519081016040528092919081815260200182805480156109d957602002820191905f5260205f20905b8154815260200190600101908083116109c5575b50505050509050919050565b5f818152600183016020526040812054610a2a57508154600181810184555f8481526020808220909301849055845484825282860190935260409020919091556103f1565b505f6103f1565b602080825282518282018190525f9190848201906040850190845b81811015610a715783516001600160a01b031683529284019291840191600101610a4c565b50909695505050505050565b5f60208284031215610a8d575f80fd5b81356001600160801b03811681146102ca575f80fd5b5f60208284031215610ab3575f80fd5b5035919050565b80356001600160a01b0381168114610ad0575f80fd5b919050565b5f60208284031215610ae5575f80fd5b6102ca82610aba565b634e487b7160e01b5f52604160045260245ffd5b5f6020808385031215610b13575f80fd5b823567ffffffffffffffff80821115610b2a575f80fd5b818501915085601f830112610b3d575f80fd5b813581811115610b4f57610b4f610aee565b8060051b604051601f19603f83011681018181108582111715610b7457610b74610aee565b604052918252848201925083810185019188831115610b91575f80fd5b938501935b82851015610bb657610ba785610aba565b84529385019392850192610b96565b98975050505050505050565b634e487b7160e01b5f52603260045260245ffd5b634e487b7160e01b5f52601160045260245ffd5b818103818111156103f1576103f1610bd6565b5f60018201610c0e57610c0e610bd6565b5060010190565b634e487b7160e01b5f52603160045260245ffd","linkReferences":{}},"methodIdentifiers":{"exposed_addMarket(uint128)":"f986e8ba","exposed_checkMarketIsEnabled(uint128)":"fc8ef90e","exposed_configureCollateralLiquidationPriority(address[])":"f055b814","exposed_removeCollateralFromLiquidationPriority(address)":"75a44d02","exposed_removeMarket(uint128)":"36fc859a","workaround_getAccountIdWithActivePositions(uint128)":"388fff67","workaround_getAccountsIdsWithActivePositionsLength()":"59aebb5f","workaround_getCollateralLiquidationPriority()":"2f661a91","workaround_getSequencerUptimeFeedByChainId(uint256)":"401f3aca","workaround_getTradingAccountToken()":"07a400c1","workaround_getUsdToken()":"db44ae7e"},"id":177}