{"abi":[{"type":"constructor","inputs":[{"name":"feeManager","type":"address","internalType":"contract IFeeManager"}],"stateMutability":"nonpayable"},{"type":"function","name":"s_feeManager","inputs":[],"outputs":[{"name":"","type":"address","internalType":"contract IFeeManager"}],"stateMutability":"view"},{"type":"function","name":"verify","inputs":[{"name":"payload","type":"bytes","internalType":"bytes"},{"name":"","type":"bytes","internalType":"bytes"}],"outputs":[{"name":"verifierResponse","type":"bytes","internalType":"bytes"}],"stateMutability":"payable"}],"bytecode":{"object":"0x60a0604052348015600e575f80fd5b5060405161038d38038061038d833981016040819052602b91603b565b6001600160a01b03166080526066565b5f60208284031215604a575f80fd5b81516001600160a01b0381168114605f575f80fd5b9392505050565b60805161031061007d5f395f603d01526103105ff3fe608060405260043610610028575f3560e01c806338416b5b1461002c578063f7e83aee14610089575b5f80fd5b348015610037575f80fd5b5061005f7f000000000000000000000000000000000000000000000000000000000000000081565b60405173ffffffffffffffffffffffffffffffffffffffff90911681526020015b60405180910390f35b61009c610097366004610108565b6100a9565b604051610080919061016f565b60605f6100b885870187610271565b979650505050505050565b5f8083601f8401126100d3575f80fd5b50813567ffffffffffffffff8111156100ea575f80fd5b602083019150836020828501011115610101575f80fd5b9250929050565b5f805f806040858703121561011b575f80fd5b843567ffffffffffffffff80821115610132575f80fd5b61013e888389016100c3565b90965094506020870135915080821115610156575f80fd5b50610163878288016100c3565b95989497509550505050565b5f602080835283518060208501525f5b8181101561019b5785810183015185820160400152820161017f565b505f604082860101526040601f19601f8301168501019250505092915050565b7f4e487b71000000000000000000000000000000000000000000000000000000005f52604160045260245ffd5b5f82601f8301126101f7575f80fd5b813567ffffffffffffffff80821115610212576102126101bb565b604051601f8301601f19908116603f0116810190828211818310171561023a5761023a6101bb565b81604052838152866020858801011115610252575f80fd5b836020870160208301375f602085830101528094505050505092915050565b5f8060808385031215610282575f80fd5b83601f840112610290575f80fd5b6040516060810167ffffffffffffffff82821081831117156102b4576102b46101bb565b8160405282915060608601878111156102cb575f80fd5b865b818110156102e55780358452602093840193016102cd565b50929450913591808311156102f8575f80fd5b5050610306858286016101e8565b915050925092905056","linkReferences":{}},"methodIdentifiers":{"s_feeManager()":"38416b5b","verify(bytes,bytes)":"f7e83aee"},"id":253}