{"abi":[{"type":"function","name":"exposed_update","inputs":[{"name":"marketId","type":"uint128","internalType":"uint128"},{"name":"params","type":"tuple","internalType":"struct MarketConfiguration.Data","components":[{"name":"name","type":"string","internalType":"string"},{"name":"symbol","type":"string","internalType":"string"},{"name":"priceAdapter","type":"address","internalType":"address"},{"name":"initialMarginRateX18","type":"uint128","internalType":"uint128"},{"name":"maintenanceMarginRateX18","type":"uint128","internalType":"uint128"},{"name":"maxOpenInterest","type":"uint128","internalType":"uint128"},{"name":"maxSkew","type":"uint128","internalType":"uint128"},{"name":"maxFundingVelocity","type":"uint128","internalType":"uint128"},{"name":"minTradeSizeX18","type":"uint128","internalType":"uint128"},{"name":"skewScale","type":"uint256","internalType":"uint256"},{"name":"orderFees","type":"tuple","internalType":"struct OrderFees.Data","components":[{"name":"makerFee","type":"uint128","internalType":"uint128"},{"name":"takerFee","type":"uint128","internalType":"uint128"}]},{"name":"priceFeedHeartbeatSeconds","type":"uint32","internalType":"uint32"}]}],"outputs":[],"stateMutability":"nonpayable"}],"bytecode":{"object":"0x6080604052348015600e575f80fd5b506106ff8061001c5f395ff3fe608060405234801561000f575f80fd5b5060043610610029575f3560e01c8063b9d42e411461002d575b5f80fd5b61004061003b366004610448565b610042565b005b5f61004c8361013b565b90505f81600601905061013581604051806101800160405280865f0151815260200186602001518152602001866040015173ffffffffffffffffffffffffffffffffffffffff16815260200186606001516001600160801b0316815260200186608001516001600160801b031681526020018660a001516001600160801b031681526020018660c001516001600160801b031681526020018660e001516001600160801b031681526020018661010001516001600160801b031681526020018661012001518152602001866101400151815260200186610160015163ffffffff168152506101d7565b50505050565b5f8060ff1961016b60017f7391160f00c346d035658daa8a3c1eb1fa2f98b67b37275a9487390ac54b119f610596565b60405160200161017d91815260200190565b6040516020818303038152906040528051906020012016836040516020016101b89291909182526001600160801b0316602082015260400190565b60408051601f1981840301815291905280516020909101209392505050565b805182906101e5908261063f565b50602081015160018301906101fa908261063f565b5060408101516002830180547fffffffffffffffffffffffff00000000000000000000000000000000000000001673ffffffffffffffffffffffffffffffffffffffff909216919091179055606081015160808201516001600160801b03918216700100000000000000000000000000000000918316820217600385015560a083015160c0840151908316908316820217600485015560e083015161010084015190831690831682021760058501556101208301516006850155610140909201518051602090910151908216911690910217600790910155565b80356001600160801b03811681146102ea575f80fd5b919050565b634e487b7160e01b5f52604160045260245ffd5b604051610180810167ffffffffffffffff81118282101715610327576103276102ef565b60405290565b5f82601f83011261033c575f80fd5b813567ffffffffffffffff80821115610357576103576102ef565b604051601f8301601f19908116603f0116810190828211818310171561037f5761037f6102ef565b81604052838152866020858801011115610397575f80fd5b836020870160208301375f602085830101528094505050505092915050565b803573ffffffffffffffffffffffffffffffffffffffff811681146102ea575f80fd5b5f604082840312156103e9575f80fd5b6040516040810181811067ffffffffffffffff8211171561040c5761040c6102ef565b60405290508061041b836102d4565b8152610429602084016102d4565b60208201525092915050565b803563ffffffff811681146102ea575f80fd5b5f8060408385031215610459575f80fd5b610462836102d4565b9150602083013567ffffffffffffffff8082111561047e575f80fd5b908401906101a08287031215610492575f80fd5b61049a610303565b8235828111156104a8575f80fd5b6104b48882860161032d565b8252506020830135828111156104c8575f80fd5b6104d48882860161032d565b6020830152506104e6604084016103b6565b60408201526104f7606084016102d4565b6060820152610508608084016102d4565b608082015261051960a084016102d4565b60a082015261052a60c084016102d4565b60c082015261053b60e084016102d4565b60e082015261010091506105508284016102d4565b82820152610120915081830135828201526101409150610572878385016103d9565b828201526105836101808401610435565b6101608201528093505050509250929050565b818103818111156105b557634e487b7160e01b5f52601160045260245ffd5b92915050565b600181811c908216806105cf57607f821691505b6020821081036105ed57634e487b7160e01b5f52602260045260245ffd5b50919050565b601f82111561063a57805f5260205f20601f840160051c810160208510156106185750805b601f840160051c820191505b81811015610637575f8155600101610624565b50505b505050565b815167ffffffffffffffff811115610659576106596102ef565b61066d8161066784546105bb565b846105f3565b602080601f8311600181146106a0575f84156106895750858301515b5f19600386901b1c1916600185901b1785556106f7565b5f85815260208120601f198616915b828110156106ce578886015182559484019460019091019084016106af565b50858210156106eb57878501515f19600388901b60f8161c191681555b505060018460011b0185555b50505050505056","linkReferences":{}},"methodIdentifiers":{"exposed_update(uint128,(string,string,address,uint128,uint128,uint128,uint128,uint128,uint128,uint256,(uint128,uint128),uint32))":"b9d42e41"},"id":179}