{"abi":[{"type":"function","name":"decimals","inputs":[],"outputs":[{"name":"","type":"uint8","internalType":"uint8"}],"stateMutability":"pure"},{"type":"function","name":"latestRoundData","inputs":[],"outputs":[],"stateMutability":"pure"}],"bytecode":{"object":"0x6080604052348015600e575f80fd5b50605080601a5f395ff3fe6080604052348015600e575f80fd5b50600436106030575f3560e01c8063313ce567146034578063feaf968c146048575b5f80fd5b604080516012815290519081900360200190f35b604e5f80fd5b00","linkReferences":{}},"deployedBytecode":{"object":"0x6080604052348015600e575f80fd5b50600436106030575f3560e01c8063313ce567146034578063feaf968c146048575b5f80fd5b604080516012815290519081900360200190f35b604e5f80fd5b00","linkReferences":{}},"methodIdentifiers":{"decimals()":"313ce567","latestRoundData()":"feaf968c"},"id":259}