{"abi":[{"type":"function","name":"cancelAllOffchainOrders","inputs":[{"name":"tradingAccountId","type":"uint128","internalType":"uint128"}],"outputs":[],"stateMutability":"nonpayable"},{"type":"function","name":"cancelMarketOrder","inputs":[{"name":"tradingAccountId","type":"uint128","internalType":"uint128"}],"outputs":[],"stateMutability":"nonpayable"},{"type":"function","name":"createMarketOrder","inputs":[{"name":"params","type":"tuple","internalType":"struct OrderBranch.CreateMarketOrderParams","components":[{"name":"tradingAccountId","type":"uint128","internalType":"uint128"},{"name":"marketId","type":"uint128","internalType":"uint128"},{"name":"sizeDelta","type":"int128","internalType":"int128"}]}],"outputs":[],"stateMutability":"nonpayable"},{"type":"function","name":"getActiveMarketOrder","inputs":[{"name":"tradingAccountId","type":"uint128","internalType":"uint128"}],"outputs":[{"name":"marketOrder","type":"tuple","internalType":"struct MarketOrder.Data","components":[{"name":"marketId","type":"uint128","internalType":"uint128"},{"name":"sizeDelta","type":"int128","internalType":"int128"},{"name":"timestamp","type":"uint128","internalType":"uint128"}]}],"stateMutability":"pure"},{"type":"function","name":"getConfiguredOrderFees","inputs":[{"name":"marketId","type":"uint128","internalType":"uint128"}],"outputs":[{"name":"","type":"tuple","internalType":"struct OrderFees.Data","components":[{"name":"makerFee","type":"uint128","internalType":"uint128"},{"name":"takerFee","type":"uint128","internalType":"uint128"}]}],"stateMutability":"view"},{"type":"function","name":"getMarginRequirementForTrade","inputs":[{"name":"marketId","type":"uint128","internalType":"uint128"},{"name":"sizeDelta","type":"int128","internalType":"int128"},{"name":"settlementConfigurationId","type":"uint128","internalType":"uint128"}],"outputs":[{"name":"initialMarginUsdX18","type":"uint256","internalType":"UD60x18"},{"name":"maintenanceMarginUsdX18","type":"uint256","internalType":"UD60x18"},{"name":"orderFeeUsdX18","type":"uint256","internalType":"UD60x18"},{"name":"settlementFeeUsdX18","type":"uint256","internalType":"UD60x18"}],"stateMutability":"view"},{"type":"function","name":"simulateTrade","inputs":[{"name":"tradingAccountId","type":"uint128","internalType":"uint128"},{"name":"marketId","type":"uint128","internalType":"uint128"},{"name":"settlementConfigurationId","type":"uint128","internalType":"uint128"},{"name":"sizeDelta","type":"int128","internalType":"int128"}],"outputs":[{"name":"marginBalanceUsdX18","type":"int256","internalType":"SD59x18"},{"name":"requiredInitialMarginUsdX18","type":"uint256","internalType":"UD60x18"},{"name":"requiredMaintenanceMarginUsdX18","type":"uint256","internalType":"UD60x18"},{"name":"orderFeeUsdX18","type":"uint256","internalType":"UD60x18"},{"name":"settlementFeeUsdX18","type":"uint256","internalType":"UD60x18"},{"name":"fillPriceX18","type":"uint256","internalType":"UD60x18"}],"stateMutability":"view"},{"type":"event","name":"LogCancelAllOffchainOrders","inputs":[{"name":"sender","type":"address","indexed":true,"internalType":"address"},{"name":"tradingAccountId","type":"uint128","indexed":true,"internalType":"uint128"},{"name":"newNonce","type":"uint128","indexed":false,"internalType":"uint128"}],"anonymous":false},{"type":"event","name":"LogCancelMarketOrder","inputs":[{"name":"sender","type":"address","indexed":true,"internalType":"address"},{"name":"tradingAccountId","type":"uint128","indexed":true,"internalType":"uint128"}],"anonymous":false},{"type":"event","name":"LogCreateMarketOrder","inputs":[{"name":"sender","type":"address","indexed":true,"internalType":"address"},{"name":"tradingAccountId","type":"uint128","indexed":true,"internalType":"uint128"},{"name":"marketId","type":"uint128","indexed":true,"internalType":"uint128"},{"name":"marketOrder","type":"tuple","indexed":false,"internalType":"struct MarketOrder.Data","components":[{"name":"marketId","type":"uint128","internalType":"uint128"},{"name":"sizeDelta","type":"int128","internalType":"int128"},{"name":"timestamp","type":"uint128","internalType":"uint128"}]}],"anonymous":false},{"type":"error","name":"AccountIsLiquidatable","inputs":[{"name":"tradingAccountId","type":"uint128","internalType":"uint128"}]},{"type":"error","name":"AccountNotFound","inputs":[{"name":"tradingAccountId","type":"uint128","internalType":"uint128"},{"name":"sender","type":"address","internalType":"address"}]},{"type":"error","name":"AccountPermissionDenied","inputs":[{"name":"tradingAccountId","type":"uint128","internalType":"uint128"},{"name":"sender","type":"address","internalType":"address"}]},{"type":"error","name":"CollateralPriceFeedNotDefined","inputs":[]},{"type":"error","name":"ExceedsOpenInterestLimit","inputs":[{"name":"marketId","type":"uint128","internalType":"uint128"},{"name":"maxOpenInterest","type":"uint256","internalType":"uint256"},{"name":"newOpenInterest","type":"uint256","internalType":"uint256"}]},{"type":"error","name":"ExceedsSkewLimit","inputs":[{"name":"marketId","type":"uint128","internalType":"uint128"},{"name":"maxSkew","type":"uint256","internalType":"uint256"},{"name":"newSkew","type":"int256","internalType":"int256"}]},{"type":"error","name":"GracePeriodNotOver","inputs":[]},{"type":"error","name":"InsufficientMargin","inputs":[{"name":"tradingAccountId","type":"uint128","internalType":"uint128"},{"name":"marginBalanceUsdX18","type":"int256","internalType":"int256"},{"name":"requiredMarginUsdX18","type":"uint256","internalType":"uint256"},{"name":"totalFeesUsdX18","type":"uint256","internalType":"uint256"}]},{"type":"error","name":"InvalidOracleReturn","inputs":[]},{"type":"error","name":"InvalidSequencerUptimeFeedReturn","inputs":[]},{"type":"error","name":"MarketOrderStillPending","inputs":[{"name":"timestamp","type":"uint256","internalType":"uint256"}]},{"type":"error","name":"MaxPositionsPerAccountReached","inputs":[{"name":"tradingAccountId","type":"uint128","internalType":"uint128"},{"name":"activePositionsLength","type":"uint256","internalType":"uint256"},{"name":"maxPositionsPerAccount","type":"uint256","internalType":"uint256"}]},{"type":"error","name":"NewPositionSizeTooSmall","inputs":[]},{"type":"error","name":"NoActiveMarketOrder","inputs":[{"name":"tradingAccountId","type":"uint128","internalType":"uint128"}]},{"type":"error","name":"OraclePriceFeedHeartbeat","inputs":[{"name":"priceFeed","type":"address","internalType":"address"}]},{"type":"error","name":"OraclePriceFeedOutOfRange","inputs":[{"name":"priceFeed","type":"address","internalType":"address"}]},{"type":"error","name":"OracleSequencerUptimeFeedIsDown","inputs":[{"name":"sequencerUptimeFeed","type":"address","internalType":"address"}]},{"type":"error","name":"PRBMath_MulDiv18_Overflow","inputs":[{"name":"x","type":"uint256","internalType":"uint256"},{"name":"y","type":"uint256","internalType":"uint256"}]},{"type":"error","name":"PRBMath_MulDiv_Overflow","inputs":[{"name":"x","type":"uint256","internalType":"uint256"},{"name":"y","type":"uint256","internalType":"uint256"},{"name":"denominator","type":"uint256","internalType":"uint256"}]},{"type":"error","name":"PRBMath_SD59x18_Abs_MinSD59x18","inputs":[]},{"type":"error","name":"PRBMath_SD59x18_Convert_Overflow","inputs":[{"name":"x","type":"int256","internalType":"int256"}]},{"type":"error","name":"PRBMath_SD59x18_Convert_Underflow","inputs":[{"name":"x","type":"int256","internalType":"int256"}]},{"type":"error","name":"PRBMath_SD59x18_Div_InputTooSmall","inputs":[]},{"type":"error","name":"PRBMath_SD59x18_Div_Overflow","inputs":[{"name":"x","type":"int256","internalType":"SD59x18"},{"name":"y","type":"int256","internalType":"SD59x18"}]},{"type":"error","name":"PRBMath_SD59x18_IntoUD60x18_Underflow","inputs":[{"name":"x","type":"int256","internalType":"SD59x18"}]},{"type":"error","name":"PRBMath_SD59x18_IntoUint256_Underflow","inputs":[{"name":"x","type":"int256","internalType":"SD59x18"}]},{"type":"error","name":"PRBMath_SD59x18_Mul_InputTooSmall","inputs":[]},{"type":"error","name":"PRBMath_SD59x18_Mul_Overflow","inputs":[{"name":"x","type":"int256","internalType":"SD59x18"},{"name":"y","type":"int256","internalType":"SD59x18"}]},{"type":"error","name":"PRBMath_UD60x18_Convert_Overflow","inputs":[{"name":"x","type":"uint256","internalType":"uint256"}]},{"type":"error","name":"PRBMath_UD60x18_IntoSD59x18_Overflow","inputs":[{"name":"x","type":"uint256","internalType":"UD60x18"}]},{"type":"error","name":"PerpMarketDisabled","inputs":[{"name":"marketId","type":"uint128","internalType":"uint128"}]},{"type":"error","name":"PriceAdapterNotDefined","inputs":[{"name":"marketId","type":"uint128","internalType":"uint128"}]},{"type":"error","name":"SafeCastOverflowedIntToUint","inputs":[{"name":"value","type":"int256","internalType":"int256"}]},{"type":"error","name":"SafeCastOverflowedUintDowncast","inputs":[{"name":"bits","type":"uint8","internalType":"uint8"},{"name":"value","type":"uint256","internalType":"uint256"}]},{"type":"error","name":"SafeCastOverflowedUintToInt","inputs":[{"name":"value","type":"uint256","internalType":"uint256"}]},{"type":"error","name":"SettlementDisabled","inputs":[]},{"type":"error","name":"TradeSizeTooSmall","inputs":[]},{"type":"error","name":"ZeroInput","inputs":[{"name":"parameter","type":"string","internalType":"string"}]}],"bytecode":{"object":"0x6080604052348015600e575f80fd5b50612a6a8061001c5f395ff3fe608060405234801561000f575f80fd5b506004361061007a575f3560e01c80638f875e6c116100585780638f875e6c146100eb578063c61b7bfa14610131578063d086c7df14610164578063f79492921461019e575f80fd5b806336fe4ac81461007e5780634c9097c3146100935780637a496034146100d8575b5f80fd5b61009161008c36600461268f565b6101b1565b005b6100a66100a13660046126b9565b610222565b604080519687526020870195909552938501929092526060840152608083015260a082015260c0015b60405180910390f35b6100916100e636600461268f565b6103ee565b6100fe6100f936600461268f565b610469565b6040805182516001600160801b039081168252602080850151600f0b9083015292820151909216908201526060016100cf565b61014461013f36600461270a565b6104ca565b6040805194855260208501939093529183015260608201526080016100cf565b61017761017236600461268f565b61059d565b6040805182516001600160801b0390811682526020938401511692810192909252016100cf565b6100916101ac36600461274a565b6105ea565b5f6101bb82610a18565b80546001600160801b03808216600160801b9283900482166001018216830217808455604051929004811682529192509083169033907f86e93b26034875e7c32ec04e55e78b7f4342869d7f08ee92e50cf2b5059120cc9060200160405180910390a35050565b5f805f805f805f6102328b610a32565b90505f61023e8b610a94565b90505f61024b8c8c610b30565b905061027460405180608001604052805f81526020015f81526020015f81526020015f81525090565b61027e8b600f0b90565b8082526102969061028e85610bda565b859190610c7a565b81519095506102a790849087610d32565b825490975062010000900469ffffffffffffffffffff1681519096506102d09085908f90610e8c565b60208401819052919a5098506102e79085906110ab565b99506102f4845f80610e8c565b506040830181905261030791508b61114c565b1561034e576040517f2e510dfe0000000000000000000000000000000000000000000000000000000081526001600160801b038f1660048201526024015b60405180910390fd5b5f6103598f8f611167565b8251815491925061036b915b90611197565b60608301819052151580156103a55750600b8401546103a590600160801b90046001600160801b03166103a184606001516111a5565b1290565b156103dc576040517f1165bfd200000000000000000000000000000000000000000000000000000000815260040160405180910390fd5b50505050509499939850945094509450565b6103f781610a18565b505f61040282611204565b905061040d8161125f565b610430815f815560010180546fffffffffffffffffffffffffffffffff19169055565b6040516001600160801b0383169033907fc7252ca3e22b9a21c15181f77191fdd57ef1e45ec74e8a55093ccb01c4385fe4905f90a35050565b604080516060810182525f808252602082018190529181019190915261048e8261130f565b6040805160608101825282546001600160801b038082168352600160801b909104600f0b60208301526001909301549092169082015292915050565b5f805f805f6104d888610a94565b90505f6104e58988610b30565b90505f6104f183610bda565b90505f6104fe8a600f0b90565b90505f61050c858385610c7a565b90505f61052a61052361051e856111a5565b61133f565b839061137e565b6009870154909150610547906001600160801b03165b829061137e565b6009870154909a5061056890600160801b90046001600160801b0316610540565b9850610575868484610d32565b855490985062010000900469ffffffffffffffffffff16965050505050505093509350935093565b604080518082019091525f80825260208201526105b982610a94565b60408051808201909152600d909101546001600160801b038082168352600160801b90910416602082015292915050565b6106426040518061016001604052805f81526020015f81526020015f81526020015f81526020015f81526020015f81526020015f81526020015f81526020015f151581526020015f151581526020015f151581525090565b6106526060830160408401612760565b600f0b5f036106bd576040517f525560be00000000000000000000000000000000000000000000000000000000815260206004820152600960248201527f73697a6544656c746100000000000000000000000000000000000000000000006044820152606401610345565b6106d66106d06060840160408501612760565b600f0b90565b60208201525f6106e461138c565b90505f6107006106fa604086016020870161268f565b5f610b30565b9050610737610712602086018661268f565b610722604087016020880161268f565b6107326060880160408901612760565b6113ed565b1580156101008501526107675761075e610757604086016020870161268f565b8390611438565b61076781611493565b5f61077d610778602087018761268f565b610a18565b9050610799610792604087016020880161268f565b82906114d6565b151561014085018190526107b0576107b0816114ed565b5f6107c96107c4604088016020890161268f565b610a94565b90506107e285602001518261156e90919063ffffffff16565b5f6108086107f3602089018961268f565b61080360408a0160208b0161268f565b611167565b8054909150604087018190526020870151610830916108278183611197565b859291906115ce565b505f905061084961084460208a018a61268f565b61130f565b905061087c61085b60208a018a61268f565b61086b60408b0160208c0161268f565b5f6100a160608d0160408e01612760565b5060c08c015260a08b015260808a0152606089015287526108c36108a360208a018a61268f565b6108b360408b0160208c0161268f565b61073260608c0160408d01612760565b1580156108d257508661014001515b151561012088018190526108ea5786606001516108f0565b86608001515b60e08801819052875160c089015160a08a015161091c9392916109139190611753565b87929190611761565b6109258161125f565b61098761093860408a0160208b0161268f565b61094860608b0160408c01612760565b6001600160801b03918216600160801b918316919091021783556001830180546fffffffffffffffffffffffffffffffff191642909216919091179055565b6109976040890160208a0161268f565b6001600160801b03166109ad60208a018a61268f565b6040805184546001600160801b03818116835260809190911d600f0b6020830152600186015481169282019290925291169033907fcc25cbf286f7e95bc356899b722772f9e323f369597444eb33df93e100a783d79060600160405180910390a45050505050505050565b5f610a2282610a32565b9050610a2d826117cc565b919050565b5f610a3c82611830565b60018101549091506001600160a01b0316610a2d576040517f3a947e910000000000000000000000000000000000000000000000000000000081526001600160801b0383166004820152336024820152604401610345565b5f8060ff19610ac460017f7391160f00c346d035658daa8a3c1eb1fa2f98b67b37275a9487390ac54b119f61278d565b604051602001610ad691815260200190565b604051602081830303815290604052805190602001201683604051602001610b119291909182526001600160801b0316602082015260400190565b60408051601f1981840301815291905280516020909101209392505050565b5f8060ff19610b6060017f4afdb43bc86b99e946919eed9b94acdb0f56ab4974b93329a1618862786cae3261278d565b604051602001610b7291815260200190565b60405160208183030381529060405280519060200120168484604051602001610bb7939291909283526001600160801b03918216602084015216604082015260600190565b60408051601f198184030181529190528051602090910120949350505050565b90565b6008810154600e8201545f916001600160a01b03169063ffffffff1682610bff61138c565b465f9081526011820160205260409020549091506001600160a01b03908116908416610c655785546040517f2fb06fb40000000000000000000000000000000000000000000000000000000081526001600160801b039091166004820152602401610345565b610c70848483611860565b9695505050505050565b5f80610c8f610bd78660060160060154611c93565b8554909150600160801b9004600f0b5f610ca98284611cdc565b90505f610cb68388611197565b90505f610cc38286611cdc565b90505f610ccf88611dd9565b90505f610ce961051e610ce28488611e1f565b8490611197565b90505f610d0361051e610cfc8587611e1f565b8590611197565b9050610d22610d126002611eee565b610d1c8484611753565b90611f4c565b9c9b505050505050505050505050565b82545f90600160801b9004600f0b80821284831283610d518488611197565b90505f811580610d5f575084155b80610d7d5750610d6e855f1290565b1515610d79835f1290565b1515145b90508015610df0575f83151585151514158015610d9957508515155b610db757600d8a0154600160801b90046001600160801b0316610dc6565b600d8a01546001600160801b03165b9050610de881610de2610ddb61051e8d6111a5565b8b9061137e565b9061137e565b965050610e80565b5f610e02610dfd846111a5565b611f63565b90505f610e23610dfd610e1e84610e188e6111a5565b90611fa2565b6111a5565b600d8c01549091505f90610e4c90600160801b90046001600160801b0316610de2858d9061137e565b600d8d01549091505f90610e6d906001600160801b0316610de28d8661137e565b9050610e798282611753565b9950505050505b50505050509392505050565b5f80806001600160801b03851615610f86575f610ea886610a94565b87549091505f90610ec2906001600160801b031688611167565b90505f610ed28761028e85610bda565b90505f610ee9610ee185611fb0565b859084611fdc565b90505f610f0483610de261051e610e1e8d6103658a5f015490565b60098601549091505f908190610f3a9084906001600160801b03165b60098a0154600160801b90046001600160801b0316611ff5565b90925090505f610f57610f4d8887612017565b6103658989612045565b9050610f638b84611753565b9a50610f6f8a83611753565b9950610f7b8982611197565b985050505050505050505b5f610f938760050161206d565b90505f5b818110156110a0575f610fb5610fb060058b0184612076565b612081565b9050876001600160801b0316816001600160801b031603610fd65750611098565b5f610fe082610a94565b8a549091505f90610ffa906001600160801b031684611167565b90505f611019611010835f0154610bd7906127a0565b61028e85610bda565b90505f611028610ee185611fb0565b90505f61103584846120cd565b60098601549091505f9081906110559084906001600160801b0316610f20565b90925090505f611068610f4d8887612017565b90506110748e84611753565b9d506110808d83611753565b9c5061108c8c82611197565b9b505050505050505050505b600101610f97565b505093509350939050565b5f806110b9846002016120e2565b90505f5b81811015611139575f806110d460028801846120ec565b915091505f6110e283612107565b80549091505f9061111290600160801b90046effffffffffffffffffffffffffffff16610de285610de286612184565b905061112761112082611dd9565b8890611197565b965050600190930192506110bd915050565b506111448284611197565b949350505050565b5f61115e8261115a85611dd9565b1390565b90505b92915050565b5f8060ff19610b6060017f1bc067b952a51a4aceed0c94957339255c9d9ec48f1c55db3cdc6194155caa1561278d565b5f61115e610bd783856127ba565b5f81600160ff1b81016111e4576040517fec2b9e6700000000000000000000000000000000000000000000000000000000815260040160405180910390fd5b5f81126111f157826111fd565b6111fd610bd7826127a0565b9392505050565b5f61120e8261130f565b80549091506001600160801b03165f03610a2d576040517fbf4bc94f0000000000000000000000000000000000000000000000000000000081526001600160801b0383166004820152602401610345565b5f61126861138c565b805460018401549192506001600160801b03600160801b909104811691161580159061129c57506001600160801b03811615155b80156112c2575060018301546001600160801b03808316916112bf91164261278d565b11155b1561130a5760018301546040517f24de79cb0000000000000000000000000000000000000000000000000000000081526001600160801b039091166004820152602401610345565b505050565b5f8060ff19610ac460017f6a75b7da92e221e8242587cdbb5587bdd0f9484b3d4002a5221c0281b06077f461278d565b5f8181811215611161576040517fbba41a1500000000000000000000000000000000000000000000000000000000815260048101849052602401610345565b5f61115e610bd78484612201565b5f8060ff196113bc60017feeb5cd774bc9c6845792a7b59ceb11c49cb99339b2df9604c51808d2eb250cc261278d565b6040516020016113ce91815260200190565b60408051601f1981840301815291905280516020909101201692915050565b5f806113f98585611167565b80549091501580611417575080545f12801561141757505f83600f0b135b8061142f575080545f13801561142f57505f83600f0b125b95945050505050565b61144e600d83016001600160801b0383166122e6565b61148f576040517f10aaa5560000000000000000000000000000000000000000000000000000000081526001600160801b0382166004820152602401610345565b5050565b8054610100900460ff166114d3576040517fadff81b500000000000000000000000000000000000000000000000000000000815260040160405180910390fd5b50565b5f61115e600584016001600160801b0384166122e6565b5f6114f661138c565b80549091506001600160801b03165f6115116005850161206d565b90508181106115685783546040517fa21b4c9e0000000000000000000000000000000000000000000000000000000081526001600160801b0390911660048201526024810182905260448101839052606401610345565b50505050565b600b82015461159790600160801b90046001600160801b031661159361051e846111a5565b1090565b1561148f576040517faccd21a600000000000000000000000000000000000000000000000000000000815260040160405180910390fd5b600a84015460018501545f9182916001600160801b0391821691166116146115f861051e876111a5565b61160e61160761051e8a6111a5565b84906122fd565b90611753565b93508382101561167657808410806116745788546040517f5b7afd710000000000000000000000000000000000000000000000000000000081526001600160801b0390911660048201526024810184905260448101869052606401610345565b505b600a8801545f9061169b90600160801b90046001600160801b0316611dd9565b611dd9565b8954909150600160801b9004600f0b6116b4818a611197565b94506116c38261115a876111a5565b15611746575f6116de6116d5876111a5565b61115a846111a5565b905080611744578a546001600160801b03166116f984611f63565b6040517f04034b740000000000000000000000000000000000000000000000000000000081526001600160801b03929092166004830152602482015260448101879052606401610345565b505b5050505094509492505050565b5f61115e610bd783856127e1565b6117728261115a6116968685611753565b156115685783546040517f4b2d3acd0000000000000000000000000000000000000000000000000000000081526001600160801b039091166004820152602481018390526044810184905260648101829052608401610345565b5f6117d682611830565b60018101549091506001600160a01b0316331461148f576040517f38d64a200000000000000000000000000000000000000000000000000000000081526001600160801b0383166004820152336024820152604401610345565b5f8060ff19610ac460017f8d53eef876fe0bd8a1041a9151a1ff19778efab77c8e1ac1a9b867962feb87e561278d565b5f80846001600160a01b031663313ce5676040518163ffffffff1660e01b8152600401602060405180830381865afa15801561189e573d5f803e3d5ffd5b505050506040513d601f19601f820116820180604052508101906118c291906127f4565b9050601260ff821611156118e957604051634840b0ab60e11b815260040160405180910390fd5b6001600160a01b03831615611a1c57826001600160a01b031663feaf968c6040518163ffffffff1660e01b815260040160a060405180830381865afa925050508015611952575060408051601f3d908101601f1916820190925261194f9181019061282d565b60015b611988576040517f382e6b6400000000000000000000000000000000000000000000000000000000815260040160405180910390fd5b8315806119cc576040517fcbaf08250000000000000000000000000000000000000000000000000000000081526001600160a01b038a166004820152602401610345565b5f6119d7854261278d565b9050610e108111611a14576040517fd15f73b500000000000000000000000000000000000000000000000000000000815260040160405180910390fd5b505050505050505b846001600160a01b031663feaf968c6040518163ffffffff1660e01b815260040160a060405180830381865afa925050508015611a76575060408051601f3d908101601f19168201909252611a739181019061282d565b60015b611a9357604051634840b0ab60e11b815260040160405180910390fd5b63ffffffff8916611aa4834261278d565b1115611ae7576040517fa1ac05690000000000000000000000000000000000000000000000000000000081526001600160a01b038b166004820152602401610345565b5f8a6001600160a01b031663245a7bfc6040518163ffffffff1660e01b8152600401602060405180830381865afa158015611b24573d5f803e3d5ffd5b505050506040513d601f19601f82011682018060405250810190611b489190612879565b90505f816001600160a01b03166322adbc786040518163ffffffff1660e01b8152600401602060405180830381865afa158015611b87573d5f803e3d5ffd5b505050506040513d601f19601f82011682018060405250810190611bab919061289f565b90505f826001600160a01b03166370da2f676040518163ffffffff1660e01b8152600401602060405180830381865afa158015611bea573d5f803e3d5ffd5b505050506040513d601f19601f82011682018060405250810190611c0e919061289f565b90508160170b87131580611c2557508060170b8712155b15611c67576040517f045d8f840000000000000000000000000000000000000000000000000000000081526001600160a01b038e166004820152602401610345565b610e79611c758a60126128bf565b611c8090600a6129b8565b611c898961230b565b610bd791906129c6565b5f6001600160ff1b03821115611cd8576040517f24775e0600000000000000000000000000000000000000000000000000000000815260048101839052602401610345565b5090565b5f8282600160ff1b821480611cf45750600160ff1b81145b15611d2b576040517f9fe2b45000000000000000000000000000000000000000000000000000000000815260040160405180910390fd5b5f805f8412611d3a5783611d3e565b835f035b91505f8312611d4d5782611d51565b825f035b90505f611d6783670de0b6b3a764000084612349565b90506001600160ff1b03811115611db4576040517fd49c26b30000000000000000000000000000000000000000000000000000000081526004810189905260248101889052604401610345565b5f1985851813611dcc81611dc857825f0390565b8290565b9998505050505050505050565b5f816001600160ff1b03811115611161576040517ff461868400000000000000000000000000000000000000000000000000000000815260048101849052602401610345565b5f8282600160ff1b821480611e375750600160ff1b81145b15611e6e576040517fa6070c2500000000000000000000000000000000000000000000000000000000815260040160405180910390fd5b5f805f8412611e7d5783611e81565b835f035b91505f8312611e905782611e94565b825f035b90505f611ea18383612201565b90506001600160ff1b03811115611db4576040517f120b5b430000000000000000000000000000000000000000000000000000000081526004810189905260248101889052604401610345565b5f611f02670de0b6b3a76400005f196129f1565b821115611f3e576040517f1cd951a700000000000000000000000000000000000000000000000000000000815260048101839052602401610345565b50670de0b6b3a76400000290565b5f61115e610bd784670de0b6b3a764000085612349565b5f8181811215611161576040517f2463f3d500000000000000000000000000000000000000000000000000000000815260048101849052602401610345565b5f61115e610bd78385612a04565b5f611161611fd2611fc361169685612431565b611fcc85612459565b90611e1f565b6003840154610365565b5f611144611feb8585856124fc565b6004860154610365565b5f80612001858561137e565b915061200d858461137e565b9050935093915050565b60018201545f90819061203590600160801b9004600f0b8490611fa2565b905061114481611fcc865f015490565b60018201545f90819061203590612064906001600160801b0316611dd9565b610e1885611dd9565b5f611161825490565b5f61115e838361254c565b5f6001600160801b03821115611cd8576040517f6dfcc6500000000000000000000000000000000000000000000000000000000081526080600482015260248101839052604401610345565b5f61115e82610de261051e610e1e875f015490565b5f61116182612572565b5f8080806120fa868661257c565b9097909650945050505050565b5f8060ff1961213760017f4693110e548948f348ad9c8c0e5b637b378994981b3a4246fc86241f8faded5161278d565b60405160200161214991815260200190565b604051602081830303815290604052805190602001201683604051602001610b119291909182526001600160a01b0316602082015260400190565b600181015460038201545f916001600160a01b03169063ffffffff16826121a961138c565b465f9081526011820160205260409020549091506001600160a01b03908116908416610c65576040517ff976331100000000000000000000000000000000000000000000000000000000815260040160405180910390fd5b5f80805f19848609848602925082811083820303915050805f036122325750670de0b6b3a764000090049050611161565b670de0b6b3a7640000811061227d576040517f5173648d0000000000000000000000000000000000000000000000000000000081526004810186905260248101859052604401610345565b5f670de0b6b3a7640000858709620400008185030493109091037d40000000000000000000000000000000000000000000000000000000000002919091177faccb18165bd6fe31ae1cf318dc5b51eee0e1ba569b88cd74c1773b91fac106690291505092915050565b5f818152600183016020526040812054151561115e565b5f61115e610bd7838561278d565b5f80821215611cd8576040517fa8ce443200000000000000000000000000000000000000000000000000000000815260048101839052602401610345565b5f80805f19858709858702925082811083820303915050805f0361238057838281612376576123766129dd565b04925050506111fd565b8381106123ca576040517f63a05778000000000000000000000000000000000000000000000000000000008152600481018790526024810186905260448101859052606401610345565b5f8486880960026001871981018816978890046003810283188082028403028082028403028082028403028082028403028082028403029081029092039091025f889003889004909101858311909403939093029303949094049190911702949350505050565b5f61116161244162015180611eee565b610d1c846005015442612454919061278d565b611eee565b600b8101545f90819061247890610bd7906001600160801b0316611c93565b90505f61248e610bd78560060160060154611c93565b8454909150600160801b9004600f0b816124ac57505f949350505050565b5f6124b78284611cdc565b90505f6124e56124d76124d1670de0b6b3a76400006125a5565b846125b2565b670de0b6b3a76400006125c8565b90506124f18186611e1f565b979650505050505050565b5f8061252861250b60026125d1565b61252261251d876103658a6003015490565b6125a5565b90611cdc565b905061142f61253684611dd9565b611fcc61254561169689612431565b8490611e1f565b5f825f01828154811061256157612561612a2a565b905f5260205f200154905092915050565b5f6111618261206d565b5f80806125898585612076565b5f81815260029690960160205260409095205494959350505050565b5f611161610bd7836127a0565b5f8282125b6125c1578161115e565b5090919050565b5f8282136125b7565b5f6125e8670de0b6b3a7640000600160ff1b612a3e565b821215612624576040517f99474eeb00000000000000000000000000000000000000000000000000000000815260048101839052602401610345565b61263d670de0b6b3a76400006001600160ff1b03612a3e565b821315611f3e576040517f9d58109100000000000000000000000000000000000000000000000000000000815260048101839052602401610345565b80356001600160801b0381168114610a2d575f80fd5b5f6020828403121561269f575f80fd5b61115e82612679565b8035600f81900b8114610a2d575f80fd5b5f805f80608085870312156126cc575f80fd5b6126d585612679565b93506126e360208601612679565b92506126f160408601612679565b91506126ff606086016126a8565b905092959194509250565b5f805f6060848603121561271c575f80fd5b61272584612679565b9250612733602085016126a8565b915061274160408501612679565b90509250925092565b5f6060828403121561275a575f80fd5b50919050565b5f60208284031215612770575f80fd5b61115e826126a8565b634e487b7160e01b5f52601160045260245ffd5b8181038181111561116157611161612779565b5f600160ff1b82036127b4576127b4612779565b505f0390565b8082018281125f8312801582168215821617156127d9576127d9612779565b505092915050565b8082018082111561116157611161612779565b5f60208284031215612804575f80fd5b815160ff811681146111fd575f80fd5b805169ffffffffffffffffffff81168114610a2d575f80fd5b5f805f805f60a08688031215612841575f80fd5b61284a86612814565b945060208601519350604086015192506060860151915061286d60808701612814565b90509295509295909350565b5f60208284031215612889575f80fd5b81516001600160a01b03811681146111fd575f80fd5b5f602082840312156128af575f80fd5b81518060170b81146111fd575f80fd5b60ff828116828216039081111561116157611161612779565b600181815b8085111561291257815f19048211156128f8576128f8612779565b8085161561290557918102915b93841c93908002906128dd565b509250929050565b5f8261292857506001611161565b8161293457505f611161565b816001811461294a576002811461295457612970565b6001915050611161565b60ff84111561296557612965612779565b50506001821b611161565b5060208310610133831016604e8410600b8410161715612993575081810a611161565b61299d83836128d8565b805f19048211156129b0576129b0612779565b029392505050565b5f61115e60ff84168361291a565b808202811582820484141761116157611161612779565b634e487b7160e01b5f52601260045260245ffd5b5f826129ff576129ff6129dd565b500490565b8181035f831280158383131683831282161715612a2357612a23612779565b5092915050565b634e487b7160e01b5f52603260045260245ffd5b5f82612a4c57612a4c6129dd565b600160ff1b82145f1984141615612a6557612a65612779565b50059056","linkReferences":{}},"methodIdentifiers":{"cancelAllOffchainOrders(uint128)":"36fe4ac8","cancelMarketOrder(uint128)":"7a496034","createMarketOrder((uint128,uint128,int128))":"f7949292","getActiveMarketOrder(uint128)":"8f875e6c","getConfiguredOrderFees(uint128)":"d086c7df","getMarginRequirementForTrade(uint128,int128,uint128)":"c61b7bfa","simulateTrade(uint128,uint128,uint128,int128)":"4c9097c3"},"id":149}