{"abi":[{"type":"function","name":"latestRoundData","inputs":[],"outputs":[{"name":"roundId","type":"uint80","internalType":"uint80"},{"name":"answer","type":"int256","internalType":"int256"},{"name":"startedAt","type":"uint256","internalType":"uint256"},{"name":"updatedAt","type":"uint256","internalType":"uint256"},{"name":"answeredInRound","type":"uint80","internalType":"uint80"}],"stateMutability":"pure"}],"bytecode":{"object":"0x6080604052348015600e575f80fd5b50605780601a5f395ff3fe6080604052348015600e575f80fd5b50600436106026575f3560e01c8063feaf968c14602a575b5f80fd5b604080515f8082526001602083015281830181905260608201819052608082015290519081900360a00190f3","linkReferences":{}},"deployedBytecode":{"object":"0x6080604052348015600e575f80fd5b50600436106026575f3560e01c8063feaf968c14602a575b5f80fd5b604080515f8082526001602083015281830181905260608201819052608082015290519081900360a00190f3","linkReferences":{}},"methodIdentifiers":{"latestRoundData()":"feaf968c"},"id":261}