{"abi":[{"type":"function","name":"exposed_SettlementConfiguration_load","inputs":[{"name":"marketId","type":"uint128","internalType":"uint128"},{"name":"settlementConfigurationId","type":"uint128","internalType":"uint128"}],"outputs":[{"name":"","type":"tuple","internalType":"struct SettlementConfiguration.Data","components":[{"name":"strategy","type":"uint8","internalType":"enum SettlementConfiguration.Strategy"},{"name":"isEnabled","type":"bool","internalType":"bool"},{"name":"fee","type":"uint80","internalType":"uint80"},{"name":"keeper","type":"address","internalType":"address"},{"name":"data","type":"bytes","internalType":"bytes"}]}],"stateMutability":"pure"},{"type":"function","name":"exposed_checkIsSettlementEnabled","inputs":[{"name":"marketId","type":"uint128","internalType":"uint128"},{"name":"settlementConfigurationId","type":"uint128","internalType":"uint128"}],"outputs":[],"stateMutability":"view"},{"type":"function","name":"exposed_requireDataStreamsReportIsVaid","inputs":[{"name":"streamId","type":"bytes32","internalType":"bytes32"},{"name":"verifiedPriceData","type":"bytes","internalType":"bytes"},{"name":"maxVerificationDelay","type":"uint256","internalType":"uint256"}],"outputs":[],"stateMutability":"view"},{"type":"function","name":"exposed_update","inputs":[{"name":"marketId","type":"uint128","internalType":"uint128"},{"name":"settlementConfigurationId","type":"uint128","internalType":"uint128"},{"name":"newSettlementConfiguration","type":"tuple","internalType":"struct SettlementConfiguration.Data","components":[{"name":"strategy","type":"uint8","internalType":"enum SettlementConfiguration.Strategy"},{"name":"isEnabled","type":"bool","internalType":"bool"},{"name":"fee","type":"uint80","internalType":"uint80"},{"name":"keeper","type":"address","internalType":"address"},{"name":"data","type":"bytes","internalType":"bytes"}]}],"outputs":[],"stateMutability":"nonpayable"},{"type":"function","name":"exposed_verifyDataStreamsReport","inputs":[{"name":"dataStreamsStrategy","type":"tuple","internalType":"struct SettlementConfiguration.DataStreamsStrategy","components":[{"name":"chainlinkVerifier","type":"address","internalType":"contract IVerifierProxy"},{"name":"streamId","type":"bytes32","internalType":"bytes32"}]},{"name":"signedReport","type":"bytes","internalType":"bytes"}],"outputs":[{"name":"","type":"bytes","internalType":"bytes"}],"stateMutability":"nonpayable"},{"type":"function","name":"exposed_verifyOffchainPrice","inputs":[{"name":"marketId","type":"uint128","internalType":"uint128"},{"name":"settlementConfigurationId","type":"uint128","internalType":"uint128"},{"name":"priceData","type":"bytes","internalType":"bytes"},{"name":"maxVerificationDelay","type":"uint256","internalType":"uint256"}],"outputs":[{"name":"","type":"uint256","internalType":"UD60x18"},{"name":"","type":"uint256","internalType":"UD60x18"}],"stateMutability":"nonpayable"},{"type":"error","name":"InvalidDataStreamReport","inputs":[{"name":"streamId","type":"bytes32","internalType":"bytes32"},{"name":"reportStreamId","type":"bytes32","internalType":"bytes32"}]},{"type":"error","name":"InvalidSettlementStrategy","inputs":[]},{"type":"error","name":"SafeCastOverflowedIntToUint","inputs":[{"name":"value","type":"int256","internalType":"int256"}]},{"type":"error","name":"SettlementDisabled","inputs":[]}],"bytecode":{"object":"0x6080604052348015600e575f80fd5b506112748061001c5f395ff3fe608060405234801561000f575f80fd5b506004361061006f575f3560e01c806397f476c61161004d57806397f476c6146100d9578063c1c5bdaf146100ec578063d9658e2b1461010c575f80fd5b806318b757031461007357806323f298f61461009c57806344f88804146100c4575b5f80fd5b610086610081366004610a7c565b61011f565b6040516100939190610b39565b60405180910390f35b6100af6100aa366004610b6f565b610134565b60408051928352602083019190915201610093565b6100d76100d2366004610bd1565b61015c565b005b6100d76100e7366004610c41565b61016c565b6100ff6100fa366004610d1a565b610177565b6040516100939190610d5f565b6100d761011a366004610d1a565b6102c3565b606061012b83836102d9565b90505b92915050565b5f805f610141878761030c565b905061014e8186866103bc565b925092505094509492505050565b61016783838361051d565b505050565b6101678383836105ac565b6040805160a0810182525f8082526020820181905291810182905260608082019290925260808101919091526101ad838361030c565b6040805160a081019091528154909190829060ff1680156101d0576101d0610d4b565b80156101de576101de610d4b565b81528154610100810460ff161515602083015262010000810469ffffffffffffffffffff1660408301526c0100000000000000000000000090046001600160a01b0316606082015260018201805460809092019161023b90610dd6565b80601f016020809104026020016040519081016040528092919081815260200182805461026790610dd6565b80156102b25780601f10610289576101008083540402835291602001916102b2565b820191905f5260205f20905b81548152906001019060200180831161029557829003601f168201915b505050505081525050905092915050565b5f6102ce838361030c565b905061016781610678565b81516060905f6102e8846106bb565b90505f6102f583836106d8565b9050610302838287610847565b9695505050505050565b5f8060ff1961033c60017f4afdb43bc86b99e946919eed9b94acdb0f56ab4974b93329a1618862786cae32610e22565b60405160200161034e91815260200190565b6040516020818303038152906040528051906020012016848460405160200161039c939291909283526fffffffffffffffffffffffffffffffff918216602084015216604082015260600190565b60408051601f198184030181529190528051602090910120949350505050565b5f8080855460ff1680156103d2576103d2610d4b565b036104e3575f8560010180546103e790610dd6565b80601f016020809104026020016040519081016040528092919081815260200182805461041390610dd6565b801561045e5780601f106104355761010080835404028352916020019161045e565b820191905f5260205f20905b81548152906001019060200180831161044157829003601f168201915b50505050508060200190518101906104769190610e35565b90505f61048382876102d9565b90506104948260200151828761051d565b5f818060200190518101906104a99190610eb8565b90506104c16104be8260e0015160170b6108f8565b90565b6104d56104be83610100015160170b6108f8565b909550935061051592505050565b6040517f552386b100000000000000000000000000000000000000000000000000000000815260040160405180910390fd5b935093915050565b5f828060200190518101906105329190610eb8565b805190915084141580610559575081816020015163ffffffff166105569190610f65565b42115b156105a65780516040517f21c8c84000000000000000000000000000000000000000000000000000000000815261059d918691600401918252602082015260400190565b60405180910390fd5b50505050565b5f6105b7848461030c565b8251815491925090829060ff191660018380156105d6576105d6610d4b565b021790555060208201518154604084015160608501516001600160a01b03166c01000000000000000000000000026bffffffffffffffffffffffff69ffffffffffffffffffff90921662010000026bffffffffffffffffffff00001994151561010002949094166bffffffffffffffffffffff0019909316929092179290921791909116178155608082015160018201906106719082610fbc565b5050505050565b8054610100900460ff166106b8576040517fadff81b500000000000000000000000000000000000000000000000000000000815260040160405180910390fd5b50565b6060818060200190518101906106d191906110be565b9392505050565b604080518082019091525f80825260208201525f836001600160a01b03166338416b5b6040518163ffffffff1660e01b8152600401602060405180830381865afa158015610728573d5f803e3d5ffd5b505050506040513d601f19601f8201168201806040525081019061074c9190611151565b90505f816001600160a01b031663638786686040518163ffffffff1660e01b8152600401602060405180830381865afa15801561078b573d5f803e3d5ffd5b505050506040513d601f19601f820116820180604052508101906107af9190611151565b6040517fe03dab1a0000000000000000000000000000000000000000000000000000000081529091506001600160a01b0383169063e03dab1a906107fb9030908890869060040161116c565b60a0604051808303815f875af1158015610817573d5f803e3d5ffd5b505050506040513d601f19601f8201168201806040525081019061083b91906111da565b50909695505050505050565b6060836001600160a01b031663f7e83aee846020015184865f015160405160200161088191906001600160a01b0391909116815260200190565b6040516020818303038152906040526040518463ffffffff1660e01b81526004016108ad929190611215565b5f6040518083038185885af11580156108c8573d5f803e3d5ffd5b50505050506040513d5f823e601f3d908101601f191682016040526108f09190810190611242565b949350505050565b5f80821215610936576040517fa8ce44320000000000000000000000000000000000000000000000000000000081526004810183905260240161059d565b5090565b634e487b7160e01b5f52604160045260245ffd5b6040805190810167ffffffffffffffff811182821017156109715761097161093a565b60405290565b60405160a0810167ffffffffffffffff811182821017156109715761097161093a565b604051610120810167ffffffffffffffff811182821017156109715761097161093a565b604051601f8201601f1916810167ffffffffffffffff811182821017156109e7576109e761093a565b604052919050565b6001600160a01b03811681146106b8575f80fd5b5f67ffffffffffffffff821115610a1c57610a1c61093a565b50601f01601f191660200190565b5f82601f830112610a39575f80fd5b8135610a4c610a4782610a03565b6109be565b818152846020838601011115610a60575f80fd5b816020850160208301375f918101602001919091529392505050565b5f808284036060811215610a8e575f80fd5b6040811215610a9b575f80fd5b50610aa461094e565b8335610aaf816109ef565b8152602084810135908201529150604083013567ffffffffffffffff811115610ad6575f80fd5b610ae285828601610a2a565b9150509250929050565b5f5b83811015610b06578181015183820152602001610aee565b50505f910152565b5f8151808452610b25816020860160208601610aec565b601f01601f19169290920160200192915050565b602081525f61012b6020830184610b0e565b80356fffffffffffffffffffffffffffffffff81168114610b6a575f80fd5b919050565b5f805f8060808587031215610b82575f80fd5b610b8b85610b4b565b9350610b9960208601610b4b565b9250604085013567ffffffffffffffff811115610bb4575f80fd5b610bc087828801610a2a565b949793965093946060013593505050565b5f805f60608486031215610be3575f80fd5b83359250602084013567ffffffffffffffff811115610c00575f80fd5b610c0c86828701610a2a565b925050604084013590509250925092565b803569ffffffffffffffffffff81168114610b6a575f80fd5b8035610b6a816109ef565b5f805f60608486031215610c53575f80fd5b610c5c84610b4b565b9250610c6a60208501610b4b565b9150604084013567ffffffffffffffff80821115610c86575f80fd5b9085019060a08288031215610c99575f80fd5b610ca1610977565b823560018110610caf575f80fd5b815260208301358015158114610cc3575f80fd5b6020820152610cd460408401610c1d565b6040820152610ce560608401610c36565b6060820152608083013582811115610cfb575f80fd5b610d0789828601610a2a565b6080830152508093505050509250925092565b5f8060408385031215610d2b575f80fd5b610d3483610b4b565b9150610d4260208401610b4b565b90509250929050565b634e487b7160e01b5f52602160045260245ffd5b602081525f825160018110610d8257634e487b7160e01b5f52602160045260245ffd5b8060208401525060208301511515604083015269ffffffffffffffffffff60408401511660608301526001600160a01b036060840151166080830152608083015160a0808401526108f060c0840182610b0e565b600181811c90821680610dea57607f821691505b602082108103610e0857634e487b7160e01b5f52602260045260245ffd5b50919050565b634e487b7160e01b5f52601160045260245ffd5b8181038181111561012e5761012e610e0e565b5f60408284031215610e45575f80fd5b610e4d61094e565b8251610e58816109ef565b81526020928301519281019290925250919050565b805163ffffffff81168114610b6a575f80fd5b805177ffffffffffffffffffffffffffffffffffffffffffffffff81168114610b6a575f80fd5b8051601781900b8114610b6a575f80fd5b5f6101208284031215610ec9575f80fd5b610ed161099a565b82518152610ee160208401610e6d565b6020820152610ef260408401610e6d565b6040820152610f0360608401610e80565b6060820152610f1460808401610e80565b6080820152610f2560a08401610e6d565b60a0820152610f3660c08401610ea7565b60c0820152610f4760e08401610ea7565b60e0820152610100610f5a818501610ea7565b908201529392505050565b8082018082111561012e5761012e610e0e565b601f82111561016757805f5260205f20601f840160051c81016020851015610f9d5750805b601f840160051c820191505b81811015610671575f8155600101610fa9565b815167ffffffffffffffff811115610fd657610fd661093a565b610fea81610fe48454610dd6565b84610f78565b602080601f83116001811461101d575f84156110065750858301515b5f19600386901b1c1916600185901b178555611074565b5f85815260208120601f198616915b8281101561104b5788860151825594840194600190910190840161102c565b508582101561106857878501515f19600388901b60f8161c191681555b505060018460011b0185555b505050505050565b5f82601f83011261108b575f80fd5b8151611099610a4782610a03565b8181528460208386010111156110ad575f80fd5b6108f0826020830160208701610aec565b5f80608083850312156110cf575f80fd5b83601f8401126110dd575f80fd5b6040516060810167ffffffffffffffff82821081831117156111015761110161093a565b816040528291506060860187811115611118575f80fd5b865b8181101561113257805184526020938401930161111a565b505192945080831115611143575f80fd5b5050610ae28582860161107c565b5f60208284031215611161575f80fd5b81516106d1816109ef565b5f6001600160a01b0380861683526060602084015261118e6060840186610b0e565b9150808416604084015250949350505050565b5f604082840312156111b1575f80fd5b6111b961094e565b905081516111c6816109ef565b808252506020820151602082015292915050565b5f805f60a084860312156111ec575f80fd5b6111f685856111a1565b925061120585604086016111a1565b9150608084015190509250925092565b604081525f6112276040830185610b0e565b82810360208401526112398185610b0e565b95945050505050565b5f60208284031215611252575f80fd5b815167ffffffffffffffff811115611268575f80fd5b6108f08482850161107c56","linkReferences":{}},"methodIdentifiers":{"exposed_SettlementConfiguration_load(uint128,uint128)":"c1c5bdaf","exposed_checkIsSettlementEnabled(uint128,uint128)":"d9658e2b","exposed_requireDataStreamsReportIsVaid(bytes32,bytes,uint256)":"44f88804","exposed_update(uint128,uint128,(uint8,bool,uint80,address,bytes))":"97f476c6","exposed_verifyDataStreamsReport((address,bytes32),bytes)":"18b75703","exposed_verifyOffchainPrice(uint128,uint128,bytes,uint256)":"23f298f6"},"id":183}