{"abi":[{"type":"function","name":"exposed_MarketOrder_load","inputs":[{"name":"tradingAccountId","type":"uint128","internalType":"uint128"}],"outputs":[{"name":"","type":"tuple","internalType":"struct MarketOrder.Data","components":[{"name":"marketId","type":"uint128","internalType":"uint128"},{"name":"sizeDelta","type":"int128","internalType":"int128"},{"name":"timestamp","type":"uint128","internalType":"uint128"}]}],"stateMutability":"pure"},{"type":"function","name":"exposed_MarketOrder_loadExisting","inputs":[{"name":"tradingAccountId","type":"uint128","internalType":"uint128"}],"outputs":[{"name":"","type":"tuple","internalType":"struct MarketOrder.Data","components":[{"name":"marketId","type":"uint128","internalType":"uint128"},{"name":"sizeDelta","type":"int128","internalType":"int128"},{"name":"timestamp","type":"uint128","internalType":"uint128"}]}],"stateMutability":"view"},{"type":"function","name":"exposed_checkPendingOrder","inputs":[{"name":"tradingAccountId","type":"uint128","internalType":"uint128"}],"outputs":[],"stateMutability":"view"},{"type":"function","name":"exposed_clear","inputs":[{"name":"tradingAccountId","type":"uint128","internalType":"uint128"}],"outputs":[],"stateMutability":"nonpayable"},{"type":"function","name":"exposed_update","inputs":[{"name":"tradingAccountId","type":"uint128","internalType":"uint128"},{"name":"marketId","type":"uint128","internalType":"uint128"},{"name":"sizeDelta","type":"int128","internalType":"int128"}],"outputs":[],"stateMutability":"nonpayable"},{"type":"error","name":"MarketOrderStillPending","inputs":[{"name":"timestamp","type":"uint256","internalType":"uint256"}]},{"type":"error","name":"NoActiveMarketOrder","inputs":[{"name":"tradingAccountId","type":"uint128","internalType":"uint128"}]}],"bytecode":{"object":"0x6080604052348015600e575f80fd5b506104e98061001c5f395ff3fe608060405234801561000f575f80fd5b5060043610610064575f3560e01c8063c10383791161004d578063c103837914610090578063d38c3c85146100da578063dc3e7aff146100ed575f80fd5b80638be7153f1461006857806396cc12281461007d575b5f80fd5b61007b610076366004610442565b610100565b005b61007b61008b36600461048b565b61014c565b6100a361009e36600461048b565b610165565b6040805182516001600160801b039081168252602080850151600f0b90830152928201519092169082015260600160405180910390f35b6100a36100e836600461048b565b6101c6565b61007b6100fb36600461048b565b6101eb565b5f61010a8461021a565b6001600160801b03808516600160801b828616021782556001820180546fffffffffffffffffffffffffffffffff191642909216919091179055905050505050565b5f6101568261021a565b9050610161816102b6565b5050565b604080516060810182525f808252602082018190529181019190915261018a8261021a565b6040805160608101825282546001600160801b038082168352600160801b909104600f0b60208301526001909301549092169082015292915050565b604080516060810182525f808252602082018190529181019190915261018a8261036b565b5f6101f58261021a565b9050610161815f815560010180546fffffffffffffffffffffffffffffffff19169055565b5f8060ff1961024a60017f6a75b7da92e221e8242587cdbb5587bdd0f9484b3d4002a5221c0281b06077f46104ab565b60405160200161025c91815260200190565b6040516020818303038152906040528051906020012016836040516020016102979291909182526001600160801b0316602082015260400190565b60408051601f1981840301815291905280516020909101209392505050565b5f6102bf6103cb565b805460018401549192506001600160801b03600160801b90910481169116158015906102f357506001600160801b03811615155b8015610319575060018301546001600160801b03808316916103169116426104ab565b11155b156103665760018301546040517f24de79cb0000000000000000000000000000000000000000000000000000000081526001600160801b0390911660048201526024015b60405180910390fd5b505050565b5f6103758261021a565b80549091506001600160801b03165f036103c6576040517fbf4bc94f0000000000000000000000000000000000000000000000000000000081526001600160801b038316600482015260240161035d565b919050565b5f8060ff196103fb60017feeb5cd774bc9c6845792a7b59ceb11c49cb99339b2df9604c51808d2eb250cc26104ab565b60405160200161040d91815260200190565b60408051601f1981840301815291905280516020909101201692915050565b80356001600160801b03811681146103c6575f80fd5b5f805f60608486031215610454575f80fd5b61045d8461042c565b925061046b6020850161042c565b9150604084013580600f0b8114610480575f80fd5b809150509250925092565b5f6020828403121561049b575f80fd5b6104a48261042c565b9392505050565b818103818111156104e3577f4e487b71000000000000000000000000000000000000000000000000000000005f52601160045260245ffd5b9291505056","linkReferences":{}},"methodIdentifiers":{"exposed_MarketOrder_load(uint128)":"c1038379","exposed_MarketOrder_loadExisting(uint128)":"d38c3c85","exposed_checkPendingOrder(uint128)":"96cc1228","exposed_clear(uint128)":"dc3e7aff","exposed_update(uint128,uint128,int128)":"8be7153f"},"id":180}