{"abi":[{"type":"constructor","inputs":[],"stateMutability":"nonpayable"},{"type":"function","name":"configureCollateralLiquidationPriority","inputs":[{"name":"collateralTypes","type":"address[]","internalType":"address[]"}],"outputs":[],"stateMutability":"nonpayable"},{"type":"function","name":"configureLiquidators","inputs":[{"name":"liquidators","type":"address[]","internalType":"address[]"},{"name":"enable","type":"bool[]","internalType":"bool[]"}],"outputs":[],"stateMutability":"nonpayable"},{"type":"function","name":"configureMarginCollateral","inputs":[{"name":"collateralType","type":"address","internalType":"address"},{"name":"depositCap","type":"uint128","internalType":"uint128"},{"name":"loanToValue","type":"uint120","internalType":"uint120"},{"name":"priceFeed","type":"address","internalType":"address"},{"name":"priceFeedHeartbeatSeconds","type":"uint32","internalType":"uint32"}],"outputs":[],"stateMutability":"nonpayable"},{"type":"function","name":"configureSequencerUptimeFeedByChainId","inputs":[{"name":"chainIds","type":"uint256[]","internalType":"uint256[]"},{"name":"sequencerUptimeFeedAddresses","type":"address[]","internalType":"address[]"}],"outputs":[],"stateMutability":"nonpayable"},{"type":"function","name":"configureSystemParameters","inputs":[{"name":"maxPositionsPerAccount","type":"uint128","internalType":"uint128"},{"name":"marketOrderMinLifetime","type":"uint128","internalType":"uint128"},{"name":"liquidationFeeUsdX18","type":"uint128","internalType":"uint128"},{"name":"marginCollateralRecipient","type":"address","internalType":"address"},{"name":"orderFeeRecipient","type":"address","internalType":"address"},{"name":"settlementFeeRecipient","type":"address","internalType":"address"},{"name":"liquidationFeeRecipient","type":"address","internalType":"address"},{"name":"maxVerificationDelay","type":"uint256","internalType":"uint256"}],"outputs":[],"stateMutability":"nonpayable"},{"type":"function","name":"createCustomReferralCode","inputs":[{"name":"referrer","type":"address","internalType":"address"},{"name":"customReferralCode","type":"string","internalType":"string"}],"outputs":[],"stateMutability":"nonpayable"},{"type":"function","name":"createPerpMarket","inputs":[{"name":"params","type":"tuple","internalType":"struct GlobalConfigurationBranch.CreatePerpMarketParams","components":[{"name":"marketId","type":"uint128","internalType":"uint128"},{"name":"name","type":"string","internalType":"string"},{"name":"symbol","type":"string","internalType":"string"},{"name":"priceAdapter","type":"address","internalType":"address"},{"name":"initialMarginRateX18","type":"uint128","internalType":"uint128"},{"name":"maintenanceMarginRateX18","type":"uint128","internalType":"uint128"},{"name":"maxOpenInterest","type":"uint128","internalType":"uint128"},{"name":"maxSkew","type":"uint128","internalType":"uint128"},{"name":"maxFundingVelocity","type":"uint128","internalType":"uint128"},{"name":"minTradeSizeX18","type":"uint128","internalType":"uint128"},{"name":"skewScale","type":"uint256","internalType":"uint256"},{"name":"marketOrderConfiguration","type":"tuple","internalType":"struct SettlementConfiguration.Data","components":[{"name":"strategy","type":"uint8","internalType":"enum SettlementConfiguration.Strategy"},{"name":"isEnabled","type":"bool","internalType":"bool"},{"name":"fee","type":"uint80","internalType":"uint80"},{"name":"keeper","type":"address","internalType":"address"},{"name":"data","type":"bytes","internalType":"bytes"}]},{"name":"offchainOrdersConfiguration","type":"tuple","internalType":"struct SettlementConfiguration.Data","components":[{"name":"strategy","type":"uint8","internalType":"enum SettlementConfiguration.Strategy"},{"name":"isEnabled","type":"bool","internalType":"bool"},{"name":"fee","type":"uint80","internalType":"uint80"},{"name":"keeper","type":"address","internalType":"address"},{"name":"data","type":"bytes","internalType":"bytes"}]},{"name":"orderFees","type":"tuple","internalType":"struct OrderFees.Data","components":[{"name":"makerFee","type":"uint128","internalType":"uint128"},{"name":"takerFee","type":"uint128","internalType":"uint128"}]},{"name":"priceFeedHeartbeatSeconds","type":"uint32","internalType":"uint32"}]}],"outputs":[],"stateMutability":"nonpayable"},{"type":"function","name":"getAccountsWithActivePositions","inputs":[{"name":"lowerBound","type":"uint256","internalType":"uint256"},{"name":"upperBound","type":"uint256","internalType":"uint256"}],"outputs":[{"name":"accountsIds","type":"uint128[]","internalType":"uint128[]"}],"stateMutability":"view"},{"type":"function","name":"getCustomReferralCodeReferrer","inputs":[{"name":"customReferralCode","type":"string","internalType":"string"}],"outputs":[{"name":"","type":"address","internalType":"address"}],"stateMutability":"view"},{"type":"function","name":"getMarginCollateralConfiguration","inputs":[{"name":"collateralType","type":"address","internalType":"address"}],"outputs":[{"name":"","type":"tuple","internalType":"struct MarginCollateralConfiguration.Data","components":[{"name":"depositCap","type":"uint128","internalType":"uint128"},{"name":"loanToValue","type":"uint120","internalType":"uint120"},{"name":"decimals","type":"uint8","internalType":"uint8"},{"name":"priceFeed","type":"address","internalType":"address"},{"name":"totalDeposited","type":"uint256","internalType":"uint256"},{"name":"priceFeedHearbeatSeconds","type":"uint32","internalType":"uint32"}]}],"stateMutability":"pure"},{"type":"function","name":"initialize","inputs":[{"name":"tradingAccountToken","type":"address","internalType":"address"},{"name":"usdToken","type":"address","internalType":"address"}],"outputs":[],"stateMutability":"nonpayable"},{"type":"function","name":"owner","inputs":[],"outputs":[{"name":"","type":"address","internalType":"address"}],"stateMutability":"view"},{"type":"function","name":"removeCollateralFromLiquidationPriority","inputs":[{"name":"collateralType","type":"address","internalType":"address"}],"outputs":[],"stateMutability":"nonpayable"},{"type":"function","name":"renounceOwnership","inputs":[],"outputs":[],"stateMutability":"nonpayable"},{"type":"function","name":"setTradingAccountToken","inputs":[{"name":"tradingAccountToken","type":"address","internalType":"address"}],"outputs":[],"stateMutability":"nonpayable"},{"type":"function","name":"setUsdToken","inputs":[{"name":"usdToken","type":"address","internalType":"address"}],"outputs":[],"stateMutability":"nonpayable"},{"type":"function","name":"transferOwnership","inputs":[{"name":"newOwner","type":"address","internalType":"address"}],"outputs":[],"stateMutability":"nonpayable"},{"type":"function","name":"updatePerpMarketConfiguration","inputs":[{"name":"marketId","type":"uint128","internalType":"uint128"},{"name":"params","type":"tuple","internalType":"struct GlobalConfigurationBranch.UpdatePerpMarketConfigurationParams","components":[{"name":"name","type":"string","internalType":"string"},{"name":"symbol","type":"string","internalType":"string"},{"name":"priceAdapter","type":"address","internalType":"address"},{"name":"initialMarginRateX18","type":"uint128","internalType":"uint128"},{"name":"maintenanceMarginRateX18","type":"uint128","internalType":"uint128"},{"name":"maxOpenInterest","type":"uint128","internalType":"uint128"},{"name":"maxSkew","type":"uint128","internalType":"uint128"},{"name":"minTradeSizeX18","type":"uint128","internalType":"uint128"},{"name":"maxFundingVelocity","type":"uint128","internalType":"uint128"},{"name":"skewScale","type":"uint256","internalType":"uint256"},{"name":"orderFees","type":"tuple","internalType":"struct OrderFees.Data","components":[{"name":"makerFee","type":"uint128","internalType":"uint128"},{"name":"takerFee","type":"uint128","internalType":"uint128"}]},{"name":"priceFeedHeartbeatSeconds","type":"uint32","internalType":"uint32"}]}],"outputs":[],"stateMutability":"nonpayable"},{"type":"function","name":"updatePerpMarketStatus","inputs":[{"name":"marketId","type":"uint128","internalType":"uint128"},{"name":"enable","type":"bool","internalType":"bool"}],"outputs":[],"stateMutability":"nonpayable"},{"type":"function","name":"updateSettlementConfiguration","inputs":[{"name":"marketId","type":"uint128","internalType":"uint128"},{"name":"settlementConfigurationId","type":"uint128","internalType":"uint128"},{"name":"newSettlementConfiguration","type":"tuple","internalType":"struct SettlementConfiguration.Data","components":[{"name":"strategy","type":"uint8","internalType":"enum SettlementConfiguration.Strategy"},{"name":"isEnabled","type":"bool","internalType":"bool"},{"name":"fee","type":"uint80","internalType":"uint80"},{"name":"keeper","type":"address","internalType":"address"},{"name":"data","type":"bytes","internalType":"bytes"}]}],"outputs":[],"stateMutability":"nonpayable"},{"type":"event","name":"Initialized","inputs":[{"name":"version","type":"uint64","indexed":false,"internalType":"uint64"}],"anonymous":false},{"type":"event","name":"LogConfigureCollateralLiquidationPriority","inputs":[{"name":"sender","type":"address","indexed":true,"internalType":"address"},{"name":"collateralTypes","type":"address[]","indexed":false,"internalType":"address[]"}],"anonymous":false},{"type":"event","name":"LogConfigureLiquidators","inputs":[{"name":"sender","type":"address","indexed":true,"internalType":"address"},{"name":"liquidators","type":"address[]","indexed":false,"internalType":"address[]"},{"name":"enable","type":"bool[]","indexed":false,"internalType":"bool[]"}],"anonymous":false},{"type":"event","name":"LogConfigureMarginCollateral","inputs":[{"name":"sender","type":"address","indexed":true,"internalType":"address"},{"name":"collateralType","type":"address","indexed":true,"internalType":"address"},{"name":"depositCap","type":"uint128","indexed":false,"internalType":"uint128"},{"name":"loanToValue","type":"uint120","indexed":false,"internalType":"uint120"},{"name":"decimals","type":"uint8","indexed":false,"internalType":"uint8"},{"name":"priceFeed","type":"address","indexed":false,"internalType":"address"},{"name":"priceFeedHeartbeatSeconds","type":"uint32","indexed":false,"internalType":"uint32"}],"anonymous":false},{"type":"event","name":"LogConfigureSystemParameters","inputs":[{"name":"sender","type":"address","indexed":true,"internalType":"address"},{"name":"maxPositionsPerAccount","type":"uint128","indexed":false,"internalType":"uint128"},{"name":"marketOrderMinLifetime","type":"uint128","indexed":false,"internalType":"uint128"},{"name":"liquidationFeeUsdX18","type":"uint128","indexed":false,"internalType":"uint128"}],"anonymous":false},{"type":"event","name":"LogCreateCustomReferralCode","inputs":[{"name":"referrer","type":"address","indexed":true,"internalType":"address"},{"name":"customReferralCode","type":"string","indexed":false,"internalType":"string"}],"anonymous":false},{"type":"event","name":"LogCreatePerpMarket","inputs":[{"name":"sender","type":"address","indexed":true,"internalType":"address"},{"name":"marketId","type":"uint128","indexed":false,"internalType":"uint128"}],"anonymous":false},{"type":"event","name":"LogDisablePerpMarket","inputs":[{"name":"sender","type":"address","indexed":true,"internalType":"address"},{"name":"marketId","type":"uint128","indexed":false,"internalType":"uint128"}],"anonymous":false},{"type":"event","name":"LogEnablePerpMarket","inputs":[{"name":"sender","type":"address","indexed":true,"internalType":"address"},{"name":"marketId","type":"uint128","indexed":false,"internalType":"uint128"}],"anonymous":false},{"type":"event","name":"LogRemoveCollateralFromLiquidationPriority","inputs":[{"name":"sender","type":"address","indexed":true,"internalType":"address"},{"name":"collateralType","type":"address","indexed":true,"internalType":"address"}],"anonymous":false},{"type":"event","name":"LogSetSequencerUptimeFeed","inputs":[{"name":"sender","type":"address","indexed":true,"internalType":"address"},{"name":"chainId","type":"uint256","indexed":false,"internalType":"uint256"},{"name":"sequencerUptimeFeed","type":"address","indexed":true,"internalType":"address"}],"anonymous":false},{"type":"event","name":"LogSetTradingAccountToken","inputs":[{"name":"sender","type":"address","indexed":true,"internalType":"address"},{"name":"tradingAccountToken","type":"address","indexed":true,"internalType":"address"}],"anonymous":false},{"type":"event","name":"LogSetUsdToken","inputs":[{"name":"sender","type":"address","indexed":true,"internalType":"address"},{"name":"usdToken","type":"address","indexed":true,"internalType":"address"}],"anonymous":false},{"type":"event","name":"LogUpdatePerpMarketConfiguration","inputs":[{"name":"sender","type":"address","indexed":true,"internalType":"address"},{"name":"marketId","type":"uint128","indexed":false,"internalType":"uint128"}],"anonymous":false},{"type":"event","name":"LogUpdateSettlementConfiguration","inputs":[{"name":"sender","type":"address","indexed":true,"internalType":"address"},{"name":"marketId","type":"uint128","indexed":true,"internalType":"uint128"},{"name":"settlementConfigurationId","type":"uint128","indexed":false,"internalType":"uint128"}],"anonymous":false},{"type":"event","name":"OwnershipTransferred","inputs":[{"name":"previousOwner","type":"address","indexed":true,"internalType":"address"},{"name":"newOwner","type":"address","indexed":true,"internalType":"address"}],"anonymous":false},{"type":"error","name":"ArrayLengthMismatch","inputs":[{"name":"expected","type":"uint256","internalType":"uint256"},{"name":"actual","type":"uint256","internalType":"uint256"}]},{"type":"error","name":"InitialMarginRateLessOrEqualThanMaintenanceMarginRate","inputs":[]},{"type":"error","name":"InvalidInitialization","inputs":[]},{"type":"error","name":"InvalidMarginCollateralConfiguration","inputs":[{"name":"collateralType","type":"address","internalType":"address"},{"name":"decimals","type":"uint8","internalType":"uint8"},{"name":"priceFeed","type":"address","internalType":"address"}]},{"type":"error","name":"InvalidSettlementConfigurationId","inputs":[]},{"type":"error","name":"MarginCollateralAlreadyInPriority","inputs":[{"name":"collateralType","type":"address","internalType":"address"}]},{"type":"error","name":"MarginCollateralTypeNotInPriority","inputs":[{"name":"collateralType","type":"address","internalType":"address"}]},{"type":"error","name":"MarketAlreadyExists","inputs":[{"name":"marketId","type":"uint128","internalType":"uint128"}]},{"type":"error","name":"NotInitializing","inputs":[]},{"type":"error","name":"OwnableInvalidOwner","inputs":[{"name":"owner","type":"address","internalType":"address"}]},{"type":"error","name":"OwnableUnauthorizedAccount","inputs":[{"name":"account","type":"address","internalType":"address"}]},{"type":"error","name":"PerpMarketAlreadyDisabled","inputs":[{"name":"marketId","type":"uint128","internalType":"uint128"}]},{"type":"error","name":"PerpMarketAlreadyEnabled","inputs":[{"name":"marketId","type":"uint128","internalType":"uint128"}]},{"type":"error","name":"PerpMarketNotInitialized","inputs":[{"name":"marketId","type":"uint128","internalType":"uint128"}]},{"type":"error","name":"TradingAccountTokenNotDefined","inputs":[]},{"type":"error","name":"ZeroInput","inputs":[{"name":"parameter","type":"string","internalType":"string"}]}],"bytecode":{"object":"0x6080604052348015600e575f80fd5b5060156019565b60c9565b7ff0c57e16840df040f15088dc2f81fe391c3923bec73e23a9662efc9c229c6a00805468010000000000000000900460ff161560685760405163f92ee8a960e01b815260040160405180910390fd5b80546001600160401b039081161460c65780546001600160401b0319166001600160401b0390811782556040519081527fc7f505b2f371ae2175ee4913f4499e1f2633a7b5936321eed1cdaeb6115181d29060200160405180910390a15b50565b6141d9806100d65f395ff3fe608060405234801561000f575f80fd5b5060043610610163575f3560e01c80639c1880eb116100c7578063de6c45d01161007d578063f2fde38b11610063578063f2fde38b14610337578063f7ee0fa91461034a578063fe43da3d1461035d575f80fd5b8063de6c45d01461029a578063e1fdafee146102ad575f80fd5b8063b988c53b116100ad578063b988c53b14610254578063cc9c899c14610267578063da80559014610287575f80fd5b80639c1880eb1461022e578063b8a41c3714610241575f80fd5b806350c4909e1161011c57806377114a251161010257806377114a25146101e35780638da5cb5b146101f65780638fdb867b1461021b575f80fd5b806350c4909e146101c8578063715018a6146101db575f80fd5b806336cba7bb1161014c57806336cba7bb1461018f578063485cc955146101a25780634ceb6b6f146101b5575f80fd5b8063225c14e51461016757806335b0cb1f1461017c575b5f80fd5b61017a610175366004613652565b610370565b005b61017a61018a366004613681565b610413565b61017a61019d3660046136d3565b610d46565b61017a6101b036600461370b565b611443565b61017a6101c3366004613816565b6115b2565b61017a6101d6366004613870565b611612565b61017a611966565b61017a6101f1366004613936565b611979565b6101fe611ccb565b6040516001600160a01b0390911681526020015b60405180910390f35b61017a610229366004613990565b611cff565b6101fe61023c366004613a1b565b612063565b61017a61024f366004613a9d565b61206d565b61017a610262366004613b9a565b6121c7565b61027a610275366004613c43565b6123ac565b6040516102129190613c63565b61017a610295366004613652565b61247c565b61017a6102a8366004613652565b612536565b6102c06102bb366004613652565b6125e3565b60405161021291905f60c0820190506001600160801b0383511682526effffffffffffffffffffffffffffff602084015116602083015260ff60408401511660408301526001600160a01b0360608401511660608301526080830151608083015263ffffffff60a08401511660a083015292915050565b61017a610345366004613652565b612698565b61017a610358366004613caf565b6126ee565b61017a61036b366004613d01565b6127d8565b610378612963565b6001600160a01b0381166103b8576040517f3379ca3500000000000000000000000000000000000000000000000000000000815260040160405180910390fd5b5f6103c16129ae565b6007810180546001600160a01b0319166001600160a01b0385169081179091556040519192509033907f66f83522a7eac1043e56d1676fce1b4a4e49cd5b707a96f5f571221334d7bb89905f90a35050565b61041b612963565b815f61042682612a0f565b604080516101208101825282546001600160801b038082168352600160801b91829004600f0b602084015260018501548082168486015291909104166060820152600283015460ff1615156080820152600383015460a0820152600483015460c0820152600583015460e082015281516101808101909252600683018054919392610100850192909190829082906104bd90613d77565b80601f01602080910402602001604051908101604052809291908181526020018280546104e990613d77565b80156105345780601f1061050b57610100808354040283529160200191610534565b820191905f5260205f20905b81548152906001019060200180831161051757829003601f168201915b5050505050815260200160018201805461054d90613d77565b80601f016020809104026020016040519081016040528092919081815260200182805461057990613d77565b80156105c45780601f1061059b576101008083540402835291602001916105c4565b820191905f5260205f20905b8154815290600101906020018083116105a757829003601f168201915b505050918352505060028201546001600160a01b031660208083019190915260038301546001600160801b03808216604080860191909152600160801b9283900482166060860152600486015480831660808088019190915290849004831660a0870152600587015480841660c0880152849004831660e08701526006870154610100870152815180830190925260078701548084168352939093049091169281019290925261012083019190915260089092015463ffffffff166101409091015291528201519192506106bd90505760405163ee292d8b60e01b81526001600160801b03831660048201526024015b60405180910390fd5b5f6106c785612a0f565b9050600681016106d78580613daf565b6040516020016106e8929190613df2565b604051602081830303815290604052515f036107305760405163292ab05f60e11b81526004016106b4906020808252600490820152636e616d6560e01b604082015260600190565b61073d6020860186613daf565b60405160200161074e929190613df2565b604051602081830303815290604052515f036107965760405163292ab05f60e11b81526020600482015260066024820152651cde5b589bdb60d21b60448201526064016106b4565b5f6107a76060870160408801613652565b6001600160a01b0316036107ed5760405163292ab05f60e11b815260206004820152600c60248201526b383934b1b2a0b230b83a32b960a11b60448201526064016106b4565b6107fd60a0860160808701613e01565b6001600160801b03165f036108555760405163292ab05f60e11b815260206004820152601860248201527f6d61696e74656e616e63654d617267696e52617465583138000000000000000060448201526064016106b4565b61086560c0860160a08701613e01565b6001600160801b03165f036108bd5760405163292ab05f60e11b815260206004820152600f60248201527f6d61784f70656e496e746572657374000000000000000000000000000000000060448201526064016106b4565b6108cd60e0860160c08701613e01565b6001600160801b03165f0361090f5760405163292ab05f60e11b81526020600482015260076024820152666d6178536b657760c81b60448201526064016106b4565b61091f6080860160608701613e01565b6001600160801b03165f036109775760405163292ab05f60e11b815260206004820152601460248201527f696e697469616c4d617267696e5261746558313800000000000000000000000060448201526064016106b4565b61098760a0860160808701613e01565b6001600160801b03166109a06080870160608801613e01565b6001600160801b0316116109c757604051632001297160e01b815260040160405180910390fd5b8461012001355f03610a085760405163292ab05f60e11b8152602060048201526009602482015268736b65775363616c6560b81b60448201526064016106b4565b610a19610100860160e08701613e01565b6001600160801b03165f03610a715760405163292ab05f60e11b815260206004820152600f60248201527f6d696e547261646553697a65583138000000000000000000000000000000000060448201526064016106b4565b610a8361012086016101008701613e01565b6001600160801b03165f03610adb5760405163292ab05f60e11b815260206004820152601260248201527f6d617846756e64696e6756656c6f63697479000000000000000000000000000060448201526064016106b4565b610aed6101a086016101808701613e1a565b63ffffffff165f03610b425760405163292ab05f60e11b815260206004820152601960248201527f7072696365466565644865617274626561745365636f6e64730000000000000060448201526064016106b4565b604080516101808101909152610d009080610b5d8880613daf565b8080601f0160208091040260200160405190810160405280939291908181526020018383808284375f92019190915250505090825250602090810190610ba590890189613daf565b8080601f0160208091040260200160405190810160405280939291908181526020018383808284375f92019190915250505090825250602001610bee6060890160408a01613652565b6001600160a01b03168152602001610c0c6080890160608a01613e01565b6001600160801b03168152602001610c2a60a0890160808a01613e01565b6001600160801b03168152602001610c4860c0890160a08a01613e01565b6001600160801b03168152602001610c6660e0890160c08a01613e01565b6001600160801b03168152602001610c8661012089016101008a01613e01565b6001600160801b03168152602001610ca5610100890160e08a01613e01565b6001600160801b031681526101208801356020820152604001610cd13689900389016101408a01613e33565b8152602001610ce86101a089016101808a01613e1a565b63ffffffff1681525082612aab90919063ffffffff16565b6040516001600160801b038716815233907f31c94177d41edeaa3cfafce06141153eb8be0a62336b73d84ef835f09ca307789060200160405180910390a2505050505050565b610d4e612963565b610d5b6020820182613e01565b6001600160801b03165f03610db35760405163292ab05f60e11b815260206004820152600860248201527f6d61726b6574496400000000000000000000000000000000000000000000000060448201526064016106b4565b610dc06020820182613daf565b604051602001610dd1929190613df2565b604051602081830303815290604052515f03610e195760405163292ab05f60e11b81526004016106b4906020808252600490820152636e616d6560e01b604082015260600190565b610e266040820182613daf565b604051602001610e37929190613df2565b604051602081830303815290604052515f03610e7f5760405163292ab05f60e11b81526020600482015260066024820152651cde5b589bdb60d21b60448201526064016106b4565b5f610e906080830160608401613652565b6001600160a01b031603610ed65760405163292ab05f60e11b815260206004820152600c60248201526b383934b1b2a0b230b83a32b960a11b60448201526064016106b4565b610ee660c0820160a08301613e01565b6001600160801b03165f03610f3e5760405163292ab05f60e11b815260206004820152601860248201527f6d61696e74656e616e63654d617267696e52617465583138000000000000000060448201526064016106b4565b610f4e60e0820160c08301613e01565b6001600160801b03165f03610fa65760405163292ab05f60e11b815260206004820152600f60248201527f6d61784f70656e496e746572657374000000000000000000000000000000000060448201526064016106b4565b610fb7610100820160e08301613e01565b6001600160801b03165f03610ff95760405163292ab05f60e11b81526020600482015260076024820152666d6178536b657760c81b60448201526064016106b4565b61100960c0820160a08301613e01565b6001600160801b031661102260a0830160808401613e01565b6001600160801b03161161104957604051632001297160e01b815260040160405180910390fd5b8061014001355f0361108a5760405163292ab05f60e11b8152602060048201526009602482015268736b65775363616c6560b81b60448201526064016106b4565b61109c61014082016101208301613e01565b6001600160801b03165f036110f45760405163292ab05f60e11b815260206004820152600f60248201527f6d696e547261646553697a65583138000000000000000000000000000000000060448201526064016106b4565b61110661012082016101008301613e01565b6001600160801b03165f0361115e5760405163292ab05f60e11b815260206004820152601260248201527f6d617846756e64696e6756656c6f63697479000000000000000000000000000060448201526064016106b4565b61117061020082016101e08301613e1a565b63ffffffff165f036111c55760405163292ab05f60e11b815260206004820152601960248201527f7072696365466565644865617274626561745365636f6e64730000000000000060448201526064016106b4565b5f6111ce6129ae565b604080516101e081019091529091506113dd90806111ef6020860186613e01565b6001600160801b0316815260200184806020019061120d9190613daf565b8080601f0160208091040260200160405190810160405280939291908181526020018383808284375f920191909152505050908252506020016112536040860186613daf565b8080601f0160208091040260200160405190810160405280939291908181526020018383808284375f9201919091525050509082525060200161129c6080860160608701613652565b6001600160a01b031681526020016112ba60a0860160808701613e01565b6001600160801b031681526020016112d860c0860160a08701613e01565b6001600160801b031681526020016112f660e0860160c08701613e01565b6001600160801b03168152602001611315610100860160e08701613e01565b6001600160801b0316815260200161133561012086016101008701613e01565b6001600160801b0316815260200161135561014086016101208701613e01565b6001600160801b03168152610140850135602082015260400161137c610160860186613e8c565b61138590613eaa565b8152602001611398610180860186613e8c565b6113a190613eaa565b81526020016113b93686900386016101a08701613e33565b81526020016113d061020086016101e08701613e1a565b63ffffffff169052612b76565b6113f46113ed6020840184613e01565b8290612d28565b337f65710a3cc6517f99a1554885696d8b6c995e3b48013e6a9882d4cbe9edf821c26114236020850185613e01565b6040516001600160801b0390911681526020015b60405180910390a25050565b7ff0c57e16840df040f15088dc2f81fe391c3923bec73e23a9662efc9c229c6a00805468010000000000000000810460ff16159067ffffffffffffffff165f8115801561148d5750825b90505f8267ffffffffffffffff1660011480156114a95750303b155b9050811580156114b7575080155b156114ee576040517ff92ee8a900000000000000000000000000000000000000000000000000000000815260040160405180910390fd5b845467ffffffffffffffff19166001178555831561152257845468ff00000000000000001916680100000000000000001785555b5f61152b6129ae565b6007810180546001600160a01b03808c166001600160a01b03199283161790925560069092018054918a16919092161790555083156115a957845468ff000000000000000019168555604051600181527fc7f505b2f371ae2175ee4913f4499e1f2633a7b5936321eed1cdaeb6115181d29060200160405180910390a15b50505050505050565b6115ba612963565b816115c482612d88565b80546001600160a01b0319166001600160a01b03928316179055604051908316907f77e2e094e76e003bf8c0d4ce56f865b54d30ef6a2d1b21f981ea4359ebc9ac3690611437908490613ef8565b61161a612963565b815f61162582612a0f565b604080516101208101825282546001600160801b038082168352600160801b91829004600f0b602084015260018501548082168486015291909104166060820152600283015460ff1615156080820152600383015460a0820152600483015460c0820152600583015460e082015281516101808101909252600683018054919392610100850192909190829082906116bc90613d77565b80601f01602080910402602001604051908101604052809291908181526020018280546116e890613d77565b80156117335780601f1061170a57610100808354040283529160200191611733565b820191905f5260205f20905b81548152906001019060200180831161171657829003601f168201915b5050505050815260200160018201805461174c90613d77565b80601f016020809104026020016040519081016040528092919081815260200182805461177890613d77565b80156117c35780601f1061179a576101008083540402835291602001916117c3565b820191905f5260205f20905b8154815290600101906020018083116117a657829003601f168201915b505050918352505060028201546001600160a01b031660208083019190915260038301546001600160801b03808216604080860191909152600160801b9283900482166060860152600486015480831660808088019190915290849004831660a0870152600587015480841660c0880152849004831660e08701526006870154610100870152815180830190925260078701548084168352939093049091169281019290925261012083019190915260089092015463ffffffff166101409091015291528201519192506118b790505760405163ee292d8b60e01b81526001600160801b03831660048201526024016106b4565b5f6118c06129ae565b90508315611915576118d28186612d28565b6040516001600160801b038616815233907f542ef5fd438ba3b97ecdedab531f41c7d292a73756e8a56550d1b639433ccb309060200160405180910390a261195f565b61191f8186612db5565b6040516001600160801b038616815233907f061a3317ddb84180eec9e13212cb8bc49d7e641c7039d6b1788507f9da97914b906020015b60405180910390a25b5050505050565b61196e612963565b6119775f612e10565b565b611981612963565b825f61198c82612a0f565b604080516101208101825282546001600160801b038082168352600160801b91829004600f0b602084015260018501548082168486015291909104166060820152600283015460ff1615156080820152600383015460a0820152600483015460c0820152600583015460e08201528151610180810190925260068301805491939261010085019290919082908290611a2390613d77565b80601f0160208091040260200160405190810160405280929190818152602001828054611a4f90613d77565b8015611a9a5780601f10611a7157610100808354040283529160200191611a9a565b820191905f5260205f20905b815481529060010190602001808311611a7d57829003601f168201915b50505050508152602001600182018054611ab390613d77565b80601f0160208091040260200160405190810160405280929190818152602001828054611adf90613d77565b8015611b2a5780601f10611b0157610100808354040283529160200191611b2a565b820191905f5260205f20905b815481529060010190602001808311611b0d57829003601f168201915b505050918352505060028201546001600160a01b031660208083019190915260038301546001600160801b03808216604080860191909152600160801b9283900482166060860152600486015480831660808088019190915290849004831660a0870152600587015480841660c0880152849004831660e08701526006870154610100870152815180830190925260078701548084168352939093049091169281019290925261012083019190915260089092015463ffffffff16610140909101529152820151919250611c1e90505760405163ee292d8b60e01b81526001600160801b03831660048201526024016106b4565b6001600160801b03841615801590611c4057506001600160801b038416600114155b15611c77576040517f6414779700000000000000000000000000000000000000000000000000000000815260040160405180910390fd5b611c82858585612e80565b6040516001600160801b03858116825286169033907f484ab6802b5750f26746e86492313bbbcd5bee8d268be3c2bb6ee80662f899b49060200160405180910390a35050505050565b5f807f9016d09d72d40fdae2fd8ceac6b6234c7706214fd39c1cd1e609a0528c1993005b546001600160a01b031692915050565b611d07612963565b876001600160801b03165f03611d605760405163292ab05f60e11b815260206004820152601660248201527f6d6178506f736974696f6e735065724163636f756e740000000000000000000060448201526064016106b4565b856001600160801b03165f03611db95760405163292ab05f60e11b815260206004820152601460248201527f6c69717569646174696f6e46656555736458313800000000000000000000000060448201526064016106b4565b6001600160a01b038516611e105760405163292ab05f60e11b815260206004820152601960248201527f6d617267696e436f6c6c61746572616c526563697069656e740000000000000060448201526064016106b4565b6001600160a01b038416611e675760405163292ab05f60e11b815260206004820152601160248201527f6f72646572466565526563697069656e7400000000000000000000000000000060448201526064016106b4565b6001600160a01b038316611ebe5760405163292ab05f60e11b815260206004820152601660248201527f736574746c656d656e74466565526563697069656e740000000000000000000060448201526064016106b4565b6001600160a01b038216611f155760405163292ab05f60e11b815260206004820152601760248201527f6c69717569646174696f6e466565526563697069656e7400000000000000000060448201526064016106b4565b805f03611f655760405163292ab05f60e11b815260206004820152601460248201527f6d6178566572696669636174696f6e44656c617900000000000000000000000060448201526064016106b4565b5f611f6e6129ae565b6001600160801b038a8116600160801b8b8316908102821784556001840180547fffffffffffffffffffffffffffffffff0000000000000000000000000000000016938c1693841790556002840180546001600160a01b03199081166001600160a01b038d81169190911790925560038601805482168c841617905560048601805482168b84161790556005860180549091169189169190911790556008840186905560408051928352602083019190915281019190915290915033907f0ec7de5b5f69316f54299800de18c7806509fe970f4f92edadf91179e73058499060600160405180910390a2505050505050505050565b5f611cef82612d88565b612075612963565b5f8390036120c65760405163292ab05f60e11b815260206004820152600b60248201527f6c697175696461746f727300000000000000000000000000000000000000000060448201526064016106b4565b8281146120f057604051631f4bb7c160e31b815260048101849052602481018290526044016106b4565b5f6120f96129ae565b90505f5b848110156121875783838281811061211757612117613f0a565b905060200201602081019061212c9190613f1e565b82600a015f88888581811061214357612143613f0a565b90506020020160208101906121589190613652565b6001600160a01b0316815260208101919091526040015f20805460ff19169115159190911790556001016120fd565b50336001600160a01b03167f1b5f266857def89cf63cfa439486e6427f8591e935da3cb395bd7f691420b4cd868686866040516119569493929190613f7c565b6121cf612963565b81515f036122205760405163292ab05f60e11b815260206004820152600860248201527f636861696e49647300000000000000000000000000000000000000000000000060448201526064016106b4565b80515f036122715760405163292ab05f60e11b815260206004820152601c60248201527f73657175656e636572557074696d65466565644164647265737365730000000060448201526064016106b4565b80518251146122a05781518151604051631f4bb7c160e31b8152600481019290925260248201526044016106b4565b5f6122a96129ae565b90505f5b83518110156123a6578281815181106122c8576122c8613f0a565b6020026020010151826011015f8684815181106122e7576122e7613f0a565b602002602001015181526020019081526020015f205f6101000a8154816001600160a01b0302191690836001600160a01b0316021790555082818151811061233157612331613f0a565b60200260200101516001600160a01b0316336001600160a01b03167ffaabb9d520b6d287439da904cc328a3679c4081e458ebc89e20011c9274d541586848151811061237f5761237f613f0a565b602002602001015160405161239691815260200190565b60405180910390a36001016122ad565b50505050565b60605f6123b76129ae565b90506123c38484613fea565b6123ce906001613ffd565b67ffffffffffffffff8111156123e6576123e661373c565b60405190808252806020026020018201604052801561240f578160200160208202803683370190505b5091505f845b84811161247357612429600f840182612f45565b84838151811061243b5761243b613f0a565b6001600160801b03909216602092830291909101909101528161245d81614010565b925050808061246b90614010565b915050612415565b50505092915050565b612484612963565b6001600160a01b0381166124db5760405163292ab05f60e11b815260206004820152600860248201527f757364546f6b656e00000000000000000000000000000000000000000000000060448201526064016106b4565b5f6124e46129ae565b6006810180546001600160a01b0319166001600160a01b0385169081179091556040519192509033907fcf10762fabc15743e45e0278377baf59be43714239e2a18bd888ffdea43de597905f90a35050565b61253e612963565b6001600160a01b0381166125955760405163292ab05f60e11b815260206004820152600e60248201527f636f6c6c61746572616c5479706500000000000000000000000000000000000060448201526064016106b4565b5f61259e6129ae565b90506125aa8183612f59565b6040516001600160a01b0383169033907f35bb9209dbcf9687ef61d688d66e3632ee658ea0dd855e7ac0f2443464b4dc21905f90a35050565b6040805160c0810182525f80825260208201819052918101829052606081018290526080810182905260a081018290529061261d83613104565b6040805160c08101825282546001600160801b0381168252600160801b81046effffffffffffffffffffffffffffff166020830152600160f81b900460ff169181019190915260018201546001600160a01b031660608201526002820154608082015260039091015463ffffffff1660a08201529392505050565b6126a0612963565b6001600160a01b0381166126e2576040517f1e4fbdf70000000000000000000000000000000000000000000000000000000081525f60048201526024016106b4565b6126eb81612e10565b50565b6126f6612963565b5f8190036127475760405163292ab05f60e11b815260206004820152600f60248201527f636f6c6c61746572616c5479706573000000000000000000000000000000000060448201526064016106b4565b5f6127506129ae565b90506127908383808060200260200160405190810160405280939291908181526020018383602002808284375f9201919091525085939250506131819050565b336001600160a01b03167f311ed9f2ec31a178a39e232908db34729c00d11b8d3f6d505391f0de8983b9f784846040516127cb929190614028565b60405180910390a2505050565b6127e0612963565b846001600160a01b031663313ce5676040518163ffffffff1660e01b8152600401602060405180830381865afa92505050801561283a575060408051601f3d908101601f191682019092526128379181019061403b565b60015b6128705760405163b817a46b60e01b81526001600160a01b0380871660048301525f6024830152831660448201526064016106b4565b601260ff8216118061288957506001600160a01b038316155b80612895575060ff8116155b156128cf5760405163b817a46b60e01b81526001600160a01b03808816600483015260ff83166024830152841660448201526064016106b4565b6128dd86868684878761329f565b604080516001600160801b03871681526effffffffffffffffffffffffffffff8616602082015260ff8316818301526001600160a01b03858116606083015263ffffffff8516608083015291519188169133917fc345a94cdb30006100053735b1b896dc495e9deb4c2495f19e68a3a1d6870ff1919081900360a00190a3505050505050565b3361296c611ccb565b6001600160a01b031614611977576040517f118cdaa70000000000000000000000000000000000000000000000000000000081523360048201526024016106b4565b5f8060ff196129de60017feeb5cd774bc9c6845792a7b59ceb11c49cb99339b2df9604c51808d2eb250cc2613fea565b6040516020016129f091815260200190565b60408051601f1981840301815291905280516020909101201692915050565b5f8060ff19612a3f60017f7391160f00c346d035658daa8a3c1eb1fa2f98b67b37275a9487390ac54b119f613fea565b604051602001612a5191815260200190565b604051602081830303815290604052805190602001201683604051602001612a8c9291909182526001600160801b0316602082015260400190565b60408051601f1981840301815291905280516020909101209392505050565b80518290612ab9908261409f565b5060208101516001830190612ace908261409f565b5060408101516002830180546001600160a01b0319166001600160a01b03909216919091179055606081015160808201516001600160801b03918216600160801b918316820217600385015560a083015160c0840151908316908316820217600485015560e083015161010084015190831690831682021760058501556101208301516006850155610140909201518051602090910151908216911690910217600790910155565b5f612b83825f0151612a0f565b80549091506001600160801b031615612bd65781516040517fd75fc36f0000000000000000000000000000000000000000000000000000000081526001600160801b0390911660048201526024016106b4565b815f0151815f015f6101000a8154816001600160801b0302191690836001600160801b031602179055506001816002015f6101000a81548160ff021916908315150217905550612cfd604051806101800160405280846020015181526020018460400151815260200184606001516001600160a01b0316815260200184608001516001600160801b031681526020018460a001516001600160801b031681526020018460c001516001600160801b031681526020018460e001516001600160801b031681526020018461010001516001600160801b031681526020018461012001516001600160801b031681526020018461014001518152602001846101a001518152602001846101c0015163ffffffff1681525082600601612aab90919063ffffffff16565b612d10825f01515f846101600151612e80565b612d24825f01516001846101800151612e80565b5050565b5f612d3f600d84016001600160801b038416613374565b905080612d83576040517f056891470000000000000000000000000000000000000000000000000000000081526001600160801b03831660048201526024016106b4565b505050565b5f806040518060600160405280602481526020016141b56024913983604051602001612a8c92919061415f565b5f612dcc600d84016001600160801b03841661337f565b905080612d83576040517fc9ff72970000000000000000000000000000000000000000000000000000000081526001600160801b03831660048201526024016106b4565b7f9016d09d72d40fdae2fd8ceac6b6234c7706214fd39c1cd1e609a0528c19930080546001600160a01b031981166001600160a01b03848116918217845560405192169182907f8be0079c531659141344cd1fd0a4f28419497f9722a3daafe3b4186f6b6457e0905f90a3505050565b5f612e8b848461338a565b8251815491925090829060ff19166001838015612eaa57612eaa61418c565b021790555060208201518154604084015160608501516001600160a01b03166c01000000000000000000000000026bffffffffffffffffffffffff69ffffffffffffffffffff90921662010000026bffffffffffffffffffff00001994151561010002949094166bffffffffffffffffffffff00199093169290921792909217919091161781556080820151600182019061195f908261409f565b5f612f508383613431565b90505b92915050565b5f612f67600b840183613457565b905080612fab576040517fb8c194470000000000000000000000000000000000000000000000000000000081526001600160a01b03831660048201526024016106b4565b5f612fb884600b01613478565b80519091505f612fc9600183613fea565b67ffffffffffffffff811115612fe157612fe161373c565b60405190808252806020026020018201604052801561300a578160200160208202803683370190505b5090505f805b838110156130ad575f85828151811061302b5761302b613f0a565b6020026020010151905061304b818a600b0161348b90919063ffffffff16565b50876001600160a01b0316816001600160a01b03160361306b57506130a5565b8084848151811061307e5761307e613f0a565b6001600160a01b0390921660209283029190910190910152826130a081614010565b935050505b600101613010565b505f5b6130bb600185613fea565b8110156130fa576130f18382815181106130d7576130d7613f0a565b602002602001015189600b0161349f90919063ffffffff16565b506001016130b0565b5050505050505050565b5f8060ff1961313460017f4693110e548948f348ad9c8c0e5b637b378994981b3a4246fc86241f8faded51613fea565b60405160200161314691815260200190565b604051602081830303815290604052805190602001201683604051602001612a8c9291909182526001600160a01b0316602082015260400190565b80515f5b818110156123a6575f6001600160a01b03168382815181106131a9576131a9613f0a565b60200260200101516001600160a01b0316036132085760405163292ab05f60e11b815260206004820152600e60248201527f636f6c6c61746572616c5479706500000000000000000000000000000000000060448201526064016106b4565b61323783828151811061321d5761321d613f0a565b602002602001015185600b0161349f90919063ffffffff16565b6132975782818151811061324d5761324d613f0a565b60200260200101516040517f889e9e6a0000000000000000000000000000000000000000000000000000000081526004016106b491906001600160a01b0391909116815260200190565b600101613185565b5f6132a987613104565b805460ff909516600160f81b027effffffffffffffffffffffffffffffffffffffffffffffffffffffffffffff6effffffffffffffffffffffffffffff909716600160801b027fff000000000000000000000000000000000000000000000000000000000000009096166001600160801b039098169790971794909417949094169490941782556001820180546001600160a01b039092166001600160a01b0319909216919091179055600301805463ffffffff90931663ffffffff19909316929092179091555050565b5f612f5083836134af565b5f612f5083836134fb565b5f8060ff196133ba60017f4afdb43bc86b99e946919eed9b94acdb0f56ab4974b93329a1618862786cae32613fea565b6040516020016133cc91815260200190565b60405160208183030381529060405280519060200120168484604051602001613411939291909283526001600160801b03918216602084015216604082015260600190565b60408051601f198184030181529190528051602090910120949350505050565b5f825f01828154811061344657613446613f0a565b905f5260205f200154905092915050565b6001600160a01b0381165f9081526001830160205260408120541515612f50565b60605f613484836135de565b9392505050565b5f612f50836001600160a01b0384166134fb565b5f612f50836001600160a01b0384165b5f8181526001830160205260408120546134f457508154600181810184555f848152602080822090930184905584548482528286019093526040902091909155612f53565b505f612f53565b5f81815260018301602052604081205480156135d5575f61351d600183613fea565b85549091505f9061353090600190613fea565b905080821461358f575f865f01828154811061354e5761354e613f0a565b905f5260205f200154905080875f01848154811061356e5761356e613f0a565b5f918252602080832090910192909255918252600188019052604090208390555b85548690806135a0576135a06141a0565b600190038181905f5260205f20015f90559055856001015f8681526020019081526020015f205f905560019350505050612f53565b5f915050612f53565b6060815f0180548060200260200160405190810160405280929190818152602001828054801561362b57602002820191905f5260205f20905b815481526020019060010190808311613617575b50505050509050919050565b80356001600160a01b038116811461364d575f80fd5b919050565b5f60208284031215613662575f80fd5b612f5082613637565b80356001600160801b038116811461364d575f80fd5b5f8060408385031215613692575f80fd5b61369b8361366b565b9150602083013567ffffffffffffffff8111156136b6575f80fd5b83016101a081860312156136c8575f80fd5b809150509250929050565b5f602082840312156136e3575f80fd5b813567ffffffffffffffff8111156136f9575f80fd5b82016102008185031215613484575f80fd5b5f806040838503121561371c575f80fd5b61372583613637565b915061373360208401613637565b90509250929050565b634e487b7160e01b5f52604160045260245ffd5b60405160a0810167ffffffffffffffff811182821017156137735761377361373c565b60405290565b604051601f8201601f1916810167ffffffffffffffff811182821017156137a2576137a261373c565b604052919050565b5f82601f8301126137b9575f80fd5b813567ffffffffffffffff8111156137d3576137d361373c565b6137e6601f8201601f1916602001613779565b8181528460208386010111156137fa575f80fd5b816020850160208301375f918101602001919091529392505050565b5f8060408385031215613827575f80fd5b61383083613637565b9150602083013567ffffffffffffffff81111561384b575f80fd5b613857858286016137aa565b9150509250929050565b8035801515811461364d575f80fd5b5f8060408385031215613881575f80fd5b61388a8361366b565b915061373360208401613861565b5f60a082840312156138a8575f80fd5b6138b0613750565b90508135600181106138c0575f80fd5b81526138ce60208301613861565b6020820152604082013569ffffffffffffffffffff811681146138ef575f80fd5b604082015261390060608301613637565b6060820152608082013567ffffffffffffffff81111561391e575f80fd5b61392a848285016137aa565b60808301525092915050565b5f805f60608486031215613948575f80fd5b6139518461366b565b925061395f6020850161366b565b9150604084013567ffffffffffffffff81111561397a575f80fd5b61398686828701613898565b9150509250925092565b5f805f805f805f80610100898b0312156139a8575f80fd5b6139b18961366b565b97506139bf60208a0161366b565b96506139cd60408a0161366b565b95506139db60608a01613637565b94506139e960808a01613637565b93506139f760a08a01613637565b9250613a0560c08a01613637565b915060e089013590509295985092959890939650565b5f60208284031215613a2b575f80fd5b813567ffffffffffffffff811115613a41575f80fd5b613a4d848285016137aa565b949350505050565b5f8083601f840112613a65575f80fd5b50813567ffffffffffffffff811115613a7c575f80fd5b6020830191508360208260051b8501011115613a96575f80fd5b9250929050565b5f805f8060408587031215613ab0575f80fd5b843567ffffffffffffffff80821115613ac7575f80fd5b613ad388838901613a55565b90965094506020870135915080821115613aeb575f80fd5b50613af887828801613a55565b95989497509550505050565b5f67ffffffffffffffff821115613b1d57613b1d61373c565b5060051b60200190565b5f82601f830112613b36575f80fd5b81356020613b4b613b4683613b04565b613779565b8083825260208201915060208460051b870101935086841115613b6c575f80fd5b602086015b84811015613b8f57613b8281613637565b8352918301918301613b71565b509695505050505050565b5f8060408385031215613bab575f80fd5b823567ffffffffffffffff80821115613bc2575f80fd5b818501915085601f830112613bd5575f80fd5b81356020613be5613b4683613b04565b82815260059290921b84018101918181019089841115613c03575f80fd5b948201945b83861015613c2157853582529482019490820190613c08565b96505086013592505080821115613c36575f80fd5b5061385785828601613b27565b5f8060408385031215613c54575f80fd5b50508035926020909101359150565b602080825282518282018190525f9190848201906040850190845b81811015613ca35783516001600160801b031683529284019291840191600101613c7e565b50909695505050505050565b5f8060208385031215613cc0575f80fd5b823567ffffffffffffffff811115613cd6575f80fd5b613ce285828601613a55565b90969095509350505050565b803563ffffffff8116811461364d575f80fd5b5f805f805f60a08688031215613d15575f80fd5b613d1e86613637565b9450613d2c6020870161366b565b935060408601356effffffffffffffffffffffffffffff81168114613d4f575f80fd5b9250613d5d60608701613637565b9150613d6b60808701613cee565b90509295509295909350565b600181811c90821680613d8b57607f821691505b602082108103613da957634e487b7160e01b5f52602260045260245ffd5b50919050565b5f808335601e19843603018112613dc4575f80fd5b83018035915067ffffffffffffffff821115613dde575f80fd5b602001915036819003821315613a96575f80fd5b818382375f9101908152919050565b5f60208284031215613e11575f80fd5b612f508261366b565b5f60208284031215613e2a575f80fd5b612f5082613cee565b5f60408284031215613e43575f80fd5b6040516040810181811067ffffffffffffffff82111715613e6657613e6661373c565b604052613e728361366b565b8152613e806020840161366b565b60208201529392505050565b5f8235609e19833603018112613ea0575f80fd5b9190910192915050565b5f612f533683613898565b5f81518084525f5b81811015613ed957602081850181015186830182015201613ebd565b505f602082860101526020601f19601f83011685010191505092915050565b602081525f612f506020830184613eb5565b634e487b7160e01b5f52603260045260245ffd5b5f60208284031215613f2e575f80fd5b612f5082613861565b8183525f60208085019450825f5b85811015613f71576001600160a01b03613f5e83613637565b1687529582019590820190600101613f45565b509495945050505050565b604081525f613f8f604083018688613f37565b828103602084810191909152848252859181015f5b86811015613fc957613fb584613861565b151582529282019290820190600101613fa4565b5098975050505050505050565b634e487b7160e01b5f52601160045260245ffd5b81810381811115612f5357612f53613fd6565b80820180821115612f5357612f53613fd6565b5f6001820161402157614021613fd6565b5060010190565b602081525f613a4d602083018486613f37565b5f6020828403121561404b575f80fd5b815160ff81168114613484575f80fd5b601f821115612d8357805f5260205f20601f840160051c810160208510156140805750805b601f840160051c820191505b8181101561195f575f815560010161408c565b815167ffffffffffffffff8111156140b9576140b961373c565b6140cd816140c78454613d77565b8461405b565b602080601f831160018114614100575f84156140e95750858301515b5f19600386901b1c1916600185901b178555614157565b5f85815260208120601f198616915b8281101561412e5788860151825594840194600190910190840161410f565b508582101561414b57878501515f19600388901b60f8161c191681555b505060018460011b0185555b505050505050565b604081525f6141716040830185613eb5565b82810360208401526141838185613eb5565b95945050505050565b634e487b7160e01b5f52602160045260245ffd5b634e487b7160e01b5f52603160045260245ffdfe66692e7a61726f732e437573746f6d526566657272616c436f6e66696775726174696f6e","linkReferences":{}},"methodIdentifiers":{"configureCollateralLiquidationPriority(address[])":"f7ee0fa9","configureLiquidators(address[],bool[])":"b8a41c37","configureMarginCollateral(address,uint128,uint120,address,uint32)":"fe43da3d","configureSequencerUptimeFeedByChainId(uint256[],address[])":"b988c53b","configureSystemParameters(uint128,uint128,uint128,address,address,address,address,uint256)":"8fdb867b","createCustomReferralCode(address,string)":"4ceb6b6f","createPerpMarket((uint128,string,string,address,uint128,uint128,uint128,uint128,uint128,uint128,uint256,(uint8,bool,uint80,address,bytes),(uint8,bool,uint80,address,bytes),(uint128,uint128),uint32))":"36cba7bb","getAccountsWithActivePositions(uint256,uint256)":"cc9c899c","getCustomReferralCodeReferrer(string)":"9c1880eb","getMarginCollateralConfiguration(address)":"e1fdafee","initialize(address,address)":"485cc955","owner()":"8da5cb5b","removeCollateralFromLiquidationPriority(address)":"de6c45d0","renounceOwnership()":"715018a6","setTradingAccountToken(address)":"225c14e5","setUsdToken(address)":"da805590","transferOwnership(address)":"f2fde38b","updatePerpMarketConfiguration(uint128,(string,string,address,uint128,uint128,uint128,uint128,uint128,uint128,uint256,(uint128,uint128),uint32))":"35b0cb1f","updatePerpMarketStatus(uint128,bool)":"50c4909e","updateSettlementConfiguration(uint128,uint128,(uint8,bool,uint80,address,bytes))":"77114a25"},"id":147}