{"abi":[{"type":"function","name":"exposed_PerpMarket_load","inputs":[{"name":"marketId","type":"uint128","internalType":"uint128"}],"outputs":[{"name":"","type":"tuple","internalType":"struct PerpMarket.Data","components":[{"name":"id","type":"uint128","internalType":"uint128"},{"name":"skew","type":"int128","internalType":"int128"},{"name":"openInterest","type":"uint128","internalType":"uint128"},{"name":"nextStrategyId","type":"uint128","internalType":"uint128"},{"name":"initialized","type":"bool","internalType":"bool"},{"name":"lastFundingRate","type":"int256","internalType":"int256"},{"name":"lastFundingFeePerUnit","type":"int256","internalType":"int256"},{"name":"lastFundingTime","type":"uint256","internalType":"uint256"},{"name":"configuration","type":"tuple","internalType":"struct MarketConfiguration.Data","components":[{"name":"name","type":"string","internalType":"string"},{"name":"symbol","type":"string","internalType":"string"},{"name":"priceAdapter","type":"address","internalType":"address"},{"name":"initialMarginRateX18","type":"uint128","internalType":"uint128"},{"name":"maintenanceMarginRateX18","type":"uint128","internalType":"uint128"},{"name":"maxOpenInterest","type":"uint128","internalType":"uint128"},{"name":"maxSkew","type":"uint128","internalType":"uint128"},{"name":"maxFundingVelocity","type":"uint128","internalType":"uint128"},{"name":"minTradeSizeX18","type":"uint128","internalType":"uint128"},{"name":"skewScale","type":"uint256","internalType":"uint256"},{"name":"orderFees","type":"tuple","internalType":"struct OrderFees.Data","components":[{"name":"makerFee","type":"uint128","internalType":"uint128"},{"name":"takerFee","type":"uint128","internalType":"uint128"}]},{"name":"priceFeedHeartbeatSeconds","type":"uint32","internalType":"uint32"}]}]}],"stateMutability":"pure"},{"type":"function","name":"exposed_checkOpenInterestLimits","inputs":[{"name":"marketId","type":"uint128","internalType":"uint128"},{"name":"sizeDelta","type":"int256","internalType":"SD59x18"},{"name":"oldPositionSize","type":"int256","internalType":"SD59x18"},{"name":"newPositionSize","type":"int256","internalType":"SD59x18"}],"outputs":[{"name":"newOpenInterest","type":"uint256","internalType":"UD60x18"},{"name":"newSkew","type":"int256","internalType":"SD59x18"}],"stateMutability":"view"},{"type":"function","name":"exposed_checkTradeSize","inputs":[{"name":"marketId","type":"uint128","internalType":"uint128"},{"name":"sizeDeltaX18","type":"int256","internalType":"SD59x18"}],"outputs":[],"stateMutability":"view"},{"type":"function","name":"exposed_create","inputs":[{"name":"params","type":"tuple","internalType":"struct PerpMarket.CreateParams","components":[{"name":"marketId","type":"uint128","internalType":"uint128"},{"name":"name","type":"string","internalType":"string"},{"name":"symbol","type":"string","internalType":"string"},{"name":"priceAdapter","type":"address","internalType":"address"},{"name":"initialMarginRateX18","type":"uint128","internalType":"uint128"},{"name":"maintenanceMarginRateX18","type":"uint128","internalType":"uint128"},{"name":"maxOpenInterest","type":"uint128","internalType":"uint128"},{"name":"maxSkew","type":"uint128","internalType":"uint128"},{"name":"maxFundingVelocity","type":"uint128","internalType":"uint128"},{"name":"minTradeSizeX18","type":"uint128","internalType":"uint128"},{"name":"skewScale","type":"uint256","internalType":"uint256"},{"name":"marketOrderConfiguration","type":"tuple","internalType":"struct SettlementConfiguration.Data","components":[{"name":"strategy","type":"uint8","internalType":"enum SettlementConfiguration.Strategy"},{"name":"isEnabled","type":"bool","internalType":"bool"},{"name":"fee","type":"uint80","internalType":"uint80"},{"name":"keeper","type":"address","internalType":"address"},{"name":"data","type":"bytes","internalType":"bytes"}]},{"name":"offchainOrdersConfiguration","type":"tuple","internalType":"struct SettlementConfiguration.Data","components":[{"name":"strategy","type":"uint8","internalType":"enum SettlementConfiguration.Strategy"},{"name":"isEnabled","type":"bool","internalType":"bool"},{"name":"fee","type":"uint80","internalType":"uint80"},{"name":"keeper","type":"address","internalType":"address"},{"name":"data","type":"bytes","internalType":"bytes"}]},{"name":"orderFees","type":"tuple","internalType":"struct OrderFees.Data","components":[{"name":"makerFee","type":"uint128","internalType":"uint128"},{"name":"takerFee","type":"uint128","internalType":"uint128"}]},{"name":"priceFeedHeartbeatSeconds","type":"uint32","internalType":"uint32"}]}],"outputs":[],"stateMutability":"nonpayable"},{"type":"function","name":"exposed_getCurrentFundingRate","inputs":[{"name":"marketId","type":"uint128","internalType":"uint128"}],"outputs":[{"name":"","type":"int256","internalType":"SD59x18"}],"stateMutability":"view"},{"type":"function","name":"exposed_getCurrentFundingVelocity","inputs":[{"name":"marketId","type":"uint128","internalType":"uint128"}],"outputs":[{"name":"","type":"int256","internalType":"SD59x18"}],"stateMutability":"view"},{"type":"function","name":"exposed_getIndexPrice","inputs":[{"name":"marketId","type":"uint128","internalType":"uint128"}],"outputs":[{"name":"","type":"uint256","internalType":"UD60x18"}],"stateMutability":"view"},{"type":"function","name":"exposed_getMarkPrice","inputs":[{"name":"marketId","type":"uint128","internalType":"uint128"},{"name":"skewDelta","type":"int256","internalType":"SD59x18"},{"name":"indexPriceX18","type":"uint256","internalType":"UD60x18"}],"outputs":[{"name":"","type":"uint256","internalType":"UD60x18"}],"stateMutability":"view"},{"type":"function","name":"exposed_getNextFundingFeePerUnit","inputs":[{"name":"marketId","type":"uint128","internalType":"uint128"},{"name":"fundingRate","type":"int256","internalType":"SD59x18"},{"name":"price","type":"uint256","internalType":"UD60x18"}],"outputs":[{"name":"","type":"int256","internalType":"SD59x18"}],"stateMutability":"view"},{"type":"function","name":"exposed_getOrderFeeUsd","inputs":[{"name":"marketId","type":"uint128","internalType":"uint128"},{"name":"sizeDelta","type":"int256","internalType":"SD59x18"},{"name":"markPriceX18","type":"uint256","internalType":"UD60x18"}],"outputs":[{"name":"","type":"uint256","internalType":"UD60x18"}],"stateMutability":"view"},{"type":"function","name":"exposed_getPendingFundingFeePerUnit","inputs":[{"name":"marketId","type":"uint128","internalType":"uint128"},{"name":"fundingRate","type":"int256","internalType":"SD59x18"},{"name":"price","type":"uint256","internalType":"UD60x18"}],"outputs":[{"name":"","type":"int256","internalType":"SD59x18"}],"stateMutability":"view"},{"type":"function","name":"exposed_getProportionalElapsedSinceLastFunding","inputs":[{"name":"marketId","type":"uint128","internalType":"uint128"}],"outputs":[{"name":"","type":"uint256","internalType":"UD60x18"}],"stateMutability":"view"},{"type":"function","name":"exposed_updateFunding","inputs":[{"name":"marketId","type":"uint128","internalType":"uint128"},{"name":"fundingRate","type":"int256","internalType":"SD59x18"},{"name":"fundingFeePerUnit","type":"int256","internalType":"SD59x18"}],"outputs":[],"stateMutability":"nonpayable"},{"type":"function","name":"exposed_updateOpenInterest","inputs":[{"name":"marketId","type":"uint128","internalType":"uint128"},{"name":"newOpenInterest","type":"uint256","internalType":"UD60x18"},{"name":"newSkew","type":"int256","internalType":"SD59x18"}],"outputs":[],"stateMutability":"nonpayable"},{"type":"error","name":"ExceedsOpenInterestLimit","inputs":[{"name":"marketId","type":"uint128","internalType":"uint128"},{"name":"maxOpenInterest","type":"uint256","internalType":"uint256"},{"name":"newOpenInterest","type":"uint256","internalType":"uint256"}]},{"type":"error","name":"ExceedsSkewLimit","inputs":[{"name":"marketId","type":"uint128","internalType":"uint128"},{"name":"maxSkew","type":"uint256","internalType":"uint256"},{"name":"newSkew","type":"int256","internalType":"int256"}]},{"type":"error","name":"GracePeriodNotOver","inputs":[]},{"type":"error","name":"InvalidOracleReturn","inputs":[]},{"type":"error","name":"InvalidSequencerUptimeFeedReturn","inputs":[]},{"type":"error","name":"MarketAlreadyExists","inputs":[{"name":"marketId","type":"uint128","internalType":"uint128"}]},{"type":"error","name":"OraclePriceFeedHeartbeat","inputs":[{"name":"priceFeed","type":"address","internalType":"address"}]},{"type":"error","name":"OraclePriceFeedOutOfRange","inputs":[{"name":"priceFeed","type":"address","internalType":"address"}]},{"type":"error","name":"OracleSequencerUptimeFeedIsDown","inputs":[{"name":"sequencerUptimeFeed","type":"address","internalType":"address"}]},{"type":"error","name":"PRBMath_MulDiv18_Overflow","inputs":[{"name":"x","type":"uint256","internalType":"uint256"},{"name":"y","type":"uint256","internalType":"uint256"}]},{"type":"error","name":"PRBMath_MulDiv_Overflow","inputs":[{"name":"x","type":"uint256","internalType":"uint256"},{"name":"y","type":"uint256","internalType":"uint256"},{"name":"denominator","type":"uint256","internalType":"uint256"}]},{"type":"error","name":"PRBMath_SD59x18_Abs_MinSD59x18","inputs":[]},{"type":"error","name":"PRBMath_SD59x18_Convert_Overflow","inputs":[{"name":"x","type":"int256","internalType":"int256"}]},{"type":"error","name":"PRBMath_SD59x18_Convert_Underflow","inputs":[{"name":"x","type":"int256","internalType":"int256"}]},{"type":"error","name":"PRBMath_SD59x18_Div_InputTooSmall","inputs":[]},{"type":"error","name":"PRBMath_SD59x18_Div_Overflow","inputs":[{"name":"x","type":"int256","internalType":"SD59x18"},{"name":"y","type":"int256","internalType":"SD59x18"}]},{"type":"error","name":"PRBMath_SD59x18_IntoUD60x18_Underflow","inputs":[{"name":"x","type":"int256","internalType":"SD59x18"}]},{"type":"error","name":"PRBMath_SD59x18_IntoUint256_Underflow","inputs":[{"name":"x","type":"int256","internalType":"SD59x18"}]},{"type":"error","name":"PRBMath_SD59x18_Mul_InputTooSmall","inputs":[]},{"type":"error","name":"PRBMath_SD59x18_Mul_Overflow","inputs":[{"name":"x","type":"int256","internalType":"SD59x18"},{"name":"y","type":"int256","internalType":"SD59x18"}]},{"type":"error","name":"PRBMath_UD60x18_Convert_Overflow","inputs":[{"name":"x","type":"uint256","internalType":"uint256"}]},{"type":"error","name":"PRBMath_UD60x18_IntoSD59x18_Overflow","inputs":[{"name":"x","type":"uint256","internalType":"UD60x18"}]},{"type":"error","name":"PRBMath_UD60x18_IntoUint128_Overflow","inputs":[{"name":"x","type":"uint256","internalType":"UD60x18"}]},{"type":"error","name":"PriceAdapterNotDefined","inputs":[{"name":"marketId","type":"uint128","internalType":"uint128"}]},{"type":"error","name":"SafeCastOverflowedIntDowncast","inputs":[{"name":"bits","type":"uint8","internalType":"uint8"},{"name":"value","type":"int256","internalType":"int256"}]},{"type":"error","name":"SafeCastOverflowedIntToUint","inputs":[{"name":"value","type":"int256","internalType":"int256"}]},{"type":"error","name":"SafeCastOverflowedUintToInt","inputs":[{"name":"value","type":"uint256","internalType":"uint256"}]},{"type":"error","name":"TradeSizeTooSmall","inputs":[]}],"bytecode":{"object":"0x6080604052348015600e575f80fd5b506128938061001c5f395ff3fe608060405234801561000f575f80fd5b50600436106100e5575f3560e01c8063a45ae1c111610088578063b5f646de11610063578063b5f646de146101d1578063d0e44fef146101e4578063d5c810b6146101f7578063e838992114610217575f80fd5b8063a45ae1c114610183578063abc4699814610196578063b43bce5f146101a9575f80fd5b80635e631eab116100c35780635e631eab1461013757806383fb995b1461014a5780638d1acf891461015d578063a0a0e5da14610170575f80fd5b806305bf8fbe146100e9578063178830f01461010f57806356e33f7e14610122575b5f80fd5b6100fc6100f7366004611df9565b61022a565b6040519081526020015b60405180910390f35b6100fc61011d366004611e12565b610247565b610135610130366004612070565b610268565b005b6100fc610145366004611e12565b610274565b6100fc610158366004611df9565b61028c565b6100fc61016b366004611df9565b6102a2565b61013561017e366004611e12565b6102b8565b610135610191366004611e12565b6102d5565b6101356101a4366004612203565b6102fa565b6101bc6101b736600461222b565b610315565b60408051928352602083019190915201610106565b6100fc6101df366004611e12565b61033d565b6100fc6101f2366004611df9565b610355565b61020a610205366004611df9565b61036b565b60405161010691906123db565b6100fc610225366004611e12565b6105db565b5f80610235836105f3565b90506102408161068f565b9392505050565b5f80610252856105f3565b905061025f8185856106c8565b95945050505050565b61027181610788565b50565b5f8061027f856105f3565b905061025f81858561093f565b5f80610297836105f3565b905061024081610960565b5f806102ad836105f3565b905061024081610a00565b5f6102c2846105f3565b90506102cf818484610aa3565b50505050565b5f6102df846105f3565b600381018490556004810183905542600582015590506102cf565b5f610304836105f3565b90506103108183610b0d565b505050565b5f805f610321876105f3565b905061032f81878787610b6d565b925092505094509492505050565b5f80610348856105f3565b905061025f818585610cf1565b5f80610360836105f3565b905061024081610d41565b610373611d0d565b61037c826105f3565b604080516101208101825282546001600160801b038082168352600160801b91829004600f0b602084015260018501548082168486015291909104166060820152600283015460ff1615156080820152600383015460a0820152600483015460c0820152600583015460e0820152815161018081019092526006830180549193926101008501929091908290829061041390612482565b80601f016020809104026020016040519081016040528092919081815260200182805461043f90612482565b801561048a5780601f106104615761010080835404028352916020019161048a565b820191905f5260205f20905b81548152906001019060200180831161046d57829003601f168201915b505050505081526020016001820180546104a390612482565b80601f01602080910402602001604051908101604052809291908181526020018280546104cf90612482565b801561051a5780601f106104f15761010080835404028352916020019161051a565b820191905f5260205f20905b8154815290600101906020018083116104fd57829003601f168201915b505050918352505060028201546001600160a01b031660208083019190915260038301546001600160801b03808216604080860191909152600160801b928390048216606086015260048601548083166080870152839004821660a0860152600586015480831660c0870152839004821660e0860152600686015461010086015280518082019091526007860154808316825292909204169181019190915261012082015260089091015463ffffffff166101409091015290525092915050565b5f806105e6856105f3565b905061025f818585610d69565b5f8060ff1961062360017f7391160f00c346d035658daa8a3c1eb1fa2f98b67b37275a9487390ac54b119f6124ce565b60405160200161063591815260200190565b6040516020818303038152906040528051906020012016836040516020016106709291909182526001600160801b0316602082015260400190565b60408051601f1981840301815291905280516020909101209392505050565b5f6106c26106b66106a76106a285610d41565b610ec3565b6106b085610a00565b90610f09565b60038401545b90610fff565b92915050565b5f806106e06106dd866006016006015461100d565b90565b8554909150600160801b9004600f0b5f6106fa8284611056565b90505f6107078388610fff565b90505f6107148286611056565b90505f61072088610ec3565b90505f61073f61073a6107338488610f09565b8490610fff565b61112e565b90505f61075961073a6107528587610f09565b8590610fff565b9050610778610768600261116d565b61077284846111cb565b906111d9565b9c9b505050505050505050505050565b5f610795825f01516105f3565b80549091506001600160801b0316156107ed5781516040517fd75fc36f0000000000000000000000000000000000000000000000000000000081526001600160801b0390911660048201526024015b60405180910390fd5b815f0151815f015f6101000a8154816001600160801b0302191690836001600160801b031602179055506001816002015f6101000a81548160ff021916908315150217905550610914604051806101800160405280846020015181526020018460400151815260200184606001516001600160a01b0316815260200184608001516001600160801b031681526020018460a001516001600160801b031681526020018460c001516001600160801b031681526020018460e001516001600160801b031681526020018461010001516001600160801b031681526020018461012001516001600160801b031681526020018461014001518152602001846101a001518152602001846101c0015163ffffffff16815250826006016111f090919063ffffffff16565b610927825f01515f8461016001516112d3565b61093b825f015160018461018001516112d3565b5050565b5f61095861094e858585610cf1565b60048601546106bc565b949350505050565b6008810154600e8201545f916001600160a01b03169063ffffffff168261098561139f565b465f9081526011820160205260409020549091506001600160a01b039081169084166109eb5785546040517f2fb06fb40000000000000000000000000000000000000000000000000000000081526001600160801b0390911660048201526024016107e4565b6109f6848483611400565b9695505050505050565b600b8101545f908190610a1f906106dd906001600160801b031661100d565b90505f610a356106dd856006016006015461100d565b8454909150600160801b9004600f0b81610a5357505f949350505050565b5f610a5e8284611056565b90505f610a8c610a7e610a78670de0b6b3a7640000611833565b84611840565b670de0b6b3a7640000611856565b9050610a988186610f09565b979650505050505050565b610aac8161185f565b83546001600160801b03918216600160801b029116178355610acd826118ac565b60019390930180547fffffffffffffffffffffffffffffffff00000000000000000000000000000000166001600160801b03909416939093179092555050565b600b820154610b3690600160801b90046001600160801b0316610b3261073a846118f2565b1090565b1561093b576040517faccd21a600000000000000000000000000000000000000000000000000000000815260040160405180910390fd5b600a84015460018501545f9182916001600160801b039182169116610bb3610b9761073a876118f2565b610bad610ba661073a8a6118f2565b849061194a565b906111cb565b935083821015610c155780841080610c135788546040517f5b7afd710000000000000000000000000000000000000000000000000000000081526001600160801b03909116600482015260248101849052604481018690526064016107e4565b505b600a8801545f90610c3590600160801b90046001600160801b0316610ec3565b8954909150600160801b9004600f0b610c4e818a610fff565b9450610c6182610c5d876118f2565b1390565b15610ce4575f610c7c610c73876118f2565b610c5d846118f2565b905080610ce2578a546001600160801b0316610c9784611958565b6040517f04034b740000000000000000000000000000000000000000000000000000000081526001600160801b039290921660048301526024820152604481018790526064016107e4565b505b5050505094509492505050565b5f80610d1d610d006002611997565b610d17610d12876106bc8a6003015490565b611833565b90611056565b905061025f610d2b84610ec3565b6106b0610d3a6106a289610d41565b8490610f09565b5f6106c2610d516201518061116d565b610772846005015442610d6491906124ce565b61116d565b82545f90600160801b9004600f0b80821284831283610d888488610fff565b90505f811580610d96575084155b80610db45750610da5855f1290565b1515610db0835f1290565b1515145b90508015610e27575f83151585151514158015610dd057508515155b610dee57600d8a0154600160801b90046001600160801b0316610dfd565b600d8a01546001600160801b03165b9050610e1f81610e19610e1261073a8d6118f2565b8b90611a3f565b90611a3f565b965050610eb7565b5f610e39610e34846118f2565b611958565b90505f610e5a610e34610e5584610e4f8e6118f2565b90611a4d565b6118f2565b600d8c01549091505f90610e8390600160801b90046001600160801b0316610e19858d90611a3f565b600d8d01549091505f90610ea4906001600160801b0316610e198d86611a3f565b9050610eb082826111cb565b9950505050505b50505050509392505050565b5f816001600160ff1b038111156106c2576040517ff4618684000000000000000000000000000000000000000000000000000000008152600481018490526024016107e4565b5f8282600160ff1b821480610f215750600160ff1b81145b15610f58576040517fa6070c2500000000000000000000000000000000000000000000000000000000815260040160405180910390fd5b5f805f8412610f675783610f6b565b835f035b91505f8312610f7a5782610f7e565b825f035b90505f610f8b8383611a5b565b90506001600160ff1b03811115610fd8576040517f120b5b4300000000000000000000000000000000000000000000000000000000815260048101899052602481018890526044016107e4565b5f1985851813610ff281610fee57825f036106dd565b8290565b9998505050505050505050565b5f6102406106dd83856124e1565b5f6001600160ff1b03821115611052576040517f24775e06000000000000000000000000000000000000000000000000000000008152600481018390526024016107e4565b5090565b5f8282600160ff1b82148061106e5750600160ff1b81145b156110a5576040517f9fe2b45000000000000000000000000000000000000000000000000000000000815260040160405180910390fd5b5f805f84126110b457836110b8565b835f035b91505f83126110c757826110cb565b825f035b90505f6110e183670de0b6b3a764000084611b40565b90506001600160ff1b03811115610fd8576040517fd49c26b300000000000000000000000000000000000000000000000000000000815260048101899052602481018890526044016107e4565b5f81818112156106c2576040517fbba41a15000000000000000000000000000000000000000000000000000000008152600481018490526024016107e4565b5f611181670de0b6b3a76400005f1961251c565b8211156111bd576040517f1cd951a7000000000000000000000000000000000000000000000000000000008152600481018390526024016107e4565b50670de0b6b3a76400000290565b5f6102406106dd838561252f565b5f6102406106dd84670de0b6b3a764000085611b40565b805182906111fe9082612586565b50602081015160018301906112139082612586565b5060408101516002830180547fffffffffffffffffffffffff0000000000000000000000000000000000000000166001600160a01b03909216919091179055606081015160808201516001600160801b03918216600160801b918316820217600385015560a083015160c0840151908316908316820217600485015560e083015161010084015190831690831682021760058501556101208301516006850155610140909201518051602090910151908216911690910217600790910155565b5f6112de8484611c28565b8251815491925090829060ff191660018380156112fd576112fd612646565b021790555060208201518154604084015160608501516001600160a01b03166c01000000000000000000000000026bffffffffffffffffffffffff69ffffffffffffffffffff90921662010000026bffffffffffffffffffff00001994151561010002949094166bffffffffffffffffffffff0019909316929092179290921791909116178155608082015160018201906113989082612586565b5050505050565b5f8060ff196113cf60017feeb5cd774bc9c6845792a7b59ceb11c49cb99339b2df9604c51808d2eb250cc26124ce565b6040516020016113e191815260200190565b60408051601f1981840301815291905280516020909101201692915050565b5f80846001600160a01b031663313ce5676040518163ffffffff1660e01b8152600401602060405180830381865afa15801561143e573d5f803e3d5ffd5b505050506040513d601f19601f82011682018060405250810190611462919061265a565b9050601260ff8216111561148957604051634840b0ab60e11b815260040160405180910390fd5b6001600160a01b038316156115bc57826001600160a01b031663feaf968c6040518163ffffffff1660e01b815260040160a060405180830381865afa9250505080156114f2575060408051601f3d908101601f191682019092526114ef9181019061267a565b60015b611528576040517f382e6b6400000000000000000000000000000000000000000000000000000000815260040160405180910390fd5b83158061156c576040517fcbaf08250000000000000000000000000000000000000000000000000000000081526001600160a01b038a1660048201526024016107e4565b5f61157785426124ce565b9050610e1081116115b4576040517fd15f73b500000000000000000000000000000000000000000000000000000000815260040160405180910390fd5b505050505050505b846001600160a01b031663feaf968c6040518163ffffffff1660e01b815260040160a060405180830381865afa925050508015611616575060408051601f3d908101601f191682019092526116139181019061267a565b60015b61163357604051634840b0ab60e11b815260040160405180910390fd5b63ffffffff891661164483426124ce565b1115611687576040517fa1ac05690000000000000000000000000000000000000000000000000000000081526001600160a01b038b1660048201526024016107e4565b5f8a6001600160a01b031663245a7bfc6040518163ffffffff1660e01b8152600401602060405180830381865afa1580156116c4573d5f803e3d5ffd5b505050506040513d601f19601f820116820180604052508101906116e891906126ce565b90505f816001600160a01b03166322adbc786040518163ffffffff1660e01b8152600401602060405180830381865afa158015611727573d5f803e3d5ffd5b505050506040513d601f19601f8201168201806040525081019061174b91906126e9565b90505f826001600160a01b03166370da2f676040518163ffffffff1660e01b8152600401602060405180830381865afa15801561178a573d5f803e3d5ffd5b505050506040513d601f19601f820116820180604052508101906117ae91906126e9565b90508160170b871315806117c557508060170b8712155b15611807576040517f045d8f840000000000000000000000000000000000000000000000000000000081526001600160a01b038e1660048201526024016107e4565b610eb06118158a6012612709565b61182090600a612802565b61182989611ccf565b6106dd9190612810565b5f6106c26106dd83612827565b5f8282125b61184f5781610240565b5090919050565b5f828213611845565b80600f81900b81146118a7576040517f327269a700000000000000000000000000000000000000000000000000000000815260806004820152602481018390526044016107e4565b919050565b5f816001600160801b038111156106c2576040517f4916adce000000000000000000000000000000000000000000000000000000008152600481018490526024016107e4565b5f81600160ff1b8101611931576040517fec2b9e6700000000000000000000000000000000000000000000000000000000815260040160405180910390fd5b5f811261193e5782610240565b6102406106dd82612827565b5f6102406106dd83856124ce565b5f81818112156106c2576040517f2463f3d5000000000000000000000000000000000000000000000000000000008152600481018490526024016107e4565b5f6119ae670de0b6b3a7640000600160ff1b612841565b8212156119ea576040517f99474eeb000000000000000000000000000000000000000000000000000000008152600481018390526024016107e4565b611a03670de0b6b3a76400006001600160ff1b03612841565b8213156111bd576040517f9d581091000000000000000000000000000000000000000000000000000000008152600481018390526024016107e4565b5f6102406106dd8484611a5b565b5f6102406106dd838561286d565b5f80805f19848609848602925082811083820303915050805f03611a8c5750670de0b6b3a7640000900490506106c2565b670de0b6b3a76400008110611ad7576040517f5173648d00000000000000000000000000000000000000000000000000000000815260048101869052602481018590526044016107e4565b5f670de0b6b3a7640000858709620400008185030493109091037d40000000000000000000000000000000000000000000000000000000000002919091177faccb18165bd6fe31ae1cf318dc5b51eee0e1ba569b88cd74c1773b91fac106690291505092915050565b5f80805f19858709858702925082811083820303915050805f03611b7757838281611b6d57611b6d612508565b0492505050610240565b838110611bc1576040517f63a057780000000000000000000000000000000000000000000000000000000081526004810187905260248101869052604481018590526064016107e4565b5f8486880960026001871981018816978890046003810283188082028403028082028403028082028403028082028403028082028403029081029092039091025f889003889004909101858311909403939093029303949094049190911702949350505050565b5f8060ff19611c5860017f4afdb43bc86b99e946919eed9b94acdb0f56ab4974b93329a1618862786cae326124ce565b604051602001611c6a91815260200190565b60405160208183030381529060405280519060200120168484604051602001611caf939291909283526001600160801b03918216602084015216604082015260600190565b60408051601f198184030181529190528051602090910120949350505050565b5f80821215611052576040517fa8ce4432000000000000000000000000000000000000000000000000000000008152600481018390526024016107e4565b6040518061012001604052805f6001600160801b031681526020015f600f0b81526020015f6001600160801b031681526020015f6001600160801b031681526020015f151581526020015f81526020015f81526020015f8152602001611dde6040805161018081018252606080825260208083018290525f8385018190529183018290526080830182905260a0830182905260c0830182905260e083018290526101008301829052610120830182905283518085019094528184528301529061014082019081525f60209091015290565b905290565b80356001600160801b03811681146118a7575f80fd5b5f60208284031215611e09575f80fd5b61024082611de3565b5f805f60608486031215611e24575f80fd5b611e2d84611de3565b95602085013595506040909401359392505050565b634e487b7160e01b5f52604160045260245ffd5b60405160a0810167ffffffffffffffff81118282101715611e7957611e79611e42565b60405290565b6040516101e0810167ffffffffffffffff81118282101715611e7957611e79611e42565b5f82601f830112611eb2575f80fd5b813567ffffffffffffffff80821115611ecd57611ecd611e42565b604051601f8301601f19908116603f01168101908282118183101715611ef557611ef5611e42565b81604052838152866020858801011115611f0d575f80fd5b836020870160208301375f602085830101528094505050505092915050565b6001600160a01b0381168114610271575f80fd5b80356118a781611f2c565b69ffffffffffffffffffff81168114610271575f80fd5b80356118a781611f4b565b5f60a08284031215611f7d575f80fd5b611f85611e56565b9050813560018110611f95575f80fd5b815260208201358015158114611fa9575f80fd5b6020820152611fba60408301611f62565b6040820152611fcb60608301611f40565b6060820152608082013567ffffffffffffffff811115611fe9575f80fd5b611ff584828501611ea3565b60808301525092915050565b5f60408284031215612011575f80fd5b6040516040810181811067ffffffffffffffff8211171561203457612034611e42565b60405290508061204383611de3565b815261205160208401611de3565b60208201525092915050565b803563ffffffff811681146118a7575f80fd5b5f60208284031215612080575f80fd5b813567ffffffffffffffff80821115612097575f80fd5b9083019061020082860312156120ab575f80fd5b6120b3611e7f565b6120bc83611de3565b81526020830135828111156120cf575f80fd5b6120db87828601611ea3565b6020830152506040830135828111156120f2575f80fd5b6120fe87828601611ea3565b60408301525061211060608401611f40565b606082015261212160808401611de3565b608082015261213260a08401611de3565b60a082015261214360c08401611de3565b60c082015261215460e08401611de3565b60e0820152610100612167818501611de3565b90820152610120612179848201611de3565b908201526101408381013590820152610160808401358381111561219b575f80fd5b6121a788828701611f6d565b82840152505061018080840135838111156121c0575f80fd5b6121cc88828701611f6d565b8284015250506101a091506121e386838501612001565b828201526121f46101e0840161205d565b6101c082015295945050505050565b5f8060408385031215612214575f80fd5b61221d83611de3565b946020939093013593505050565b5f805f806080858703121561223e575f80fd5b61224785611de3565b966020860135965060408601359560600135945092505050565b5f81518084525f5b8181101561228557602081850181015186830182015201612269565b505f602082860101526020601f19601f83011685010191505092915050565b5f6101a082518185526122b982860182612261565b915050602083015184820360208601526122d38282612261565b91505060408301516122f060408601826001600160a01b03169052565b50606083015161230b60608601826001600160801b03169052565b50608083015161232660808601826001600160801b03169052565b5060a083015161234160a08601826001600160801b03169052565b5060c083015161235c60c08601826001600160801b03169052565b5060e083015161237760e08601826001600160801b03169052565b50610100838101516001600160801b03811686830152505061012083810151908501526101408084015180516001600160801b0390811683880152602082015116610160870152505061016083015163ffffffff8116610180860152509392505050565b602081526123f56020820183516001600160801b03169052565b5f602083015161240a6040840182600f0b9052565b5060408301516001600160801b03811660608401525060608301516001600160801b038116608084015250608083015180151560a08401525060a083015160c083015260c083015160e083015260e08301516101008181850152808501519150506101208081850152506109586101408401826122a4565b600181811c9082168061249657607f821691505b6020821081036124b457634e487b7160e01b5f52602260045260245ffd5b50919050565b634e487b7160e01b5f52601160045260245ffd5b818103818111156106c2576106c26124ba565b8082018281125f831280158216821582161715612500576125006124ba565b505092915050565b634e487b7160e01b5f52601260045260245ffd5b5f8261252a5761252a612508565b500490565b808201808211156106c2576106c26124ba565b601f82111561031057805f5260205f20601f840160051c810160208510156125675750805b601f840160051c820191505b81811015611398575f8155600101612573565b815167ffffffffffffffff8111156125a0576125a0611e42565b6125b4816125ae8454612482565b84612542565b602080601f8311600181146125e7575f84156125d05750858301515b5f19600386901b1c1916600185901b17855561263e565b5f85815260208120601f198616915b82811015612615578886015182559484019460019091019084016125f6565b508582101561263257878501515f19600388901b60f8161c191681555b505060018460011b0185555b505050505050565b634e487b7160e01b5f52602160045260245ffd5b5f6020828403121561266a575f80fd5b815160ff81168114610240575f80fd5b5f805f805f60a0868803121561268e575f80fd5b855161269981611f4b565b8095505060208601519350604086015192506060860151915060808601516126c081611f4b565b809150509295509295909350565b5f602082840312156126de575f80fd5b815161024081611f2c565b5f602082840312156126f9575f80fd5b81518060170b8114610240575f80fd5b60ff82811682821603908111156106c2576106c26124ba565b600181815b8085111561275c57815f1904821115612742576127426124ba565b8085161561274f57918102915b93841c9390800290612727565b509250929050565b5f82612772575060016106c2565b8161277e57505f6106c2565b8160018114612794576002811461279e576127ba565b60019150506106c2565b60ff8411156127af576127af6124ba565b50506001821b6106c2565b5060208310610133831016604e8410600b84101617156127dd575081810a6106c2565b6127e78383612722565b805f19048211156127fa576127fa6124ba565b029392505050565b5f61024060ff841683612764565b80820281158282048414176106c2576106c26124ba565b5f600160ff1b820361283b5761283b6124ba565b505f0390565b5f8261284f5761284f612508565b600160ff1b82145f1984141615612868576128686124ba565b500590565b8181035f83128015838313168383128216171561288c5761288c6124ba565b509291505056","linkReferences":{}},"methodIdentifiers":{"exposed_PerpMarket_load(uint128)":"d5c810b6","exposed_checkOpenInterestLimits(uint128,int256,int256,int256)":"b43bce5f","exposed_checkTradeSize(uint128,int256)":"abc46998","exposed_create((uint128,string,string,address,uint128,uint128,uint128,uint128,uint128,uint128,uint256,(uint8,bool,uint80,address,bytes),(uint8,bool,uint80,address,bytes),(uint128,uint128),uint32))":"56e33f7e","exposed_getCurrentFundingRate(uint128)":"05bf8fbe","exposed_getCurrentFundingVelocity(uint128)":"8d1acf89","exposed_getIndexPrice(uint128)":"83fb995b","exposed_getMarkPrice(uint128,int256,uint256)":"178830f0","exposed_getNextFundingFeePerUnit(uint128,int256,uint256)":"5e631eab","exposed_getOrderFeeUsd(uint128,int256,uint256)":"e8389921","exposed_getPendingFundingFeePerUnit(uint128,int256,uint256)":"b5f646de","exposed_getProportionalElapsedSinceLastFunding(uint128)":"d0e44fef","exposed_updateFunding(uint128,int256,int256)":"a45ae1c1","exposed_updateOpenInterest(uint128,uint256,int256)":"a0a0e5da"},"id":181}