{"abi":[{"type":"function","name":"configureCollateralLiquidationPriority","inputs":[{"name":"collateralTypes","type":"address[]","internalType":"address[]"}],"outputs":[],"stateMutability":"nonpayable"},{"type":"function","name":"configureLiquidators","inputs":[{"name":"liquidators","type":"address[]","internalType":"address[]"},{"name":"enable","type":"bool[]","internalType":"bool[]"}],"outputs":[],"stateMutability":"nonpayable"},{"type":"function","name":"configureMarginCollateral","inputs":[{"name":"collateralType","type":"address","internalType":"address"},{"name":"depositCap","type":"uint128","internalType":"uint128"},{"name":"loanToValue","type":"uint120","internalType":"uint120"},{"name":"priceFeed","type":"address","internalType":"address"},{"name":"priceFeedHeartbeatSeconds","type":"uint32","internalType":"uint32"}],"outputs":[],"stateMutability":"nonpayable"},{"type":"function","name":"configureSequencerUptimeFeedByChainId","inputs":[{"name":"chainIds","type":"uint256[]","internalType":"uint256[]"},{"name":"sequencerUptimeFeedAddresses","type":"address[]","internalType":"address[]"}],"outputs":[],"stateMutability":"nonpayable"},{"type":"function","name":"configureSystemParameters","inputs":[{"name":"maxPositionsPerAccount","type":"uint128","internalType":"uint128"},{"name":"marketOrderMinLifetime","type":"uint128","internalType":"uint128"},{"name":"liquidationFeeUsdX18","type":"uint128","internalType":"uint128"},{"name":"marginCollateralRecipient","type":"address","internalType":"address"},{"name":"orderFeeRecipient","type":"address","internalType":"address"},{"name":"settlementFeeRecipient","type":"address","internalType":"address"},{"name":"liquidationFeeRecipient","type":"address","internalType":"address"},{"name":"maxVerificationDelay","type":"uint256","internalType":"uint256"}],"outputs":[],"stateMutability":"nonpayable"},{"type":"function","name":"createCustomReferralCode","inputs":[{"name":"referrer","type":"address","internalType":"address"},{"name":"customReferralCode","type":"string","internalType":"string"}],"outputs":[],"stateMutability":"nonpayable"},{"type":"function","name":"createPerpMarket","inputs":[{"name":"params","type":"tuple","internalType":"struct GlobalConfigurationBranch.CreatePerpMarketParams","components":[{"name":"marketId","type":"uint128","internalType":"uint128"},{"name":"name","type":"string","internalType":"string"},{"name":"symbol","type":"string","internalType":"string"},{"name":"priceAdapter","type":"address","internalType":"address"},{"name":"initialMarginRateX18","type":"uint128","internalType":"uint128"},{"name":"maintenanceMarginRateX18","type":"uint128","internalType":"uint128"},{"name":"maxOpenInterest","type":"uint128","internalType":"uint128"},{"name":"maxSkew","type":"uint128","internalType":"uint128"},{"name":"maxFundingVelocity","type":"uint128","internalType":"uint128"},{"name":"minTradeSizeX18","type":"uint128","internalType":"uint128"},{"name":"skewScale","type":"uint256","internalType":"uint256"},{"name":"marketOrderConfiguration","type":"tuple","internalType":"struct SettlementConfiguration.Data","components":[{"name":"strategy","type":"uint8","internalType":"enum SettlementConfiguration.Strategy"},{"name":"isEnabled","type":"bool","internalType":"bool"},{"name":"fee","type":"uint80","internalType":"uint80"},{"name":"keeper","type":"address","internalType":"address"},{"name":"data","type":"bytes","internalType":"bytes"}]},{"name":"offchainOrdersConfiguration","type":"tuple","internalType":"struct SettlementConfiguration.Data","components":[{"name":"strategy","type":"uint8","internalType":"enum SettlementConfiguration.Strategy"},{"name":"isEnabled","type":"bool","internalType":"bool"},{"name":"fee","type":"uint80","internalType":"uint80"},{"name":"keeper","type":"address","internalType":"address"},{"name":"data","type":"bytes","internalType":"bytes"}]},{"name":"orderFees","type":"tuple","internalType":"struct OrderFees.Data","components":[{"name":"makerFee","type":"uint128","internalType":"uint128"},{"name":"takerFee","type":"uint128","internalType":"uint128"}]},{"name":"priceFeedHeartbeatSeconds","type":"uint32","internalType":"uint32"}]}],"outputs":[],"stateMutability":"nonpayable"},{"type":"function","name":"getAccountsWithActivePositions","inputs":[{"name":"lowerBound","type":"uint256","internalType":"uint256"},{"name":"upperBound","type":"uint256","internalType":"uint256"}],"outputs":[{"name":"accountsIds","type":"uint128[]","internalType":"uint128[]"}],"stateMutability":"view"},{"type":"function","name":"getCustomReferralCodeReferrer","inputs":[{"name":"customReferralCode","type":"string","internalType":"string"}],"outputs":[{"name":"","type":"address","internalType":"address"}],"stateMutability":"view"},{"type":"function","name":"getMarginCollateralConfiguration","inputs":[{"name":"collateralType","type":"address","internalType":"address"}],"outputs":[{"name":"","type":"tuple","internalType":"struct MarginCollateralConfiguration.Data","components":[{"name":"depositCap","type":"uint128","internalType":"uint128"},{"name":"loanToValue","type":"uint120","internalType":"uint120"},{"name":"decimals","type":"uint8","internalType":"uint8"},{"name":"priceFeed","type":"address","internalType":"address"},{"name":"totalDeposited","type":"uint256","internalType":"uint256"},{"name":"priceFeedHearbeatSeconds","type":"uint32","internalType":"uint32"}]}],"stateMutability":"pure"},{"type":"function","name":"initialize","inputs":[{"name":"tradingAccountToken","type":"address","internalType":"address"},{"name":"usdToken","type":"address","internalType":"address"}],"outputs":[],"stateMutability":"nonpayable"},{"type":"function","name":"owner","inputs":[],"outputs":[{"name":"","type":"address","internalType":"address"}],"stateMutability":"view"},{"type":"function","name":"removeCollateralFromLiquidationPriority","inputs":[{"name":"collateralType","type":"address","internalType":"address"}],"outputs":[],"stateMutability":"nonpayable"},{"type":"function","name":"renounceOwnership","inputs":[],"outputs":[],"stateMutability":"nonpayable"},{"type":"function","name":"setTradingAccountToken","inputs":[{"name":"tradingAccountToken","type":"address","internalType":"address"}],"outputs":[],"stateMutability":"nonpayable"},{"type":"function","name":"setUsdToken","inputs":[{"name":"usdToken","type":"address","internalType":"address"}],"outputs":[],"stateMutability":"nonpayable"},{"type":"function","name":"setUserPoints","inputs":[{"name":"user","type":"address","internalType":"address"},{"name":"value","type":"uint256","internalType":"uint256"}],"outputs":[],"stateMutability":"nonpayable"},{"type":"function","name":"transferOwnership","inputs":[{"name":"newOwner","type":"address","internalType":"address"}],"outputs":[],"stateMutability":"nonpayable"},{"type":"function","name":"updatePerpMarketConfiguration","inputs":[{"name":"marketId","type":"uint128","internalType":"uint128"},{"name":"params","type":"tuple","internalType":"struct GlobalConfigurationBranch.UpdatePerpMarketConfigurationParams","components":[{"name":"name","type":"string","internalType":"string"},{"name":"symbol","type":"string","internalType":"string"},{"name":"priceAdapter","type":"address","internalType":"address"},{"name":"initialMarginRateX18","type":"uint128","internalType":"uint128"},{"name":"maintenanceMarginRateX18","type":"uint128","internalType":"uint128"},{"name":"maxOpenInterest","type":"uint128","internalType":"uint128"},{"name":"maxSkew","type":"uint128","internalType":"uint128"},{"name":"minTradeSizeX18","type":"uint128","internalType":"uint128"},{"name":"maxFundingVelocity","type":"uint128","internalType":"uint128"},{"name":"skewScale","type":"uint256","internalType":"uint256"},{"name":"orderFees","type":"tuple","internalType":"struct OrderFees.Data","components":[{"name":"makerFee","type":"uint128","internalType":"uint128"},{"name":"takerFee","type":"uint128","internalType":"uint128"}]},{"name":"priceFeedHeartbeatSeconds","type":"uint32","internalType":"uint32"}]}],"outputs":[],"stateMutability":"nonpayable"},{"type":"function","name":"updatePerpMarketStatus","inputs":[{"name":"marketId","type":"uint128","internalType":"uint128"},{"name":"enable","type":"bool","internalType":"bool"}],"outputs":[],"stateMutability":"nonpayable"},{"type":"function","name":"updateSettlementConfiguration","inputs":[{"name":"marketId","type":"uint128","internalType":"uint128"},{"name":"settlementConfigurationId","type":"uint128","internalType":"uint128"},{"name":"newSettlementConfiguration","type":"tuple","internalType":"struct SettlementConfiguration.Data","components":[{"name":"strategy","type":"uint8","internalType":"enum SettlementConfiguration.Strategy"},{"name":"isEnabled","type":"bool","internalType":"bool"},{"name":"fee","type":"uint80","internalType":"uint80"},{"name":"keeper","type":"address","internalType":"address"},{"name":"data","type":"bytes","internalType":"bytes"}]}],"outputs":[],"stateMutability":"nonpayable"},{"type":"event","name":"Initialized","inputs":[{"name":"version","type":"uint64","indexed":false,"internalType":"uint64"}],"anonymous":false},{"type":"event","name":"LogConfigureCollateralLiquidationPriority","inputs":[{"name":"sender","type":"address","indexed":true,"internalType":"address"},{"name":"collateralTypes","type":"address[]","indexed":false,"internalType":"address[]"}],"anonymous":false},{"type":"event","name":"LogConfigureLiquidators","inputs":[{"name":"sender","type":"address","indexed":true,"internalType":"address"},{"name":"liquidators","type":"address[]","indexed":false,"internalType":"address[]"},{"name":"enable","type":"bool[]","indexed":false,"internalType":"bool[]"}],"anonymous":false},{"type":"event","name":"LogConfigureMarginCollateral","inputs":[{"name":"sender","type":"address","indexed":true,"internalType":"address"},{"name":"collateralType","type":"address","indexed":true,"internalType":"address"},{"name":"depositCap","type":"uint128","indexed":false,"internalType":"uint128"},{"name":"loanToValue","type":"uint120","indexed":false,"internalType":"uint120"},{"name":"decimals","type":"uint8","indexed":false,"internalType":"uint8"},{"name":"priceFeed","type":"address","indexed":false,"internalType":"address"},{"name":"priceFeedHeartbeatSeconds","type":"uint32","indexed":false,"internalType":"uint32"}],"anonymous":false},{"type":"event","name":"LogConfigureSystemParameters","inputs":[{"name":"sender","type":"address","indexed":true,"internalType":"address"},{"name":"maxPositionsPerAccount","type":"uint128","indexed":false,"internalType":"uint128"},{"name":"marketOrderMinLifetime","type":"uint128","indexed":false,"internalType":"uint128"},{"name":"liquidationFeeUsdX18","type":"uint128","indexed":false,"internalType":"uint128"}],"anonymous":false},{"type":"event","name":"LogCreateCustomReferralCode","inputs":[{"name":"referrer","type":"address","indexed":true,"internalType":"address"},{"name":"customReferralCode","type":"string","indexed":false,"internalType":"string"}],"anonymous":false},{"type":"event","name":"LogCreatePerpMarket","inputs":[{"name":"sender","type":"address","indexed":true,"internalType":"address"},{"name":"marketId","type":"uint128","indexed":false,"internalType":"uint128"}],"anonymous":false},{"type":"event","name":"LogDisablePerpMarket","inputs":[{"name":"sender","type":"address","indexed":true,"internalType":"address"},{"name":"marketId","type":"uint128","indexed":false,"internalType":"uint128"}],"anonymous":false},{"type":"event","name":"LogEnablePerpMarket","inputs":[{"name":"sender","type":"address","indexed":true,"internalType":"address"},{"name":"marketId","type":"uint128","indexed":false,"internalType":"uint128"}],"anonymous":false},{"type":"event","name":"LogRemoveCollateralFromLiquidationPriority","inputs":[{"name":"sender","type":"address","indexed":true,"internalType":"address"},{"name":"collateralType","type":"address","indexed":true,"internalType":"address"}],"anonymous":false},{"type":"event","name":"LogSetSequencerUptimeFeed","inputs":[{"name":"sender","type":"address","indexed":true,"internalType":"address"},{"name":"chainId","type":"uint256","indexed":false,"internalType":"uint256"},{"name":"sequencerUptimeFeed","type":"address","indexed":true,"internalType":"address"}],"anonymous":false},{"type":"event","name":"LogSetTradingAccountToken","inputs":[{"name":"sender","type":"address","indexed":true,"internalType":"address"},{"name":"tradingAccountToken","type":"address","indexed":true,"internalType":"address"}],"anonymous":false},{"type":"event","name":"LogSetUsdToken","inputs":[{"name":"sender","type":"address","indexed":true,"internalType":"address"},{"name":"usdToken","type":"address","indexed":true,"internalType":"address"}],"anonymous":false},{"type":"event","name":"LogUpdatePerpMarketConfiguration","inputs":[{"name":"sender","type":"address","indexed":true,"internalType":"address"},{"name":"marketId","type":"uint128","indexed":false,"internalType":"uint128"}],"anonymous":false},{"type":"event","name":"LogUpdateSettlementConfiguration","inputs":[{"name":"sender","type":"address","indexed":true,"internalType":"address"},{"name":"marketId","type":"uint128","indexed":true,"internalType":"uint128"},{"name":"settlementConfigurationId","type":"uint128","indexed":false,"internalType":"uint128"}],"anonymous":false},{"type":"event","name":"OwnershipTransferred","inputs":[{"name":"previousOwner","type":"address","indexed":true,"internalType":"address"},{"name":"newOwner","type":"address","indexed":true,"internalType":"address"}],"anonymous":false},{"type":"error","name":"ArrayLengthMismatch","inputs":[{"name":"expected","type":"uint256","internalType":"uint256"},{"name":"actual","type":"uint256","internalType":"uint256"}]},{"type":"error","name":"InitialMarginRateLessOrEqualThanMaintenanceMarginRate","inputs":[]},{"type":"error","name":"InvalidInitialization","inputs":[]},{"type":"error","name":"InvalidMarginCollateralConfiguration","inputs":[{"name":"collateralType","type":"address","internalType":"address"},{"name":"decimals","type":"uint8","internalType":"uint8"},{"name":"priceFeed","type":"address","internalType":"address"}]},{"type":"error","name":"InvalidSettlementConfigurationId","inputs":[]},{"type":"error","name":"MarginCollateralAlreadyInPriority","inputs":[{"name":"collateralType","type":"address","internalType":"address"}]},{"type":"error","name":"MarginCollateralTypeNotInPriority","inputs":[{"name":"collateralType","type":"address","internalType":"address"}]},{"type":"error","name":"MarketAlreadyExists","inputs":[{"name":"marketId","type":"uint128","internalType":"uint128"}]},{"type":"error","name":"NotInitializing","inputs":[]},{"type":"error","name":"OwnableInvalidOwner","inputs":[{"name":"owner","type":"address","internalType":"address"}]},{"type":"error","name":"OwnableUnauthorizedAccount","inputs":[{"name":"account","type":"address","internalType":"address"}]},{"type":"error","name":"PerpMarketAlreadyDisabled","inputs":[{"name":"marketId","type":"uint128","internalType":"uint128"}]},{"type":"error","name":"PerpMarketAlreadyEnabled","inputs":[{"name":"marketId","type":"uint128","internalType":"uint128"}]},{"type":"error","name":"PerpMarketNotInitialized","inputs":[{"name":"marketId","type":"uint128","internalType":"uint128"}]},{"type":"error","name":"TradingAccountTokenNotDefined","inputs":[]},{"type":"error","name":"ZeroInput","inputs":[{"name":"parameter","type":"string","internalType":"string"}]}],"bytecode":{"object":"0x6080604052348015600e575f80fd5b5060156019565b60c9565b7ff0c57e16840df040f15088dc2f81fe391c3923bec73e23a9662efc9c229c6a00805468010000000000000000900460ff161560685760405163f92ee8a960e01b815260040160405180910390fd5b80546001600160401b039081161460c65780546001600160401b0319166001600160401b0390811782556040519081527fc7f505b2f371ae2175ee4913f4499e1f2633a7b5936321eed1cdaeb6115181d29060200160405180910390a15b50565b6142ad806100d65f395ff3fe608060405234801561000f575f80fd5b506004361061016e575f3560e01c80639c1880eb116100d2578063da80559011610088578063f2fde38b11610063578063f2fde38b14610355578063f7ee0fa914610368578063fe43da3d1461037b575f80fd5b8063da805590146102a5578063de6c45d0146102b8578063e1fdafee146102cb575f80fd5b8063b8a41c37116100b8578063b8a41c371461025f578063b988c53b14610272578063cc9c899c14610285575f80fd5b80639c1880eb14610239578063a7ea87e21461024c575f80fd5b806350c4909e1161012757806377114a251161010d57806377114a25146101ee5780638da5cb5b146102015780638fdb867b14610226575f80fd5b806350c4909e146101d3578063715018a6146101e6575f80fd5b806336cba7bb1161015757806336cba7bb1461019a578063485cc955146101ad5780634ceb6b6f146101c0575f80fd5b8063225c14e51461017257806335b0cb1f14610187575b5f80fd5b6101856101803660046136d4565b61038e565b005b610185610195366004613703565b610431565b6101856101a8366004613755565b610d64565b6101856101bb36600461378d565b611461565b6101856101ce366004613898565b6115d0565b6101856101e13660046138f2565b611630565b610185611984565b6101856101fc3660046139b8565b611997565b610209611ce9565b6040516001600160a01b0390911681526020015b60405180910390f35b610185610234366004613a12565b611d1d565b610209610247366004613a9d565b612081565b61018561025a366004613ad7565b61208b565b61018561026d366004613b47565b6120a5565b610185610280366004613c44565b6121ff565b610298610293366004613ced565b6123e4565b60405161021d9190613d0d565b6101856102b33660046136d4565b6124b4565b6101856102c63660046136d4565b61256e565b6102de6102d93660046136d4565b61261b565b60405161021d91905f60c0820190506001600160801b0383511682526effffffffffffffffffffffffffffff602084015116602083015260ff60408401511660408301526001600160a01b0360608401511660608301526080830151608083015263ffffffff60a08401511660a083015292915050565b6101856103633660046136d4565b6126d0565b610185610376366004613d59565b612726565b610185610389366004613dab565b612810565b61039661299b565b6001600160a01b0381166103d6576040517f3379ca3500000000000000000000000000000000000000000000000000000000815260040160405180910390fd5b5f6103df6129e6565b6007810180546001600160a01b0319166001600160a01b0385169081179091556040519192509033907f66f83522a7eac1043e56d1676fce1b4a4e49cd5b707a96f5f571221334d7bb89905f90a35050565b61043961299b565b815f61044482612a47565b604080516101208101825282546001600160801b038082168352600160801b91829004600f0b602084015260018501548082168486015291909104166060820152600283015460ff1615156080820152600383015460a0820152600483015460c0820152600583015460e082015281516101808101909252600683018054919392610100850192909190829082906104db90613e21565b80601f016020809104026020016040519081016040528092919081815260200182805461050790613e21565b80156105525780601f1061052957610100808354040283529160200191610552565b820191905f5260205f20905b81548152906001019060200180831161053557829003601f168201915b5050505050815260200160018201805461056b90613e21565b80601f016020809104026020016040519081016040528092919081815260200182805461059790613e21565b80156105e25780601f106105b9576101008083540402835291602001916105e2565b820191905f5260205f20905b8154815290600101906020018083116105c557829003601f168201915b505050918352505060028201546001600160a01b031660208083019190915260038301546001600160801b03808216604080860191909152600160801b9283900482166060860152600486015480831660808088019190915290849004831660a0870152600587015480841660c0880152849004831660e08701526006870154610100870152815180830190925260078701548084168352939093049091169281019290925261012083019190915260089092015463ffffffff166101409091015291528201519192506106db90505760405163ee292d8b60e01b81526001600160801b03831660048201526024015b60405180910390fd5b5f6106e585612a47565b9050600681016106f58580613e59565b604051602001610706929190613e9c565b604051602081830303815290604052515f0361074e5760405163292ab05f60e11b81526004016106d2906020808252600490820152636e616d6560e01b604082015260600190565b61075b6020860186613e59565b60405160200161076c929190613e9c565b604051602081830303815290604052515f036107b45760405163292ab05f60e11b81526020600482015260066024820152651cde5b589bdb60d21b60448201526064016106d2565b5f6107c560608701604088016136d4565b6001600160a01b03160361080b5760405163292ab05f60e11b815260206004820152600c60248201526b383934b1b2a0b230b83a32b960a11b60448201526064016106d2565b61081b60a0860160808701613eab565b6001600160801b03165f036108735760405163292ab05f60e11b815260206004820152601860248201527f6d61696e74656e616e63654d617267696e52617465583138000000000000000060448201526064016106d2565b61088360c0860160a08701613eab565b6001600160801b03165f036108db5760405163292ab05f60e11b815260206004820152600f60248201527f6d61784f70656e496e746572657374000000000000000000000000000000000060448201526064016106d2565b6108eb60e0860160c08701613eab565b6001600160801b03165f0361092d5760405163292ab05f60e11b81526020600482015260076024820152666d6178536b657760c81b60448201526064016106d2565b61093d6080860160608701613eab565b6001600160801b03165f036109955760405163292ab05f60e11b815260206004820152601460248201527f696e697469616c4d617267696e5261746558313800000000000000000000000060448201526064016106d2565b6109a560a0860160808701613eab565b6001600160801b03166109be6080870160608801613eab565b6001600160801b0316116109e557604051632001297160e01b815260040160405180910390fd5b8461012001355f03610a265760405163292ab05f60e11b8152602060048201526009602482015268736b65775363616c6560b81b60448201526064016106d2565b610a37610100860160e08701613eab565b6001600160801b03165f03610a8f5760405163292ab05f60e11b815260206004820152600f60248201527f6d696e547261646553697a65583138000000000000000000000000000000000060448201526064016106d2565b610aa161012086016101008701613eab565b6001600160801b03165f03610af95760405163292ab05f60e11b815260206004820152601260248201527f6d617846756e64696e6756656c6f63697479000000000000000000000000000060448201526064016106d2565b610b0b6101a086016101808701613ec4565b63ffffffff165f03610b605760405163292ab05f60e11b815260206004820152601960248201527f7072696365466565644865617274626561745365636f6e64730000000000000060448201526064016106d2565b604080516101808101909152610d1e9080610b7b8880613e59565b8080601f0160208091040260200160405190810160405280939291908181526020018383808284375f92019190915250505090825250602090810190610bc390890189613e59565b8080601f0160208091040260200160405190810160405280939291908181526020018383808284375f92019190915250505090825250602001610c0c6060890160408a016136d4565b6001600160a01b03168152602001610c2a6080890160608a01613eab565b6001600160801b03168152602001610c4860a0890160808a01613eab565b6001600160801b03168152602001610c6660c0890160a08a01613eab565b6001600160801b03168152602001610c8460e0890160c08a01613eab565b6001600160801b03168152602001610ca461012089016101008a01613eab565b6001600160801b03168152602001610cc3610100890160e08a01613eab565b6001600160801b031681526101208801356020820152604001610cef3689900389016101408a01613edd565b8152602001610d066101a089016101808a01613ec4565b63ffffffff1681525082612ae390919063ffffffff16565b6040516001600160801b038716815233907f31c94177d41edeaa3cfafce06141153eb8be0a62336b73d84ef835f09ca307789060200160405180910390a2505050505050565b610d6c61299b565b610d796020820182613eab565b6001600160801b03165f03610dd15760405163292ab05f60e11b815260206004820152600860248201527f6d61726b6574496400000000000000000000000000000000000000000000000060448201526064016106d2565b610dde6020820182613e59565b604051602001610def929190613e9c565b604051602081830303815290604052515f03610e375760405163292ab05f60e11b81526004016106d2906020808252600490820152636e616d6560e01b604082015260600190565b610e446040820182613e59565b604051602001610e55929190613e9c565b604051602081830303815290604052515f03610e9d5760405163292ab05f60e11b81526020600482015260066024820152651cde5b589bdb60d21b60448201526064016106d2565b5f610eae60808301606084016136d4565b6001600160a01b031603610ef45760405163292ab05f60e11b815260206004820152600c60248201526b383934b1b2a0b230b83a32b960a11b60448201526064016106d2565b610f0460c0820160a08301613eab565b6001600160801b03165f03610f5c5760405163292ab05f60e11b815260206004820152601860248201527f6d61696e74656e616e63654d617267696e52617465583138000000000000000060448201526064016106d2565b610f6c60e0820160c08301613eab565b6001600160801b03165f03610fc45760405163292ab05f60e11b815260206004820152600f60248201527f6d61784f70656e496e746572657374000000000000000000000000000000000060448201526064016106d2565b610fd5610100820160e08301613eab565b6001600160801b03165f036110175760405163292ab05f60e11b81526020600482015260076024820152666d6178536b657760c81b60448201526064016106d2565b61102760c0820160a08301613eab565b6001600160801b031661104060a0830160808401613eab565b6001600160801b03161161106757604051632001297160e01b815260040160405180910390fd5b8061014001355f036110a85760405163292ab05f60e11b8152602060048201526009602482015268736b65775363616c6560b81b60448201526064016106d2565b6110ba61014082016101208301613eab565b6001600160801b03165f036111125760405163292ab05f60e11b815260206004820152600f60248201527f6d696e547261646553697a65583138000000000000000000000000000000000060448201526064016106d2565b61112461012082016101008301613eab565b6001600160801b03165f0361117c5760405163292ab05f60e11b815260206004820152601260248201527f6d617846756e64696e6756656c6f63697479000000000000000000000000000060448201526064016106d2565b61118e61020082016101e08301613ec4565b63ffffffff165f036111e35760405163292ab05f60e11b815260206004820152601960248201527f7072696365466565644865617274626561745365636f6e64730000000000000060448201526064016106d2565b5f6111ec6129e6565b604080516101e081019091529091506113fb908061120d6020860186613eab565b6001600160801b0316815260200184806020019061122b9190613e59565b8080601f0160208091040260200160405190810160405280939291908181526020018383808284375f920191909152505050908252506020016112716040860186613e59565b8080601f0160208091040260200160405190810160405280939291908181526020018383808284375f920191909152505050908252506020016112ba60808601606087016136d4565b6001600160a01b031681526020016112d860a0860160808701613eab565b6001600160801b031681526020016112f660c0860160a08701613eab565b6001600160801b0316815260200161131460e0860160c08701613eab565b6001600160801b03168152602001611333610100860160e08701613eab565b6001600160801b0316815260200161135361012086016101008701613eab565b6001600160801b0316815260200161137361014086016101208701613eab565b6001600160801b03168152610140850135602082015260400161139a610160860186613f36565b6113a390613f54565b81526020016113b6610180860186613f36565b6113bf90613f54565b81526020016113d73686900386016101a08701613edd565b81526020016113ee61020086016101e08701613ec4565b63ffffffff169052612bae565b61141261140b6020840184613eab565b8290612d60565b337f65710a3cc6517f99a1554885696d8b6c995e3b48013e6a9882d4cbe9edf821c26114416020850185613eab565b6040516001600160801b0390911681526020015b60405180910390a25050565b7ff0c57e16840df040f15088dc2f81fe391c3923bec73e23a9662efc9c229c6a00805468010000000000000000810460ff16159067ffffffffffffffff165f811580156114ab5750825b90505f8267ffffffffffffffff1660011480156114c75750303b155b9050811580156114d5575080155b1561150c576040517ff92ee8a900000000000000000000000000000000000000000000000000000000815260040160405180910390fd5b845467ffffffffffffffff19166001178555831561154057845468ff00000000000000001916680100000000000000001785555b5f6115496129e6565b6007810180546001600160a01b03808c166001600160a01b03199283161790925560069092018054918a16919092161790555083156115c757845468ff000000000000000019168555604051600181527fc7f505b2f371ae2175ee4913f4499e1f2633a7b5936321eed1cdaeb6115181d29060200160405180910390a15b50505050505050565b6115d861299b565b816115e282612dc0565b80546001600160a01b0319166001600160a01b03928316179055604051908316907f77e2e094e76e003bf8c0d4ce56f865b54d30ef6a2d1b21f981ea4359ebc9ac3690611455908490613fa2565b61163861299b565b815f61164382612a47565b604080516101208101825282546001600160801b038082168352600160801b91829004600f0b602084015260018501548082168486015291909104166060820152600283015460ff1615156080820152600383015460a0820152600483015460c0820152600583015460e082015281516101808101909252600683018054919392610100850192909190829082906116da90613e21565b80601f016020809104026020016040519081016040528092919081815260200182805461170690613e21565b80156117515780601f1061172857610100808354040283529160200191611751565b820191905f5260205f20905b81548152906001019060200180831161173457829003601f168201915b5050505050815260200160018201805461176a90613e21565b80601f016020809104026020016040519081016040528092919081815260200182805461179690613e21565b80156117e15780601f106117b8576101008083540402835291602001916117e1565b820191905f5260205f20905b8154815290600101906020018083116117c457829003601f168201915b505050918352505060028201546001600160a01b031660208083019190915260038301546001600160801b03808216604080860191909152600160801b9283900482166060860152600486015480831660808088019190915290849004831660a0870152600587015480841660c0880152849004831660e08701526006870154610100870152815180830190925260078701548084168352939093049091169281019290925261012083019190915260089092015463ffffffff166101409091015291528201519192506118d590505760405163ee292d8b60e01b81526001600160801b03831660048201526024016106d2565b5f6118de6129e6565b90508315611933576118f08186612d60565b6040516001600160801b038616815233907f542ef5fd438ba3b97ecdedab531f41c7d292a73756e8a56550d1b639433ccb309060200160405180910390a261197d565b61193d8186612ded565b6040516001600160801b038616815233907f061a3317ddb84180eec9e13212cb8bc49d7e641c7039d6b1788507f9da97914b906020015b60405180910390a25b5050505050565b61198c61299b565b6119955f612e48565b565b61199f61299b565b825f6119aa82612a47565b604080516101208101825282546001600160801b038082168352600160801b91829004600f0b602084015260018501548082168486015291909104166060820152600283015460ff1615156080820152600383015460a0820152600483015460c0820152600583015460e08201528151610180810190925260068301805491939261010085019290919082908290611a4190613e21565b80601f0160208091040260200160405190810160405280929190818152602001828054611a6d90613e21565b8015611ab85780601f10611a8f57610100808354040283529160200191611ab8565b820191905f5260205f20905b815481529060010190602001808311611a9b57829003601f168201915b50505050508152602001600182018054611ad190613e21565b80601f0160208091040260200160405190810160405280929190818152602001828054611afd90613e21565b8015611b485780601f10611b1f57610100808354040283529160200191611b48565b820191905f5260205f20905b815481529060010190602001808311611b2b57829003601f168201915b505050918352505060028201546001600160a01b031660208083019190915260038301546001600160801b03808216604080860191909152600160801b9283900482166060860152600486015480831660808088019190915290849004831660a0870152600587015480841660c0880152849004831660e08701526006870154610100870152815180830190925260078701548084168352939093049091169281019290925261012083019190915260089092015463ffffffff16610140909101529152820151919250611c3c90505760405163ee292d8b60e01b81526001600160801b03831660048201526024016106d2565b6001600160801b03841615801590611c5e57506001600160801b038416600114155b15611c95576040517f6414779700000000000000000000000000000000000000000000000000000000815260040160405180910390fd5b611ca0858585612eb8565b6040516001600160801b03858116825286169033907f484ab6802b5750f26746e86492313bbbcd5bee8d268be3c2bb6ee80662f899b49060200160405180910390a35050505050565b5f807f9016d09d72d40fdae2fd8ceac6b6234c7706214fd39c1cd1e609a0528c1993005b546001600160a01b031692915050565b611d2561299b565b876001600160801b03165f03611d7e5760405163292ab05f60e11b815260206004820152601660248201527f6d6178506f736974696f6e735065724163636f756e740000000000000000000060448201526064016106d2565b856001600160801b03165f03611dd75760405163292ab05f60e11b815260206004820152601460248201527f6c69717569646174696f6e46656555736458313800000000000000000000000060448201526064016106d2565b6001600160a01b038516611e2e5760405163292ab05f60e11b815260206004820152601960248201527f6d617267696e436f6c6c61746572616c526563697069656e740000000000000060448201526064016106d2565b6001600160a01b038416611e855760405163292ab05f60e11b815260206004820152601160248201527f6f72646572466565526563697069656e7400000000000000000000000000000060448201526064016106d2565b6001600160a01b038316611edc5760405163292ab05f60e11b815260206004820152601660248201527f736574746c656d656e74466565526563697069656e740000000000000000000060448201526064016106d2565b6001600160a01b038216611f335760405163292ab05f60e11b815260206004820152601760248201527f6c69717569646174696f6e466565526563697069656e7400000000000000000060448201526064016106d2565b805f03611f835760405163292ab05f60e11b815260206004820152601460248201527f6d6178566572696669636174696f6e44656c617900000000000000000000000060448201526064016106d2565b5f611f8c6129e6565b6001600160801b038a8116600160801b8b8316908102821784556001840180547fffffffffffffffffffffffffffffffff0000000000000000000000000000000016938c1693841790556002840180546001600160a01b03199081166001600160a01b038d81169190911790925560038601805482168c841617905560048601805482168b84161790556005860180549091169189169190911790556008840186905560408051928352602083019190915281019190915290915033907f0ec7de5b5f69316f54299800de18c7806509fe970f4f92edadf91179e73058499060600160405180910390a2505050505050505050565b5f611d0d82612dc0565b61209361299b565b8061209d83612f7d565b600401555050565b6120ad61299b565b5f8390036120fe5760405163292ab05f60e11b815260206004820152600b60248201527f6c697175696461746f727300000000000000000000000000000000000000000060448201526064016106d2565b82811461212857604051631f4bb7c160e31b815260048101849052602481018290526044016106d2565b5f6121316129e6565b90505f5b848110156121bf5783838281811061214f5761214f613fb4565b90506020020160208101906121649190613fc8565b82600a015f88888581811061217b5761217b613fb4565b905060200201602081019061219091906136d4565b6001600160a01b0316815260208101919091526040015f20805460ff1916911515919091179055600101612135565b50336001600160a01b03167f1b5f266857def89cf63cfa439486e6427f8591e935da3cb395bd7f691420b4cd868686866040516119749493929190614026565b61220761299b565b81515f036122585760405163292ab05f60e11b815260206004820152600860248201527f636861696e49647300000000000000000000000000000000000000000000000060448201526064016106d2565b80515f036122a95760405163292ab05f60e11b815260206004820152601c60248201527f73657175656e636572557074696d65466565644164647265737365730000000060448201526064016106d2565b80518251146122d85781518151604051631f4bb7c160e31b8152600481019290925260248201526044016106d2565b5f6122e16129e6565b90505f5b83518110156123de5782818151811061230057612300613fb4565b6020026020010151826011015f86848151811061231f5761231f613fb4565b602002602001015181526020019081526020015f205f6101000a8154816001600160a01b0302191690836001600160a01b0316021790555082818151811061236957612369613fb4565b60200260200101516001600160a01b0316336001600160a01b03167ffaabb9d520b6d287439da904cc328a3679c4081e458ebc89e20011c9274d54158684815181106123b7576123b7613fb4565b60200260200101516040516123ce91815260200190565b60405180910390a36001016122e5565b50505050565b60605f6123ef6129e6565b90506123fb8484614094565b6124069060016140a7565b67ffffffffffffffff81111561241e5761241e6137be565b604051908082528060200260200182016040528015612447578160200160208202803683370190505b5091505f845b8481116124ab57612461600f840182612fc7565b84838151811061247357612473613fb4565b6001600160801b039092166020928302919091019091015281612495816140ba565b92505080806124a3906140ba565b91505061244d565b50505092915050565b6124bc61299b565b6001600160a01b0381166125135760405163292ab05f60e11b815260206004820152600860248201527f757364546f6b656e00000000000000000000000000000000000000000000000060448201526064016106d2565b5f61251c6129e6565b6006810180546001600160a01b0319166001600160a01b0385169081179091556040519192509033907fcf10762fabc15743e45e0278377baf59be43714239e2a18bd888ffdea43de597905f90a35050565b61257661299b565b6001600160a01b0381166125cd5760405163292ab05f60e11b815260206004820152600e60248201527f636f6c6c61746572616c5479706500000000000000000000000000000000000060448201526064016106d2565b5f6125d66129e6565b90506125e28183612fdb565b6040516001600160a01b0383169033907f35bb9209dbcf9687ef61d688d66e3632ee658ea0dd855e7ac0f2443464b4dc21905f90a35050565b6040805160c0810182525f80825260208201819052918101829052606081018290526080810182905260a081018290529061265583613186565b6040805160c08101825282546001600160801b0381168252600160801b81046effffffffffffffffffffffffffffff166020830152600160f81b900460ff169181019190915260018201546001600160a01b031660608201526002820154608082015260039091015463ffffffff1660a08201529392505050565b6126d861299b565b6001600160a01b03811661271a576040517f1e4fbdf70000000000000000000000000000000000000000000000000000000081525f60048201526024016106d2565b61272381612e48565b50565b61272e61299b565b5f81900361277f5760405163292ab05f60e11b815260206004820152600f60248201527f636f6c6c61746572616c5479706573000000000000000000000000000000000060448201526064016106d2565b5f6127886129e6565b90506127c88383808060200260200160405190810160405280939291908181526020018383602002808284375f9201919091525085939250506132039050565b336001600160a01b03167f311ed9f2ec31a178a39e232908db34729c00d11b8d3f6d505391f0de8983b9f784846040516128039291906140d2565b60405180910390a2505050565b61281861299b565b846001600160a01b031663313ce5676040518163ffffffff1660e01b8152600401602060405180830381865afa925050508015612872575060408051601f3d908101601f1916820190925261286f918101906140e5565b60015b6128a85760405163b817a46b60e01b81526001600160a01b0380871660048301525f6024830152831660448201526064016106d2565b601260ff821611806128c157506001600160a01b038316155b806128cd575060ff8116155b156129075760405163b817a46b60e01b81526001600160a01b03808816600483015260ff83166024830152841660448201526064016106d2565b612915868686848787613321565b604080516001600160801b03871681526effffffffffffffffffffffffffffff8616602082015260ff8316818301526001600160a01b03858116606083015263ffffffff8516608083015291519188169133917fc345a94cdb30006100053735b1b896dc495e9deb4c2495f19e68a3a1d6870ff1919081900360a00190a3505050505050565b336129a4611ce9565b6001600160a01b031614611995576040517f118cdaa70000000000000000000000000000000000000000000000000000000081523360048201526024016106d2565b5f8060ff19612a1660017feeb5cd774bc9c6845792a7b59ceb11c49cb99339b2df9604c51808d2eb250cc2614094565b604051602001612a2891815260200190565b60408051601f1981840301815291905280516020909101201692915050565b5f8060ff19612a7760017f7391160f00c346d035658daa8a3c1eb1fa2f98b67b37275a9487390ac54b119f614094565b604051602001612a8991815260200190565b604051602081830303815290604052805190602001201683604051602001612ac49291909182526001600160801b0316602082015260400190565b60408051601f1981840301815291905280516020909101209392505050565b80518290612af19082614149565b5060208101516001830190612b069082614149565b5060408101516002830180546001600160a01b0319166001600160a01b03909216919091179055606081015160808201516001600160801b03918216600160801b918316820217600385015560a083015160c0840151908316908316820217600485015560e083015161010084015190831690831682021760058501556101208301516006850155610140909201518051602090910151908216911690910217600790910155565b5f612bbb825f0151612a47565b80549091506001600160801b031615612c0e5781516040517fd75fc36f0000000000000000000000000000000000000000000000000000000081526001600160801b0390911660048201526024016106d2565b815f0151815f015f6101000a8154816001600160801b0302191690836001600160801b031602179055506001816002015f6101000a81548160ff021916908315150217905550612d35604051806101800160405280846020015181526020018460400151815260200184606001516001600160a01b0316815260200184608001516001600160801b031681526020018460a001516001600160801b031681526020018460c001516001600160801b031681526020018460e001516001600160801b031681526020018461010001516001600160801b031681526020018461012001516001600160801b031681526020018461014001518152602001846101a001518152602001846101c0015163ffffffff1681525082600601612ae390919063ffffffff16565b612d48825f01515f846101600151612eb8565b612d5c825f01516001846101800151612eb8565b5050565b5f612d77600d84016001600160801b0384166133f6565b905080612dbb576040517f056891470000000000000000000000000000000000000000000000000000000081526001600160801b03831660048201526024016106d2565b505050565b5f806040518060600160405280602481526020016142896024913983604051602001612ac4929190614209565b5f612e04600d84016001600160801b038416613401565b905080612dbb576040517fc9ff72970000000000000000000000000000000000000000000000000000000081526001600160801b03831660048201526024016106d2565b7f9016d09d72d40fdae2fd8ceac6b6234c7706214fd39c1cd1e609a0528c19930080546001600160a01b031981166001600160a01b03848116918217845560405192169182907f8be0079c531659141344cd1fd0a4f28419497f9722a3daafe3b4186f6b6457e0905f90a3505050565b5f612ec3848461340c565b8251815491925090829060ff19166001838015612ee257612ee2614236565b021790555060208201518154604084015160608501516001600160a01b03166c01000000000000000000000000026bffffffffffffffffffffffff69ffffffffffffffffffff90921662010000026bffffffffffffffffffff00001994151561010002949094166bffffffffffffffffffffff00199093169290921792909217919091161781556080820151600182019061197d9082614149565b5f806040518060400160405280600f81526020017f66692e7a61726f732e506f696e7473000000000000000000000000000000000081525083604051602001612ac492919061424a565b5f612fd283836134b3565b90505b92915050565b5f612fe9600b8401836134d9565b90508061302d576040517fb8c194470000000000000000000000000000000000000000000000000000000081526001600160a01b03831660048201526024016106d2565b5f61303a84600b016134fa565b80519091505f61304b600183614094565b67ffffffffffffffff811115613063576130636137be565b60405190808252806020026020018201604052801561308c578160200160208202803683370190505b5090505f805b8381101561312f575f8582815181106130ad576130ad613fb4565b602002602001015190506130cd818a600b0161350d90919063ffffffff16565b50876001600160a01b0316816001600160a01b0316036130ed5750613127565b8084848151811061310057613100613fb4565b6001600160a01b039092166020928302919091019091015282613122816140ba565b935050505b600101613092565b505f5b61313d600185614094565b81101561317c5761317383828151811061315957613159613fb4565b602002602001015189600b0161352190919063ffffffff16565b50600101613132565b5050505050505050565b5f8060ff196131b660017f4693110e548948f348ad9c8c0e5b637b378994981b3a4246fc86241f8faded51614094565b6040516020016131c891815260200190565b604051602081830303815290604052805190602001201683604051602001612ac49291909182526001600160a01b0316602082015260400190565b80515f5b818110156123de575f6001600160a01b031683828151811061322b5761322b613fb4565b60200260200101516001600160a01b03160361328a5760405163292ab05f60e11b815260206004820152600e60248201527f636f6c6c61746572616c5479706500000000000000000000000000000000000060448201526064016106d2565b6132b983828151811061329f5761329f613fb4565b602002602001015185600b0161352190919063ffffffff16565b613319578281815181106132cf576132cf613fb4565b60200260200101516040517f889e9e6a0000000000000000000000000000000000000000000000000000000081526004016106d291906001600160a01b0391909116815260200190565b600101613207565b5f61332b87613186565b805460ff909516600160f81b027effffffffffffffffffffffffffffffffffffffffffffffffffffffffffffff6effffffffffffffffffffffffffffff909716600160801b027fff000000000000000000000000000000000000000000000000000000000000009096166001600160801b039098169790971794909417949094169490941782556001820180546001600160a01b039092166001600160a01b0319909216919091179055600301805463ffffffff90931663ffffffff19909316929092179091555050565b5f612fd28383613531565b5f612fd2838361357d565b5f8060ff1961343c60017f4afdb43bc86b99e946919eed9b94acdb0f56ab4974b93329a1618862786cae32614094565b60405160200161344e91815260200190565b60405160208183030381529060405280519060200120168484604051602001613493939291909283526001600160801b03918216602084015216604082015260600190565b60408051601f198184030181529190528051602090910120949350505050565b5f825f0182815481106134c8576134c8613fb4565b905f5260205f200154905092915050565b6001600160a01b0381165f9081526001830160205260408120541515612fd2565b60605f61350683613660565b9392505050565b5f612fd2836001600160a01b03841661357d565b5f612fd2836001600160a01b0384165b5f81815260018301602052604081205461357657508154600181810184555f848152602080822090930184905584548482528286019093526040902091909155612fd5565b505f612fd5565b5f8181526001830160205260408120548015613657575f61359f600183614094565b85549091505f906135b290600190614094565b9050808214613611575f865f0182815481106135d0576135d0613fb4565b905f5260205f200154905080875f0184815481106135f0576135f0613fb4565b5f918252602080832090910192909255918252600188019052604090208390555b855486908061362257613622614274565b600190038181905f5260205f20015f90559055856001015f8681526020019081526020015f205f905560019350505050612fd5565b5f915050612fd5565b6060815f018054806020026020016040519081016040528092919081815260200182805480156136ad57602002820191905f5260205f20905b815481526020019060010190808311613699575b50505050509050919050565b80356001600160a01b03811681146136cf575f80fd5b919050565b5f602082840312156136e4575f80fd5b612fd2826136b9565b80356001600160801b03811681146136cf575f80fd5b5f8060408385031215613714575f80fd5b61371d836136ed565b9150602083013567ffffffffffffffff811115613738575f80fd5b83016101a0818603121561374a575f80fd5b809150509250929050565b5f60208284031215613765575f80fd5b813567ffffffffffffffff81111561377b575f80fd5b82016102008185031215613506575f80fd5b5f806040838503121561379e575f80fd5b6137a7836136b9565b91506137b5602084016136b9565b90509250929050565b634e487b7160e01b5f52604160045260245ffd5b60405160a0810167ffffffffffffffff811182821017156137f5576137f56137be565b60405290565b604051601f8201601f1916810167ffffffffffffffff81118282101715613824576138246137be565b604052919050565b5f82601f83011261383b575f80fd5b813567ffffffffffffffff811115613855576138556137be565b613868601f8201601f19166020016137fb565b81815284602083860101111561387c575f80fd5b816020850160208301375f918101602001919091529392505050565b5f80604083850312156138a9575f80fd5b6138b2836136b9565b9150602083013567ffffffffffffffff8111156138cd575f80fd5b6138d98582860161382c565b9150509250929050565b803580151581146136cf575f80fd5b5f8060408385031215613903575f80fd5b61390c836136ed565b91506137b5602084016138e3565b5f60a0828403121561392a575f80fd5b6139326137d2565b9050813560018110613942575f80fd5b8152613950602083016138e3565b6020820152604082013569ffffffffffffffffffff81168114613971575f80fd5b6040820152613982606083016136b9565b6060820152608082013567ffffffffffffffff8111156139a0575f80fd5b6139ac8482850161382c565b60808301525092915050565b5f805f606084860312156139ca575f80fd5b6139d3846136ed565b92506139e1602085016136ed565b9150604084013567ffffffffffffffff8111156139fc575f80fd5b613a088682870161391a565b9150509250925092565b5f805f805f805f80610100898b031215613a2a575f80fd5b613a33896136ed565b9750613a4160208a016136ed565b9650613a4f60408a016136ed565b9550613a5d60608a016136b9565b9450613a6b60808a016136b9565b9350613a7960a08a016136b9565b9250613a8760c08a016136b9565b915060e089013590509295985092959890939650565b5f60208284031215613aad575f80fd5b813567ffffffffffffffff811115613ac3575f80fd5b613acf8482850161382c565b949350505050565b5f8060408385031215613ae8575f80fd5b613af1836136b9565b946020939093013593505050565b5f8083601f840112613b0f575f80fd5b50813567ffffffffffffffff811115613b26575f80fd5b6020830191508360208260051b8501011115613b40575f80fd5b9250929050565b5f805f8060408587031215613b5a575f80fd5b843567ffffffffffffffff80821115613b71575f80fd5b613b7d88838901613aff565b90965094506020870135915080821115613b95575f80fd5b50613ba287828801613aff565b95989497509550505050565b5f67ffffffffffffffff821115613bc757613bc76137be565b5060051b60200190565b5f82601f830112613be0575f80fd5b81356020613bf5613bf083613bae565b6137fb565b8083825260208201915060208460051b870101935086841115613c16575f80fd5b602086015b84811015613c3957613c2c816136b9565b8352918301918301613c1b565b509695505050505050565b5f8060408385031215613c55575f80fd5b823567ffffffffffffffff80821115613c6c575f80fd5b818501915085601f830112613c7f575f80fd5b81356020613c8f613bf083613bae565b82815260059290921b84018101918181019089841115613cad575f80fd5b948201945b83861015613ccb57853582529482019490820190613cb2565b96505086013592505080821115613ce0575f80fd5b506138d985828601613bd1565b5f8060408385031215613cfe575f80fd5b50508035926020909101359150565b602080825282518282018190525f9190848201906040850190845b81811015613d4d5783516001600160801b031683529284019291840191600101613d28565b50909695505050505050565b5f8060208385031215613d6a575f80fd5b823567ffffffffffffffff811115613d80575f80fd5b613d8c85828601613aff565b90969095509350505050565b803563ffffffff811681146136cf575f80fd5b5f805f805f60a08688031215613dbf575f80fd5b613dc8866136b9565b9450613dd6602087016136ed565b935060408601356effffffffffffffffffffffffffffff81168114613df9575f80fd5b9250613e07606087016136b9565b9150613e1560808701613d98565b90509295509295909350565b600181811c90821680613e3557607f821691505b602082108103613e5357634e487b7160e01b5f52602260045260245ffd5b50919050565b5f808335601e19843603018112613e6e575f80fd5b83018035915067ffffffffffffffff821115613e88575f80fd5b602001915036819003821315613b40575f80fd5b818382375f9101908152919050565b5f60208284031215613ebb575f80fd5b612fd2826136ed565b5f60208284031215613ed4575f80fd5b612fd282613d98565b5f60408284031215613eed575f80fd5b6040516040810181811067ffffffffffffffff82111715613f1057613f106137be565b604052613f1c836136ed565b8152613f2a602084016136ed565b60208201529392505050565b5f8235609e19833603018112613f4a575f80fd5b9190910192915050565b5f612fd5368361391a565b5f81518084525f5b81811015613f8357602081850181015186830182015201613f67565b505f602082860101526020601f19601f83011685010191505092915050565b602081525f612fd26020830184613f5f565b634e487b7160e01b5f52603260045260245ffd5b5f60208284031215613fd8575f80fd5b612fd2826138e3565b8183525f60208085019450825f5b8581101561401b576001600160a01b03614008836136b9565b1687529582019590820190600101613fef565b509495945050505050565b604081525f614039604083018688613fe1565b828103602084810191909152848252859181015f5b868110156140735761405f846138e3565b15158252928201929082019060010161404e565b5098975050505050505050565b634e487b7160e01b5f52601160045260245ffd5b81810381811115612fd557612fd5614080565b80820180821115612fd557612fd5614080565b5f600182016140cb576140cb614080565b5060010190565b602081525f613acf602083018486613fe1565b5f602082840312156140f5575f80fd5b815160ff81168114613506575f80fd5b601f821115612dbb57805f5260205f20601f840160051c8101602085101561412a5750805b601f840160051c820191505b8181101561197d575f8155600101614136565b815167ffffffffffffffff811115614163576141636137be565b614177816141718454613e21565b84614105565b602080601f8311600181146141aa575f84156141935750858301515b5f19600386901b1c1916600185901b178555614201565b5f85815260208120601f198616915b828110156141d8578886015182559484019460019091019084016141b9565b50858210156141f557878501515f19600388901b60f8161c191681555b505060018460011b0185555b505050505050565b604081525f61421b6040830185613f5f565b828103602084015261422d8185613f5f565b95945050505050565b634e487b7160e01b5f52602160045260245ffd5b604081525f61425c6040830185613f5f565b90506001600160a01b03831660208301529392505050565b634e487b7160e01b5f52603160045260245ffdfe66692e7a61726f732e437573746f6d526566657272616c436f6e66696775726174696f6e","linkReferences":{}},"methodIdentifiers":{"configureCollateralLiquidationPriority(address[])":"f7ee0fa9","configureLiquidators(address[],bool[])":"b8a41c37","configureMarginCollateral(address,uint128,uint120,address,uint32)":"fe43da3d","configureSequencerUptimeFeedByChainId(uint256[],address[])":"b988c53b","configureSystemParameters(uint128,uint128,uint128,address,address,address,address,uint256)":"8fdb867b","createCustomReferralCode(address,string)":"4ceb6b6f","createPerpMarket((uint128,string,string,address,uint128,uint128,uint128,uint128,uint128,uint128,uint256,(uint8,bool,uint80,address,bytes),(uint8,bool,uint80,address,bytes),(uint128,uint128),uint32))":"36cba7bb","getAccountsWithActivePositions(uint256,uint256)":"cc9c899c","getCustomReferralCodeReferrer(string)":"9c1880eb","getMarginCollateralConfiguration(address)":"e1fdafee","initialize(address,address)":"485cc955","owner()":"8da5cb5b","removeCollateralFromLiquidationPriority(address)":"de6c45d0","renounceOwnership()":"715018a6","setTradingAccountToken(address)":"225c14e5","setUsdToken(address)":"da805590","setUserPoints(address,uint256)":"a7ea87e2","transferOwnership(address)":"f2fde38b","updatePerpMarketConfiguration(uint128,(string,string,address,uint128,uint128,uint128,uint128,uint128,uint128,uint256,(uint128,uint128),uint32))":"35b0cb1f","updatePerpMarketStatus(uint128,bool)":"50c4909e","updateSettlementConfiguration(uint128,uint128,(uint8,bool,uint80,address,bytes))":"77114a25"},"id":295}