{"abi":[{"type":"constructor","inputs":[],"stateMutability":"nonpayable"},{"type":"function","name":"DATA_STREAMS_FEED_LABEL","inputs":[],"outputs":[{"name":"","type":"string","internalType":"string"}],"stateMutability":"view"},{"type":"function","name":"DATA_STREAMS_QUERY_LABEL","inputs":[],"outputs":[{"name":"","type":"string","internalType":"string"}],"stateMutability":"view"},{"type":"function","name":"UPGRADE_INTERFACE_VERSION","inputs":[],"outputs":[{"name":"","type":"string","internalType":"string"}],"stateMutability":"view"},{"type":"function","name":"checkCallback","inputs":[{"name":"values","type":"bytes[]","internalType":"bytes[]"},{"name":"extraData","type":"bytes","internalType":"bytes"}],"outputs":[{"name":"upkeepNeeded","type":"bool","internalType":"bool"},{"name":"performData","type":"bytes","internalType":"bytes"}],"stateMutability":"pure"},{"type":"function","name":"checkLog","inputs":[{"name":"log","type":"tuple","internalType":"struct Log","components":[{"name":"index","type":"uint256","internalType":"uint256"},{"name":"timestamp","type":"uint256","internalType":"uint256"},{"name":"txHash","type":"bytes32","internalType":"bytes32"},{"name":"blockNumber","type":"uint256","internalType":"uint256"},{"name":"blockHash","type":"bytes32","internalType":"bytes32"},{"name":"source","type":"address","internalType":"address"},{"name":"topics","type":"bytes32[]","internalType":"bytes32[]"},{"name":"data","type":"bytes","internalType":"bytes"}]},{"name":"","type":"bytes","internalType":"bytes"}],"outputs":[{"name":"","type":"bool","internalType":"bool"},{"name":"","type":"bytes","internalType":"bytes"}],"stateMutability":"view"},{"type":"function","name":"getConfig","inputs":[],"outputs":[{"name":"keeperOwner","type":"address","internalType":"address"},{"name":"forwarder","type":"address","internalType":"address"},{"name":"perpsEngine","type":"address","internalType":"address"},{"name":"marketId","type":"uint128","internalType":"uint128"}],"stateMutability":"view"},{"type":"function","name":"initialize","inputs":[{"name":"owner","type":"address","internalType":"address"},{"name":"perpsEngine","type":"address","internalType":"contract IPerpsEngine"},{"name":"marketId","type":"uint128","internalType":"uint128"},{"name":"streamId","type":"string","internalType":"string"}],"outputs":[],"stateMutability":"nonpayable"},{"type":"function","name":"owner","inputs":[],"outputs":[{"name":"","type":"address","internalType":"address"}],"stateMutability":"view"},{"type":"function","name":"performUpkeep","inputs":[{"name":"performData","type":"bytes","internalType":"bytes"}],"outputs":[],"stateMutability":"nonpayable"},{"type":"function","name":"proxiableUUID","inputs":[],"outputs":[{"name":"","type":"bytes32","internalType":"bytes32"}],"stateMutability":"view"},{"type":"function","name":"renounceOwnership","inputs":[],"outputs":[],"stateMutability":"nonpayable"},{"type":"function","name":"setForwarder","inputs":[{"name":"forwarder","type":"address","internalType":"address"}],"outputs":[],"stateMutability":"nonpayable"},{"type":"function","name":"transferOwnership","inputs":[{"name":"newOwner","type":"address","internalType":"address"}],"outputs":[],"stateMutability":"nonpayable"},{"type":"function","name":"updateConfig","inputs":[{"name":"perpsEngine","type":"address","internalType":"contract IPerpsEngine"},{"name":"marketId","type":"uint128","internalType":"uint128"},{"name":"streamId","type":"string","internalType":"string"}],"outputs":[],"stateMutability":"nonpayable"},{"type":"function","name":"upgradeToAndCall","inputs":[{"name":"newImplementation","type":"address","internalType":"address"},{"name":"data","type":"bytes","internalType":"bytes"}],"outputs":[],"stateMutability":"payable"},{"type":"event","name":"Initialized","inputs":[{"name":"version","type":"uint64","indexed":false,"internalType":"uint64"}],"anonymous":false},{"type":"event","name":"OwnershipTransferred","inputs":[{"name":"previousOwner","type":"address","indexed":true,"internalType":"address"},{"name":"newOwner","type":"address","indexed":true,"internalType":"address"}],"anonymous":false},{"type":"event","name":"Upgraded","inputs":[{"name":"implementation","type":"address","indexed":true,"internalType":"address"}],"anonymous":false},{"type":"error","name":"AddressEmptyCode","inputs":[{"name":"target","type":"address","internalType":"address"}]},{"type":"error","name":"ERC1967InvalidImplementation","inputs":[{"name":"implementation","type":"address","internalType":"address"}]},{"type":"error","name":"ERC1967NonPayable","inputs":[]},{"type":"error","name":"FailedInnerCall","inputs":[]},{"type":"error","name":"InvalidInitialization","inputs":[]},{"type":"error","name":"NotInitializing","inputs":[]},{"type":"error","name":"OwnableInvalidOwner","inputs":[{"name":"owner","type":"address","internalType":"address"}]},{"type":"error","name":"OwnableUnauthorizedAccount","inputs":[{"name":"account","type":"address","internalType":"address"}]},{"type":"error","name":"SafeCastOverflowedUintDowncast","inputs":[{"name":"bits","type":"uint8","internalType":"uint8"},{"name":"value","type":"uint256","internalType":"uint256"}]},{"type":"error","name":"StreamsLookup","inputs":[{"name":"feedParamKey","type":"string","internalType":"string"},{"name":"feeds","type":"string[]","internalType":"string[]"},{"name":"timeParamKey","type":"string","internalType":"string"},{"name":"time","type":"uint256","internalType":"uint256"},{"name":"extraData","type":"bytes","internalType":"bytes"}]},{"type":"error","name":"UUPSUnauthorizedCallContext","inputs":[]},{"type":"error","name":"UUPSUnsupportedProxiableUUID","inputs":[{"name":"slot","type":"bytes32","internalType":"bytes32"}]},{"type":"error","name":"Unauthorized","inputs":[{"name":"sender","type":"address","internalType":"address"}]},{"type":"error","name":"ZeroInput","inputs":[{"name":"parameter","type":"string","internalType":"string"}]}],"bytecode":{"object":"0x60a060405230608052348015610013575f80fd5b5061001c610021565b6100d3565b7ff0c57e16840df040f15088dc2f81fe391c3923bec73e23a9662efc9c229c6a00805468010000000000000000900460ff16156100715760405163f92ee8a960e01b815260040160405180910390fd5b80546001600160401b03908116146100d05780546001600160401b0319166001600160401b0390811782556040519081527fc7f505b2f371ae2175ee4913f4499e1f2633a7b5936321eed1cdaeb6115181d29060200160405180910390a15b50565b608051611afc6100f95f395f8181610cf001528181610d190152610e9c0152611afc5ff3fe6080604052600436106100e4575f3560e01c8063715018a611610087578063b9998a2411610057578063b9998a24146102c7578063c3f909d4146102e6578063f2fde38b14610333578063ff6b414614610352575f80fd5b8063715018a6146102065780638da5cb5b1461021a5780638e25c04314610260578063ad3cb1cc1461027f575f80fd5b80634585e33b116100c25780634585e33b146101915780634b56a42e146101b25780634f1ef286146101d157806352d1902d146101e4575f80fd5b806307bc062d146100e857806340691db4146101305780634562f3091461015d575b5f80fd5b3480156100f3575f80fd5b5061011a604051806040016040528060078152602001666665656449447360c81b81525081565b6040516101279190611324565b60405180910390f35b34801561013b575f80fd5b5061014f61014a36600461137b565b610371565b6040516101279291906113e7565b348015610168575f80fd5b5061011a60405180604001604052806009815260200168074696d657374616d760bc1b81525081565b34801561019c575f80fd5b506101b06101ab366004611409565b610564565b005b3480156101bd575f80fd5b5061014f6101cc366004611448565b610683565b6101b06101df36600461158b565b610715565b3480156101ef575f80fd5b506101f8610734565b604051908152602001610127565b348015610211575f80fd5b506101b0610762565b348015610225575f80fd5b507f9016d09d72d40fdae2fd8ceac6b6234c7706214fd39c1cd1e609a0528c199300546040516001600160a01b039091168152602001610127565b34801561026b575f80fd5b506101b061027a3660046115ec565b610775565b34801561028a575f80fd5b5061011a6040518060400160405280600581526020017f352e302e3000000000000000000000000000000000000000000000000000000081525081565b3480156102d2575f80fd5b506101b06102e1366004611641565b6108a3565b3480156102f1575f80fd5b506102fa6108d6565b604080516001600160a01b039586168152938516602085015291909316908201526001600160801b039091166060820152608001610127565b34801561033e575f80fd5b506101b061034d366004611641565b61094f565b34801561035d575f80fd5b506101b061036c36600461165c565b6109a5565b5f6060816103a461038560c08801886116d3565b600281811061039657610396611719565b905060200201355f1c610c04565b90505f6103b460e088018861172d565b8101906103c19190611770565b90505f6103cc610c54565b6040805160018082528183019092529192505f9190816020015b60608152602001906001900390816103e657905050905081600201805461040c906117e6565b80601f0160208091040260200160405190810160405280929190818152602001828054610438906117e6565b80156104835780601f1061045a57610100808354040283529160200191610483565b820191905f5260205f20905b81548152906001019060200180831161046657829003601f168201915b5050505050815f8151811061049a5761049a611719565b60200260200101819052505f83604001516001600160801b031690505f856040516020016104d791906001600160801b0391909116815260200190565b60408051601f19818403018152828201825260078352666665656449447360c81b602084810191909152825180840184526009815268074696d657374616d760bc1b9181019190915291517ff055e4a200000000000000000000000000000000000000000000000000000000815290935061055b929186918690869060040161181e565b60405180910390fd5b5f61056d610cb5565b80549091506001600160a01b03163314806105b6576040517f8e4a23d600000000000000000000000000000000000000000000000000000000815233600482015260240161055b565b5f806105c4858701876118bd565b915091505f818060200190518101906105dd9190611913565b90505f6105e8610c54565b805460018201546040517fd1d7ab1e0000000000000000000000000000000000000000000000000000000081529293506001600160a01b03909116916001600160801b0390911690829063d1d7ab1e9061064a90879085908b9060040161192e565b5f604051808303815f87803b158015610661575f80fd5b505af1158015610673573d5f803e3d5ffd5b5050505050505050505050505050565b5f60605f86865f81811061069957610699611719565b90506020028101906106ab919061172d565b8080601f0160208091040260200160405190810160405280939291908181526020018383808284375f9201919091525050604051600196509293506106fa928492508891508790602001611962565b60405160208183030381529060405291505094509492505050565b61071d610ce5565b61072682610d9c565b6107308282610da4565b5050565b5f61073d610e91565b507f360894a13ba1a3210667c828492db98dca3e2076cc3735a920a3ca505d382bbc90565b61076a610eda565b6107735f610f4e565b565b61077d610eda565b6001600160a01b0384166107c25760405163292ab05f60e11b815260206004820152600b60248201526a7065727073456e67696e6560a81b604482015260640161055b565b826001600160801b03165f036108065760405163292ab05f60e11b81526020600482015260086024820152671b585c9ad95d125960c21b604482015260640161055b565b5f8190036108425760405163292ab05f60e11b81526020600482015260086024820152671cdd1c99585b525960c21b604482015260640161055b565b5f61084b610c54565b80546001600160a01b0319166001600160a01b0387161781556001810180546fffffffffffffffffffffffffffffffff19166001600160801b03871617905590506002810161089b8385836119f1565b505050505050565b6108ab610eda565b5f6108b4610cb5565b80546001600160a01b0319166001600160a01b03939093169290921790915550565b5f805f805f6108e3610cb5565b90505f6108ee610c54565b90506109217f9016d09d72d40fdae2fd8ceac6b6234c7706214fd39c1cd1e609a0528c199300546001600160a01b031690565b9154815460019092015492976001600160a01b039182169750911694506001600160801b0390911692509050565b610957610eda565b6001600160a01b038116610999576040517f1e4fbdf70000000000000000000000000000000000000000000000000000000081525f600482015260240161055b565b6109a281610f4e565b50565b7ff0c57e16840df040f15088dc2f81fe391c3923bec73e23a9662efc9c229c6a00805468010000000000000000810460ff16159067ffffffffffffffff165f811580156109ef5750825b90505f8267ffffffffffffffff166001148015610a0b5750303b155b905081158015610a19575080155b15610a50576040517ff92ee8a900000000000000000000000000000000000000000000000000000000815260040160405180910390fd5b845467ffffffffffffffff191660011785558315610a8457845468ff00000000000000001916680100000000000000001785555b610a8d8a610fbe565b6001600160a01b038916610ad25760405163292ab05f60e11b815260206004820152600b60248201526a7065727073456e67696e6560a81b604482015260640161055b565b876001600160801b03165f03610b165760405163292ab05f60e11b81526020600482015260086024820152671b585c9ad95d125960c21b604482015260640161055b565b5f869003610b525760405163292ab05f60e11b81526020600482015260086024820152671cdd1c99585b525960c21b604482015260640161055b565b5f610b5b610c54565b80546001600160a01b0319166001600160a01b038c161781556001810180546fffffffffffffffffffffffffffffffff19166001600160801b038c16179055905060028101610bab888a836119f1565b50508315610bf857845468ff000000000000000019168555604051600181527fc7f505b2f371ae2175ee4913f4499e1f2633a7b5936321eed1cdaeb6115181d29060200160405180910390a15b50505050505050505050565b5f6001600160801b03821115610c50576040517f6dfcc650000000000000000000000000000000000000000000000000000000008152608060048201526024810183905260440161055b565b5090565b5f8060ff19610c8460017f3cd903e4b2675a14fc55b867b85b099316837bba4b8e153cad1a2498f484c045611aab565b604051602001610c9691815260200190565b60408051601f1981840301815291905280516020909101201692915050565b5f8060ff19610c8460017fbe80394d8aeb18c2bb67d9bd0f8822157361d00edce56c850d5efccb25e1a3c3611aab565b306001600160a01b037f0000000000000000000000000000000000000000000000000000000000000000161480610d7e57507f00000000000000000000000000000000000000000000000000000000000000006001600160a01b0316610d727f360894a13ba1a3210667c828492db98dca3e2076cc3735a920a3ca505d382bbc546001600160a01b031690565b6001600160a01b031614155b156107735760405163703e46dd60e11b815260040160405180910390fd5b6109a2610eda565b816001600160a01b03166352d1902d6040518163ffffffff1660e01b8152600401602060405180830381865afa925050508015610dfe575060408051601f3d908101601f19168201909252610dfb91810190611aca565b60015b610e2657604051634c9c8ce360e01b81526001600160a01b038316600482015260240161055b565b7f360894a13ba1a3210667c828492db98dca3e2076cc3735a920a3ca505d382bbc8114610e82576040517faa1d49a40000000000000000000000000000000000000000000000000000000081526004810182905260240161055b565b610e8c8383611026565b505050565b306001600160a01b037f000000000000000000000000000000000000000000000000000000000000000016146107735760405163703e46dd60e11b815260040160405180910390fd5b33610f0c7f9016d09d72d40fdae2fd8ceac6b6234c7706214fd39c1cd1e609a0528c199300546001600160a01b031690565b6001600160a01b031614610773576040517f118cdaa700000000000000000000000000000000000000000000000000000000815233600482015260240161055b565b7f9016d09d72d40fdae2fd8ceac6b6234c7706214fd39c1cd1e609a0528c19930080546001600160a01b031981166001600160a01b03848116918217845560405192169182907f8be0079c531659141344cd1fd0a4f28419497f9722a3daafe3b4186f6b6457e0905f90a3505050565b610fc661107b565b6001600160a01b03811661101d5760405163292ab05f60e11b815260206004820152600560248201527f6f776e6572000000000000000000000000000000000000000000000000000000604482015260640161055b565b6109a2816110e2565b61102f826110f3565b6040516001600160a01b038316907fbc7cd75a20ee27fd9adebab32041f755214dbc6bffa90cc0225b39da2e5c2d3b905f90a280511561107357610e8c8282611169565b6107306111dd565b7ff0c57e16840df040f15088dc2f81fe391c3923bec73e23a9662efc9c229c6a005468010000000000000000900460ff16610773576040517fd7e6bcf800000000000000000000000000000000000000000000000000000000815260040160405180910390fd5b6110ea61107b565b6109a281611215565b806001600160a01b03163b5f0361112857604051634c9c8ce360e01b81526001600160a01b038216600482015260240161055b565b7f360894a13ba1a3210667c828492db98dca3e2076cc3735a920a3ca505d382bbc80546001600160a01b0319166001600160a01b0392909216919091179055565b60605f80846001600160a01b0316846040516111859190611ae1565b5f60405180830381855af49150503d805f81146111bd576040519150601f19603f3d011682016040523d82523d5f602084013e6111c2565b606091505b50915091506111d285838361121d565b925050505b92915050565b3415610773576040517fb398979f00000000000000000000000000000000000000000000000000000000815260040160405180910390fd5b61095761107b565b6060826112325761122d82611295565b61128e565b815115801561124957506001600160a01b0384163b155b1561128b576040517f9996b3150000000000000000000000000000000000000000000000000000000081526001600160a01b038516600482015260240161055b565b50805b9392505050565b8051156112a55780518082602001fd5b6040517f1425ea4200000000000000000000000000000000000000000000000000000000815260040160405180910390fd5b5f5b838110156112f15781810151838201526020016112d9565b50505f910152565b5f81518084526113108160208601602086016112d7565b601f01601f19169290920160200192915050565b602081525f61128e60208301846112f9565b5f8083601f840112611346575f80fd5b50813567ffffffffffffffff81111561135d575f80fd5b602083019150836020828501011115611374575f80fd5b9250929050565b5f805f6040848603121561138d575f80fd5b833567ffffffffffffffff808211156113a4575f80fd5b9085019061010082880312156113b8575f80fd5b909350602085013590808211156113cd575f80fd5b506113da86828701611336565b9497909650939450505050565b8215158152604060208201525f61140160408301846112f9565b949350505050565b5f806020838503121561141a575f80fd5b823567ffffffffffffffff811115611430575f80fd5b61143c85828601611336565b90969095509350505050565b5f805f806040858703121561145b575f80fd5b843567ffffffffffffffff80821115611472575f80fd5b818701915087601f830112611485575f80fd5b813581811115611493575f80fd5b8860208260051b85010111156114a7575f80fd5b6020928301965094509086013590808211156114c1575f80fd5b506114ce87828801611336565b95989497509550505050565b6001600160a01b03811681146109a2575f80fd5b634e487b7160e01b5f52604160045260245ffd5b5f82601f830112611511575f80fd5b813567ffffffffffffffff8082111561152c5761152c6114ee565b604051601f8301601f19908116603f01168101908282118183101715611554576115546114ee565b8160405283815286602085880101111561156c575f80fd5b836020870160208301375f602085830101528094505050505092915050565b5f806040838503121561159c575f80fd5b82356115a7816114da565b9150602083013567ffffffffffffffff8111156115c2575f80fd5b6115ce85828601611502565b9150509250929050565b6001600160801b03811681146109a2575f80fd5b5f805f80606085870312156115ff575f80fd5b843561160a816114da565b9350602085013561161a816115d8565b9250604085013567ffffffffffffffff811115611635575f80fd5b6114ce87828801611336565b5f60208284031215611651575f80fd5b813561128e816114da565b5f805f805f60808688031215611670575f80fd5b853561167b816114da565b9450602086013561168b816114da565b9350604086013561169b816115d8565b9250606086013567ffffffffffffffff8111156116b6575f80fd5b6116c288828901611336565b969995985093965092949392505050565b5f808335601e198436030181126116e8575f80fd5b83018035915067ffffffffffffffff821115611702575f80fd5b6020019150600581901b3603821315611374575f80fd5b634e487b7160e01b5f52603260045260245ffd5b5f808335601e19843603018112611742575f80fd5b83018035915067ffffffffffffffff82111561175c575f80fd5b602001915036819003821315611374575f80fd5b5f60608284031215611780575f80fd5b6040516060810181811067ffffffffffffffff821117156117a3576117a36114ee565b60405282356117b1816115d8565b81526020830135600f81900b81146117c7575f80fd5b602082015260408301356117da816115d8565b60408201529392505050565b600181811c908216806117fa57607f821691505b60208210810361181857634e487b7160e01b5f52602260045260245ffd5b50919050565b60a081525f61183060a08301886112f9565b6020838203818501528188518084528284019150828160051b850101838b015f5b8381101561187f57601f1987840301855261186d8383516112f9565b94860194925090850190600101611851565b50508681036040880152611893818b6112f9565b94505050505084606084015282810360808401526118b181856112f9565b98975050505050505050565b5f80604083850312156118ce575f80fd5b823567ffffffffffffffff808211156118e5575f80fd5b6118f186838701611502565b93506020850135915080821115611906575f80fd5b506115ce85828601611502565b5f60208284031215611923575f80fd5b815161128e816115d8565b5f6001600160801b0380861683528085166020840152506060604083015261195960608301846112f9565b95945050505050565b604081525f61197460408301866112f9565b8281036020840152838152838560208301375f602085830101526020601f19601f860116820101915050949350505050565b601f821115610e8c57805f5260205f20601f840160051c810160208510156119cb5750805b601f840160051c820191505b818110156119ea575f81556001016119d7565b5050505050565b67ffffffffffffffff831115611a0957611a096114ee565b611a1d83611a1783546117e6565b836119a6565b5f601f841160018114611a4e575f8515611a375750838201355b5f19600387901b1c1916600186901b1783556119ea565b5f83815260208120601f198716915b82811015611a7d5786850135825560209485019460019092019101611a5d565b5086821015611a99575f1960f88860031b161c19848701351681555b505060018560011b0183555050505050565b818103818111156111d757634e487b7160e01b5f52601160045260245ffd5b5f60208284031215611ada575f80fd5b5051919050565b5f8251611af28184602087016112d7565b919091019291505056","linkReferences":{}},"methodIdentifiers":{"DATA_STREAMS_FEED_LABEL()":"07bc062d","DATA_STREAMS_QUERY_LABEL()":"4562f309","UPGRADE_INTERFACE_VERSION()":"ad3cb1cc","checkCallback(bytes[],bytes)":"4b56a42e","checkLog((uint256,uint256,bytes32,uint256,bytes32,address,bytes32[],bytes),bytes)":"40691db4","getConfig()":"c3f909d4","initialize(address,address,uint128,string)":"ff6b4146","owner()":"8da5cb5b","performUpkeep(bytes)":"4585e33b","proxiableUUID()":"52d1902d","renounceOwnership()":"715018a6","setForwarder(address)":"b9998a24","transferOwnership(address)":"f2fde38b","updateConfig(address,uint128,string)":"8e25c043","upgradeToAndCall(address,bytes)":"4f1ef286"},"id":145}