{"abi":[{"type":"constructor","inputs":[],"stateMutability":"nonpayable"},{"type":"function","name":"UPGRADE_INTERFACE_VERSION","inputs":[],"outputs":[{"name":"","type":"string","internalType":"string"}],"stateMutability":"view"},{"type":"function","name":"checkUpkeep","inputs":[{"name":"checkData","type":"bytes","internalType":"bytes"}],"outputs":[{"name":"upkeepNeeded","type":"bool","internalType":"bool"},{"name":"performData","type":"bytes","internalType":"bytes"}],"stateMutability":"view"},{"type":"function","name":"getConfig","inputs":[],"outputs":[{"name":"keeperOwner","type":"address","internalType":"address"},{"name":"perpsEngine","type":"address","internalType":"address"}],"stateMutability":"view"},{"type":"function","name":"initialize","inputs":[{"name":"owner","type":"address","internalType":"address"},{"name":"perpsEngine","type":"address","internalType":"contract IPerpsEngine"}],"outputs":[],"stateMutability":"nonpayable"},{"type":"function","name":"owner","inputs":[],"outputs":[{"name":"","type":"address","internalType":"address"}],"stateMutability":"view"},{"type":"function","name":"performUpkeep","inputs":[{"name":"peformData","type":"bytes","internalType":"bytes"}],"outputs":[],"stateMutability":"nonpayable"},{"type":"function","name":"proxiableUUID","inputs":[],"outputs":[{"name":"","type":"bytes32","internalType":"bytes32"}],"stateMutability":"view"},{"type":"function","name":"renounceOwnership","inputs":[],"outputs":[],"stateMutability":"nonpayable"},{"type":"function","name":"setConfig","inputs":[{"name":"perpsEngine","type":"address","internalType":"address"}],"outputs":[],"stateMutability":"nonpayable"},{"type":"function","name":"setForwarder","inputs":[{"name":"forwarder","type":"address","internalType":"address"}],"outputs":[],"stateMutability":"nonpayable"},{"type":"function","name":"transferOwnership","inputs":[{"name":"newOwner","type":"address","internalType":"address"}],"outputs":[],"stateMutability":"nonpayable"},{"type":"function","name":"upgradeToAndCall","inputs":[{"name":"newImplementation","type":"address","internalType":"address"},{"name":"data","type":"bytes","internalType":"bytes"}],"outputs":[],"stateMutability":"payable"},{"type":"event","name":"Initialized","inputs":[{"name":"version","type":"uint64","indexed":false,"internalType":"uint64"}],"anonymous":false},{"type":"event","name":"OwnershipTransferred","inputs":[{"name":"previousOwner","type":"address","indexed":true,"internalType":"address"},{"name":"newOwner","type":"address","indexed":true,"internalType":"address"}],"anonymous":false},{"type":"event","name":"Upgraded","inputs":[{"name":"implementation","type":"address","indexed":true,"internalType":"address"}],"anonymous":false},{"type":"error","name":"AddressEmptyCode","inputs":[{"name":"target","type":"address","internalType":"address"}]},{"type":"error","name":"ERC1967InvalidImplementation","inputs":[{"name":"implementation","type":"address","internalType":"address"}]},{"type":"error","name":"ERC1967NonPayable","inputs":[]},{"type":"error","name":"FailedInnerCall","inputs":[]},{"type":"error","name":"InvalidBounds","inputs":[]},{"type":"error","name":"InvalidInitialization","inputs":[]},{"type":"error","name":"NotInitializing","inputs":[]},{"type":"error","name":"OwnableInvalidOwner","inputs":[{"name":"owner","type":"address","internalType":"address"}]},{"type":"error","name":"OwnableUnauthorizedAccount","inputs":[{"name":"account","type":"address","internalType":"address"}]},{"type":"error","name":"UUPSUnauthorizedCallContext","inputs":[]},{"type":"error","name":"UUPSUnsupportedProxiableUUID","inputs":[{"name":"slot","type":"bytes32","internalType":"bytes32"}]},{"type":"error","name":"Unauthorized","inputs":[{"name":"sender","type":"address","internalType":"address"}]},{"type":"error","name":"ZeroInput","inputs":[{"name":"parameter","type":"string","internalType":"string"}]}],"bytecode":{"object":"0x60a060405230608052348015610013575f80fd5b5061001c610021565b6100d3565b7ff0c57e16840df040f15088dc2f81fe391c3923bec73e23a9662efc9c229c6a00805468010000000000000000900460ff16156100715760405163f92ee8a960e01b815260040160405180910390fd5b80546001600160401b03908116146100d05780546001600160401b0319166001600160401b0390811782556040519081527fc7f505b2f371ae2175ee4913f4499e1f2633a7b5936321eed1cdaeb6115181d29060200160405180910390a15b50565b60805161150f6100f95f395f8181610b1501528181610b3e0152610cc1015261150f5ff3fe6080604052600436106100c3575f3560e01c8063715018a611610071578063b9998a241161004c578063b9998a241461023c578063c3f909d41461025b578063f2fde38b1461028f575f80fd5b8063715018a61461018d5780638da5cb5b146101a1578063ad3cb1cc146101e7575f80fd5b80634f1ef286116100a15780634f1ef2861461012657806352d1902d146101395780636e04ff0d14610160575f80fd5b806320e3dbd4146100c75780634585e33b146100e8578063485cc95514610107575b5f80fd5b3480156100d2575f80fd5b506100e66100e136600461104e565b6102ae565b005b3480156100f3575f80fd5b506100e6610102366004611069565b610338565b348015610112575f80fd5b506100e66101213660046110d5565b610423565b6100e6610134366004611151565b6105d4565b348015610144575f80fd5b5061014d6105f3565b6040519081526020015b60405180910390f35b34801561016b575f80fd5b5061017f61017a366004611069565b610621565b604051610157929190611240565b348015610198575f80fd5b506100e66108d0565b3480156101ac575f80fd5b507f9016d09d72d40fdae2fd8ceac6b6234c7706214fd39c1cd1e609a0528c199300546040516001600160a01b039091168152602001610157565b3480156101f2575f80fd5b5061022f6040518060400160405280600581526020017f352e302e3000000000000000000000000000000000000000000000000000000081525081565b6040516101579190611262565b348015610247575f80fd5b506100e661025636600461104e565b6108e3565b348015610266575f80fd5b5061026f6108f4565b604080516001600160a01b03938416815292909116602083015201610157565b34801561029a575f80fd5b506100e66102a936600461104e565b610947565b6102b661099d565b6001600160a01b0381166103005760405163292ab05f60e11b815260206004820152600b60248201526a7065727073456e67696e6560a81b60448201526064015b60405180910390fd5b5f610309610a11565b805473ffffffffffffffffffffffffffffffffffffffff19166001600160a01b03939093169290921790915550565b5f610341610a72565b80549091506001600160a01b031633148061038a576040517f8e4a23d60000000000000000000000000000000000000000000000000000000081523360048201526024016102f7565b5f610397848601866112b4565b90505f6103a2610a11565b80546040517fd99fb7710000000000000000000000000000000000000000000000000000000081529192506001600160a01b031690819063d99fb771906103ed90869060040161139a565b5f604051808303815f87803b158015610404575f80fd5b505af1158015610416573d5f803e3d5ffd5b5050505050505050505050565b7ff0c57e16840df040f15088dc2f81fe391c3923bec73e23a9662efc9c229c6a00805468010000000000000000810460ff16159067ffffffffffffffff165f8115801561046d5750825b90505f8267ffffffffffffffff1660011480156104895750303b155b905081158015610497575080155b156104ce576040517ff92ee8a900000000000000000000000000000000000000000000000000000000815260040160405180910390fd5b845467ffffffffffffffff19166001178555831561050257845468ff00000000000000001916680100000000000000001785555b61050b87610aa2565b6001600160a01b0386166105505760405163292ab05f60e11b815260206004820152600b60248201526a7065727073456e67696e6560a81b60448201526064016102f7565b5f610559610a11565b805473ffffffffffffffffffffffffffffffffffffffff19166001600160a01b0389161790555083156105cb57845468ff000000000000000019168555604051600181527fc7f505b2f371ae2175ee4913f4499e1f2633a7b5936321eed1cdaeb6115181d29060200160405180910390a15b50505050505050565b6105dc610b0a565b6105e582610bc1565b6105ef8282610bc9565b5050565b5f6105fc610cb6565b507f360894a13ba1a3210667c828492db98dca3e2076cc3735a920a3ca505d382bbc90565b5f606081808080610634878901896113ac565b9350935093509350828410158061064b5750808210155b15610682576040517fa883435700000000000000000000000000000000000000000000000000000000815260040160405180910390fd5b5f61068b610a11565b546040517f4aa559a000000000000000000000000000000000000000000000000000000000815260048101879052602481018690526001600160a01b0390911691505f908290634aa559a0906044015f60405180830381865afa1580156106f4573d5f803e3d5ffd5b505050506040513d5f823e601f3d908101601f1916820160405261071b91908101906113db565b9050606081515f148061072f575084825111155b156107625780604051602001610745919061139a565b6040516020818303038152906040529750505050505050506108c9565b5f61076d8686611479565b90505f8351821161077e5781610781565b83515b90508067ffffffffffffffff81111561079c5761079c61110c565b6040519080825280602002602001820160405280156107c5578160200160208202803683370190505b5092505f5b81811015610897575f6107dd828a61148c565b9050855181106107ed5750610897565b8581815181106107ff576107ff61149f565b60200260200101518583815181106108195761081961149f565b60200260200101906fffffffffffffffffffffffffffffffff1690816fffffffffffffffffffffffffffffffff16815250508c15801561088457508581815181106108665761086661149f565b60200260200101516fffffffffffffffffffffffffffffffff165f14155b1561088e5760019c505b506001016107ca565b505f83306040516020016108ac9291906114b3565b60408051601f198184030181529190529a50505050505050505050505b9250929050565b6108d861099d565b6108e15f610cff565b565b6108eb61099d565b5f610309610a72565b5f805f6108ff610a11565b90506109327f9016d09d72d40fdae2fd8ceac6b6234c7706214fd39c1cd1e609a0528c199300546001600160a01b031690565b905490936001600160a01b0390911692509050565b61094f61099d565b6001600160a01b038116610991576040517f1e4fbdf70000000000000000000000000000000000000000000000000000000081525f60048201526024016102f7565b61099a81610cff565b50565b336109cf7f9016d09d72d40fdae2fd8ceac6b6234c7706214fd39c1cd1e609a0528c199300546001600160a01b031690565b6001600160a01b0316146108e1576040517f118cdaa70000000000000000000000000000000000000000000000000000000081523360048201526024016102f7565b5f8060ff19610a4160017f67c9464ede5430f2eb7ad047942f76f7361ed84d21c25f2e23636e633a4ab8c0611479565b604051602001610a5391815260200190565b60408051601f1981840301815291905280516020909101201692915050565b5f8060ff19610a4160017fbe80394d8aeb18c2bb67d9bd0f8822157361d00edce56c850d5efccb25e1a3c3611479565b610aaa610d7c565b6001600160a01b038116610b015760405163292ab05f60e11b815260206004820152600560248201527f6f776e657200000000000000000000000000000000000000000000000000000060448201526064016102f7565b61099a81610de3565b306001600160a01b037f0000000000000000000000000000000000000000000000000000000000000000161480610ba357507f00000000000000000000000000000000000000000000000000000000000000006001600160a01b0316610b977f360894a13ba1a3210667c828492db98dca3e2076cc3735a920a3ca505d382bbc546001600160a01b031690565b6001600160a01b031614155b156108e15760405163703e46dd60e11b815260040160405180910390fd5b61099a61099d565b816001600160a01b03166352d1902d6040518163ffffffff1660e01b8152600401602060405180830381865afa925050508015610c23575060408051601f3d908101601f19168201909252610c20918101906114dd565b60015b610c4b57604051634c9c8ce360e01b81526001600160a01b03831660048201526024016102f7565b7f360894a13ba1a3210667c828492db98dca3e2076cc3735a920a3ca505d382bbc8114610ca7576040517faa1d49a4000000000000000000000000000000000000000000000000000000008152600481018290526024016102f7565b610cb18383610df4565b505050565b306001600160a01b037f000000000000000000000000000000000000000000000000000000000000000016146108e15760405163703e46dd60e11b815260040160405180910390fd5b7f9016d09d72d40fdae2fd8ceac6b6234c7706214fd39c1cd1e609a0528c199300805473ffffffffffffffffffffffffffffffffffffffff1981166001600160a01b03848116918217845560405192169182907f8be0079c531659141344cd1fd0a4f28419497f9722a3daafe3b4186f6b6457e0905f90a3505050565b7ff0c57e16840df040f15088dc2f81fe391c3923bec73e23a9662efc9c229c6a005468010000000000000000900460ff166108e1576040517fd7e6bcf800000000000000000000000000000000000000000000000000000000815260040160405180910390fd5b610deb610d7c565b61099a81610e49565b610dfd82610e51565b6040516001600160a01b038316907fbc7cd75a20ee27fd9adebab32041f755214dbc6bffa90cc0225b39da2e5c2d3b905f90a2805115610e4157610cb18282610ed4565b6105ef610f48565b61094f610d7c565b806001600160a01b03163b5f03610e8657604051634c9c8ce360e01b81526001600160a01b03821660048201526024016102f7565b7f360894a13ba1a3210667c828492db98dca3e2076cc3735a920a3ca505d382bbc805473ffffffffffffffffffffffffffffffffffffffff19166001600160a01b0392909216919091179055565b60605f80846001600160a01b031684604051610ef091906114f4565b5f60405180830381855af49150503d805f8114610f28576040519150601f19603f3d011682016040523d82523d5f602084013e610f2d565b606091505b5091509150610f3d858383610f80565b925050505b92915050565b34156108e1576040517fb398979f00000000000000000000000000000000000000000000000000000000815260040160405180910390fd5b606082610f9557610f9082610ff8565b610ff1565b8151158015610fac57506001600160a01b0384163b155b15610fee576040517f9996b3150000000000000000000000000000000000000000000000000000000081526001600160a01b03851660048201526024016102f7565b50805b9392505050565b8051156110085780518082602001fd5b6040517f1425ea4200000000000000000000000000000000000000000000000000000000815260040160405180910390fd5b6001600160a01b038116811461099a575f80fd5b5f6020828403121561105e575f80fd5b8135610ff18161103a565b5f806020838503121561107a575f80fd5b823567ffffffffffffffff80821115611091575f80fd5b818501915085601f8301126110a4575f80fd5b8135818111156110b2575f80fd5b8660208285010111156110c3575f80fd5b60209290920196919550909350505050565b5f80604083850312156110e6575f80fd5b82356110f18161103a565b915060208301356111018161103a565b809150509250929050565b634e487b7160e01b5f52604160045260245ffd5b604051601f8201601f1916810167ffffffffffffffff811182821017156111495761114961110c565b604052919050565b5f8060408385031215611162575f80fd5b823561116d8161103a565b915060208381013567ffffffffffffffff8082111561118a575f80fd5b818601915086601f83011261119d575f80fd5b8135818111156111af576111af61110c565b6111c1601f8201601f19168501611120565b915080825287848285010111156111d6575f80fd5b80848401858401375f848284010152508093505050509250929050565b5f5b8381101561120d5781810151838201526020016111f5565b50505f910152565b5f815180845261122c8160208601602086016111f3565b601f01601f19169290920160200192915050565b8215158152604060208201525f61125a6040830184611215565b949350505050565b602081525f610ff16020830184611215565b5f67ffffffffffffffff82111561128d5761128d61110c565b5060051b60200190565b6fffffffffffffffffffffffffffffffff8116811461099a575f80fd5b5f60208083850312156112c5575f80fd5b823567ffffffffffffffff8111156112db575f80fd5b8301601f810185136112eb575f80fd5b80356112fe6112f982611274565b611120565b81815260059190911b8201830190838101908783111561131c575f80fd5b928401925b8284101561134357833561133481611297565b82529284019290840190611321565b979650505050505050565b5f815180845260208085019450602084015f5b8381101561138f5781516fffffffffffffffffffffffffffffffff1687529582019590820190600101611361565b509495945050505050565b602081525f610ff1602083018461134e565b5f805f80608085870312156113bf575f80fd5b5050823594602084013594506040840135936060013592509050565b5f60208083850312156113ec575f80fd5b825167ffffffffffffffff811115611402575f80fd5b8301601f81018513611412575f80fd5b80516114206112f982611274565b81815260059190911b8201830190838101908783111561143e575f80fd5b928401925b8284101561134357835161145681611297565b82529284019290840190611443565b634e487b7160e01b5f52601160045260245ffd5b81810381811115610f4257610f42611465565b80820180821115610f4257610f42611465565b634e487b7160e01b5f52603260045260245ffd5b604081525f6114c5604083018561134e565b90506001600160a01b03831660208301529392505050565b5f602082840312156114ed575f80fd5b5051919050565b5f82516115058184602087016111f3565b919091019291505056","linkReferences":{}},"methodIdentifiers":{"UPGRADE_INTERFACE_VERSION()":"ad3cb1cc","checkUpkeep(bytes)":"6e04ff0d","getConfig()":"c3f909d4","initialize(address,address)":"485cc955","owner()":"8da5cb5b","performUpkeep(bytes)":"4585e33b","proxiableUUID()":"52d1902d","renounceOwnership()":"715018a6","setConfig(address)":"20e3dbd4","setForwarder(address)":"b9998a24","transferOwnership(address)":"f2fde38b","upgradeToAndCall(address,bytes)":"4f1ef286"},"id":144}