{"abi":[{"type":"function","name":"checkLiquidatableAccounts","inputs":[{"name":"lowerBound","type":"uint256","internalType":"uint256"},{"name":"upperBound","type":"uint256","internalType":"uint256"}],"outputs":[{"name":"liquidatableAccountsIds","type":"uint128[]","internalType":"uint128[]"}],"stateMutability":"view"},{"type":"function","name":"liquidateAccounts","inputs":[{"name":"accountsIds","type":"uint128[]","internalType":"uint128[]"}],"outputs":[],"stateMutability":"nonpayable"},{"type":"event","name":"LogLiquidateAccount","inputs":[{"name":"keeper","type":"address","indexed":true,"internalType":"address"},{"name":"tradingAccountId","type":"uint128","indexed":true,"internalType":"uint128"},{"name":"amountOfOpenPositions","type":"uint256","indexed":false,"internalType":"uint256"},{"name":"requiredMaintenanceMarginUsd","type":"uint256","indexed":false,"internalType":"uint256"},{"name":"marginBalanceUsd","type":"int256","indexed":false,"internalType":"int256"},{"name":"liquidatedCollateralUsd","type":"uint256","indexed":false,"internalType":"uint256"},{"name":"liquidationFeeUsd","type":"uint128","indexed":false,"internalType":"uint128"}],"anonymous":false},{"type":"error","name":"AccountNotFound","inputs":[{"name":"tradingAccountId","type":"uint128","internalType":"uint128"},{"name":"sender","type":"address","internalType":"address"}]},{"type":"error","name":"AddressEmptyCode","inputs":[{"name":"target","type":"address","internalType":"address"}]},{"type":"error","name":"AddressInsufficientBalance","inputs":[{"name":"account","type":"address","internalType":"address"}]},{"type":"error","name":"CollateralPriceFeedNotDefined","inputs":[]},{"type":"error","name":"FailedInnerCall","inputs":[]},{"type":"error","name":"GracePeriodNotOver","inputs":[]},{"type":"error","name":"InvalidOracleReturn","inputs":[]},{"type":"error","name":"InvalidSequencerUptimeFeedReturn","inputs":[]},{"type":"error","name":"LiquidatorNotRegistered","inputs":[{"name":"sender","type":"address","internalType":"address"}]},{"type":"error","name":"OraclePriceFeedHeartbeat","inputs":[{"name":"priceFeed","type":"address","internalType":"address"}]},{"type":"error","name":"OraclePriceFeedOutOfRange","inputs":[{"name":"priceFeed","type":"address","internalType":"address"}]},{"type":"error","name":"OracleSequencerUptimeFeedIsDown","inputs":[{"name":"sequencerUptimeFeed","type":"address","internalType":"address"}]},{"type":"error","name":"PRBMath_MulDiv18_Overflow","inputs":[{"name":"x","type":"uint256","internalType":"uint256"},{"name":"y","type":"uint256","internalType":"uint256"}]},{"type":"error","name":"PRBMath_MulDiv_Overflow","inputs":[{"name":"x","type":"uint256","internalType":"uint256"},{"name":"y","type":"uint256","internalType":"uint256"},{"name":"denominator","type":"uint256","internalType":"uint256"}]},{"type":"error","name":"PRBMath_SD59x18_Abs_MinSD59x18","inputs":[]},{"type":"error","name":"PRBMath_SD59x18_Convert_Overflow","inputs":[{"name":"x","type":"int256","internalType":"int256"}]},{"type":"error","name":"PRBMath_SD59x18_Convert_Underflow","inputs":[{"name":"x","type":"int256","internalType":"int256"}]},{"type":"error","name":"PRBMath_SD59x18_Div_InputTooSmall","inputs":[]},{"type":"error","name":"PRBMath_SD59x18_Div_Overflow","inputs":[{"name":"x","type":"int256","internalType":"SD59x18"},{"name":"y","type":"int256","internalType":"SD59x18"}]},{"type":"error","name":"PRBMath_SD59x18_IntoUD60x18_Underflow","inputs":[{"name":"x","type":"int256","internalType":"SD59x18"}]},{"type":"error","name":"PRBMath_SD59x18_Mul_InputTooSmall","inputs":[]},{"type":"error","name":"PRBMath_SD59x18_Mul_Overflow","inputs":[{"name":"x","type":"int256","internalType":"SD59x18"},{"name":"y","type":"int256","internalType":"SD59x18"}]},{"type":"error","name":"PRBMath_UD60x18_Convert_Overflow","inputs":[{"name":"x","type":"uint256","internalType":"uint256"}]},{"type":"error","name":"PRBMath_UD60x18_IntoSD59x18_Overflow","inputs":[{"name":"x","type":"uint256","internalType":"UD60x18"}]},{"type":"error","name":"PRBMath_UD60x18_IntoUint128_Overflow","inputs":[{"name":"x","type":"uint256","internalType":"UD60x18"}]},{"type":"error","name":"PriceAdapterNotDefined","inputs":[{"name":"marketId","type":"uint128","internalType":"uint128"}]},{"type":"error","name":"SafeCastOverflowedIntDowncast","inputs":[{"name":"bits","type":"uint8","internalType":"uint8"},{"name":"value","type":"int256","internalType":"int256"}]},{"type":"error","name":"SafeCastOverflowedIntToUint","inputs":[{"name":"value","type":"int256","internalType":"int256"}]},{"type":"error","name":"SafeCastOverflowedUintDowncast","inputs":[{"name":"bits","type":"uint8","internalType":"uint8"},{"name":"value","type":"uint256","internalType":"uint256"}]},{"type":"error","name":"SafeCastOverflowedUintToInt","inputs":[{"name":"value","type":"uint256","internalType":"uint256"}]},{"type":"error","name":"SafeERC20FailedOperation","inputs":[{"name":"token","type":"address","internalType":"address"}]}],"bytecode":{"object":"0x6080604052348015600e575f80fd5b506129088061001c5f395ff3fe608060405234801561000f575f80fd5b5060043610610034575f3560e01c80634aa559a014610038578063d99fb77114610061575b5f80fd5b61004b6100463660046124b2565b610076565b60405161005891906124d2565b60405180910390f35b61007461006f36600461251e565b610195565b005b606061008283836125a1565b67ffffffffffffffff81111561009a5761009a6125b4565b6040519080825280602002602001820160405280156100c3578160200160208202803683370190505b5080519091501561018f575f6100d761055a565b90505f6100e682600f016105bb565b9050845b8481101561018b578181101561018b575f610108600f8501836105c4565b90505f610114826105d6565b90505f8061012383828061063d565b90935091505f9050610135848361087d565b9050610141838261091e565b1561017a5784898781518110610159576101596125c8565b60200260200101906001600160801b031690816001600160801b0316815250505b5050600190930192506100ea915050565b5050505b92915050565b5f8190036101a1575050565b5f6101aa61055a565b335f908152600a8201602052604090205490915060ff166101fe576040517fb4e32dd30000000000000000000000000000000000000000000000000000000081523360048201526024015b60405180910390fd5b61026f604051806101a001604052805f81526020015f6001600160801b031681526020015f81526020015f8152602001606081526020015f6001600160801b031681526020015f81526020015f81526020015f81526020015f81526020015f81526020015f81526020015f81525090565b60018201546001600160801b031681525f5b838110156105535784848281811061029b5761029b6125c8565b90506020020160208101906102b091906125dc565b6001600160801b0316602083018190521561054b575f6102d383602001516105d6565b90505f806102e283828061063d565b90935091506102f39050838261087d565b6040860181905261030590839061091e565b6103115750505061054b565b6040805160608101825260028801546001600160a01b0390811682525f6020830181905260058a0154909116928201929092528651610354928692918691610930565b6060860152602085015161038a9061036b90610b4d565b5f815560010180546fffffffffffffffffffffffffffffffff19169055565b61039683600501610be9565b60808601525f5b8560800151518110156104b7576103d0866080015182815181106103c3576103c36125c8565b6020026020010151610bf5565b6001600160801b031660a087018190525f906103eb90610c45565b90505f61040088602001518960a00151610c75565b805490915060c0890181905261041590610d1c565b60e089018190526104319061042984610d29565b849190610dc9565b61010089015261044082610e81565b6101208901819052610100890151610459918491610eb2565b6101408901819052610120890151600384015560048301554260058301555f808255600182015560a088015160c08901516104969188915f610ecb565b6101608801516101808901516104ad918491610f98565b505060010161039d565b5084602001516001600160801b0316336001600160a01b03167f758351a90e45adb3e229a4234f9885e3805d4ed7094c6898f1cd8685c8a95c5d8760800151516104fe8690565b60408a015160608b01518b5161051390610ff3565b6040805195865260208601949094529284019190915260608301526001600160801b0316608082015260a00160405180910390a35050505b600101610281565b5050505050565b5f8060ff1961058a60017feeb5cd774bc9c6845792a7b59ceb11c49cb99339b2df9604c51808d2eb250cc26125a1565b60405160200161059c91815260200190565b60408051601f1981840301815291905280516020909101201692915050565b5f61018f825490565b5f6105cf8383611039565b9392505050565b5f6105e08261105f565b60018101549091506001600160a01b0316610638576040517f3a947e910000000000000000000000000000000000000000000000000000000081526001600160801b03831660048201523360248201526044016101f5565b919050565b5f80806001600160801b03851615610755575f61065986610c45565b87549091505f90610673906001600160801b031688610c75565b90505f61068b8761068385610d29565b859190610dc9565b90505f6106a261069a85610e81565b859084610eb2565b90505f6106d3836106cd6106c86106c38d6106bd8a5f015490565b9061108f565b61109d565b6110f5565b90611134565b60098601549091505f9081906107099084906001600160801b03165b60098a0154600160801b90046001600160801b0316611142565b90925090505f61072661071c8887611164565b6106bd8989611192565b90506107328b846111c0565b9a5061073e8a836111c0565b995061074a898261108f565b985050505050505050505b5f610762876005016105bb565b90505f5b81811015610872575f61078461077f60058b01846105c4565b610bf5565b9050876001600160801b0316816001600160801b0316036107a5575061086a565b5f6107af82610c45565b8a549091505f906107c9906001600160801b031684610c75565b90505f6107eb6107e2835f01546107df90612602565b90565b61068385610d29565b90505f6107fa61069a85610e81565b90505f61080784846111ce565b60098601549091505f9081906108279084906001600160801b03166106ef565b90925090505f61083a61071c8887611164565b90506108468e846111c0565b9d506108528d836111c0565b9c5061085e8c8261108f565b9b505050505050505050505b600101610766565b505093509350939050565b5f8061088b846002016111e3565b90505f5b8181101561090b575f806108a660028801846111ed565b915091505f6108b48361120a565b80549091505f906108e490600160801b90046effffffffffffffffffffffffffffff166106cd856106cd86611287565b90506108f96108f282611304565b889061108f565b9650506001909301925061088f915050565b50610916828461108f565b949350505050565b5f6105cf8261092c85611304565b1390565b5f61096c6040518060e001604052805f81526020015f81526020015f81526020015f81526020015f151581526020015f81526020015f81525090565b5f61097561055a565b90505f61098482600b016105bb565b90505f5b81811015610b16575f61099e600b8501836105c4565b90505f6109aa8261120a565b90506109b68c8361134a565b8087526109c4575050610b0e565b6109cd81611287565b602087015288151580156109e45750604086015189115b15610a3657610a148c838860200151610a0a8a604001518e61136390919063ffffffff16565b8f60400151611371565b15156080880152606087018190526040870151610a30916111c0565b60408701525b8715158015610a48575060a086015188115b15610a9a57610a788c838860200151610a6e8a60a001518d61136390919063ffffffff16565b8f60200151611371565b151560808801526060870181905260a0870151610a94916111c0565b60a08701525b8915158015610aac575060c08601518a115b15610afb57610ad98c838860200151610ad28a60c001518f61136390919063ffffffff16565b8f51611371565b151560808801526060870181905260c0870151610af5916111c0565b60c08701525b8560800151610b0b575050610b16565b50505b600101610988565b50610b408360c00151610b3a8560a0015186604001516111c090919063ffffffff16565b906111c0565b9998505050505050505050565b5f8060ff19610b7d60017f6a75b7da92e221e8242587cdbb5587bdd0f9484b3d4002a5221c0281b06077f46125a1565b604051602001610b8f91815260200190565b604051602081830303815290604052805190602001201683604051602001610bca9291909182526001600160801b0316602082015260400190565b60408051601f1981840301815291905280516020909101209392505050565b60605f6105cf83611421565b5f6001600160801b03821115610c41576040517f6dfcc65000000000000000000000000000000000000000000000000000000000815260806004820152602481018390526044016101f5565b5090565b5f8060ff19610b7d60017f7391160f00c346d035658daa8a3c1eb1fa2f98b67b37275a9487390ac54b119f6125a1565b5f8060ff19610ca560017f1bc067b952a51a4aceed0c94957339255c9d9ec48f1c55db3cdc6194155caa156125a1565b604051602001610cb791815260200190565b60405160208183030381529060405280519060200120168484604051602001610cfc939291909283526001600160801b03918216602084015216604082015260600190565b60408051601f198184030181529190528051602090910120949350505050565b5f61018f6107df83612602565b6008810154600e8201545f916001600160a01b03169063ffffffff1682610d4e61055a565b465f9081526011820160205260409020549091506001600160a01b03908116908416610db45785546040517f2fb06fb40000000000000000000000000000000000000000000000000000000081526001600160801b0390911660048201526024016101f5565b610dbf84848361147a565b9695505050505050565b5f80610dde6107df86600601600601546118be565b8554909150600160801b9004600f0b5f610df88284611903565b90505f610e05838861108f565b90505f610e128286611903565b90505f610e1e88611304565b90505f610e386106c8610e3184886119f5565b849061108f565b90505f610e526106c8610e4b85876119f5565b859061108f565b9050610e71610e616002611ac4565b610e6b84846111c0565b90611b22565b9c9b505050505050505050505050565b5f61018f610ea8610e99610e9485611b39565b611304565b610ea285611b61565b906119f5565b60038401546106bd565b5f610916610ec1858585611c04565b60048601546106bd565b5f610ed461055a565b905082158015610ee357508115155b15610f3c578454610f0190600f8301906001600160801b0316611c5d565b610f20578454610f1e90600f8301906001600160801b0316611c74565b505b610f36600586016001600160801b038616611c74565b50610553565b8215158015610f49575081155b1561055357610f64600586016001600160801b038616611c7f565b50610f71856005016105bb565b5f03610553578454610f9090600f8301906001600160801b0316611c7f565b505050505050565b610fa181611c8a565b83546001600160801b03918216600160801b029116178355610fc282610ff3565b60019390930180546fffffffffffffffffffffffffffffffff19166001600160801b03909416939093179092555050565b5f816001600160801b0381111561018f576040517f4916adce000000000000000000000000000000000000000000000000000000008152600481018490526024016101f5565b5f825f01828154811061104e5761104e6125c8565b905f5260205f200154905092915050565b5f8060ff19610b7d60017f8d53eef876fe0bd8a1041a9151a1ff19778efab77c8e1ac1a9b867962feb87e56125a1565b5f6105cf6107df838561261c565b5f81600160ff1b81016110dc576040517fec2b9e6700000000000000000000000000000000000000000000000000000000815260040160405180910390fd5b5f81126110e957826105cf565b6105cf6107df82612602565b5f818181121561018f576040517fbba41a15000000000000000000000000000000000000000000000000000000008152600481018490526024016101f5565b5f6105cf6107df8484611cd2565b5f8061114e8585611134565b915061115a8584611134565b9050935093915050565b60018201545f90819061118290600160801b9004600f0b8490611db7565b905061091681610ea2865f015490565b60018201545f908190611182906111b1906001600160801b0316611304565b6111ba85611304565b90611db7565b5f6105cf6107df8385612643565b5f6105cf826106cd6106c86106c3875f015490565b5f61018f82611dc5565b5f8080806111fb8686611dcf565b909450925050505b9250929050565b5f8060ff1961123a60017f4693110e548948f348ad9c8c0e5b637b378994981b3a4246fc86241f8faded516125a1565b60405160200161124c91815260200190565b604051602081830303815290604052805190602001201683604051602001610bca9291909182526001600160a01b0316602082015260400190565b600181015460038201545f916001600160a01b03169063ffffffff16826112ac61055a565b465f9081526011820160205260409020549091506001600160a01b03908116908416610db4576040517ff976331100000000000000000000000000000000000000000000000000000000815260040160405180910390fd5b5f816001600160ff1b0381111561018f576040517ff4618684000000000000000000000000000000000000000000000000000000008152600481018490526024016101f5565b5f806113596002850184611df8565b9150506109168190565b5f6105cf6107df83856125a1565b5f805f61137d8761120a565b90505f61138a898961134a565b90505f6113978789611b22565b90505f8282116113d7576113ac8b8b84611e0f565b6113b68483611e77565b90506113cc6001600160a01b038b168883611ebf565b8795505f9450611413565b6113e28b8b85611e0f565b6113ec8484611e77565b90506114026001600160a01b038b168883611ebf565b61140c8984611134565b9550600194505b505050509550959350505050565b6060815f0180548060200260200160405190810160405280929190818152602001828054801561146e57602002820191905f5260205f20905b81548152602001906001019080831161145a575b50505050509050919050565b5f80846001600160a01b031663313ce5676040518163ffffffff1660e01b8152600401602060405180830381865afa1580156114b8573d5f803e3d5ffd5b505050506040513d601f19601f820116820180604052508101906114dc9190612656565b9050601260ff8216111561150357604051634840b0ab60e11b815260040160405180910390fd5b6001600160a01b0383161561163657826001600160a01b031663feaf968c6040518163ffffffff1660e01b815260040160a060405180830381865afa92505050801561156c575060408051601f3d908101601f191682019092526115699181019061268f565b60015b6115a2576040517f382e6b6400000000000000000000000000000000000000000000000000000000815260040160405180910390fd5b8315806115e6576040517fcbaf08250000000000000000000000000000000000000000000000000000000081526001600160a01b038a1660048201526024016101f5565b5f6115f185426125a1565b9050610e10811161162e576040517fd15f73b500000000000000000000000000000000000000000000000000000000815260040160405180910390fd5b505050505050505b846001600160a01b031663feaf968c6040518163ffffffff1660e01b815260040160a060405180830381865afa925050508015611690575060408051601f3d908101601f1916820190925261168d9181019061268f565b60015b6116ad57604051634840b0ab60e11b815260040160405180910390fd5b63ffffffff89166116be83426125a1565b1115611701576040517fa1ac05690000000000000000000000000000000000000000000000000000000081526001600160a01b038b1660048201526024016101f5565b5f8a6001600160a01b031663245a7bfc6040518163ffffffff1660e01b8152600401602060405180830381865afa15801561173e573d5f803e3d5ffd5b505050506040513d601f19601f8201168201806040525081019061176291906126db565b90505f816001600160a01b03166322adbc786040518163ffffffff1660e01b8152600401602060405180830381865afa1580156117a1573d5f803e3d5ffd5b505050506040513d601f19601f820116820180604052508101906117c59190612701565b90505f826001600160a01b03166370da2f676040518163ffffffff1660e01b8152600401602060405180830381865afa158015611804573d5f803e3d5ffd5b505050506040513d601f19601f820116820180604052508101906118289190612701565b90508160170b8713158061183f57508060170b8712155b15611881576040517f045d8f840000000000000000000000000000000000000000000000000000000081526001600160a01b038e1660048201526024016101f5565b6118ad61188f8a6012612721565b61189a90600a612812565b6118a389611f44565b6107df9190612820565b9d9c50505050505050505050505050565b5f6001600160ff1b03821115610c41576040517f24775e06000000000000000000000000000000000000000000000000000000008152600481018390526024016101f5565b5f8282600160ff1b82148061191b5750600160ff1b81145b15611952576040517f9fe2b45000000000000000000000000000000000000000000000000000000000815260040160405180910390fd5b5f805f84126119615783611965565b835f035b91505f83126119745782611978565b825f035b90505f61198e83670de0b6b3a764000084611f82565b90506001600160ff1b038111156119db576040517fd49c26b300000000000000000000000000000000000000000000000000000000815260048101899052602481018890526044016101f5565b5f1985851813610b40816119f157825f036107df565b8290565b5f8282600160ff1b821480611a0d5750600160ff1b81145b15611a44576040517fa6070c2500000000000000000000000000000000000000000000000000000000815260040160405180910390fd5b5f805f8412611a535783611a57565b835f035b91505f8312611a665782611a6a565b825f035b90505f611a778383611cd2565b90506001600160ff1b038111156119db576040517f120b5b4300000000000000000000000000000000000000000000000000000000815260048101899052602481018890526044016101f5565b5f611ad8670de0b6b3a76400005f1961284b565b821115611b14576040517f1cd951a7000000000000000000000000000000000000000000000000000000008152600481018390526024016101f5565b50670de0b6b3a76400000290565b5f6105cf6107df84670de0b6b3a764000085611f82565b5f61018f611b4962015180611ac4565b610e6b846005015442611b5c91906125a1565b611ac4565b600b8101545f908190611b80906107df906001600160801b03166118be565b90505f611b966107df85600601600601546118be565b8454909150600160801b9004600f0b81611bb457505f949350505050565b5f611bbf8284611903565b90505f611bed611bdf611bd9670de0b6b3a7640000610d1c565b8461206a565b670de0b6b3a7640000612080565b9050611bf981866119f5565b979650505050505050565b5f80611c30611c136002612089565b611c2a611c25876106bd8a6003015490565b610d1c565b90611903565b9050611c54611c3e84611304565b610ea2611c4d610e9489611b39565b84906119f5565b95945050505050565b5f81815260018301602052604081205415156105cf565b5f6105cf8383612131565b5f6105cf838361217d565b80600f81900b8114610638576040517f327269a700000000000000000000000000000000000000000000000000000000815260806004820152602481018390526044016101f5565b5f80805f19848609848602925082811083820303915050805f03611d035750670de0b6b3a76400009004905061018f565b670de0b6b3a76400008110611d4e576040517f5173648d00000000000000000000000000000000000000000000000000000000815260048101869052602481018590526044016101f5565b5f670de0b6b3a7640000858709620400008185030493109091037d40000000000000000000000000000000000000000000000000000000000002919091177faccb18165bd6fe31ae1cf318dc5b51eee0e1ba569b88cd74c1773b91fac106690291505092915050565b5f6105cf6107df838561285e565b5f61018f826105bb565b5f8080611ddc85856105c4565b5f81815260029690960160205260409095205494959350505050565b5f8080806111fb866001600160a01b038716612267565b600283015f611e2883611e22878761134a565b90611363565b905080611e3f57611e3982856122a7565b50611e4c565b611e4a8285836122bb565b505b5f611e568561120a565b9050611e6a6107df85611e22846002015490565b6002909101555050505050565b81545f90600160f81b900460ff16601203611e9357508061018f565b8254611eaa90600160f81b900460ff166012612721565b611eb590600a612812565b6105cf908361284b565b604080516001600160a01b038416602482015260448082018490528251808303909101815260649091019091526020810180517bffffffffffffffffffffffffffffffffffffffffffffffffffffffff167fa9059cbb00000000000000000000000000000000000000000000000000000000179052611f3f9084906122d0565b505050565b5f80821215610c41576040517fa8ce4432000000000000000000000000000000000000000000000000000000008152600481018390526024016101f5565b5f80805f19858709858702925082811083820303915050805f03611fb957838281611faf57611faf612837565b04925050506105cf565b838110612003576040517f63a057780000000000000000000000000000000000000000000000000000000081526004810187905260248101869052604481018590526064016101f5565b5f8486880960026001871981018816978890046003810283188082028403028082028403028082028403028082028403028082028403029081029092039091025f889003889004909101858311909403939093029303949094049190911702949350505050565b5f8282125b61207957816105cf565b5090919050565b5f82821361206f565b5f6120a0670de0b6b3a7640000600160ff1b61287d565b8212156120dc576040517f99474eeb000000000000000000000000000000000000000000000000000000008152600481018390526024016101f5565b6120f5670de0b6b3a76400006001600160ff1b0361287d565b821315611b14576040517f9d581091000000000000000000000000000000000000000000000000000000008152600481018390526024016101f5565b5f81815260018301602052604081205461217657508154600181810184555f84815260208082209093018490558454848252828601909352604090209190915561018f565b505f61018f565b5f8181526001830160205260408120548015612257575f61219f6001836125a1565b85549091505f906121b2906001906125a1565b9050808214612211575f865f0182815481106121d0576121d06125c8565b905f5260205f200154905080875f0184815481106121f0576121f06125c8565b5f918252602080832090910192909255918252600188019052604090208390555b8554869080612222576122226128a9565b600190038181905f5260205f20015f90559055856001015f8681526020019081526020015f205f90556001935050505061018f565b5f91505061018f565b5092915050565b5f81815260028301602052604081205481908061229457612288858561234a565b92505f91506112039050565b600192509050611203565b509250929050565b5f6105cf836001600160a01b038416612355565b5f610916846001600160a01b03851684612371565b5f6122e46001600160a01b0384168361238d565b905080515f1415801561230857508080602001905181019061230691906128bd565b155b15611f3f576040517f5274afe70000000000000000000000000000000000000000000000000000000081526001600160a01b03841660048201526024016101f5565b5f6105cf8383611c5d565b5f81815260028301602052604081208190556105cf8383611c7f565b5f82815260028401602052604081208290556109168484611c74565b60606105cf83835f845f80856001600160a01b031684866040516123b191906128dc565b5f6040518083038185875af1925050503d805f81146123eb576040519150601f19603f3d011682016040523d82523d5f602084013e6123f0565b606091505b5091509150610dbf8683836060826124105761240b82612470565b6105cf565b815115801561242757506001600160a01b0384163b155b15612469576040517f9996b3150000000000000000000000000000000000000000000000000000000081526001600160a01b03851660048201526024016101f5565b50806105cf565b8051156124805780518082602001fd5b6040517f1425ea4200000000000000000000000000000000000000000000000000000000815260040160405180910390fd5b5f80604083850312156124c3575f80fd5b50508035926020909101359150565b602080825282518282018190525f9190848201906040850190845b818110156125125783516001600160801b0316835292840192918401916001016124ed565b50909695505050505050565b5f806020838503121561252f575f80fd5b823567ffffffffffffffff80821115612546575f80fd5b818501915085601f830112612559575f80fd5b813581811115612567575f80fd5b8660208260051b850101111561257b575f80fd5b60209290920196919550909350505050565b634e487b7160e01b5f52601160045260245ffd5b8181038181111561018f5761018f61258d565b634e487b7160e01b5f52604160045260245ffd5b634e487b7160e01b5f52603260045260245ffd5b5f602082840312156125ec575f80fd5b81356001600160801b03811681146105cf575f80fd5b5f600160ff1b82036126165761261661258d565b505f0390565b8082018281125f83128015821682158216171561263b5761263b61258d565b505092915050565b8082018082111561018f5761018f61258d565b5f60208284031215612666575f80fd5b815160ff811681146105cf575f80fd5b805169ffffffffffffffffffff81168114610638575f80fd5b5f805f805f60a086880312156126a3575f80fd5b6126ac86612676565b94506020860151935060408601519250606086015191506126cf60808701612676565b90509295509295909350565b5f602082840312156126eb575f80fd5b81516001600160a01b03811681146105cf575f80fd5b5f60208284031215612711575f80fd5b81518060170b81146105cf575f80fd5b60ff828116828216039081111561018f5761018f61258d565b600181815b8085111561229f57815f190482111561275a5761275a61258d565b8085161561276757918102915b93841c939080029061273f565b5f826127825750600161018f565b8161278e57505f61018f565b81600181146127a457600281146127ae576127ca565b600191505061018f565b60ff8411156127bf576127bf61258d565b50506001821b61018f565b5060208310610133831016604e8410600b84101617156127ed575081810a61018f565b6127f7838361273a565b805f190482111561280a5761280a61258d565b029392505050565b5f6105cf60ff841683612774565b808202811582820484141761018f5761018f61258d565b634e487b7160e01b5f52601260045260245ffd5b5f8261285957612859612837565b500490565b8181035f8312801583831316838312821617156122605761226061258d565b5f8261288b5761288b612837565b600160ff1b82145f19841416156128a4576128a461258d565b500590565b634e487b7160e01b5f52603160045260245ffd5b5f602082840312156128cd575f80fd5b815180151581146105cf575f80fd5b5f82515f5b818110156128fb57602081860181015185830152016128e1565b505f92019182525091905056","linkReferences":{}},"methodIdentifiers":{"checkLiquidatableAccounts(uint256,uint256)":"4aa559a0","liquidateAccounts(uint128[])":"d99fb771"},"id":148}