{"abi":[{"type":"constructor","inputs":[{"name":"anwser","type":"int256","internalType":"int256"}],"stateMutability":"nonpayable"},{"type":"function","name":"latestRoundData","inputs":[],"outputs":[{"name":"roundId","type":"uint80","internalType":"uint80"},{"name":"answer","type":"int256","internalType":"int256"},{"name":"startedAt","type":"uint256","internalType":"uint256"},{"name":"updatedAt","type":"uint256","internalType":"uint256"},{"name":"answeredInRound","type":"uint80","internalType":"uint80"}],"stateMutability":"view"},{"type":"function","name":"updateAnswer","inputs":[{"name":"newPrice","type":"uint256","internalType":"uint256"}],"outputs":[],"stateMutability":"nonpayable"}],"bytecode":{"object":"0x6080604052348015600e575f80fd5b5060405160dd38038060dd833981016040819052602991602f565b5f556045565b5f60208284031215603e575f80fd5b5051919050565b608d8060505f395ff3fe6080604052348015600e575f80fd5b50600436106030575f3560e01c80638e9b00ba146034578063feaf968c146045575b5f80fd5b6043603f3660046077565b5f55565b005b5f8054604080518381526020810192909252818101839052426060830152608082019290925290519081900360a00190f35b5f602082840312156086575f80fd5b503591905056","linkReferences":{}},"methodIdentifiers":{"latestRoundData()":"feaf968c","updateAnswer(uint256)":"8e9b00ba"},"id":260}