{"abi":[{"type":"constructor","inputs":[{"name":"owner","type":"address","internalType":"address"}],"stateMutability":"nonpayable"},{"type":"function","name":"DOMAIN_SEPARATOR","inputs":[],"outputs":[{"name":"","type":"bytes32","internalType":"bytes32"}],"stateMutability":"view"},{"type":"function","name":"allowance","inputs":[{"name":"owner","type":"address","internalType":"address"},{"name":"spender","type":"address","internalType":"address"}],"outputs":[{"name":"","type":"uint256","internalType":"uint256"}],"stateMutability":"view"},{"type":"function","name":"approve","inputs":[{"name":"spender","type":"address","internalType":"address"},{"name":"value","type":"uint256","internalType":"uint256"}],"outputs":[{"name":"","type":"bool","internalType":"bool"}],"stateMutability":"nonpayable"},{"type":"function","name":"balanceOf","inputs":[{"name":"account","type":"address","internalType":"address"}],"outputs":[{"name":"","type":"uint256","internalType":"uint256"}],"stateMutability":"view"},{"type":"function","name":"burn","inputs":[{"name":"amount","type":"uint256","internalType":"uint256"}],"outputs":[],"stateMutability":"nonpayable"},{"type":"function","name":"decimals","inputs":[],"outputs":[{"name":"","type":"uint8","internalType":"uint8"}],"stateMutability":"view"},{"type":"function","name":"eip712Domain","inputs":[],"outputs":[{"name":"fields","type":"bytes1","internalType":"bytes1"},{"name":"name","type":"string","internalType":"string"},{"name":"version","type":"string","internalType":"string"},{"name":"chainId","type":"uint256","internalType":"uint256"},{"name":"verifyingContract","type":"address","internalType":"address"},{"name":"salt","type":"bytes32","internalType":"bytes32"},{"name":"extensions","type":"uint256[]","internalType":"uint256[]"}],"stateMutability":"view"},{"type":"function","name":"mint","inputs":[{"name":"to","type":"address","internalType":"address"},{"name":"amount","type":"uint256","internalType":"uint256"}],"outputs":[],"stateMutability":"nonpayable"},{"type":"function","name":"name","inputs":[],"outputs":[{"name":"","type":"string","internalType":"string"}],"stateMutability":"view"},{"type":"function","name":"nonces","inputs":[{"name":"owner","type":"address","internalType":"address"}],"outputs":[{"name":"","type":"uint256","internalType":"uint256"}],"stateMutability":"view"},{"type":"function","name":"owner","inputs":[],"outputs":[{"name":"","type":"address","internalType":"address"}],"stateMutability":"view"},{"type":"function","name":"permit","inputs":[{"name":"owner","type":"address","internalType":"address"},{"name":"spender","type":"address","internalType":"address"},{"name":"value","type":"uint256","internalType":"uint256"},{"name":"deadline","type":"uint256","internalType":"uint256"},{"name":"v","type":"uint8","internalType":"uint8"},{"name":"r","type":"bytes32","internalType":"bytes32"},{"name":"s","type":"bytes32","internalType":"bytes32"}],"outputs":[],"stateMutability":"nonpayable"},{"type":"function","name":"renounceOwnership","inputs":[],"outputs":[],"stateMutability":"nonpayable"},{"type":"function","name":"symbol","inputs":[],"outputs":[{"name":"","type":"string","internalType":"string"}],"stateMutability":"view"},{"type":"function","name":"totalSupply","inputs":[],"outputs":[{"name":"","type":"uint256","internalType":"uint256"}],"stateMutability":"view"},{"type":"function","name":"transfer","inputs":[{"name":"to","type":"address","internalType":"address"},{"name":"value","type":"uint256","internalType":"uint256"}],"outputs":[{"name":"","type":"bool","internalType":"bool"}],"stateMutability":"nonpayable"},{"type":"function","name":"transferFrom","inputs":[{"name":"from","type":"address","internalType":"address"},{"name":"to","type":"address","internalType":"address"},{"name":"value","type":"uint256","internalType":"uint256"}],"outputs":[{"name":"","type":"bool","internalType":"bool"}],"stateMutability":"nonpayable"},{"type":"function","name":"transferOwnership","inputs":[{"name":"newOwner","type":"address","internalType":"address"}],"outputs":[],"stateMutability":"nonpayable"},{"type":"event","name":"Approval","inputs":[{"name":"owner","type":"address","indexed":true,"internalType":"address"},{"name":"spender","type":"address","indexed":true,"internalType":"address"},{"name":"value","type":"uint256","indexed":false,"internalType":"uint256"}],"anonymous":false},{"type":"event","name":"EIP712DomainChanged","inputs":[],"anonymous":false},{"type":"event","name":"OwnershipTransferred","inputs":[{"name":"previousOwner","type":"address","indexed":true,"internalType":"address"},{"name":"newOwner","type":"address","indexed":true,"internalType":"address"}],"anonymous":false},{"type":"event","name":"Transfer","inputs":[{"name":"from","type":"address","indexed":true,"internalType":"address"},{"name":"to","type":"address","indexed":true,"internalType":"address"},{"name":"value","type":"uint256","indexed":false,"internalType":"uint256"}],"anonymous":false},{"type":"error","name":"ECDSAInvalidSignature","inputs":[]},{"type":"error","name":"ECDSAInvalidSignatureLength","inputs":[{"name":"length","type":"uint256","internalType":"uint256"}]},{"type":"error","name":"ECDSAInvalidSignatureS","inputs":[{"name":"s","type":"bytes32","internalType":"bytes32"}]},{"type":"error","name":"ERC20InsufficientAllowance","inputs":[{"name":"spender","type":"address","internalType":"address"},{"name":"allowance","type":"uint256","internalType":"uint256"},{"name":"needed","type":"uint256","internalType":"uint256"}]},{"type":"error","name":"ERC20InsufficientBalance","inputs":[{"name":"sender","type":"address","internalType":"address"},{"name":"balance","type":"uint256","internalType":"uint256"},{"name":"needed","type":"uint256","internalType":"uint256"}]},{"type":"error","name":"ERC20InvalidApprover","inputs":[{"name":"approver","type":"address","internalType":"address"}]},{"type":"error","name":"ERC20InvalidReceiver","inputs":[{"name":"receiver","type":"address","internalType":"address"}]},{"type":"error","name":"ERC20InvalidSender","inputs":[{"name":"sender","type":"address","internalType":"address"}]},{"type":"error","name":"ERC20InvalidSpender","inputs":[{"name":"spender","type":"address","internalType":"address"}]},{"type":"error","name":"ERC2612ExpiredSignature","inputs":[{"name":"deadline","type":"uint256","internalType":"uint256"}]},{"type":"error","name":"ERC2612InvalidSigner","inputs":[{"name":"signer","type":"address","internalType":"address"},{"name":"owner","type":"address","internalType":"address"}]},{"type":"error","name":"InvalidAccountNonce","inputs":[{"name":"account","type":"address","internalType":"address"},{"name":"currentNonce","type":"uint256","internalType":"uint256"}]},{"type":"error","name":"InvalidShortString","inputs":[]},{"type":"error","name":"OwnableInvalidOwner","inputs":[{"name":"owner","type":"address","internalType":"address"}]},{"type":"error","name":"OwnableUnauthorizedAccount","inputs":[{"name":"account","type":"address","internalType":"address"}]},{"type":"error","name":"StringTooLong","inputs":[{"name":"str","type":"string","internalType":"string"}]},{"type":"error","name":"ZeroInput","inputs":[{"name":"parameter","type":"string","internalType":"string"}]}],"bytecode":{"object":"0x610160604052348015610010575f80fd5b5060405161177338038061177383398101604081905261002f9161027b565b806040518060400160405280600981526020016816985c9bdcc81554d160ba1b81525080604051806040016040528060018152602001603160f81b8152506040518060400160405280600981526020016816985c9bdcc81554d160ba1b815250604051806040016040528060048152602001632aa9a23d60e11b81525081600390816100bb9190610340565b5060046100c88282610340565b506100d8915083905060056101bb565b610120526100e78160066101bb565b61014052815160208084019190912060e052815190820120610100524660a05261017360e05161010051604080517f8b73c3c69bb8fe3d512ecc4cf759cc79239f7b179b0ffacaa9a75d522b39400f60208201529081019290925260608201524660808201523060a08201525f9060c00160405160208183030381529060405280519060200120905090565b60805250503060c052506001600160a01b0381166101ab57604051631e4fbdf760e01b81525f60048201526024015b60405180910390fd5b6101b4816101ed565b505061046e565b5f6020835110156101d6576101cf8361023e565b90506101e7565b816101e18482610340565b5060ff90505b92915050565b600880546001600160a01b038381166001600160a01b0319831681179093556040519116919082907f8be0079c531659141344cd1fd0a4f28419497f9722a3daafe3b4186f6b6457e0905f90a35050565b5f80829050601f81511115610268578260405163305a27a960e01b81526004016101a291906103ff565b80516102738261044b565b179392505050565b5f6020828403121561028b575f80fd5b81516001600160a01b03811681146102a1575f80fd5b9392505050565b634e487b7160e01b5f52604160045260245ffd5b600181811c908216806102d057607f821691505b6020821081036102ee57634e487b7160e01b5f52602260045260245ffd5b50919050565b601f82111561033b57805f5260205f20601f840160051c810160208510156103195750805b601f840160051c820191505b81811015610338575f8155600101610325565b50505b505050565b81516001600160401b03811115610359576103596102a8565b61036d8161036784546102bc565b846102f4565b602080601f8311600181146103a0575f84156103895750858301515b5f19600386901b1c1916600185901b1785556103f7565b5f85815260208120601f198616915b828110156103ce578886015182559484019460019091019084016103af565b50858210156103eb57878501515f19600388901b60f8161c191681555b505060018460011b0185555b505050505050565b5f602080835283518060208501525f5b8181101561042b5785810183015185820160400152820161040f565b505f604082860101526040601f19601f8301168501019250505092915050565b805160208083015191908110156102ee575f1960209190910360031b1b16919050565b60805160a05160c05160e0516101005161012051610140516112b46104bf5f395f610a2301525f6109f601525f61081f01525f6107f701525f61075201525f61077c01525f6107a601526112b45ff3fe608060405234801561000f575f80fd5b506004361061012f575f3560e01c8063715018a6116100ad57806395d89b411161007d578063d505accf11610063578063d505accf1461026c578063dd62ed3e1461027f578063f2fde38b146102b7575f80fd5b806395d89b4114610251578063a9059cbb14610259575f80fd5b8063715018a6146102005780637ecebe001461020857806384b0196e1461021b5780638da5cb5b14610236575f80fd5b8063313ce5671161010257806340c10f19116100e857806340c10f19146101b057806342966c68146101c557806370a08231146101d8575f80fd5b8063313ce567146101995780633644e515146101a8575f80fd5b806306fdde0314610133578063095ea7b31461015157806318160ddd1461017457806323b872dd14610186575b5f80fd5b61013b6102ca565b6040516101489190611033565b60405180910390f35b61016461015f366004611067565b61035a565b6040519015158152602001610148565b6002545b604051908152602001610148565b61016461019436600461108f565b610373565b60405160128152602001610148565b610178610396565b6101c36101be366004611067565b6103a4565b005b6101c36101d33660046110c8565b6103c3565b6101786101e63660046110df565b6001600160a01b03165f9081526020819052604090205490565b6101c36103d9565b6101786102163660046110df565b6103ec565b610223610409565b60405161014897969594939291906110f8565b6008546040516001600160a01b039091168152602001610148565b61013b610467565b610164610267366004611067565b610476565b6101c361027a3660046111ab565b610483565b61017861028d366004611218565b6001600160a01b039182165f90815260016020908152604080832093909416825291909152205490565b6101c36102c53660046110df565b6105f0565b6060600380546102d990611249565b80601f016020809104026020016040519081016040528092919081815260200182805461030590611249565b80156103505780601f1061032757610100808354040283529160200191610350565b820191905f5260205f20905b81548152906001019060200180831161033357829003601f168201915b5050505050905090565b5f33610367818585610643565b60019150505b92915050565b5f33610380858285610655565b61038b8585856106e9565b506001949350505050565b5f61039f610746565b905090565b6103ac61086f565b6103b5816108b5565b6103bf828261091e565b5050565b6103cc816108b5565b6103d63382610952565b50565b6103e161086f565b6103ea5f610986565b565b6001600160a01b0381165f9081526007602052604081205461036d565b5f6060805f805f606061041a6109ef565b610422610a1c565b604080515f808252602082019092527f0f000000000000000000000000000000000000000000000000000000000000009b939a50919850469750309650945092509050565b6060600480546102d990611249565b5f336103678185856106e9565b834211156104c5576040517f62791302000000000000000000000000000000000000000000000000000000008152600481018590526024015b60405180910390fd5b5f7f6e71edae12b1b97f4d1f60370fef10105fa2faae0126114a169c64845d6126c98888886105108c6001600160a01b03165f90815260076020526040902080546001810190915590565b6040805160208101969096526001600160a01b0394851690860152929091166060840152608083015260a082015260c0810186905260e0016040516020818303038152906040528051906020012090505f61056a82610a49565b90505f61057982878787610a90565b9050896001600160a01b0316816001600160a01b0316146105d9576040517f4b800e460000000000000000000000000000000000000000000000000000000081526001600160a01b0380831660048301528b1660248201526044016104bc565b6105e48a8a8a610643565b50505050505050505050565b6105f861086f565b6001600160a01b03811661063a576040517f1e4fbdf70000000000000000000000000000000000000000000000000000000081525f60048201526024016104bc565b6103d681610986565b6106508383836001610abc565b505050565b6001600160a01b038381165f908152600160209081526040808320938616835292905220545f1981146106e357818110156106d5576040517ffb8f41b20000000000000000000000000000000000000000000000000000000081526001600160a01b038416600482015260248101829052604481018390526064016104bc565b6106e384848484035f610abc565b50505050565b6001600160a01b03831661071257604051634b637e8f60e11b81525f60048201526024016104bc565b6001600160a01b03821661073b5760405163ec442f0560e01b81525f60048201526024016104bc565b610650838383610bc0565b5f306001600160a01b037f00000000000000000000000000000000000000000000000000000000000000001614801561079e57507f000000000000000000000000000000000000000000000000000000000000000046145b156107c857507f000000000000000000000000000000000000000000000000000000000000000090565b61039f604080517f8b73c3c69bb8fe3d512ecc4cf759cc79239f7b179b0ffacaa9a75d522b39400f60208201527f0000000000000000000000000000000000000000000000000000000000000000918101919091527f000000000000000000000000000000000000000000000000000000000000000060608201524660808201523060a08201525f9060c00160405160208183030381529060405280519060200120905090565b6008546001600160a01b031633146103ea576040517f118cdaa70000000000000000000000000000000000000000000000000000000081523360048201526024016104bc565b805f036103d6576040517f525560be00000000000000000000000000000000000000000000000000000000815260206004820152600660248201527f616d6f756e74000000000000000000000000000000000000000000000000000060448201526064016104bc565b6001600160a01b0382166109475760405163ec442f0560e01b81525f60048201526024016104bc565b6103bf5f8383610bc0565b6001600160a01b03821661097b57604051634b637e8f60e11b81525f60048201526024016104bc565b6103bf825f83610bc0565b600880546001600160a01b038381167fffffffffffffffffffffffff0000000000000000000000000000000000000000831681179093556040519116919082907f8be0079c531659141344cd1fd0a4f28419497f9722a3daafe3b4186f6b6457e0905f90a35050565b606061039f7f00000000000000000000000000000000000000000000000000000000000000006005610cff565b606061039f7f00000000000000000000000000000000000000000000000000000000000000006006610cff565b5f61036d610a55610746565b836040517f19010000000000000000000000000000000000000000000000000000000000008152600281019290925260228201526042902090565b5f805f80610aa088888888610da8565b925092509250610ab08282610e70565b50909695505050505050565b6001600160a01b038416610afe576040517fe602df050000000000000000000000000000000000000000000000000000000081525f60048201526024016104bc565b6001600160a01b038316610b40576040517f94280d620000000000000000000000000000000000000000000000000000000081525f60048201526024016104bc565b6001600160a01b038085165f90815260016020908152604080832093871683529290522082905580156106e357826001600160a01b0316846001600160a01b03167f8c5be1e5ebec7d5bd14f71427d1e84f3dd0314c0f7b2291e5b200ac8c7c3b92584604051610bb291815260200190565b60405180910390a350505050565b6001600160a01b038316610bea578060025f828254610bdf9190611281565b90915550610c739050565b6001600160a01b0383165f9081526020819052604090205481811015610c55576040517fe450d38c0000000000000000000000000000000000000000000000000000000081526001600160a01b038516600482015260248101829052604481018390526064016104bc565b6001600160a01b0384165f9081526020819052604090209082900390555b6001600160a01b038216610c8f57600280548290039055610cad565b6001600160a01b0382165f9081526020819052604090208054820190555b816001600160a01b0316836001600160a01b03167fddf252ad1be2c89b69c2b068fc378daa952ba7f163c4a11628f55a4df523b3ef83604051610cf291815260200190565b60405180910390a3505050565b606060ff8314610d1957610d1283610f73565b905061036d565b818054610d2590611249565b80601f0160208091040260200160405190810160405280929190818152602001828054610d5190611249565b8015610d9c5780601f10610d7357610100808354040283529160200191610d9c565b820191905f5260205f20905b815481529060010190602001808311610d7f57829003601f168201915b5050505050905061036d565b5f80807f7fffffffffffffffffffffffffffffff5d576e7357a4501ddfe92f46681b20a0841115610de157505f91506003905082610e66565b604080515f808252602082018084528a905260ff891692820192909252606081018790526080810186905260019060a0016020604051602081039080840390855afa158015610e32573d5f803e3d5ffd5b5050604051601f1901519150506001600160a01b038116610e5d57505f925060019150829050610e66565b92505f91508190505b9450945094915050565b5f826003811115610e8357610e836112a0565b03610e8c575050565b6001826003811115610ea057610ea06112a0565b03610ed7576040517ff645eedf00000000000000000000000000000000000000000000000000000000815260040160405180910390fd5b6002826003811115610eeb57610eeb6112a0565b03610f25576040517ffce698f7000000000000000000000000000000000000000000000000000000008152600481018290526024016104bc565b6003826003811115610f3957610f396112a0565b036103bf576040517fd78bce0c000000000000000000000000000000000000000000000000000000008152600481018290526024016104bc565b60605f610f7f83610fb0565b6040805160208082528183019092529192505f91906020820181803683375050509182525060208101929092525090565b5f60ff8216601f81111561036d576040517fb3512b0c00000000000000000000000000000000000000000000000000000000815260040160405180910390fd5b5f81518084525f5b8181101561101457602081850181015186830182015201610ff8565b505f602082860101526020601f19601f83011685010191505092915050565b602081525f6110456020830184610ff0565b9392505050565b80356001600160a01b0381168114611062575f80fd5b919050565b5f8060408385031215611078575f80fd5b6110818361104c565b946020939093013593505050565b5f805f606084860312156110a1575f80fd5b6110aa8461104c565b92506110b86020850161104c565b9150604084013590509250925092565b5f602082840312156110d8575f80fd5b5035919050565b5f602082840312156110ef575f80fd5b6110458261104c565b7fff00000000000000000000000000000000000000000000000000000000000000881681525f602060e0602084015261113460e084018a610ff0565b8381036040850152611146818a610ff0565b606085018990526001600160a01b038816608086015260a0850187905284810360c0860152855180825260208088019350909101905f5b818110156111995783518352928401929184019160010161117d565b50909c9b505050505050505050505050565b5f805f805f805f60e0888a0312156111c1575f80fd5b6111ca8861104c565b96506111d86020890161104c565b95506040880135945060608801359350608088013560ff811681146111fb575f80fd5b9699959850939692959460a0840135945060c09093013592915050565b5f8060408385031215611229575f80fd5b6112328361104c565b91506112406020840161104c565b90509250929050565b600181811c9082168061125d57607f821691505b60208210810361127b57634e487b7160e01b5f52602260045260245ffd5b50919050565b8082018082111561036d57634e487b7160e01b5f52601160045260245ffd5b634e487b7160e01b5f52602160045260245ffd","linkReferences":{}},"methodIdentifiers":{"DOMAIN_SEPARATOR()":"3644e515","allowance(address,address)":"dd62ed3e","approve(address,uint256)":"095ea7b3","balanceOf(address)":"70a08231","burn(uint256)":"42966c68","decimals()":"313ce567","eip712Domain()":"84b0196e","mint(address,uint256)":"40c10f19","name()":"06fdde03","nonces(address)":"7ecebe00","owner()":"8da5cb5b","permit(address,address,uint256,uint256,uint8,bytes32,bytes32)":"d505accf","renounceOwnership()":"715018a6","symbol()":"95d89b41","totalSupply()":"18160ddd","transfer(address,uint256)":"a9059cbb","transferFrom(address,address,uint256)":"23b872dd","transferOwnership(address)":"f2fde38b"},"id":172}