{"abi":[{"type":"constructor","inputs":[{"name":"min","type":"int192","internalType":"int192"},{"name":"max","type":"int192","internalType":"int192"}],"stateMutability":"nonpayable"},{"type":"function","name":"_maxAnswer","inputs":[],"outputs":[{"name":"","type":"int192","internalType":"int192"}],"stateMutability":"view"},{"type":"function","name":"_minAnswer","inputs":[],"outputs":[{"name":"","type":"int192","internalType":"int192"}],"stateMutability":"view"},{"type":"function","name":"maxAnswer","inputs":[],"outputs":[{"name":"","type":"int192","internalType":"int192"}],"stateMutability":"view"},{"type":"function","name":"minAnswer","inputs":[],"outputs":[{"name":"","type":"int192","internalType":"int192"}],"stateMutability":"view"}],"bytecode":{"object":"0x60c0604052348015600e575f80fd5b50604051610198380380610198833981016040819052602b916051565b601791820b608052900b60a052607d565b8051601781900b8114604c575f80fd5b919050565b5f80604083850312156061575f80fd5b606883603c565b9150607460208401603c565b90509250929050565b60805160a05160f26100a65f395f81816083015260aa01525f8181604a015260d0015260f25ff3fe6080604052348015600e575f80fd5b50600436106044575f3560e01c806322adbc7814604857806370da2f671460815780638e5c48591460a6578063e4268cb71460cc575b5f80fd5b7f00000000000000000000000000000000000000000000000000000000000000005b60405160179190910b815260200160405180910390f35b7f0000000000000000000000000000000000000000000000000000000000000000606a565b606a7f000000000000000000000000000000000000000000000000000000000000000081565b606a7f00000000000000000000000000000000000000000000000000000000000000008156","linkReferences":{}},"methodIdentifiers":{"_maxAnswer()":"8e5c4859","_minAnswer()":"e4268cb7","maxAnswer()":"70da2f67","minAnswer()":"22adbc78"},"id":251}