{"abi":[{"type":"function","name":"createTradingAccount","inputs":[{"name":"referralCode","type":"bytes","internalType":"bytes"},{"name":"isCustomReferralCode","type":"bool","internalType":"bool"}],"outputs":[{"name":"tradingAccountId","type":"uint128","internalType":"uint128"}],"stateMutability":"nonpayable"},{"type":"function","name":"createTradingAccountAndMulticall","inputs":[{"name":"data","type":"bytes[]","internalType":"bytes[]"},{"name":"referralCode","type":"bytes","internalType":"bytes"},{"name":"isCustomReferralCode","type":"bool","internalType":"bool"}],"outputs":[{"name":"results","type":"bytes[]","internalType":"bytes[]"}],"stateMutability":"payable"},{"type":"function","name":"depositMargin","inputs":[{"name":"tradingAccountId","type":"uint128","internalType":"uint128"},{"name":"collateralType","type":"address","internalType":"address"},{"name":"amount","type":"uint256","internalType":"uint256"}],"outputs":[],"stateMutability":"nonpayable"},{"type":"function","name":"getAccountEquityUsd","inputs":[{"name":"tradingAccountId","type":"uint128","internalType":"uint128"}],"outputs":[{"name":"","type":"int256","internalType":"SD59x18"}],"stateMutability":"view"},{"type":"function","name":"getAccountLeverage","inputs":[{"name":"tradingAccountId","type":"uint128","internalType":"uint128"}],"outputs":[{"name":"","type":"uint256","internalType":"UD60x18"}],"stateMutability":"view"},{"type":"function","name":"getAccountMarginBreakdown","inputs":[{"name":"tradingAccountId","type":"uint128","internalType":"uint128"}],"outputs":[{"name":"marginBalanceUsdX18","type":"int256","internalType":"SD59x18"},{"name":"initialMarginUsdX18","type":"uint256","internalType":"UD60x18"},{"name":"maintenanceMarginUsdX18","type":"uint256","internalType":"UD60x18"},{"name":"availableMarginUsdX18","type":"int256","internalType":"SD59x18"}],"stateMutability":"view"},{"type":"function","name":"getAccountMarginCollateralBalance","inputs":[{"name":"tradingAccountId","type":"uint128","internalType":"uint128"},{"name":"collateralType","type":"address","internalType":"address"}],"outputs":[{"name":"","type":"uint256","internalType":"UD60x18"}],"stateMutability":"view"},{"type":"function","name":"getAccountTotalUnrealizedPnl","inputs":[{"name":"tradingAccountId","type":"uint128","internalType":"uint128"}],"outputs":[{"name":"accountTotalUnrealizedPnlUsdX18","type":"int256","internalType":"SD59x18"}],"stateMutability":"view"},{"type":"function","name":"getPositionState","inputs":[{"name":"tradingAccountId","type":"uint128","internalType":"uint128"},{"name":"marketId","type":"uint128","internalType":"uint128"},{"name":"indexPrice","type":"uint256","internalType":"uint256"}],"outputs":[{"name":"positionState","type":"tuple","internalType":"struct Position.State","components":[{"name":"sizeX18","type":"int256","internalType":"SD59x18"},{"name":"notionalValueX18","type":"uint256","internalType":"UD60x18"},{"name":"initialMarginUsdX18","type":"uint256","internalType":"UD60x18"},{"name":"maintenanceMarginUsdX18","type":"uint256","internalType":"UD60x18"},{"name":"entryPriceX18","type":"uint256","internalType":"UD60x18"},{"name":"accruedFundingUsdX18","type":"int256","internalType":"SD59x18"},{"name":"unrealizedPnlUsdX18","type":"int256","internalType":"SD59x18"}]}],"stateMutability":"view"},{"type":"function","name":"getTradingAccountToken","inputs":[],"outputs":[{"name":"","type":"address","internalType":"address"}],"stateMutability":"view"},{"type":"function","name":"getUserReferralData","inputs":[{"name":"user","type":"address","internalType":"address"}],"outputs":[{"name":"","type":"bytes","internalType":"bytes"},{"name":"","type":"bool","internalType":"bool"}],"stateMutability":"pure"},{"type":"function","name":"notifyAccountTransfer","inputs":[{"name":"to","type":"address","internalType":"address"},{"name":"tradingAccountId","type":"uint128","internalType":"uint128"}],"outputs":[],"stateMutability":"nonpayable"},{"type":"function","name":"withdrawMargin","inputs":[{"name":"tradingAccountId","type":"uint128","internalType":"uint128"},{"name":"collateralType","type":"address","internalType":"address"},{"name":"amount","type":"uint256","internalType":"uint256"}],"outputs":[],"stateMutability":"nonpayable"},{"type":"event","name":"LogCreateTradingAccount","inputs":[{"name":"tradingAccountId","type":"uint128","indexed":false,"internalType":"uint128"},{"name":"sender","type":"address","indexed":false,"internalType":"address"}],"anonymous":false},{"type":"event","name":"LogDepositMargin","inputs":[{"name":"sender","type":"address","indexed":true,"internalType":"address"},{"name":"tradingAccountId","type":"uint128","indexed":true,"internalType":"uint128"},{"name":"collateralType","type":"address","indexed":true,"internalType":"address"},{"name":"amount","type":"uint256","indexed":false,"internalType":"uint256"}],"anonymous":false},{"type":"event","name":"LogReferralSet","inputs":[{"name":"user","type":"address","indexed":true,"internalType":"address"},{"name":"referrer","type":"address","indexed":true,"internalType":"address"},{"name":"referralCode","type":"bytes","indexed":false,"internalType":"bytes"},{"name":"isCustomReferralCode","type":"bool","indexed":false,"internalType":"bool"}],"anonymous":false},{"type":"event","name":"LogWithdrawMargin","inputs":[{"name":"sender","type":"address","indexed":true,"internalType":"address"},{"name":"tradingAccountId","type":"uint128","indexed":true,"internalType":"uint128"},{"name":"collateralType","type":"address","indexed":true,"internalType":"address"},{"name":"amount","type":"uint256","indexed":false,"internalType":"uint256"}],"anonymous":false},{"type":"error","name":"AccountNotFound","inputs":[{"name":"tradingAccountId","type":"uint128","internalType":"uint128"},{"name":"sender","type":"address","internalType":"address"}]},{"type":"error","name":"AccountPermissionDenied","inputs":[{"name":"tradingAccountId","type":"uint128","internalType":"uint128"},{"name":"sender","type":"address","internalType":"address"}]},{"type":"error","name":"AddressEmptyCode","inputs":[{"name":"target","type":"address","internalType":"address"}]},{"type":"error","name":"AddressInsufficientBalance","inputs":[{"name":"account","type":"address","internalType":"address"}]},{"type":"error","name":"CollateralLiquidationPriorityNotDefined","inputs":[{"name":"collateralType","type":"address","internalType":"address"}]},{"type":"error","name":"CollateralPriceFeedNotDefined","inputs":[]},{"type":"error","name":"DepositCap","inputs":[{"name":"collateralType","type":"address","internalType":"address"},{"name":"amountX18","type":"uint256","internalType":"uint256"},{"name":"depositCapX18","type":"uint256","internalType":"uint256"}]},{"type":"error","name":"FailedInnerCall","inputs":[]},{"type":"error","name":"GracePeriodNotOver","inputs":[]},{"type":"error","name":"InsufficientCollateralBalance","inputs":[{"name":"amount","type":"uint256","internalType":"uint256"},{"name":"balance","type":"uint256","internalType":"uint256"}]},{"type":"error","name":"InsufficientMargin","inputs":[{"name":"tradingAccountId","type":"uint128","internalType":"uint128"},{"name":"marginBalanceUsdX18","type":"int256","internalType":"int256"},{"name":"requiredMarginUsdX18","type":"uint256","internalType":"uint256"},{"name":"totalFeesUsdX18","type":"uint256","internalType":"uint256"}]},{"type":"error","name":"InvalidOracleReturn","inputs":[]},{"type":"error","name":"InvalidReferralCode","inputs":[]},{"type":"error","name":"InvalidSequencerUptimeFeedReturn","inputs":[]},{"type":"error","name":"OnlyTradingAccountToken","inputs":[{"name":"sender","type":"address","internalType":"address"}]},{"type":"error","name":"OraclePriceFeedHeartbeat","inputs":[{"name":"priceFeed","type":"address","internalType":"address"}]},{"type":"error","name":"OraclePriceFeedOutOfRange","inputs":[{"name":"priceFeed","type":"address","internalType":"address"}]},{"type":"error","name":"OracleSequencerUptimeFeedIsDown","inputs":[{"name":"sequencerUptimeFeed","type":"address","internalType":"address"}]},{"type":"error","name":"PRBMath_MulDiv18_Overflow","inputs":[{"name":"x","type":"uint256","internalType":"uint256"},{"name":"y","type":"uint256","internalType":"uint256"}]},{"type":"error","name":"PRBMath_MulDiv_Overflow","inputs":[{"name":"x","type":"uint256","internalType":"uint256"},{"name":"y","type":"uint256","internalType":"uint256"},{"name":"denominator","type":"uint256","internalType":"uint256"}]},{"type":"error","name":"PRBMath_SD59x18_Abs_MinSD59x18","inputs":[]},{"type":"error","name":"PRBMath_SD59x18_Convert_Overflow","inputs":[{"name":"x","type":"int256","internalType":"int256"}]},{"type":"error","name":"PRBMath_SD59x18_Convert_Underflow","inputs":[{"name":"x","type":"int256","internalType":"int256"}]},{"type":"error","name":"PRBMath_SD59x18_Div_InputTooSmall","inputs":[]},{"type":"error","name":"PRBMath_SD59x18_Div_Overflow","inputs":[{"name":"x","type":"int256","internalType":"SD59x18"},{"name":"y","type":"int256","internalType":"SD59x18"}]},{"type":"error","name":"PRBMath_SD59x18_IntoUD60x18_Underflow","inputs":[{"name":"x","type":"int256","internalType":"SD59x18"}]},{"type":"error","name":"PRBMath_SD59x18_Mul_InputTooSmall","inputs":[]},{"type":"error","name":"PRBMath_SD59x18_Mul_Overflow","inputs":[{"name":"x","type":"int256","internalType":"SD59x18"},{"name":"y","type":"int256","internalType":"SD59x18"}]},{"type":"error","name":"PRBMath_UD60x18_Convert_Overflow","inputs":[{"name":"x","type":"uint256","internalType":"uint256"}]},{"type":"error","name":"PRBMath_UD60x18_IntoSD59x18_Overflow","inputs":[{"name":"x","type":"uint256","internalType":"UD60x18"}]},{"type":"error","name":"PriceAdapterNotDefined","inputs":[{"name":"marketId","type":"uint128","internalType":"uint128"}]},{"type":"error","name":"SafeCastOverflowedIntToUint","inputs":[{"name":"value","type":"int256","internalType":"int256"}]},{"type":"error","name":"SafeCastOverflowedUintDowncast","inputs":[{"name":"bits","type":"uint8","internalType":"uint8"},{"name":"value","type":"uint256","internalType":"uint256"}]},{"type":"error","name":"SafeCastOverflowedUintToInt","inputs":[{"name":"value","type":"uint256","internalType":"uint256"}]},{"type":"error","name":"SafeERC20FailedOperation","inputs":[{"name":"token","type":"address","internalType":"address"}]},{"type":"error","name":"ZeroInput","inputs":[{"name":"parameter","type":"string","internalType":"string"}]}],"bytecode":{"object":"0x6080604052348015600e575f80fd5b5061384a8061001c5f395ff3fe6080604052600436106100ce575f3560e01c80637dec8b551161007c578063a5773e8811610057578063a5773e8814610281578063bd5e09a7146102a0578063e1c8e976146102d7578063eaf2910f14610304575f80fd5b80637dec8b55146101c257806382fa6ada146101e15780638f55dc1f14610255575f80fd5b806349cdd2cf116100ac57806349cdd2cf146101635780635b2f597514610184578063792fcfa3146101a3575f80fd5b806302d7a57d146100d25780631fe91c92146101165780633116a09e14610143575b5f80fd5b3480156100dd575f80fd5b506100f16100ec366004612f1e565b610323565b6040805194855260208501939093529183015260608201526080015b60405180910390f35b348015610121575f80fd5b50610135610130366004612f1e565b61044e565b60405190815260200161010d565b610156610151366004612fec565b610479565b60405161010d91906130d9565b34801561016e575f80fd5b5061018261017d36600461314f565b61062b565b005b34801561018f575f80fd5b5061013561019e36600461318b565b610701565b3480156101ae575f80fd5b506101356101bd366004612f1e565b610724565b3480156101cd575f80fd5b506101826101dc3660046131c0565b610806565b3480156101ec575f80fd5b506102006101fb3660046131f3565b61084b565b60405161010d91905f60e082019050825182526020830151602083015260408301516040830152606083015160608301526080830151608083015260a083015160a083015260c083015160c083015292915050565b348015610260575f80fd5b50610269610904565b6040516001600160a01b03909116815260200161010d565b34801561028c575f80fd5b5061018261029b36600461314f565b61091f565b3480156102ab575f80fd5b506102bf6102ba36600461322c565b610a0d565b6040516001600160801b03909116815260200161010d565b3480156102e2575f80fd5b506102f66102f1366004613270565b610c7c565b60405161010d92919061328b565b34801561030f575f80fd5b5061013561031e366004612f1e565b610d44565b5f805f805f61033186610d61565b90505f61033d82610dcd565b90506103498282610ea5565b95505f5b61035983600501610f44565b81101561042f575f6103766103716005860184610f4d565b610f58565b90505f61038282610fa8565b90505f61038f8b84611044565b90505f61039b836110eb565b90505f6103bb6103b36103ae855f015490565b61118e565b85908461119b565b90505f6103c88483611253565b60098601549091505f9081906103fe9084906001600160801b03165b60098a0154600160801b90046001600160801b031661126d565b909250905061040d8e8361128f565b9d506104198d8261128f565b9c50506001909701965061034d95505050505050565b5061044361043c8661129d565b87906112e3565b925050509193509193565b5f8061045983610d61565b90505f61046582610dcd565b905061047182826112f1565b949350505050565b60605f6104868484610a0d565b90508467ffffffffffffffff8111156104a1576104a1612f37565b6040519080825280602002602001820160405280156104d457816020015b60608152602001906001900390816104bf5790505b5091505f5b85811015610621575f8787838181106104f4576104f46132ae565b905060200281019061050691906132c2565b610514916004915f91613305565b604080516001600160801b0387166020820152016040516020818303038152906040528a8a86818110610549576105496132ae565b905060200281019061055b91906132c2565b610569916004908290613305565b60405160200161057d95949392919061332c565b60405160208183030381529060405290505f80306001600160a01b0316836040516105a8919061335d565b5f60405180830381855af49150503d805f81146105e0576040519150601f19603f3d011682016040523d82523d5f602084013e6105e5565b606091505b5091509150816105f85780518060208301fd5b8086858151811061060b5761060b6132ae565b60209081029190910101525050506001016104d9565b5050949350505050565b5f61063583611358565b90505f61064185610d61565b90505f61064e83856113d5565b835460028501549192506001600160801b03169061066b83611421565b6106778784848461148b565b610680876114f3565b6106956001600160a01b038816333089611555565b6106a08488856115d1565b866001600160a01b0316886001600160801b0316336001600160a01b03167f7b18d4a33c7ca563a6ca05e7b9e82d4a43847c0f623e59ee334fff5f697d6afd896040516106ef91815260200190565b60405180910390a45050505050505050565b5f8061070c84610d61565b90505f6107198285611626565b925050505b92915050565b5f8061072f83610d61565b90505f61074561073e83610dcd565b8390610ea5565b90505f8161075f576107568261163f565b95945050505050565b5f5b61076d84600501610f44565b8110156107ea575f6107856103716005870184610f4d565b90505f61079182610fa8565b90505f61079e8984611044565b90505f6107aa836110eb565b90505f6107bd6103b36103ae855f015490565b90505f6107ca8483611253565b90506107d6888261128f565b975050600190950194506107619350505050565b50610756610801836107fb8461129d565b9061167e565b61163f565b61080e61177b565b5f61081882610d61565b600101805473ffffffffffffffffffffffffffffffffffffffff19166001600160a01b0394909416939093179092555050565b6108846040518060e001604052805f81526020015f81526020015f81526020015f81526020015f81526020015f81526020015f81525090565b5f61088e84610fa8565b90505f61089b8686611044565b90505f6108b86108ae6103ae845f015490565b865b85919061119b565b90505f6108cf6108c7856117d1565b859084611802565b60098501549091506108f89084906001600160801b0380821691600160801b900416858561181b565b98975050505050505050565b5f61090d6118c6565b600701546001600160a01b0316919050565b5f61092983611358565b90505f61093585611927565b90505f61094283856113d5565b905061094d81611421565b61095882868361193c565b61096382868361198d565b5f806109708482806119e7565b92505091505f6109898286610ea590919063ffffffff16565b90506109978584835f611be3565b6109ab6001600160a01b0389163389611c52565b876001600160a01b0316896001600160801b0316336001600160a01b03167fcf3eb2785c5d0af849ec465278f862ac4ccbdc5db85e0988cb32ee099ac3eb248a6040516109fa91815260200190565b60405180910390a4505050505050505050565b5f80610a176118c6565b600981018054919250905f90610a3a906bffffffffffffffffffffffff1661338c565b82546bffffffffffffffffffffffff9182166101009390930a838102920219161790915560078201549092506001600160a01b0316610a798333611c83565b506040517f40c10f190000000000000000000000000000000000000000000000000000000081523360048201526001600160801b03841660248201526001600160a01b038216906340c10f19906044015f604051808303815f87803b158015610ae0575f80fd5b505af1158015610af2573d5f803e3d5ffd5b5050604080516001600160801b03871681523360208201527f4cbbf2182f0e536977f6e98d1d4ba063888fbfa147949aec165e72cf726e9309935001905060405180910390a15f610b4233611cf6565b905085515f14158015610b61575080548190610b5d906133b6565b1590505b15610c73578415610bc3575f610b7687611d40565b80549091506001600160a01b0316610ba15760405163e55b462960e01b815260040160405180910390fd5b81610bac8882613439565b50506001818101805460ff19169091179055610c1d565b5f86806020019051810190610bd891906134f9565b9050336001600160a01b03821603610c035760405163e55b462960e01b815260040160405180910390fd5b81610c0e8882613439565b505060018101805460ff191690555b610c2681611d6d565b6001600160a01b0316336001600160a01b03167fc8a50c43715a4d8e106334cf8d9b03c0312564a5e692c5a34cf4ea6deeed42ac8888604051610c6a92919061328b565b60405180910390a35b50505092915050565b60605f80610c8984611cf6565b6040518060400160405290815f82018054610ca3906133b6565b80601f0160208091040260200160405190810160405280929190818152602001828054610ccf906133b6565b8015610d1a5780601f10610cf157610100808354040283529160200191610d1a565b820191905f5260205f20905b815481529060010190602001808311610cfd57829003601f168201915b50505091835250506001919091015460ff1615156020918201528151910151909590945092505050565b5f80610d4f83610d61565b9050610d5a81610dcd565b9392505050565b5f610d6b82611eb9565b60018101549091506001600160a01b0316610dc8576040517f3a947e910000000000000000000000000000000000000000000000000000000081526001600160801b03831660048201523360248201526044015b60405180910390fd5b919050565b5f80610ddb83600501610f44565b90505f5b81811015610e9e575f610df86103716005870184610f4d565b90505f610e0482610fa8565b86549091505f90610e1e906001600160801b031684611044565b90505f610e2a836110eb565b90505f610e3d6103b36103ae855f015490565b90505f610e49856117d1565b90505f610e57868385611802565b90505f610e648683611ee9565b90505f610e718786611f17565b9050610e8782610e818e84611f45565b90611f45565b9b505060019098019750610ddf9650505050505050565b5050919050565b5f80610eb384600201611f53565b90505f5b81811015610f39575f80610ece6002880184611f5d565b915091505f610edc83611358565b80549091505f90610f1290600160801b90046effffffffffffffffffffffffffffff16610f0c85610f0c86611f7a565b90611ff7565b9050610f27610f208261129d565b8890611f45565b96505060019093019250610eb7915050565b506104718284611f45565b5f61071e825490565b5f610d5a8383612005565b5f6001600160801b03821115610fa4576040517f6dfcc6500000000000000000000000000000000000000000000000000000000081526080600482015260248101839052604401610dbf565b5090565b5f8060ff19610fd860017f7391160f00c346d035658daa8a3c1eb1fa2f98b67b37275a9487390ac54b119f613514565b604051602001610fea91815260200190565b6040516020818303038152906040528051906020012016836040516020016110259291909182526001600160801b0316602082015260400190565b60408051601f1981840301815291905280516020909101209392505050565b5f8060ff1961107460017f1bc067b952a51a4aceed0c94957339255c9d9ec48f1c55db3cdc6194155caa15613514565b60405160200161108691815260200190565b604051602081830303815290604052805190602001201684846040516020016110cb939291909283526001600160801b03918216602084015216604082015260600190565b60408051601f198184030181529190528051602090910120949350505050565b6008810154600e8201545f916001600160a01b03169063ffffffff16826111106118c6565b465f9081526011820160205260409020549091506001600160a01b039081169084166111765785546040517f2fb06fb40000000000000000000000000000000000000000000000000000000081526001600160801b039091166004820152602401610dbf565b61118184848361202b565b9695505050505050565b90565b5f61071e61118b83613527565b5f806111b061118b866006016006015461246f565b8554909150600160801b9004600f0b5f6111ca828461167e565b90505f6111d78388611f45565b90505f6111e4828661167e565b90505f6111f08861129d565b90505f61120a61080161120384886124b4565b8490611f45565b90505f61122461080161121d85876124b4565b8590611f45565b90506112436112336002612583565b61123d848461128f565b906125e1565b9c9b505050505050505050505050565b5f610d5a82610f0c610801611268875f015490565b6125f8565b5f806112798585611ff7565b91506112858584611ff7565b9050935093915050565b5f610d5a61118b8385613541565b5f816001600160ff1b0381111561071e576040517ff461868400000000000000000000000000000000000000000000000000000000815260048101849052602401610dbf565b5f610d5a61118b8385613554565b5f806112ff84600201611f53565b90505f5b81811015610f39575f8061131a6002880184611f5d565b915091505f61132883611358565b90505f61133883610f0c84611f7a565b9050611346610f208261129d565b96505060019093019250611303915050565b5f8060ff1961138860017f4693110e548948f348ad9c8c0e5b637b378994981b3a4246fc86241f8faded51613514565b60405160200161139a91815260200190565b6040516020818303038152906040528051906020012016836040516020016110259291909182526001600160a01b0316602082015260400190565b81545f90600160f81b900460ff166012036113f157508061071e565b8254610d5a9061140c90600160f81b900460ff166012613573565b61141790600a613664565b61118b9084613672565b80611488576040517f525560be00000000000000000000000000000000000000000000000000000000815260206004820152600660248201527f616d6f756e7400000000000000000000000000000000000000000000000000006044820152606401610dbf565b50565b61149d82611499858461128f565b1190565b156114ed576040517f693c44590000000000000000000000000000000000000000000000000000000081526001600160a01b03851660048201526024810184905260448101839052606401610dbf565b50505050565b5f6114fc6118c6565b90505f61150c600b830184612650565b905080611550576040517f26ffe01d0000000000000000000000000000000000000000000000000000000081526001600160a01b0384166004820152602401610dbf565b505050565b6040516001600160a01b0384811660248301528381166044830152606482018390526114ed9186918216906323b872dd906084015b604051602081830303815290604052915060e01b6020820180517bffffffffffffffffffffffffffffffffffffffffffffffffffffffff8381831617835250505050612671565b600283015f6115ea836115e48787611626565b9061128f565b90506115fa84825b8491906126eb565b505f61160585611358565b905061161961118b856115e4846002015490565b6002909101555050505050565b5f806116356002850184612700565b9150506104718190565b5f818181121561071e576040517fbba41a1500000000000000000000000000000000000000000000000000000000815260048101849052602401610dbf565b5f8282600160ff1b8214806116965750600160ff1b81145b156116cd576040517f9fe2b45000000000000000000000000000000000000000000000000000000000815260040160405180910390fd5b5f805f84126116dc57836116e0565b835f035b91505f83126116ef57826116f3565b825f035b90505f61170983670de0b6b3a764000084612717565b90506001600160ff1b03811115611756576040517fd49c26b30000000000000000000000000000000000000000000000000000000081526004810189905260248101889052604401610dbf565b5f198585181361176e8161176a57825f0390565b8290565b9998505050505050505050565b611783610904565b6001600160a01b0316336001600160a01b0316146117cf576040517f1d4d7313000000000000000000000000000000000000000000000000000000008152336004820152602401610dbf565b565b5f61071e6117f86117e96117e4856127ff565b61129d565b6117f285612827565b906124b4565b6003840154610e81565b5f6104716118118585856128ca565b6004860154610e81565b6118546040518060e001604052805f81526020015f81526020015f81526020015f81526020015f81526020015f81526020015f81525090565b855481526118628684611253565b602082018190526118739086611ff7565b604082015260208101516118879085611ff7565b606082015260018601546001600160801b031660808201526118a98683611ee9565b60a08201526118b88684611f17565b60c082015295945050505050565b5f8060ff196118f660017feeb5cd774bc9c6845792a7b59ceb11c49cb99339b2df9604c51808d2eb250cc2613514565b60405160200161190891815260200190565b60408051601f1981840301815291905280516020909101201692915050565b5f61193182610d61565b9050610dc88261290f565b5f6119478484611626565b9050808211156114ed576040517f7be345c80000000000000000000000000000000000000000000000000000000081526004810183905260248101829052604401610dbf565b600283015f6119a6836119a08787611626565b90612977565b9050806119bd576119b78285612985565b506119c9565b6119c784826115f2565b505b5f6119d385611358565b905061161961118b856119a0846002015490565b5f80806001600160801b03851615611ac3575f611a0386610fa8565b87549091505f90611a1d906001600160801b031688611044565b90505f611a2d876108b0856110eb565b90505f611a3c6108c7856117d1565b90505f611a5783610f0c6108016112688d610e818a5f015490565b60098601549091505f908190611a779084906001600160801b03166103e4565b90925090505f611a94611a8a8887611ee9565b610e818989611f17565b9050611aa08b8461128f565b9a50611aac8a8361128f565b9950611ab88982611f45565b985050505050505050505b5f611ad087600501610f44565b90505f5b81811015611bd8575f611aed61037160058b0184610f4d565b9050876001600160801b0316816001600160801b031603611b0e5750611bd0565b5f611b1882610fa8565b8a549091505f90611b32906001600160801b031684611044565b90505f611b51611b48835f015461118b90613527565b6108b0856110eb565b90505f611b606108c7856117d1565b90505f611b6d8484611253565b60098601549091505f908190611b8d9084906001600160801b03166103e4565b90925090505f611ba0611a8a8887611ee9565b9050611bac8e8461128f565b9d50611bb88d8361128f565b9c50611bc48c82611f45565b9b505050505050505050505b600101611ad4565b505093509350939050565b611bf882611bf46117e4868561128f565b1390565b156114ed5783546040517f4b2d3acd0000000000000000000000000000000000000000000000000000000081526001600160801b039091166004820152602481018390526044810184905260648101829052608401610dbf565b6040516001600160a01b0383811660248301526044820183905261155091859182169063a9059cbb9060640161158a565b5f611c8d83611eb9565b80547fffffffffffffffffffffffffffffffff00000000000000000000000000000000166001600160801b03949094169390931783555060018201805473ffffffffffffffffffffffffffffffffffffffff19166001600160a01b039290921691909117905590565b5f806040518060400160405280601181526020017f66692e7a61726f732e526566657272616c00000000000000000000000000000081525083604051602001611025929190613689565b5f8060405180606001604052806024815260200161382660249139836040516020016110259291906136b3565b60018101545f9060ff16611e175781548290611d88906133b6565b80601f0160208091040260200160405190810160405280929190818152602001828054611db4906133b6565b8015611dff5780601f10611dd657610100808354040283529160200191611dff565b820191905f5260205f20905b815481529060010190602001808311611de257829003601f168201915b505050505080602001905181019061071e91906134f9565b611ea9825f018054611e28906133b6565b80601f0160208091040260200160405190810160405280929190818152602001828054611e54906133b6565b8015611e9f5780601f10611e7657610100808354040283529160200191611e9f565b820191905f5260205f20905b815481529060010190602001808311611e8257829003601f168201915b5050505050611d40565b546001600160a01b031692915050565b5f8060ff19610fd860017f8d53eef876fe0bd8a1041a9151a1ff19778efab77c8e1ac1a9b867962feb87e5613514565b60018201545f908190611f0790600160801b9004600f0b84906112e3565b9050610471816117f2865f015490565b60018201545f908190611f0790611f36906001600160801b031661129d565b611f3f8561129d565b906112e3565b5f610d5a61118b83856136d7565b5f61071e82612999565b5f808080611f6b86866129a3565b909450925050505b9250929050565b600181015460038201545f916001600160a01b03169063ffffffff1682611f9f6118c6565b465f9081526011820160205260409020549091506001600160a01b03908116908416611176576040517ff976331100000000000000000000000000000000000000000000000000000000815260040160405180910390fd5b5f610d5a61118b84846129cc565b5f825f01828154811061201a5761201a6132ae565b905f5260205f200154905092915050565b5f80846001600160a01b031663313ce5676040518163ffffffff1660e01b8152600401602060405180830381865afa158015612069573d5f803e3d5ffd5b505050506040513d601f19601f8201168201806040525081019061208d91906136fe565b9050601260ff821611156120b457604051634840b0ab60e11b815260040160405180910390fd5b6001600160a01b038316156121e757826001600160a01b031663feaf968c6040518163ffffffff1660e01b815260040160a060405180830381865afa92505050801561211d575060408051601f3d908101601f1916820190925261211a91810190613737565b60015b612153576040517f382e6b6400000000000000000000000000000000000000000000000000000000815260040160405180910390fd5b831580612197576040517fcbaf08250000000000000000000000000000000000000000000000000000000081526001600160a01b038a166004820152602401610dbf565b5f6121a28542613514565b9050610e1081116121df576040517fd15f73b500000000000000000000000000000000000000000000000000000000815260040160405180910390fd5b505050505050505b846001600160a01b031663feaf968c6040518163ffffffff1660e01b815260040160a060405180830381865afa925050508015612241575060408051601f3d908101601f1916820190925261223e91810190613737565b60015b61225e57604051634840b0ab60e11b815260040160405180910390fd5b63ffffffff891661226f8342613514565b11156122b2576040517fa1ac05690000000000000000000000000000000000000000000000000000000081526001600160a01b038b166004820152602401610dbf565b5f8a6001600160a01b031663245a7bfc6040518163ffffffff1660e01b8152600401602060405180830381865afa1580156122ef573d5f803e3d5ffd5b505050506040513d601f19601f8201168201806040525081019061231391906134f9565b90505f816001600160a01b03166322adbc786040518163ffffffff1660e01b8152600401602060405180830381865afa158015612352573d5f803e3d5ffd5b505050506040513d601f19601f820116820180604052508101906123769190613783565b90505f826001600160a01b03166370da2f676040518163ffffffff1660e01b8152600401602060405180830381865afa1580156123b5573d5f803e3d5ffd5b505050506040513d601f19601f820116820180604052508101906123d99190613783565b90508160170b871315806123f057508060170b8712155b15612432576040517f045d8f840000000000000000000000000000000000000000000000000000000081526001600160a01b038e166004820152602401610dbf565b61245e6124408a6012613573565b61244b90600a613664565b61245489612ab1565b61118b9190613672565b9d9c50505050505050505050505050565b5f6001600160ff1b03821115610fa4576040517f24775e0600000000000000000000000000000000000000000000000000000000815260048101839052602401610dbf565b5f8282600160ff1b8214806124cc5750600160ff1b81145b15612503576040517fa6070c2500000000000000000000000000000000000000000000000000000000815260040160405180910390fd5b5f805f84126125125783612516565b835f035b91505f83126125255782612529565b825f035b90505f61253683836129cc565b90506001600160ff1b03811115611756576040517f120b5b430000000000000000000000000000000000000000000000000000000081526004810189905260248101889052604401610dbf565b5f612597670de0b6b3a76400005f196137b7565b8211156125d3576040517f1cd951a700000000000000000000000000000000000000000000000000000000815260048101839052602401610dbf565b50670de0b6b3a76400000290565b5f610d5a61118b84670de0b6b3a764000085612717565b5f81600160ff1b8101612637576040517fec2b9e6700000000000000000000000000000000000000000000000000000000815260040160405180910390fd5b5f81126126445782610d5a565b610d5a61118b82613527565b6001600160a01b0381165f9081526001830160205260408120541515610d5a565b5f6126856001600160a01b03841683612aef565b905080515f141580156126a95750808060200190518101906126a791906137ca565b155b15611550576040517f5274afe70000000000000000000000000000000000000000000000000000000081526001600160a01b0384166004820152602401610dbf565b5f610471846001600160a01b03851684612afc565b5f808080611f6b866001600160a01b038716612b18565b5f80805f19858709858702925082811083820303915050805f0361274e57838281612744576127446137a3565b0492505050610d5a565b838110612798576040517f63a05778000000000000000000000000000000000000000000000000000000008152600481018790526024810186905260448101859052606401610dbf565b5f8486880960026001871981018816978890046003810283188082028403028082028403028082028403028082028403028082028403029081029092039091025f889003889004909101858311909403939093029303949094049190911702949350505050565b5f61071e61280f62015180612583565b61123d8460050154426128229190613514565b612583565b600b8101545f9081906128469061118b906001600160801b031661246f565b90505f61285c61118b856006016006015461246f565b8454909150600160801b9004600f0b8161287a57505f949350505050565b5f612885828461167e565b90505f6128b36128a561289f670de0b6b3a764000061118e565b84612b58565b670de0b6b3a7640000612b6e565b90506128bf81866124b4565b979650505050505050565b5f806128eb6128d96002612b77565b6107fb6103ae87610e818a6003015490565b90506107566128f98461129d565b6117f26129086117e4896127ff565b84906124b4565b5f61291982611eb9565b60018101549091506001600160a01b03163314612973576040517f38d64a200000000000000000000000000000000000000000000000000000000081526001600160801b0383166004820152336024820152604401610dbf565b5050565b5f610d5a61118b8385613514565b5f610d5a836001600160a01b038416612c1f565b5f61071e82610f44565b5f80806129b08585610f4d565b5f81815260029690960160205260409095205494959350505050565b5f80805f19848609848602925082811083820303915050805f036129fd5750670de0b6b3a76400009004905061071e565b670de0b6b3a76400008110612a48576040517f5173648d0000000000000000000000000000000000000000000000000000000081526004810186905260248101859052604401610dbf565b5f670de0b6b3a7640000858709620400008185030493109091037d40000000000000000000000000000000000000000000000000000000000002919091177faccb18165bd6fe31ae1cf318dc5b51eee0e1ba569b88cd74c1773b91fac106690291505092915050565b5f80821215610fa4576040517fa8ce443200000000000000000000000000000000000000000000000000000000815260048101839052602401610dbf565b6060610d5a83835f612c3b565b5f82815260028401602052604081208290556104718484612ce3565b5f818152600283016020526040812054819080612b4557612b398585612cee565b92505f9150611f739050565b600192509050611f73565b509250929050565b5f8282125b612b675781610d5a565b5090919050565b5f828213612b5d565b5f612b8e670de0b6b3a7640000600160ff1b6137e5565b821215612bca576040517f99474eeb00000000000000000000000000000000000000000000000000000000815260048101839052602401610dbf565b612be3670de0b6b3a76400006001600160ff1b036137e5565b8213156125d3576040517f9d58109100000000000000000000000000000000000000000000000000000000815260048101839052602401610dbf565b5f8181526002830160205260408120819055610d5a8383612cf9565b606081471015612c79576040517fcd786059000000000000000000000000000000000000000000000000000000008152306004820152602401610dbf565b5f80856001600160a01b03168486604051612c94919061335d565b5f6040518083038185875af1925050503d805f8114612cce576040519150601f19603f3d011682016040523d82523d5f602084013e612cd3565b606091505b5091509150611181868383612d04565b5f610d5a8383612d79565b5f610d5a8383612dc5565b5f610d5a8383612ddc565b606082612d1957612d1482612ec6565b610d5a565b8151158015612d3057506001600160a01b0384163b155b15612d72576040517f9996b3150000000000000000000000000000000000000000000000000000000081526001600160a01b0385166004820152602401610dbf565b5080610d5a565b5f818152600183016020526040812054612dbe57508154600181810184555f84815260208082209093018490558454848252828601909352604090209190915561071e565b505f61071e565b5f8181526001830160205260408120541515610d5a565b5f8181526001830160205260408120548015612eb6575f612dfe600183613514565b85549091505f90612e1190600190613514565b9050808214612e70575f865f018281548110612e2f57612e2f6132ae565b905f5260205f200154905080875f018481548110612e4f57612e4f6132ae565b5f918252602080832090910192909255918252600188019052604090208390555b8554869080612e8157612e81613811565b600190038181905f5260205f20015f90559055856001015f8681526020019081526020015f205f90556001935050505061071e565b5f91505061071e565b5092915050565b805115612ed65780518082602001fd5b6040517f1425ea4200000000000000000000000000000000000000000000000000000000815260040160405180910390fd5b80356001600160801b0381168114610dc8575f80fd5b5f60208284031215612f2e575f80fd5b610d5a82612f08565b634e487b7160e01b5f52604160045260245ffd5b5f82601f830112612f5a575f80fd5b813567ffffffffffffffff80821115612f7557612f75612f37565b604051601f8301601f19908116603f01168101908282118183101715612f9d57612f9d612f37565b81604052838152866020858801011115612fb5575f80fd5b836020870160208301375f602085830101528094505050505092915050565b8015158114611488575f80fd5b8035610dc881612fd4565b5f805f8060608587031215612fff575f80fd5b843567ffffffffffffffff80821115613016575f80fd5b818701915087601f830112613029575f80fd5b813581811115613037575f80fd5b8860208260051b850101111561304b575f80fd5b602092830196509450908601359080821115613065575f80fd5b5061307287828801612f4b565b92505061308160408601612fe1565b905092959194509250565b5f5b838110156130a657818101518382015260200161308e565b50505f910152565b5f81518084526130c581602086016020860161308c565b601f01601f19169290920160200192915050565b5f60208083016020845280855180835260408601915060408160051b8701019250602087015f5b8281101561312e57603f1988860301845261311c8583516130ae565b94509285019290850190600101613100565b5092979650505050505050565b6001600160a01b0381168114611488575f80fd5b5f805f60608486031215613161575f80fd5b61316a84612f08565b9250602084013561317a8161313b565b929592945050506040919091013590565b5f806040838503121561319c575f80fd5b6131a583612f08565b915060208301356131b58161313b565b809150509250929050565b5f80604083850312156131d1575f80fd5b82356131dc8161313b565b91506131ea60208401612f08565b90509250929050565b5f805f60608486031215613205575f80fd5b61320e84612f08565b925061321c60208501612f08565b9150604084013590509250925092565b5f806040838503121561323d575f80fd5b823567ffffffffffffffff811115613253575f80fd5b61325f85828601612f4b565b92505060208301356131b581612fd4565b5f60208284031215613280575f80fd5b8135610d5a8161313b565b604081525f61329d60408301856130ae565b905082151560208301529392505050565b634e487b7160e01b5f52603260045260245ffd5b5f808335601e198436030181126132d7575f80fd5b83018035915067ffffffffffffffff8211156132f1575f80fd5b602001915036819003821315611f73575f80fd5b5f8085851115613313575f80fd5b8386111561331f575f80fd5b5050820193919092039150565b848682375f8582015f81528551613347818360208a0161308c565b01838582375f9301928352509095945050505050565b5f825161336e81846020870161308c565b9190910192915050565b634e487b7160e01b5f52601160045260245ffd5b5f6bffffffffffffffffffffffff8083168181036133ac576133ac613378565b6001019392505050565b600181811c908216806133ca57607f821691505b6020821081036133e857634e487b7160e01b5f52602260045260245ffd5b50919050565b601f82111561155057805f5260205f20601f840160051c810160208510156134135750805b601f840160051c820191505b81811015613432575f815560010161341f565b5050505050565b815167ffffffffffffffff81111561345357613453612f37565b6134678161346184546133b6565b846133ee565b602080601f83116001811461349a575f84156134835750858301515b5f19600386901b1c1916600185901b1785556134f1565b5f85815260208120601f198616915b828110156134c8578886015182559484019460019091019084016134a9565b50858210156134e557878501515f19600388901b60f8161c191681555b505060018460011b0185555b505050505050565b5f60208284031215613509575f80fd5b8151610d5a8161313b565b8181038181111561071e5761071e613378565b5f600160ff1b820361353b5761353b613378565b505f0390565b8082018082111561071e5761071e613378565b8181035f831280158383131683831282161715612ebf57612ebf613378565b60ff828116828216039081111561071e5761071e613378565b600181815b80851115612b5057815f19048211156135ac576135ac613378565b808516156135b957918102915b93841c9390800290613591565b5f826135d45750600161071e565b816135e057505f61071e565b81600181146135f657600281146136005761361c565b600191505061071e565b60ff84111561361157613611613378565b50506001821b61071e565b5060208310610133831016604e8410600b841016171561363f575081810a61071e565b613649838361358c565b805f190482111561365c5761365c613378565b029392505050565b5f610d5a60ff8416836135c6565b808202811582820484141761071e5761071e613378565b604081525f61369b60408301856130ae565b90506001600160a01b03831660208301529392505050565b604081525f6136c560408301856130ae565b828103602084015261075681856130ae565b8082018281125f8312801582168215821617156136f6576136f6613378565b505092915050565b5f6020828403121561370e575f80fd5b815160ff81168114610d5a575f80fd5b805169ffffffffffffffffffff81168114610dc8575f80fd5b5f805f805f60a0868803121561374b575f80fd5b6137548661371e565b94506020860151935060408601519250606086015191506137776080870161371e565b90509295509295909350565b5f60208284031215613793575f80fd5b81518060170b8114610d5a575f80fd5b634e487b7160e01b5f52601260045260245ffd5b5f826137c5576137c56137a3565b500490565b5f602082840312156137da575f80fd5b8151610d5a81612fd4565b5f826137f3576137f36137a3565b600160ff1b82145f198414161561380c5761380c613378565b500590565b634e487b7160e01b5f52603160045260245ffdfe66692e7a61726f732e437573746f6d526566657272616c436f6e66696775726174696f6e","linkReferences":{}},"methodIdentifiers":{"createTradingAccount(bytes,bool)":"bd5e09a7","createTradingAccountAndMulticall(bytes[],bytes,bool)":"3116a09e","depositMargin(uint128,address,uint256)":"49cdd2cf","getAccountEquityUsd(uint128)":"1fe91c92","getAccountLeverage(uint128)":"792fcfa3","getAccountMarginBreakdown(uint128)":"02d7a57d","getAccountMarginCollateralBalance(uint128,address)":"5b2f5975","getAccountTotalUnrealizedPnl(uint128)":"eaf2910f","getPositionState(uint128,uint128,uint256)":"82fa6ada","getTradingAccountToken()":"8f55dc1f","getUserReferralData(address)":"e1c8e976","notifyAccountTransfer(address,uint128)":"7dec8b55","withdrawMargin(uint128,address,uint256)":"a5773e88"},"id":152}