{"abi":[{"type":"function","name":"getFundingRate","inputs":[{"name":"marketId","type":"uint128","internalType":"uint128"}],"outputs":[{"name":"","type":"int256","internalType":"SD59x18"}],"stateMutability":"view"},{"type":"function","name":"getFundingVelocity","inputs":[{"name":"marketId","type":"uint128","internalType":"uint128"}],"outputs":[{"name":"","type":"int256","internalType":"SD59x18"}],"stateMutability":"view"},{"type":"function","name":"getMarkPrice","inputs":[{"name":"marketId","type":"uint128","internalType":"uint128"},{"name":"indexPrice","type":"uint256","internalType":"uint256"},{"name":"skewDelta","type":"int256","internalType":"int256"}],"outputs":[{"name":"","type":"uint256","internalType":"UD60x18"}],"stateMutability":"view"},{"type":"function","name":"getMaxOpenInterest","inputs":[{"name":"marketId","type":"uint128","internalType":"uint128"}],"outputs":[{"name":"","type":"uint256","internalType":"UD60x18"}],"stateMutability":"view"},{"type":"function","name":"getMaxSkew","inputs":[{"name":"marketId","type":"uint128","internalType":"uint128"}],"outputs":[{"name":"","type":"uint256","internalType":"UD60x18"}],"stateMutability":"view"},{"type":"function","name":"getName","inputs":[{"name":"marketId","type":"uint128","internalType":"uint128"}],"outputs":[{"name":"","type":"string","internalType":"string"}],"stateMutability":"view"},{"type":"function","name":"getOpenInterest","inputs":[{"name":"marketId","type":"uint128","internalType":"uint128"}],"outputs":[{"name":"longsOpenInterest","type":"uint256","internalType":"UD60x18"},{"name":"shortsOpenInterest","type":"uint256","internalType":"UD60x18"},{"name":"totalOpenInterest","type":"uint256","internalType":"UD60x18"}],"stateMutability":"view"},{"type":"function","name":"getPerpMarketConfiguration","inputs":[{"name":"marketId","type":"uint128","internalType":"uint128"}],"outputs":[{"name":"name","type":"string","internalType":"string"},{"name":"symbol","type":"string","internalType":"string"},{"name":"initialMarginRateX18","type":"uint128","internalType":"uint128"},{"name":"maintenanceMarginRateX18","type":"uint128","internalType":"uint128"},{"name":"maxOpenInterest","type":"uint128","internalType":"uint128"},{"name":"maxSkew","type":"uint128","internalType":"uint128"},{"name":"minTradeSizeX18","type":"uint128","internalType":"uint128"},{"name":"skewScale","type":"uint256","internalType":"uint256"},{"name":"orderFees","type":"tuple","internalType":"struct OrderFees.Data","components":[{"name":"makerFee","type":"uint128","internalType":"uint128"},{"name":"takerFee","type":"uint128","internalType":"uint128"}]}],"stateMutability":"view"},{"type":"function","name":"getSettlementConfiguration","inputs":[{"name":"marketId","type":"uint128","internalType":"uint128"},{"name":"settlementConfigurationId","type":"uint128","internalType":"uint128"}],"outputs":[{"name":"","type":"tuple","internalType":"struct SettlementConfiguration.Data","components":[{"name":"strategy","type":"uint8","internalType":"enum SettlementConfiguration.Strategy"},{"name":"isEnabled","type":"bool","internalType":"bool"},{"name":"fee","type":"uint80","internalType":"uint80"},{"name":"keeper","type":"address","internalType":"address"},{"name":"data","type":"bytes","internalType":"bytes"}]}],"stateMutability":"pure"},{"type":"function","name":"getSkew","inputs":[{"name":"marketId","type":"uint128","internalType":"uint128"}],"outputs":[{"name":"","type":"int256","internalType":"SD59x18"}],"stateMutability":"view"},{"type":"function","name":"getSymbol","inputs":[{"name":"marketId","type":"uint128","internalType":"uint128"}],"outputs":[{"name":"","type":"string","internalType":"string"}],"stateMutability":"view"},{"type":"error","name":"PRBMath_MulDiv18_Overflow","inputs":[{"name":"x","type":"uint256","internalType":"uint256"},{"name":"y","type":"uint256","internalType":"uint256"}]},{"type":"error","name":"PRBMath_MulDiv_Overflow","inputs":[{"name":"x","type":"uint256","internalType":"uint256"},{"name":"y","type":"uint256","internalType":"uint256"},{"name":"denominator","type":"uint256","internalType":"uint256"}]},{"type":"error","name":"PRBMath_SD59x18_Abs_MinSD59x18","inputs":[]},{"type":"error","name":"PRBMath_SD59x18_Div_InputTooSmall","inputs":[]},{"type":"error","name":"PRBMath_SD59x18_Div_Overflow","inputs":[{"name":"x","type":"int256","internalType":"SD59x18"},{"name":"y","type":"int256","internalType":"SD59x18"}]},{"type":"error","name":"PRBMath_SD59x18_IntoUD60x18_Underflow","inputs":[{"name":"x","type":"int256","internalType":"SD59x18"}]},{"type":"error","name":"PRBMath_SD59x18_Mul_InputTooSmall","inputs":[]},{"type":"error","name":"PRBMath_SD59x18_Mul_Overflow","inputs":[{"name":"x","type":"int256","internalType":"SD59x18"},{"name":"y","type":"int256","internalType":"SD59x18"}]},{"type":"error","name":"PRBMath_UD60x18_Convert_Overflow","inputs":[{"name":"x","type":"uint256","internalType":"uint256"}]},{"type":"error","name":"PRBMath_UD60x18_IntoSD59x18_Overflow","inputs":[{"name":"x","type":"uint256","internalType":"UD60x18"}]},{"type":"error","name":"SafeCastOverflowedUintToInt","inputs":[{"name":"value","type":"uint256","internalType":"uint256"}]}],"bytecode":{"object":"0x6080604052348015600e575f80fd5b506113568061001c5f395ff3fe608060405234801561000f575f80fd5b50600436106100c4575f3560e01c8063554309cc1161007d578063b132c0fd11610058578063b132c0fd14610195578063c7185600146101a8578063e7f80b7d146101c8575f80fd5b8063554309cc1461015c5780636fa93cc11461016f57806399e567a014610182575f80fd5b80633d61d954116100ad5780633d61d9541461010e5780634a4655021461012157806354b38e4d14610134575f80fd5b8063020a460e146100c85780632b64d441146100ee575b5f80fd5b6100db6100d6366004611082565b6101f6565b6040519081526020015b60405180910390f35b6101016100fc366004611082565b610220565b6040516100e591906110de565b6100db61011c366004611082565b6102bc565b61010161012f366004611082565b6102ce565b610147610142366004611082565b6102e7565b6040516100e5999897969594939291906110f0565b6100db61016a366004611082565b61055e565b6100db61017d36600461116f565b610579565b6100db610190366004611082565b61059c565b6100db6101a3366004611082565b6105ae565b6101bb6101b636600461119f565b6105cb565b6040516100e591906111e4565b6101db6101d6366004611082565b610724565b604080519384526020840192909252908201526060016100e5565b5f61021a610203836107f1565b600a0154600160801b90046001600160801b031690565b92915050565b606061022b826107f1565b600601805461023990611270565b80601f016020809104026020016040519081016040528092919081815260200182805461026590611270565b80156102b05780601f10610287576101008083540402835291602001916102b0565b820191905f5260205f20905b81548152906001019060200180831161029357829003601f168201915b50505050509050919050565b5f61021a6102c9836107f1565b610890565b60606102d9826107f1565b600701805461023990611270565b6060805f805f805f8061031d60405180604001604052805f6001600160801b031681526020015f6001600160801b031681525090565b5f6103278b6107f1565b9050806006015f01805461033a90611270565b80601f016020809104026020016040519081016040528092919081815260200182805461036690611270565b80156103b15780601f10610388576101008083540402835291602001916103b1565b820191905f5260205f20905b81548152906001019060200180831161039457829003601f168201915b505050505099508060060160010180546103ca90611270565b80601f01602080910402602001604051908101604052809291908181526020018280546103f690611270565b80156104415780601f1061041857610100808354040283529160200191610441565b820191905f5260205f20905b81548152906001019060200180831161042457829003601f168201915b50505050509850806006016003015f9054906101000a90046001600160801b031697508060060160030160109054906101000a90046001600160801b03169650806006016004015f9054906101000a90046001600160801b031695508060060160040160109054906101000a90046001600160801b03169450806006016006015492508060060160050160109054906101000a90046001600160801b03169350806006016007016040518060400160405290815f82015f9054906101000a90046001600160801b03166001600160801b03166001600160801b031681526020015f820160109054906101000a90046001600160801b03166001600160801b03166001600160801b0316815250509150509193959799909294969850565b5f61021a61056b836107f1565b54600160801b9004600f0b90565b5f80610584856107f1565b90506105918184866108bc565b9150505b9392505050565b5f61021a6105a9836107f1565b610974565b5f61021a6105bb836107f1565b600a01546001600160801b031690565b6040805160a0810182525f8082526020820181905291810182905260608082019290925260808101919091526106018383610a17565b6040805160a081019091528154909190829060ff168015610624576106246111d0565b8015610632576106326111d0565b81528154610100810460ff161515602083015262010000810469ffffffffffffffffffff1660408301526c01000000000000000000000000900473ffffffffffffffffffffffffffffffffffffffff16606082015260018201805460809092019161069c90611270565b80601f01602080910402602001604051908101604052809291908181526020018280546106c890611270565b80156107135780601f106106ea57610100808354040283529160200191610713565b820191905f5260205f20905b8154815290600101906020018083116106f657829003601f168201915b505050505081525050905092915050565b5f805f80610731856107f1565b90505f610752671bc16d674ec800008354600160801b9004600f0b90610abe565b60018301549091505f90610773906001600160801b0316610bc0565b610bc0565b90505f61078882671bc16d674ec80000610abe565b905061079c5f6107988386610c06565b1290565b6107b7576107b26107ad8285610c06565b610c14565b6107b9565b5f5b96506107d96107ad6107d4856107ce85610c53565b90610c06565b610c60565b95506107e58787610cb8565b96989597505050505050565b5f8060ff1961082160017f7391160f00c346d035658daa8a3c1eb1fa2f98b67b37275a9487390ac54b119f6112bc565b60405160200161083391815260200190565b60405160208183030381529060405280519060200120168360405160200161086e9291909182526001600160801b0316602082015260400190565b60408051601f1981840301815291905280516020909101209392505050565b90565b5f61021a6108b26108a361076e85610cc6565b6108ac85610974565b90610cee565b60038401546107ce565b5f806108d161088d8660060160060154610dbd565b8554909150600160801b9004600f0b5f6108eb8284610abe565b90505f6108f88388610c06565b90505f6109058286610abe565b90505f61091188610bc0565b90505f61092b6107ad6109248488610cee565b8490610c06565b90505f6109456107ad61093e8587610cee565b8590610c06565b90506109646109546002610e06565b61095e8484610cb8565b90610e64565b9c9b505050505050505050505050565b600b8101545f9081906109939061088d906001600160801b0316610dbd565b90505f6109a961088d8560060160060154610dbd565b8454909150600160801b9004600f0b816109c757505f949350505050565b5f6109d28284610abe565b90505f610a006109f26109ec670de0b6b3a7640000610c53565b84610e7b565b670de0b6b3a7640000610e91565b9050610a0c8186610cee565b979650505050505050565b5f8060ff19610a4760017f4afdb43bc86b99e946919eed9b94acdb0f56ab4974b93329a1618862786cae326112bc565b604051602001610a5991815260200190565b60405160208183030381529060405280519060200120168484604051602001610a9e939291909283526001600160801b03918216602084015216604082015260600190565b60408051601f198184030181529190528051602090910120949350505050565b5f8282600160ff1b821480610ad65750600160ff1b81145b15610b0d576040517f9fe2b45000000000000000000000000000000000000000000000000000000000815260040160405180910390fd5b5f805f8412610b1c5783610b20565b835f035b91505f8312610b2f5782610b33565b825f035b90505f610b4983670de0b6b3a764000084610e9a565b90506001600160ff1b03811115610b9b576040517fd49c26b300000000000000000000000000000000000000000000000000000000815260048101899052602481018890526044015b60405180910390fd5b5f1985851813610bb381610baf57825f0390565b8290565b9998505050505050505050565b5f816001600160ff1b0381111561021a576040517ff461868400000000000000000000000000000000000000000000000000000000815260048101849052602401610b92565b5f61059561088d83856112cf565b5f818181121561021a576040517fbba41a1500000000000000000000000000000000000000000000000000000000815260048101849052602401610b92565b5f61021a61088d836112f6565b5f81600160ff1b8101610c9f576040517fec2b9e6700000000000000000000000000000000000000000000000000000000815260040160405180910390fd5b5f8112610cac5782610595565b61059561088d826112f6565b5f61059561088d8385611310565b5f61021a610cd662015180610e06565b61095e846005015442610ce991906112bc565b610e06565b5f8282600160ff1b821480610d065750600160ff1b81145b15610d3d576040517fa6070c2500000000000000000000000000000000000000000000000000000000815260040160405180910390fd5b5f805f8412610d4c5783610d50565b835f035b91505f8312610d5f5782610d63565b825f035b90505f610d708383610f82565b90506001600160ff1b03811115610b9b576040517f120b5b430000000000000000000000000000000000000000000000000000000081526004810189905260248101889052604401610b92565b5f6001600160ff1b03821115610e02576040517f24775e0600000000000000000000000000000000000000000000000000000000815260048101839052602401610b92565b5090565b5f610e1a670de0b6b3a76400005f19611337565b821115610e56576040517f1cd951a700000000000000000000000000000000000000000000000000000000815260048101839052602401610b92565b50670de0b6b3a76400000290565b5f61059561088d84670de0b6b3a764000085610e9a565b5f8282125b610e8a5781610595565b5090919050565b5f828213610e80565b5f80805f19858709858702925082811083820303915050805f03610ed157838281610ec757610ec7611323565b0492505050610595565b838110610f1b576040517f63a05778000000000000000000000000000000000000000000000000000000008152600481018790526024810186905260448101859052606401610b92565b5f8486880960026001871981018816978890046003810283188082028403028082028403028082028403028082028403028082028403029081029092039091025f889003889004909101858311909403939093029303949094049190911702949350505050565b5f80805f19848609848602925082811083820303915050805f03610fb35750670de0b6b3a76400009004905061021a565b670de0b6b3a76400008110610ffe576040517f5173648d0000000000000000000000000000000000000000000000000000000081526004810186905260248101859052604401610b92565b5f670de0b6b3a7640000858709620400008185030493109091037d40000000000000000000000000000000000000000000000000000000000002919091177faccb18165bd6fe31ae1cf318dc5b51eee0e1ba569b88cd74c1773b91fac106690291505092915050565b80356001600160801b038116811461107d575f80fd5b919050565b5f60208284031215611092575f80fd5b61059582611067565b5f81518084525f5b818110156110bf576020818501810151868301820152016110a3565b505f602082860101526020601f19601f83011685010191505092915050565b602081525f610595602083018461109b565b5f6101408083526111038184018d61109b565b90508281036020840152611117818c61109b565b6001600160801b039a8b166040850152988a1660608401525050948716608086015292861660a085015290851660c084015260e083015280518416610100830152602001519092166101209092019190915292915050565b5f805f60608486031215611181575f80fd5b61118a84611067565b95602085013595506040909401359392505050565b5f80604083850312156111b0575f80fd5b6111b983611067565b91506111c760208401611067565b90509250929050565b634e487b7160e01b5f52602160045260245ffd5b602081525f82516001811061120757634e487b7160e01b5f52602160045260245ffd5b8060208401525060208301511515604083015269ffffffffffffffffffff604084015116606083015273ffffffffffffffffffffffffffffffffffffffff6060840151166080830152608083015160a08084015261126860c084018261109b565b949350505050565b600181811c9082168061128457607f821691505b6020821081036112a257634e487b7160e01b5f52602260045260245ffd5b50919050565b634e487b7160e01b5f52601160045260245ffd5b8181038181111561021a5761021a6112a8565b8082018281125f8312801582168215821617156112ee576112ee6112a8565b505092915050565b5f600160ff1b820361130a5761130a6112a8565b505f0390565b8082018082111561021a5761021a6112a8565b634e487b7160e01b5f52601260045260245ffd5b5f8261135157634e487b7160e01b5f52601260045260245ffd5b50049056","linkReferences":{}},"methodIdentifiers":{"getFundingRate(uint128)":"3d61d954","getFundingVelocity(uint128)":"99e567a0","getMarkPrice(uint128,uint256,int256)":"6fa93cc1","getMaxOpenInterest(uint128)":"b132c0fd","getMaxSkew(uint128)":"020a460e","getName(uint128)":"2b64d441","getOpenInterest(uint128)":"e7f80b7d","getPerpMarketConfiguration(uint128)":"54b38e4d","getSettlementConfiguration(uint128,uint128)":"c7185600","getSkew(uint128)":"554309cc","getSymbol(uint128)":"4a465502"},"id":150}