{"abi":[{"type":"constructor","inputs":[{"name":"decimals_","type":"uint8","internalType":"uint8"},{"name":"price_","type":"int256","internalType":"int256"}],"stateMutability":"nonpayable"},{"type":"function","name":"aggregator","inputs":[],"outputs":[{"name":"","type":"address","internalType":"address"}],"stateMutability":"view"},{"type":"function","name":"decimals","inputs":[],"outputs":[{"name":"","type":"uint8","internalType":"uint8"}],"stateMutability":"view"},{"type":"function","name":"latestRoundData","inputs":[],"outputs":[{"name":"roundId","type":"uint80","internalType":"uint80"},{"name":"answer","type":"int256","internalType":"int256"},{"name":"startedAt","type":"uint256","internalType":"uint256"},{"name":"updatedAt","type":"uint256","internalType":"uint256"},{"name":"answeredInRound","type":"uint80","internalType":"uint80"}],"stateMutability":"view"},{"type":"function","name":"updateMockAggregator","inputs":[{"name":"min","type":"int256","internalType":"int256"},{"name":"max","type":"int256","internalType":"int256"}],"outputs":[],"stateMutability":"nonpayable"},{"type":"function","name":"updateMockPrice","inputs":[{"name":"newPrice","type":"uint256","internalType":"uint256"}],"outputs":[],"stateMutability":"nonpayable"}],"bytecode":{"object":"0x608060405234801561000f575f80fd5b5060405161073c38038061073c83398101604081905261002e916100c5565b5f805460ff191660ff8416178155600182815561004b908361010a565b6001805461005891610130565b604051610064906100b8565b601792830b8152910b6020820152604001604051809103905ff08015801561008e573d5f803e3d5ffd5b50600280546001600160a01b0319166001600160a01b039290921691909117905550610157915050565b610198806105a483390190565b5f80604083850312156100d6575f80fd5b825160ff811681146100e6575f80fd5b6020939093015192949293505050565b634e487b7160e01b5f52601160045260245ffd5b8181035f831280158383131683831282161715610129576101296100f6565b5092915050565b8082018281125f83128015821682158216171561014f5761014f6100f6565b505092915050565b610440806101645f395ff3fe608060405234801561000f575f80fd5b5060043610610064575f3560e01c8063313ce5671161004d578063313ce567146100aa57806333d2debe146100be578063feaf968c146100d1575f80fd5b806319af783e14610068578063245a7bfc1461007d575b5f80fd5b61007b610076366004610217565b610100565b005b60025460405173ffffffffffffffffffffffffffffffffffffffff90911681526020015b60405180910390f35b5f5460405160ff90911681526020016100a1565b61007b6100cc36600461022e565b610191565b600154604080515f8082526020820193909352908101829052426060820152608081019190915260a0016100a1565b60018181555f90610111908361027b565b61011c836001610294565b6040516101289061020a565b601792830b8152910b6020820152604001604051809103905ff080158015610152573d5f803e3d5ffd5b506002805473ffffffffffffffffffffffffffffffffffffffff191673ffffffffffffffffffffffffffffffffffffffff929092169190911790555050565b5f82826040516101a09061020a565b601792830b8152910b6020820152604001604051809103905ff0801580156101ca573d5f803e3d5ffd5b506002805473ffffffffffffffffffffffffffffffffffffffff191673ffffffffffffffffffffffffffffffffffffffff92909216919091179055505050565b610198806102a883390190565b5f60208284031215610227575f80fd5b5035919050565b5f806040838503121561023f575f80fd5b50508035926020909101359150565b7f4e487b71000000000000000000000000000000000000000000000000000000005f52601160045260245ffd5b8181038181111561028e5761028e61024e565b92915050565b8082018082111561028e5761028e61024e56fe60c0604052348015600e575f80fd5b50604051610198380380610198833981016040819052602b916051565b601791820b608052900b60a052607d565b8051601781900b8114604c575f80fd5b919050565b5f80604083850312156061575f80fd5b606883603c565b9150607460208401603c565b90509250929050565b60805160a05160f26100a65f395f81816083015260aa01525f8181604a015260d0015260f25ff3fe6080604052348015600e575f80fd5b50600436106044575f3560e01c806322adbc7814604857806370da2f671460815780638e5c48591460a6578063e4268cb71460cc575b5f80fd5b7f00000000000000000000000000000000000000000000000000000000000000005b60405160179190910b815260200160405180910390f35b7f0000000000000000000000000000000000000000000000000000000000000000606a565b606a7f000000000000000000000000000000000000000000000000000000000000000081565b606a7f0000000000000000000000000000000000000000000000000000000000000000815660c0604052348015600e575f80fd5b50604051610198380380610198833981016040819052602b916051565b601791820b608052900b60a052607d565b8051601781900b8114604c575f80fd5b919050565b5f80604083850312156061575f80fd5b606883603c565b9150607460208401603c565b90509250929050565b60805160a05160f26100a65f395f81816083015260aa01525f8181604a015260d0015260f25ff3fe6080604052348015600e575f80fd5b50600436106044575f3560e01c806322adbc7814604857806370da2f671460815780638e5c48591460a6578063e4268cb71460cc575b5f80fd5b7f00000000000000000000000000000000000000000000000000000000000000005b60405160179190910b815260200160405180910390f35b7f0000000000000000000000000000000000000000000000000000000000000000606a565b606a7f000000000000000000000000000000000000000000000000000000000000000081565b606a7f00000000000000000000000000000000000000000000000000000000000000008156","linkReferences":{}},"methodIdentifiers":{"aggregator()":"245a7bfc","decimals()":"313ce567","latestRoundData()":"feaf968c","updateMockAggregator(int256,int256)":"33d2debe","updateMockPrice(uint256)":"19af783e"},"id":257}