{"abi":[{"type":"function","name":"exposed_TradingAccount_loadExisting","inputs":[{"name":"tradingAccountId","type":"uint128","internalType":"uint128"}],"outputs":[],"stateMutability":"view"},{"type":"function","name":"exposed_create","inputs":[{"name":"tradingAccountId","type":"uint128","internalType":"uint128"},{"name":"owner","type":"address","internalType":"address"}],"outputs":[],"stateMutability":"nonpayable"},{"type":"function","name":"exposed_deductAccountMargin","inputs":[{"name":"tradingAccountId","type":"uint128","internalType":"uint128"},{"name":"feeRecipients","type":"tuple","internalType":"struct FeeRecipients.Data","components":[{"name":"marginCollateralRecipient","type":"address","internalType":"address"},{"name":"orderFeeRecipient","type":"address","internalType":"address"},{"name":"settlementFeeRecipient","type":"address","internalType":"address"}]},{"name":"pnlUsdX18","type":"uint256","internalType":"UD60x18"},{"name":"settlementFeeUsdX18","type":"uint256","internalType":"UD60x18"},{"name":"orderFeeUsdX18","type":"uint256","internalType":"UD60x18"}],"outputs":[{"name":"","type":"uint256","internalType":"UD60x18"}],"stateMutability":"nonpayable"},{"type":"function","name":"exposed_deposit","inputs":[{"name":"tradingAccountId","type":"uint128","internalType":"uint128"},{"name":"collateralType","type":"address","internalType":"address"},{"name":"amount","type":"uint256","internalType":"UD60x18"}],"outputs":[],"stateMutability":"nonpayable"},{"type":"function","name":"exposed_getAccontUnrealizedPnlUsd","inputs":[{"name":"tradingAccountId","type":"uint128","internalType":"uint128"}],"outputs":[{"name":"","type":"int256","internalType":"SD59x18"}],"stateMutability":"view"},{"type":"function","name":"exposed_getAccountMarginRequirementUsdAndUnrealizedPnlUsd","inputs":[{"name":"tradingAccountId","type":"uint128","internalType":"uint128"},{"name":"targetMarketId","type":"uint128","internalType":"uint128"},{"name":"sizeDeltaX18","type":"int256","internalType":"SD59x18"}],"outputs":[{"name":"","type":"uint256","internalType":"UD60x18"},{"name":"","type":"uint256","internalType":"UD60x18"},{"name":"","type":"int256","internalType":"SD59x18"}],"stateMutability":"view"},{"type":"function","name":"exposed_getEquityUsd","inputs":[{"name":"tradingAccountId","type":"uint128","internalType":"uint128"},{"name":"activePositionsUnrealizedPnlUsdX18","type":"int256","internalType":"SD59x18"}],"outputs":[{"name":"","type":"int256","internalType":"SD59x18"}],"stateMutability":"view"},{"type":"function","name":"exposed_getMarginBalanceUsd","inputs":[{"name":"tradingAccountId","type":"uint128","internalType":"uint128"},{"name":"activePositionsUnrealizedPnlUsdX18","type":"int256","internalType":"SD59x18"}],"outputs":[{"name":"","type":"int256","internalType":"SD59x18"}],"stateMutability":"view"},{"type":"function","name":"exposed_getMarginCollateralBalance","inputs":[{"name":"tradingAccountId","type":"uint128","internalType":"uint128"},{"name":"collateralType","type":"address","internalType":"address"}],"outputs":[{"name":"","type":"uint256","internalType":"UD60x18"}],"stateMutability":"view"},{"type":"function","name":"exposed_isLiquidatable","inputs":[{"name":"requiredMaintenanceMarginUsdX18","type":"uint256","internalType":"UD60x18"},{"name":"marginBalanceUsdX18","type":"int256","internalType":"SD59x18"}],"outputs":[{"name":"","type":"bool","internalType":"bool"}],"stateMutability":"pure"},{"type":"function","name":"exposed_loadExistingAccountAndVerifySender","inputs":[{"name":"tradingAccountId","type":"uint128","internalType":"uint128"}],"outputs":[],"stateMutability":"view"},{"type":"function","name":"exposed_updateActiveMarkets","inputs":[{"name":"tradingAccountId","type":"uint128","internalType":"uint128"},{"name":"marketId","type":"uint128","internalType":"uint128"},{"name":"oldPositionSize","type":"int256","internalType":"SD59x18"},{"name":"newPositionSize","type":"int256","internalType":"SD59x18"}],"outputs":[],"stateMutability":"nonpayable"},{"type":"function","name":"exposed_validateMarginRequirements","inputs":[{"name":"tradingAccountId","type":"uint128","internalType":"uint128"},{"name":"requiredMarginUsdX18","type":"uint256","internalType":"UD60x18"},{"name":"marginBalanceUsdX18","type":"int256","internalType":"SD59x18"},{"name":"totalFeesUsdX18","type":"uint256","internalType":"UD60x18"}],"outputs":[],"stateMutability":"view"},{"type":"function","name":"exposed_validatePositionsLimit","inputs":[{"name":"tradingAccountId","type":"uint128","internalType":"uint128"}],"outputs":[],"stateMutability":"view"},{"type":"function","name":"exposed_verifySender","inputs":[{"name":"tradingAccountId","type":"uint128","internalType":"uint128"}],"outputs":[],"stateMutability":"view"},{"type":"function","name":"exposed_withdraw","inputs":[{"name":"tradingAccountId","type":"uint128","internalType":"uint128"},{"name":"collateralType","type":"address","internalType":"address"},{"name":"amount","type":"uint256","internalType":"UD60x18"}],"outputs":[],"stateMutability":"nonpayable"},{"type":"function","name":"exposed_withdrawMarginUsd","inputs":[{"name":"tradingAccountId","type":"uint128","internalType":"uint128"},{"name":"collateralType","type":"address","internalType":"address"},{"name":"marginCollateralPriceUsdX18","type":"uint256","internalType":"UD60x18"},{"name":"amountUsdX18","type":"uint256","internalType":"UD60x18"},{"name":"recipient","type":"address","internalType":"address"}],"outputs":[{"name":"","type":"uint256","internalType":"UD60x18"},{"name":"","type":"bool","internalType":"bool"}],"stateMutability":"nonpayable"},{"type":"function","name":"workaround_getActiveMarketId","inputs":[{"name":"tradingAccountId","type":"uint128","internalType":"uint128"},{"name":"index","type":"uint128","internalType":"uint128"}],"outputs":[{"name":"","type":"uint128","internalType":"uint128"}],"stateMutability":"view"},{"type":"function","name":"workaround_getActiveMarketsIdsLength","inputs":[{"name":"tradingAccountId","type":"uint128","internalType":"uint128"}],"outputs":[{"name":"","type":"uint256","internalType":"uint256"}],"stateMutability":"view"},{"type":"function","name":"workaround_getIfMarginCollateralBalanceX18ContainsTheCollateral","inputs":[{"name":"tradingAccountId","type":"uint128","internalType":"uint128"},{"name":"collateral","type":"address","internalType":"address"}],"outputs":[{"name":"","type":"bool","internalType":"bool"}],"stateMutability":"view"},{"type":"function","name":"workaround_getNonce","inputs":[{"name":"tradingAccountId","type":"uint128","internalType":"uint128"}],"outputs":[{"name":"","type":"uint128","internalType":"uint128"}],"stateMutability":"view"},{"type":"function","name":"workaround_hasOffchainOrderBeenFilled","inputs":[{"name":"tradingAccountId","type":"uint128","internalType":"uint128"},{"name":"offchainOrderHash","type":"bytes32","internalType":"bytes32"}],"outputs":[{"name":"","type":"bool","internalType":"bool"}],"stateMutability":"view"},{"type":"error","name":"AccountNotFound","inputs":[{"name":"tradingAccountId","type":"uint128","internalType":"uint128"},{"name":"sender","type":"address","internalType":"address"}]},{"type":"error","name":"AccountPermissionDenied","inputs":[{"name":"tradingAccountId","type":"uint128","internalType":"uint128"},{"name":"sender","type":"address","internalType":"address"}]},{"type":"error","name":"AddressEmptyCode","inputs":[{"name":"target","type":"address","internalType":"address"}]},{"type":"error","name":"AddressInsufficientBalance","inputs":[{"name":"account","type":"address","internalType":"address"}]},{"type":"error","name":"CollateralPriceFeedNotDefined","inputs":[]},{"type":"error","name":"FailedInnerCall","inputs":[]},{"type":"error","name":"GracePeriodNotOver","inputs":[]},{"type":"error","name":"InsufficientMargin","inputs":[{"name":"tradingAccountId","type":"uint128","internalType":"uint128"},{"name":"marginBalanceUsdX18","type":"int256","internalType":"int256"},{"name":"requiredMarginUsdX18","type":"uint256","internalType":"uint256"},{"name":"totalFeesUsdX18","type":"uint256","internalType":"uint256"}]},{"type":"error","name":"InvalidOracleReturn","inputs":[]},{"type":"error","name":"InvalidSequencerUptimeFeedReturn","inputs":[]},{"type":"error","name":"MaxPositionsPerAccountReached","inputs":[{"name":"tradingAccountId","type":"uint128","internalType":"uint128"},{"name":"activePositionsLength","type":"uint256","internalType":"uint256"},{"name":"maxPositionsPerAccount","type":"uint256","internalType":"uint256"}]},{"type":"error","name":"OraclePriceFeedHeartbeat","inputs":[{"name":"priceFeed","type":"address","internalType":"address"}]},{"type":"error","name":"OraclePriceFeedOutOfRange","inputs":[{"name":"priceFeed","type":"address","internalType":"address"}]},{"type":"error","name":"OracleSequencerUptimeFeedIsDown","inputs":[{"name":"sequencerUptimeFeed","type":"address","internalType":"address"}]},{"type":"error","name":"PRBMath_MulDiv18_Overflow","inputs":[{"name":"x","type":"uint256","internalType":"uint256"},{"name":"y","type":"uint256","internalType":"uint256"}]},{"type":"error","name":"PRBMath_MulDiv_Overflow","inputs":[{"name":"x","type":"uint256","internalType":"uint256"},{"name":"y","type":"uint256","internalType":"uint256"},{"name":"denominator","type":"uint256","internalType":"uint256"}]},{"type":"error","name":"PRBMath_SD59x18_Abs_MinSD59x18","inputs":[]},{"type":"error","name":"PRBMath_SD59x18_Convert_Overflow","inputs":[{"name":"x","type":"int256","internalType":"int256"}]},{"type":"error","name":"PRBMath_SD59x18_Convert_Underflow","inputs":[{"name":"x","type":"int256","internalType":"int256"}]},{"type":"error","name":"PRBMath_SD59x18_Div_InputTooSmall","inputs":[]},{"type":"error","name":"PRBMath_SD59x18_Div_Overflow","inputs":[{"name":"x","type":"int256","internalType":"SD59x18"},{"name":"y","type":"int256","internalType":"SD59x18"}]},{"type":"error","name":"PRBMath_SD59x18_IntoUD60x18_Underflow","inputs":[{"name":"x","type":"int256","internalType":"SD59x18"}]},{"type":"error","name":"PRBMath_SD59x18_Mul_InputTooSmall","inputs":[]},{"type":"error","name":"PRBMath_SD59x18_Mul_Overflow","inputs":[{"name":"x","type":"int256","internalType":"SD59x18"},{"name":"y","type":"int256","internalType":"SD59x18"}]},{"type":"error","name":"PRBMath_UD60x18_Convert_Overflow","inputs":[{"name":"x","type":"uint256","internalType":"uint256"}]},{"type":"error","name":"PRBMath_UD60x18_IntoSD59x18_Overflow","inputs":[{"name":"x","type":"uint256","internalType":"UD60x18"}]},{"type":"error","name":"PriceAdapterNotDefined","inputs":[{"name":"marketId","type":"uint128","internalType":"uint128"}]},{"type":"error","name":"SafeCastOverflowedIntToUint","inputs":[{"name":"value","type":"int256","internalType":"int256"}]},{"type":"error","name":"SafeCastOverflowedUintDowncast","inputs":[{"name":"bits","type":"uint8","internalType":"uint8"},{"name":"value","type":"uint256","internalType":"uint256"}]},{"type":"error","name":"SafeCastOverflowedUintToInt","inputs":[{"name":"value","type":"uint256","internalType":"uint256"}]},{"type":"error","name":"SafeERC20FailedOperation","inputs":[{"name":"token","type":"address","internalType":"address"}]}],"bytecode":{"object":"0x6080604052348015600e575f80fd5b50612d278061001c5f395ff3fe608060405234801561000f575f80fd5b5060043610610179575f3560e01c80637d0e7a04116100d25780638c77086811610088578063c1c7cc0811610063578063c1c7cc081461033e578063eff3dde714610366578063f05be89b14610379575f80fd5b80638c770868146103055780639676597414610318578063a0ee18871461032b575f80fd5b806381d89274116100b857806381d89274146102bc57806385ffe573146102df5780638a89f781146102f2575f80fd5b80637d0e7a04146102965780637f03aaed146102a9575f80fd5b8063531f6f481161013257806364c7e6181161010d57806364c7e6181461025d57806376b184f5146102705780637756678e14610283575f80fd5b8063531f6f481461022457806356dd1716146102375780635faf6a2a1461024a575f80fd5b8063456a3cbd11610162578063456a3cbd146101c557806348204f66146101d85780634ca0acf1146101f9575f80fd5b80630900f5c71461017d5780632fc26eda14610192575b5f80fd5b61019061018b36600461272f565b61038c565b005b6101a56101a0366004612764565b61039b565b604080519384526020840192909252908201526060015b60405180910390f35b6101906101d336600461279d565b6103c5565b6101eb6101e63660046127d3565b6103e4565b6040519081526020016101bc565b61020c6102073660046127fb565b610405565b6040516001600160801b0390911681526020016101bc565b61019061023236600461282c565b610428565b61020c610245366004612868565b610445565b610190610258366004612868565b610468565b61019061026b366004612868565b610474565b61019061027e366004612881565b61048d565b6101eb6102913660046128c0565b6104a5565b6101906102a4366004612868565b6104ca565b6101eb6102b736600461272f565b6104d3565b6102cf6102ca3660046127d3565b6104ea565b60405190151581526020016101bc565b6102cf6102ed36600461272f565b61050e565b6101eb610300366004612868565b610528565b6101eb610313366004612868565b610548565b610190610326366004612868565b61055e565b6101eb6103393660046127d3565b610567565b61035161034c366004612978565b61057e565b604080519283529015156020830152016101bc565b6102cf6103743660046129d1565b6105a8565b61019061038736600461282c565b6105b3565b61039682826105ca565b505050565b5f805f806103a887610648565b90506103b58187876106e4565b9350935093505093509350939050565b5f6103cf85610648565b90506103dd81858585610924565b5050505050565b5f806103ef84610648565b90506103fb818461099d565b9150505b92915050565b5f8061041084610648565b90506103fb600582016001600160801b038516610a16565b5f61043284610648565b905061043f818484610a21565b50505050565b5f8061045083610648565b54600160801b90046001600160801b03169392505050565b61047181610a76565b50565b5f61047e82610648565b905061048981610ada565b5050565b5f61049785610648565b90506103dd81858585610b55565b5f806104b087610648565b90506104bf8187878787610c22565b979650505050505050565b61048981610e39565b5f806104de84610648565b90506103fb8184610ea0565b5f806104f584610648565b5f9384526007016020525050604090205460ff16919050565b5f8061051984610eb9565b90506103fb6002820184610ece565b5f8061053383610648565b905061054181600501610ee2565b9392505050565b5f8061055383610648565b905061054181610eeb565b61048981610eb9565b5f8061057284610648565b90506103fb8184610fca565b5f805f61058a88610648565b90506105998188888888611051565b92509250509550959350505050565b5f6105418383611101565b5f6105bd84610648565b905061043f81848461110f565b5f6105d483610648565b80547fffffffffffffffffffffffffffffffff00000000000000000000000000000000166001600160801b0394909416939093178355506001820180547fffffffffffffffffffffffff0000000000000000000000000000000000000000166001600160a01b039290921691909117905590565b5f8060ff1961067860017f8d53eef876fe0bd8a1041a9151a1ff19778efab77c8e1ac1a9b867962feb87e5612a05565b60405160200161068a91815260200190565b6040516020818303038152906040528051906020012016836040516020016106c59291909182526001600160801b0316602082015260400190565b60408051601f1981840301815291905280516020909101209392505050565b5f80806001600160801b038516156107fc575f61070086611169565b87549091505f9061071a906001600160801b031688611199565b90505f6107328761072a85611240565b8591906112e0565b90505f61074961074185611398565b8590846113c4565b90505f61077a8361077461076f61076a8d6107648a5f015490565b906113e5565b6113f3565b61144b565b9061148a565b60098601549091505f9081906107b09084906001600160801b03165b60098a0154600160801b90046001600160801b0316611498565b90925090505f6107cd6107c388876114ba565b61076489896114e8565b90506107d98b84611516565b9a506107e58a83611516565b99506107f189826113e5565b985050505050505050505b5f61080987600501610ee2565b90505f5b81811015610919575f61082b61082660058b0184610a16565b611524565b9050876001600160801b0316816001600160801b03160361084c5750610911565b5f61085682611169565b8a549091505f90610870906001600160801b031684611199565b90505f610892610889835f015461088690612a18565b90565b61072a85611240565b90505f6108a161074185611398565b90505f6108ae8484611574565b60098601549091505f9081906108ce9084906001600160801b0316610796565b90925090505f6108e16107c388876114ba565b90506108ed8e84611516565b9d506108f98d83611516565b9c506109058c826113e5565b9b505050505050505050505b60010161080d565b505093509350939050565b61093e8261093a6109358685611516565b611589565b1390565b1561043f5783546040517f4b2d3acd0000000000000000000000000000000000000000000000000000000081526001600160801b0390911660048201526024810183905260448101849052606481018290526084015b60405180910390fd5b5f806109ab846002016115cf565b90505f5b81811015610a0b575f806109c660028801846115d9565b915091505f6109d4836115f6565b90505f6109e48361077484611673565b90506109f96109f282611589565b88906113e5565b965050600190930192506109af915050565b506103fb82846113e5565b5f61054183836116f0565b600283015f610a3a83610a348787610ea0565b90611516565b9050610a4a84825b849190611716565b505f610a55856115f6565b9050610a6961088685610a34846002015490565b6002909101555050505050565b5f610a8082610648565b60018101549091506001600160a01b03163314610489576040517f38d64a200000000000000000000000000000000000000000000000000000000081526001600160801b0383166004820152336024820152604401610994565b5f610ae361172b565b80549091506001600160801b03165f610afe60058501610ee2565b905081811061043f5783546040517fa21b4c9e0000000000000000000000000000000000000000000000000000000081526001600160801b0390911660048201526024810182905260448101839052606401610994565b5f610b5e61172b565b905082158015610b6d57508115155b15610bc6578454610b8b90600f8301906001600160801b031661178c565b610baa578454610ba890600f8301906001600160801b03166117a3565b505b610bc0600586016001600160801b0386166117a3565b506103dd565b8215158015610bd3575081155b156103dd57610bee600586016001600160801b0386166117ae565b50610bfb85600501610ee2565b5f036103dd578454610c1a90600f8301906001600160801b03166117ae565b505050505050565b5f610c5e6040518060e001604052805f81526020015f81526020015f81526020015f81526020015f151581526020015f81526020015f81525090565b5f610c6761172b565b90505f610c7682600b01610ee2565b90505f5b81811015610e08575f610c90600b850183610a16565b90505f610c9c826115f6565b9050610ca88c83610ea0565b808752610cb6575050610e00565b610cbf81611673565b60208701528815158015610cd65750604086015189115b15610d2857610d068c838860200151610cfc8a604001518e6117b990919063ffffffff16565b8f60400151611051565b15156080880152606087018190526040870151610d2291611516565b60408701525b8715158015610d3a575060a086015188115b15610d8c57610d6a8c838860200151610d608a60a001518d6117b990919063ffffffff16565b8f60200151611051565b151560808801526060870181905260a0870151610d8691611516565b60a08701525b8915158015610d9e575060c08601518a115b15610ded57610dcb8c838860200151610dc48a60c001518f6117b990919063ffffffff16565b8f51611051565b151560808801526060870181905260c0870151610de791611516565b60c08701525b8560800151610dfd575050610e08565b50505b600101610c7a565b50610e2c8360c00151610a348560a00151866040015161151690919063ffffffff16565b9998505050505050505050565b5f610e4382610648565b60018101549091506001600160a01b0316610e9b576040517f3a947e910000000000000000000000000000000000000000000000000000000081526001600160801b0383166004820152336024820152604401610994565b919050565b5f80610eaf60028501846117c7565b9150506103fb8190565b5f610ec382610e39565b9050610e9b82610a76565b5f610541836001600160a01b0384166117de565b5f6103ff825490565b5f80610ef983600501610ee2565b90505f5b81811015610fc3575f610f166108266005870184610a16565b90505f610f2282611169565b86549091505f90610f3c906001600160801b031684611199565b90505f610f4883611240565b90505f610f68610f60610f5b855f015490565b6117e9565b8590846112e0565b90505f610f7485611398565b90505f610f828683856113c4565b90505f610f8f86836114ba565b90505f610f9c87866114e8565b9050610fac826107648e846113e5565b9b505060019098019750610efd9650505050505050565b5050919050565b5f80610fd8846002016115cf565b90505f5b81811015610a0b575f80610ff360028801846115d9565b915091505f611001836115f6565b80549091505f9061103190600160801b90046effffffffffffffffffffffffffffff166107748561077486611673565b905061103f6109f282611589565b96505060019093019250610fdc915050565b5f805f61105d876115f6565b90505f61106a8989610ea0565b90505f61107787896117f6565b90505f8282116110b75761108c8b8b8461110f565b611096848361180d565b90506110ac6001600160a01b038b168883611855565b8795505f94506110f3565b6110c28b8b8561110f565b6110cc848461180d565b90506110e26001600160a01b038b168883611855565b6110ec898461148a565b9550600194505b505050509550959350505050565b5f6105418261093a85611589565b600283015f611128836111228787610ea0565b906117b9565b90508061113f5761113982856118d5565b5061114b565b6111498482610a42565b505b5f611155856115f6565b9050610a6961088685611122846002015490565b5f8060ff1961067860017f7391160f00c346d035658daa8a3c1eb1fa2f98b67b37275a9487390ac54b119f612a05565b5f8060ff196111c960017f1bc067b952a51a4aceed0c94957339255c9d9ec48f1c55db3cdc6194155caa15612a05565b6040516020016111db91815260200190565b60405160208183030381529060405280519060200120168484604051602001611220939291909283526001600160801b03918216602084015216604082015260600190565b60408051601f198184030181529190528051602090910120949350505050565b6008810154600e8201545f916001600160a01b03169063ffffffff168261126561172b565b465f9081526011820160205260409020549091506001600160a01b039081169084166112cb5785546040517f2fb06fb40000000000000000000000000000000000000000000000000000000081526001600160801b039091166004820152602401610994565b6112d68484836118e9565b9695505050505050565b5f806112f56108868660060160060154611d2d565b8554909150600160801b9004600f0b5f61130f8284611d72565b90505f61131c83886113e5565b90505f6113298286611d72565b90505f61133588611589565b90505f61134f61076f6113488488611e64565b84906113e5565b90505f61136961076f6113628587611e64565b85906113e5565b90506113886113786002611f33565b6113828484611516565b906117f6565b9c9b505050505050505050505050565b5f6103ff6113ba6113ab61093585611f91565b6113b485611fb9565b90611e64565b6003840154610764565b5f6113dd6113d3858585612051565b6004860154610764565b949350505050565b5f6105416108868385612a32565b5f81600160ff1b8101611432576040517fec2b9e6700000000000000000000000000000000000000000000000000000000815260040160405180910390fd5b5f811261143f5782610541565b61054161088682612a18565b5f81818112156103ff576040517fbba41a1500000000000000000000000000000000000000000000000000000000815260048101849052602401610994565b5f61054161088684846120a5565b5f806114a4858561148a565b91506114b0858461148a565b9050935093915050565b60018201545f9081906114d890600160801b9004600f0b849061218a565b90506103fb816113b4865f015490565b60018201545f9081906114d890611507906001600160801b0316611589565b61151085611589565b9061218a565b5f6105416108868385612a59565b5f6001600160801b03821115611570576040517f6dfcc6500000000000000000000000000000000000000000000000000000000081526080600482015260248101839052604401610994565b5090565b5f6105418261077461076f61076a875f015490565b5f816001600160ff1b038111156103ff576040517ff461868400000000000000000000000000000000000000000000000000000000815260048101849052602401610994565b5f6103ff82612198565b5f8080806115e786866121a2565b909450925050505b9250929050565b5f8060ff1961162660017f4693110e548948f348ad9c8c0e5b637b378994981b3a4246fc86241f8faded51612a05565b60405160200161163891815260200190565b6040516020818303038152906040528051906020012016836040516020016106c59291909182526001600160a01b0316602082015260400190565b600181015460038201545f916001600160a01b03169063ffffffff168261169861172b565b465f9081526011820160205260409020549091506001600160a01b039081169084166112cb576040517ff976331100000000000000000000000000000000000000000000000000000000815260040160405180910390fd5b5f825f01828154811061170557611705612a6c565b905f5260205f200154905092915050565b5f6113dd846001600160a01b038516846121cb565b5f8060ff1961175b60017feeb5cd774bc9c6845792a7b59ceb11c49cb99339b2df9604c51808d2eb250cc2612a05565b60405160200161176d91815260200190565b60408051601f1981840301815291905280516020909101201692915050565b5f8181526001830160205260408120541515610541565b5f61054183836121e7565b5f6105418383612233565b5f6105416108868385612a05565b5f8080806115e7866001600160a01b03871661231d565b5f610541838361178c565b5f6103ff61088683612a18565b5f61054161088684670de0b6b3a76400008561235d565b81545f90600160f81b900460ff166012036118295750806103ff565b825461184090600160f81b900460ff166012612a80565b61184b90600a612b71565b6105419083612b93565b604080516001600160a01b038416602482015260448082018490528251808303909101815260649091019091526020810180517bffffffffffffffffffffffffffffffffffffffffffffffffffffffff167fa9059cbb00000000000000000000000000000000000000000000000000000000179052610396908490612445565b5f610541836001600160a01b0384166124bf565b5f80846001600160a01b031663313ce5676040518163ffffffff1660e01b8152600401602060405180830381865afa158015611927573d5f803e3d5ffd5b505050506040513d601f19601f8201168201806040525081019061194b9190612ba6565b9050601260ff8216111561197257604051634840b0ab60e11b815260040160405180910390fd5b6001600160a01b03831615611aa557826001600160a01b031663feaf968c6040518163ffffffff1660e01b815260040160a060405180830381865afa9250505080156119db575060408051601f3d908101601f191682019092526119d891810190612bdf565b60015b611a11576040517f382e6b6400000000000000000000000000000000000000000000000000000000815260040160405180910390fd5b831580611a55576040517fcbaf08250000000000000000000000000000000000000000000000000000000081526001600160a01b038a166004820152602401610994565b5f611a608542612a05565b9050610e108111611a9d576040517fd15f73b500000000000000000000000000000000000000000000000000000000815260040160405180910390fd5b505050505050505b846001600160a01b031663feaf968c6040518163ffffffff1660e01b815260040160a060405180830381865afa925050508015611aff575060408051601f3d908101601f19168201909252611afc91810190612bdf565b60015b611b1c57604051634840b0ab60e11b815260040160405180910390fd5b63ffffffff8916611b2d8342612a05565b1115611b70576040517fa1ac05690000000000000000000000000000000000000000000000000000000081526001600160a01b038b166004820152602401610994565b5f8a6001600160a01b031663245a7bfc6040518163ffffffff1660e01b8152600401602060405180830381865afa158015611bad573d5f803e3d5ffd5b505050506040513d601f19601f82011682018060405250810190611bd19190612c2b565b90505f816001600160a01b03166322adbc786040518163ffffffff1660e01b8152600401602060405180830381865afa158015611c10573d5f803e3d5ffd5b505050506040513d601f19601f82011682018060405250810190611c349190612c46565b90505f826001600160a01b03166370da2f676040518163ffffffff1660e01b8152600401602060405180830381865afa158015611c73573d5f803e3d5ffd5b505050506040513d601f19601f82011682018060405250810190611c979190612c46565b90508160170b87131580611cae57508060170b8712155b15611cf0576040517f045d8f840000000000000000000000000000000000000000000000000000000081526001600160a01b038e166004820152602401610994565b611d1c611cfe8a6012612a80565b611d0990600a612b71565b611d12896124db565b6108869190612c66565b9d9c50505050505050505050505050565b5f6001600160ff1b03821115611570576040517f24775e0600000000000000000000000000000000000000000000000000000000815260048101839052602401610994565b5f8282600160ff1b821480611d8a5750600160ff1b81145b15611dc1576040517f9fe2b45000000000000000000000000000000000000000000000000000000000815260040160405180910390fd5b5f805f8412611dd05783611dd4565b835f035b91505f8312611de35782611de7565b825f035b90505f611dfd83670de0b6b3a76400008461235d565b90506001600160ff1b03811115611e4a576040517fd49c26b30000000000000000000000000000000000000000000000000000000081526004810189905260248101889052604401610994565b5f1985851813610e2c81611e6057825f03610886565b8290565b5f8282600160ff1b821480611e7c5750600160ff1b81145b15611eb3576040517fa6070c2500000000000000000000000000000000000000000000000000000000815260040160405180910390fd5b5f805f8412611ec25783611ec6565b835f035b91505f8312611ed55782611ed9565b825f035b90505f611ee683836120a5565b90506001600160ff1b03811115611e4a576040517f120b5b430000000000000000000000000000000000000000000000000000000081526004810189905260248101889052604401610994565b5f611f47670de0b6b3a76400005f19612b93565b821115611f83576040517f1cd951a700000000000000000000000000000000000000000000000000000000815260048101839052602401610994565b50670de0b6b3a76400000290565b5f6103ff611fa162015180611f33565b611382846005015442611fb49190612a05565b611f33565b600b8101545f908190611fd890610886906001600160801b0316611d2d565b90505f611fee6108868560060160060154611d2d565b8454909150600160801b9004600f0b8161200c57505f949350505050565b5f6120178284611d72565b90505f612045612037612031670de0b6b3a76400006117e9565b84612519565b670de0b6b3a764000061252f565b90506104bf8186611e64565b5f806120786120606002612538565b612072610f5b876107648a6003015490565b90611d72565b905061209c61208684611589565b6113b461209561093589611f91565b8490611e64565b95945050505050565b5f80805f19848609848602925082811083820303915050805f036120d65750670de0b6b3a7640000900490506103ff565b670de0b6b3a76400008110612121576040517f5173648d0000000000000000000000000000000000000000000000000000000081526004810186905260248101859052604401610994565b5f670de0b6b3a7640000858709620400008185030493109091037d40000000000000000000000000000000000000000000000000000000000002919091177faccb18165bd6fe31ae1cf318dc5b51eee0e1ba569b88cd74c1773b91fac106690291505092915050565b5f6105416108868385612c7d565b5f6103ff82610ee2565b5f80806121af8585610a16565b5f81815260029690960160205260409095205494959350505050565b5f82815260028401602052604081208290556113dd84846117a3565b5f81815260018301602052604081205461222c57508154600181810184555f8481526020808220909301849055845484825282860190935260409020919091556103ff565b505f6103ff565b5f818152600183016020526040812054801561230d575f612255600183612a05565b85549091505f9061226890600190612a05565b90508082146122c7575f865f01828154811061228657612286612a6c565b905f5260205f200154905080875f0184815481106122a6576122a6612a6c565b5f918252602080832090910192909255918252600188019052604090208390555b85548690806122d8576122d8612c9c565b600190038181905f5260205f20015f90559055856001015f8681526020019081526020015f205f9055600193505050506103ff565b5f9150506103ff565b5092915050565b5f81815260028301602052604081205481908061234a5761233e85856117de565b92505f91506115ef9050565b6001925090506115ef565b509250929050565b5f80805f19858709858702925082811083820303915050805f036123945783828161238a5761238a612b7f565b0492505050610541565b8381106123de576040517f63a05778000000000000000000000000000000000000000000000000000000008152600481018790526024810186905260448101859052606401610994565b5f8486880960026001871981018816978890046003810283188082028403028082028403028082028403028082028403028082028403029081029092039091025f889003889004909101858311909403939093029303949094049190911702949350505050565b5f6124596001600160a01b038416836125e0565b905080515f1415801561247d57508080602001905181019061247b9190612cb0565b155b15610396576040517f5274afe70000000000000000000000000000000000000000000000000000000081526001600160a01b0384166004820152602401610994565b5f818152600283016020526040812081905561054183836117ae565b5f80821215611570576040517fa8ce443200000000000000000000000000000000000000000000000000000000815260048101839052602401610994565b5f8282125b6125285781610541565b5090919050565b5f82821361251e565b5f61254f670de0b6b3a7640000600160ff1b612ccf565b82121561258b576040517f99474eeb00000000000000000000000000000000000000000000000000000000815260048101839052602401610994565b6125a4670de0b6b3a76400006001600160ff1b03612ccf565b821315611f83576040517f9d58109100000000000000000000000000000000000000000000000000000000815260048101839052602401610994565b606061054183835f845f80856001600160a01b031684866040516126049190612cfb565b5f6040518083038185875af1925050503d805f811461263e576040519150601f19603f3d011682016040523d82523d5f602084013e612643565b606091505b50915091506112d68683836060826126635761265e826126c3565b610541565b815115801561267a57506001600160a01b0384163b155b156126bc576040517f9996b3150000000000000000000000000000000000000000000000000000000081526001600160a01b0385166004820152602401610994565b5080610541565b8051156126d35780518082602001fd5b6040517f1425ea4200000000000000000000000000000000000000000000000000000000815260040160405180910390fd5b80356001600160801b0381168114610e9b575f80fd5b6001600160a01b0381168114610471575f80fd5b5f8060408385031215612740575f80fd5b61274983612705565b915060208301356127598161271b565b809150509250929050565b5f805f60608486031215612776575f80fd5b61277f84612705565b925061278d60208501612705565b9150604084013590509250925092565b5f805f80608085870312156127b0575f80fd5b6127b985612705565b966020860135965060408601359560600135945092505050565b5f80604083850312156127e4575f80fd5b6127ed83612705565b946020939093013593505050565b5f806040838503121561280c575f80fd5b61281583612705565b915061282360208401612705565b90509250929050565b5f805f6060848603121561283e575f80fd5b61284784612705565b925060208401356128578161271b565b929592945050506040919091013590565b5f60208284031215612878575f80fd5b61054182612705565b5f805f8060808587031215612894575f80fd5b61289d85612705565b93506128ab60208601612705565b93969395505050506040820135916060013590565b5f805f805f85870360e08112156128d5575f80fd5b6128de87612705565b95506060601f19820112156128f1575f80fd5b506040516060810181811067ffffffffffffffff8211171561292157634e487b7160e01b5f52604160045260245ffd5b60405260208701356129328161271b565b815260408701356129428161271b565b602082015260608701356129558161271b565b6040820152949794965050505060808301359260a08101359260c0909101359150565b5f805f805f60a0868803121561298c575f80fd5b61299586612705565b945060208601356129a58161271b565b9350604086013592506060860135915060808601356129c38161271b565b809150509295509295909350565b5f80604083850312156129e2575f80fd5b50508035926020909101359150565b634e487b7160e01b5f52601160045260245ffd5b818103818111156103ff576103ff6129f1565b5f600160ff1b8203612a2c57612a2c6129f1565b505f0390565b8082018281125f831280158216821582161715612a5157612a516129f1565b505092915050565b808201808211156103ff576103ff6129f1565b634e487b7160e01b5f52603260045260245ffd5b60ff82811682821603908111156103ff576103ff6129f1565b600181815b8085111561235557815f1904821115612ab957612ab96129f1565b80851615612ac657918102915b93841c9390800290612a9e565b5f82612ae1575060016103ff565b81612aed57505f6103ff565b8160018114612b035760028114612b0d57612b29565b60019150506103ff565b60ff841115612b1e57612b1e6129f1565b50506001821b6103ff565b5060208310610133831016604e8410600b8410161715612b4c575081810a6103ff565b612b568383612a99565b805f1904821115612b6957612b696129f1565b029392505050565b5f61054160ff841683612ad3565b634e487b7160e01b5f52601260045260245ffd5b5f82612ba157612ba1612b7f565b500490565b5f60208284031215612bb6575f80fd5b815160ff81168114610541575f80fd5b805169ffffffffffffffffffff81168114610e9b575f80fd5b5f805f805f60a08688031215612bf3575f80fd5b612bfc86612bc6565b9450602086015193506040860151925060608601519150612c1f60808701612bc6565b90509295509295909350565b5f60208284031215612c3b575f80fd5b81516105418161271b565b5f60208284031215612c56575f80fd5b81518060170b8114610541575f80fd5b80820281158282048414176103ff576103ff6129f1565b8181035f831280158383131683831282161715612316576123166129f1565b634e487b7160e01b5f52603160045260245ffd5b5f60208284031215612cc0575f80fd5b81518015158114610541575f80fd5b5f82612cdd57612cdd612b7f565b600160ff1b82145f1984141615612cf657612cf66129f1565b500590565b5f82515f5b81811015612d1a5760208186018101518583015201612d00565b505f92019182525091905056","linkReferences":{}},"methodIdentifiers":{"exposed_TradingAccount_loadExisting(uint128)":"7d0e7a04","exposed_create(uint128,address)":"0900f5c7","exposed_deductAccountMargin(uint128,(address,address,address),uint256,uint256,uint256)":"7756678e","exposed_deposit(uint128,address,uint256)":"531f6f48","exposed_getAccontUnrealizedPnlUsd(uint128)":"8c770868","exposed_getAccountMarginRequirementUsdAndUnrealizedPnlUsd(uint128,uint128,int256)":"2fc26eda","exposed_getEquityUsd(uint128,int256)":"48204f66","exposed_getMarginBalanceUsd(uint128,int256)":"a0ee1887","exposed_getMarginCollateralBalance(uint128,address)":"7f03aaed","exposed_isLiquidatable(uint256,int256)":"eff3dde7","exposed_loadExistingAccountAndVerifySender(uint128)":"96765974","exposed_updateActiveMarkets(uint128,uint128,int256,int256)":"76b184f5","exposed_validateMarginRequirements(uint128,uint256,int256,uint256)":"456a3cbd","exposed_validatePositionsLimit(uint128)":"64c7e618","exposed_verifySender(uint128)":"5faf6a2a","exposed_withdraw(uint128,address,uint256)":"f05be89b","exposed_withdrawMarginUsd(uint128,address,uint256,uint256,address)":"c1c7cc08","workaround_getActiveMarketId(uint128,uint128)":"4ca0acf1","workaround_getActiveMarketsIdsLength(uint128)":"8a89f781","workaround_getIfMarginCollateralBalanceX18ContainsTheCollateral(uint128,address)":"85ffe573","workaround_getNonce(uint128)":"56dd1716","workaround_hasOffchainOrderBeenFilled(uint128,bytes32)":"81d89274"},"id":184}