{"abi":[{"type":"function","name":"getFeeAndReward","inputs":[{"name":"","type":"address","internalType":"address"},{"name":"","type":"bytes","internalType":"bytes"},{"name":"","type":"address","internalType":"address"}],"outputs":[{"name":"","type":"tuple","internalType":"struct FeeAsset","components":[{"name":"assetAddress","type":"address","internalType":"address"},{"name":"amount","type":"uint256","internalType":"uint256"}]},{"name":"","type":"tuple","internalType":"struct FeeAsset","components":[{"name":"assetAddress","type":"address","internalType":"address"},{"name":"amount","type":"uint256","internalType":"uint256"}]},{"name":"","type":"uint256","internalType":"uint256"}],"stateMutability":"pure"},{"type":"function","name":"i_nativeAddress","inputs":[],"outputs":[{"name":"","type":"address","internalType":"address"}],"stateMutability":"pure"}],"bytecode":{"object":"0x6080604052348015600e575f80fd5b506102138061001c5f395ff3fe608060405234801561000f575f80fd5b5060043610610034575f3560e01c80636387866814610038578063e03dab1a1461004b575b5f80fd5b6040515f81526020015b60405180910390f35b6100a8610059366004610148565b50506040805180820182525f8082526020918201819052825180840184528181528201819052825180840184528181528083018290528351808501909452818452918301819052909391925090565b60408051845173ffffffffffffffffffffffffffffffffffffffff9081168252602095860151868301528451169181019190915292909101516060830152608082015260a001610042565b803573ffffffffffffffffffffffffffffffffffffffff81168114610116575f80fd5b919050565b7f4e487b71000000000000000000000000000000000000000000000000000000005f52604160045260245ffd5b5f805f6060848603121561015a575f80fd5b610163846100f3565b9250602084013567ffffffffffffffff8082111561017f575f80fd5b818601915086601f830112610192575f80fd5b8135818111156101a4576101a461011b565b604051601f8201601f19908116603f011681019083821181831017156101cc576101cc61011b565b816040528281528960208487010111156101e4575f80fd5b826020860160208301375f60208483010152809650505050505061020a604085016100f3565b9050925092509256","linkReferences":{}},"methodIdentifiers":{"getFeeAndReward(address,bytes,address)":"e03dab1a","i_nativeAddress()":"63878668"},"id":252}