{"abi":[{"type":"constructor","inputs":[{"name":"name","type":"string","internalType":"string"},{"name":"symbol","type":"string","internalType":"string"},{"name":"owner","type":"address","internalType":"address"}],"stateMutability":"nonpayable"},{"type":"function","name":"approve","inputs":[{"name":"to","type":"address","internalType":"address"},{"name":"tokenId","type":"uint256","internalType":"uint256"}],"outputs":[],"stateMutability":"nonpayable"},{"type":"function","name":"balanceOf","inputs":[{"name":"owner","type":"address","internalType":"address"}],"outputs":[{"name":"","type":"uint256","internalType":"uint256"}],"stateMutability":"view"},{"type":"function","name":"getApproved","inputs":[{"name":"tokenId","type":"uint256","internalType":"uint256"}],"outputs":[{"name":"","type":"address","internalType":"address"}],"stateMutability":"view"},{"type":"function","name":"isApprovedForAll","inputs":[{"name":"owner","type":"address","internalType":"address"},{"name":"operator","type":"address","internalType":"address"}],"outputs":[{"name":"","type":"bool","internalType":"bool"}],"stateMutability":"view"},{"type":"function","name":"mint","inputs":[{"name":"to","type":"address","internalType":"address"},{"name":"tokenId","type":"uint256","internalType":"uint256"}],"outputs":[],"stateMutability":"nonpayable"},{"type":"function","name":"name","inputs":[],"outputs":[{"name":"","type":"string","internalType":"string"}],"stateMutability":"view"},{"type":"function","name":"owner","inputs":[],"outputs":[{"name":"","type":"address","internalType":"address"}],"stateMutability":"view"},{"type":"function","name":"ownerOf","inputs":[{"name":"tokenId","type":"uint256","internalType":"uint256"}],"outputs":[{"name":"","type":"address","internalType":"address"}],"stateMutability":"view"},{"type":"function","name":"renounceOwnership","inputs":[],"outputs":[],"stateMutability":"nonpayable"},{"type":"function","name":"safeTransferFrom","inputs":[{"name":"from","type":"address","internalType":"address"},{"name":"to","type":"address","internalType":"address"},{"name":"tokenId","type":"uint256","internalType":"uint256"}],"outputs":[],"stateMutability":"nonpayable"},{"type":"function","name":"safeTransferFrom","inputs":[{"name":"from","type":"address","internalType":"address"},{"name":"to","type":"address","internalType":"address"},{"name":"tokenId","type":"uint256","internalType":"uint256"},{"name":"data","type":"bytes","internalType":"bytes"}],"outputs":[],"stateMutability":"nonpayable"},{"type":"function","name":"setApprovalForAll","inputs":[{"name":"operator","type":"address","internalType":"address"},{"name":"approved","type":"bool","internalType":"bool"}],"outputs":[],"stateMutability":"nonpayable"},{"type":"function","name":"supportsInterface","inputs":[{"name":"interfaceId","type":"bytes4","internalType":"bytes4"}],"outputs":[{"name":"","type":"bool","internalType":"bool"}],"stateMutability":"view"},{"type":"function","name":"symbol","inputs":[],"outputs":[{"name":"","type":"string","internalType":"string"}],"stateMutability":"view"},{"type":"function","name":"tokenByIndex","inputs":[{"name":"index","type":"uint256","internalType":"uint256"}],"outputs":[{"name":"","type":"uint256","internalType":"uint256"}],"stateMutability":"view"},{"type":"function","name":"tokenOfOwnerByIndex","inputs":[{"name":"owner","type":"address","internalType":"address"},{"name":"index","type":"uint256","internalType":"uint256"}],"outputs":[{"name":"","type":"uint256","internalType":"uint256"}],"stateMutability":"view"},{"type":"function","name":"tokenURI","inputs":[{"name":"tokenId","type":"uint256","internalType":"uint256"}],"outputs":[{"name":"","type":"string","internalType":"string"}],"stateMutability":"view"},{"type":"function","name":"totalSupply","inputs":[],"outputs":[{"name":"","type":"uint256","internalType":"uint256"}],"stateMutability":"view"},{"type":"function","name":"transferFrom","inputs":[{"name":"from","type":"address","internalType":"address"},{"name":"to","type":"address","internalType":"address"},{"name":"tokenId","type":"uint256","internalType":"uint256"}],"outputs":[],"stateMutability":"nonpayable"},{"type":"function","name":"transferOwnership","inputs":[{"name":"newOwner","type":"address","internalType":"address"}],"outputs":[],"stateMutability":"nonpayable"},{"type":"event","name":"Approval","inputs":[{"name":"owner","type":"address","indexed":true,"internalType":"address"},{"name":"approved","type":"address","indexed":true,"internalType":"address"},{"name":"tokenId","type":"uint256","indexed":true,"internalType":"uint256"}],"anonymous":false},{"type":"event","name":"ApprovalForAll","inputs":[{"name":"owner","type":"address","indexed":true,"internalType":"address"},{"name":"operator","type":"address","indexed":true,"internalType":"address"},{"name":"approved","type":"bool","indexed":false,"internalType":"bool"}],"anonymous":false},{"type":"event","name":"OwnershipTransferred","inputs":[{"name":"previousOwner","type":"address","indexed":true,"internalType":"address"},{"name":"newOwner","type":"address","indexed":true,"internalType":"address"}],"anonymous":false},{"type":"event","name":"Transfer","inputs":[{"name":"from","type":"address","indexed":true,"internalType":"address"},{"name":"to","type":"address","indexed":true,"internalType":"address"},{"name":"tokenId","type":"uint256","indexed":true,"internalType":"uint256"}],"anonymous":false},{"type":"error","name":"ERC721EnumerableForbiddenBatchMint","inputs":[]},{"type":"error","name":"ERC721IncorrectOwner","inputs":[{"name":"sender","type":"address","internalType":"address"},{"name":"tokenId","type":"uint256","internalType":"uint256"},{"name":"owner","type":"address","internalType":"address"}]},{"type":"error","name":"ERC721InsufficientApproval","inputs":[{"name":"operator","type":"address","internalType":"address"},{"name":"tokenId","type":"uint256","internalType":"uint256"}]},{"type":"error","name":"ERC721InvalidApprover","inputs":[{"name":"approver","type":"address","internalType":"address"}]},{"type":"error","name":"ERC721InvalidOperator","inputs":[{"name":"operator","type":"address","internalType":"address"}]},{"type":"error","name":"ERC721InvalidOwner","inputs":[{"name":"owner","type":"address","internalType":"address"}]},{"type":"error","name":"ERC721InvalidReceiver","inputs":[{"name":"receiver","type":"address","internalType":"address"}]},{"type":"error","name":"ERC721InvalidSender","inputs":[{"name":"sender","type":"address","internalType":"address"}]},{"type":"error","name":"ERC721NonexistentToken","inputs":[{"name":"tokenId","type":"uint256","internalType":"uint256"}]},{"type":"error","name":"ERC721OutOfBoundsIndex","inputs":[{"name":"owner","type":"address","internalType":"address"},{"name":"index","type":"uint256","internalType":"uint256"}]},{"type":"error","name":"OwnableInvalidOwner","inputs":[{"name":"owner","type":"address","internalType":"address"}]},{"type":"error","name":"OwnableUnauthorizedAccount","inputs":[{"name":"account","type":"address","internalType":"address"}]},{"type":"error","name":"SafeCastOverflowedUintDowncast","inputs":[{"name":"bits","type":"uint8","internalType":"uint8"},{"name":"value","type":"uint256","internalType":"uint256"}]}],"bytecode":{"object":"0x608060405234801561000f575f80fd5b50604051611a18380380611a1883398101604081905261002e91610193565b8083835f61003c8382610296565b5060016100498282610296565b5050506001600160a01b03811661007957604051631e4fbdf760e01b81525f600482015260240160405180910390fd5b6100828161008b565b50505050610355565b600a80546001600160a01b038381166001600160a01b0319831681179093556040519116919082907f8be0079c531659141344cd1fd0a4f28419497f9722a3daafe3b4186f6b6457e0905f90a35050565b634e487b7160e01b5f52604160045260245ffd5b5f82601f8301126100ff575f80fd5b81516001600160401b0380821115610119576101196100dc565b604051601f8301601f19908116603f01168101908282118183101715610141576101416100dc565b816040528381526020925086602085880101111561015d575f80fd5b5f91505b8382101561017e5785820183015181830184015290820190610161565b5f602085830101528094505050505092915050565b5f805f606084860312156101a5575f80fd5b83516001600160401b03808211156101bb575f80fd5b6101c7878388016100f0565b945060208601519150808211156101dc575f80fd5b506101e9868287016100f0565b604086015190935090506001600160a01b0381168114610207575f80fd5b809150509250925092565b600181811c9082168061022657607f821691505b60208210810361024457634e487b7160e01b5f52602260045260245ffd5b50919050565b601f82111561029157805f5260205f20601f840160051c8101602085101561026f5750805b601f840160051c820191505b8181101561028e575f815560010161027b565b50505b505050565b81516001600160401b038111156102af576102af6100dc565b6102c3816102bd8454610212565b8461024a565b602080601f8311600181146102f6575f84156102df5750858301515b5f19600386901b1c1916600185901b17855561034d565b5f85815260208120601f198616915b8281101561032457888601518255948401946001909101908401610305565b508582101561034157878501515f19600388901b60f8161c191681555b505060018460011b0185555b505050505050565b6116b6806103625f395ff3fe608060405234801561000f575f80fd5b5060043610610163575f3560e01c80636352211e116100c7578063a22cb4651161007d578063c87b56dd11610063578063c87b56dd146102c2578063e985e9c5146102d5578063f2fde38b14610310575f80fd5b8063a22cb4651461029c578063b88d4fde146102af575f80fd5b8063715018a6116100ad578063715018a61461027b5780638da5cb5b1461028357806395d89b4114610294575f80fd5b80636352211e1461025557806370a0823114610268575f80fd5b806323b872dd1161011c57806340c10f191161010257806340c10f191461021c57806342842e0e1461022f5780634f6ccce714610242575f80fd5b806323b872dd146101f65780632f745c5914610209575f80fd5b8063081812fc1161014c578063081812fc146101a4578063095ea7b3146101cf57806318160ddd146101e4575f80fd5b806301ffc9a71461016757806306fdde031461018f575b5f80fd5b61017a61017536600461133a565b610323565b60405190151581526020015b60405180910390f35b610197610366565b60405161018691906113a2565b6101b76101b23660046113b4565b6103f5565b6040516001600160a01b039091168152602001610186565b6101e26101dd3660046113e6565b61041c565b005b6008545b604051908152602001610186565b6101e261020436600461140e565b61042b565b6101e86102173660046113e6565b6104d2565b6101e261022a3660046113e6565b610535565b6101e261023d36600461140e565b610547565b6101e86102503660046113b4565b610566565b6101b76102633660046113b4565b6105bb565b6101e8610276366004611447565b6105c5565b6101e2610623565b600a546001600160a01b03166101b7565b610197610636565b6101e26102aa366004611460565b610645565b6101e26102bd3660046114ad565b610650565b6101976102d03660046113b4565b610667565b61017a6102e3366004611582565b6001600160a01b039182165f90815260056020908152604080832093909416825291909152205460ff1690565b6101e261031e366004611447565b6106d8565b5f6001600160e01b031982167f780e9d6300000000000000000000000000000000000000000000000000000000148061036057506103608261072e565b92915050565b60605f8054610374906115b3565b80601f01602080910402602001604051908101604052809291908181526020018280546103a0906115b3565b80156103eb5780601f106103c2576101008083540402835291602001916103eb565b820191905f5260205f20905b8154815290600101906020018083116103ce57829003601f168201915b5050505050905090565b5f6103ff826107c8565b505f828152600460205260409020546001600160a01b0316610360565b610427828233610800565b5050565b6001600160a01b03821661045957604051633250574960e11b81525f60048201526024015b60405180910390fd5b5f61046583833361080d565b9050836001600160a01b0316816001600160a01b0316146104cc576040517f64283d7b0000000000000000000000000000000000000000000000000000000081526001600160a01b0380861660048301526024820184905282166044820152606401610450565b50505050565b5f6104dc836105c5565b821061050d5760405163295f44f760e21b81526001600160a01b038416600482015260248101839052604401610450565b506001600160a01b03919091165f908152600660209081526040808320938352929052205490565b61053d6108ba565b6104278282610900565b61056183838360405180602001604052805f815250610650565b505050565b5f61057060085490565b82106105985760405163295f44f760e21b81525f600482015260248101839052604401610450565b600882815481106105ab576105ab6115eb565b905f5260205f2001549050919050565b5f610360826107c8565b5f6001600160a01b038216610608576040517f89c62b640000000000000000000000000000000000000000000000000000000081525f6004820152602401610450565b506001600160a01b03165f9081526003602052604090205490565b61062b6108ba565b6106345f61097a565b565b606060018054610374906115b3565b6104273383836109d8565b61065b84848461042b565b6104cc84848484610a8f565b6060610672826107c8565b505f61068860408051602081019091525f815290565b90505f8151116106a65760405180602001604052805f8152506106d1565b806106b084610bb5565b6040516020016106c19291906115ff565b6040516020818303038152906040525b9392505050565b6106e06108ba565b6001600160a01b038116610722576040517f1e4fbdf70000000000000000000000000000000000000000000000000000000081525f6004820152602401610450565b61072b8161097a565b50565b5f6001600160e01b031982167f80ac58cd00000000000000000000000000000000000000000000000000000000148061079057506001600160e01b031982167f5b5e139f00000000000000000000000000000000000000000000000000000000145b8061036057507f01ffc9a7000000000000000000000000000000000000000000000000000000006001600160e01b0319831614610360565b5f818152600260205260408120546001600160a01b03168061036057604051637e27328960e01b815260048101849052602401610450565b6105618383836001610c52565b5f8061081a858585610d9a565b905061082e600a546001600160a01b031690565b6001600160a01b0316637dec8b558661084687610e6d565b6040516001600160e01b031960e085901b1681526001600160a01b0390921660048301526fffffffffffffffffffffffffffffffff1660248201526044015f604051808303815f87803b15801561089b575f80fd5b505af11580156108ad573d5f803e3d5ffd5b5092979650505050505050565b600a546001600160a01b03163314610634576040517f118cdaa7000000000000000000000000000000000000000000000000000000008152336004820152602401610450565b6001600160a01b03821661092957604051633250574960e11b81525f6004820152602401610450565b5f61093583835f61080d565b90506001600160a01b03811615610561576040517f73c6ac6e0000000000000000000000000000000000000000000000000000000081525f6004820152602401610450565b600a80546001600160a01b0383811673ffffffffffffffffffffffffffffffffffffffff19831681179093556040519116919082907f8be0079c531659141344cd1fd0a4f28419497f9722a3daafe3b4186f6b6457e0905f90a35050565b6001600160a01b038216610a23576040517f5b08ba180000000000000000000000000000000000000000000000000000000081526001600160a01b0383166004820152602401610450565b6001600160a01b038381165f81815260056020908152604080832094871680845294825291829020805460ff191686151590811790915591519182527f17307eab39ab6107e8899845ad3d59bd9653f200f220920489ca2b5937696c31910160405180910390a3505050565b6001600160a01b0383163b156104cc57604051630a85bd0160e11b81526001600160a01b0384169063150b7a0290610ad190339088908790879060040161162d565b6020604051808303815f875af1925050508015610b0b575060408051601f3d908101601f19168201909252610b0891810190611668565b60015b610b72573d808015610b38576040519150601f19603f3d011682016040523d82523d5f602084013e610b3d565b606091505b5080515f03610b6a57604051633250574960e11b81526001600160a01b0385166004820152602401610450565b805181602001fd5b6001600160e01b03198116630a85bd0160e11b14610bae57604051633250574960e11b81526001600160a01b0385166004820152602401610450565b5050505050565b60605f610bc183610ec6565b60010190505f8167ffffffffffffffff811115610be057610be0611499565b6040519080825280601f01601f191660200182016040528015610c0a576020820181803683370190505b5090508181016020015b5f19017f3031323334353637383961626364656600000000000000000000000000000000600a86061a8153600a8504945084610c1457509392505050565b8080610c6657506001600160a01b03821615155b15610d5e575f610c75846107c8565b90506001600160a01b03831615801590610ca15750826001600160a01b0316816001600160a01b031614155b8015610cd257506001600160a01b038082165f9081526005602090815260408083209387168352929052205460ff16155b15610d14576040517fa9fbf51f0000000000000000000000000000000000000000000000000000000081526001600160a01b0384166004820152602401610450565b8115610d5c5783856001600160a01b0316826001600160a01b03167f8c5be1e5ebec7d5bd14f71427d1e84f3dd0314c0f7b2291e5b200ac8c7c3b92560405160405180910390a45b505b50505f908152600460205260409020805473ffffffffffffffffffffffffffffffffffffffff19166001600160a01b0392909216919091179055565b5f80610da7858585610fa7565b90506001600160a01b038116610e0357610dfe84600880545f838152600960205260408120829055600182018355919091527ff3f7a9fe364faab93b216da50a3214154f22a0a2b415b23a84c8169e8b636ee30155565b610e26565b846001600160a01b0316816001600160a01b031614610e2657610e2681856110a6565b6001600160a01b038516610e4257610e3d84611133565b610e65565b846001600160a01b0316816001600160a01b031614610e6557610e6585856111da565b949350505050565b5f6fffffffffffffffffffffffffffffffff821115610ec2576040517f6dfcc6500000000000000000000000000000000000000000000000000000000081526080600482015260248101839052604401610450565b5090565b5f807a184f03e93ff9f4daa797ed6e38ed64bf6a1f0100000000000000008310610f0e577a184f03e93ff9f4daa797ed6e38ed64bf6a1f010000000000000000830492506040015b6d04ee2d6d415b85acef81000000008310610f3a576d04ee2d6d415b85acef8100000000830492506020015b662386f26fc100008310610f5857662386f26fc10000830492506010015b6305f5e1008310610f70576305f5e100830492506008015b6127108310610f8457612710830492506004015b60648310610f96576064830492506002015b600a83106103605760010192915050565b5f828152600260205260408120546001600160a01b0390811690831615610fd357610fd3818486611228565b6001600160a01b0381161561100d57610fee5f855f80610c52565b6001600160a01b0381165f90815260036020526040902080545f190190555b6001600160a01b0385161561103b576001600160a01b0385165f908152600360205260409020805460010190555b5f84815260026020526040808220805473ffffffffffffffffffffffffffffffffffffffff19166001600160a01b0389811691821790925591518793918516917fddf252ad1be2c89b69c2b068fc378daa952ba7f163c4a11628f55a4df523b3ef91a4949350505050565b5f6110b0836105c5565b5f83815260076020526040902054909150808214611101576001600160a01b0384165f9081526006602090815260408083208584528252808320548484528184208190558352600790915290208190555b505f9182526007602090815260408084208490556001600160a01b039094168352600681528383209183525290812055565b6008545f9061114490600190611683565b5f838152600960205260408120546008805493945090928490811061116b5761116b6115eb565b905f5260205f2001549050806008838154811061118a5761118a6115eb565b5f9182526020808320909101929092558281526009909152604080822084905585825281205560088054806111c1576111c16116a2565b600190038181905f5260205f20015f9055905550505050565b5f60016111e6846105c5565b6111f09190611683565b6001600160a01b039093165f908152600660209081526040808320868452825280832085905593825260079052919091209190915550565b6112338383836112a5565b610561576001600160a01b03831661126157604051637e27328960e01b815260048101829052602401610450565b6040517f177e802f0000000000000000000000000000000000000000000000000000000081526001600160a01b038316600482015260248101829052604401610450565b5f6001600160a01b03831615801590610e655750826001600160a01b0316846001600160a01b031614806112fd57506001600160a01b038085165f9081526005602090815260408083209387168352929052205460ff165b80610e655750505f908152600460205260409020546001600160a01b03908116911614919050565b6001600160e01b03198116811461072b575f80fd5b5f6020828403121561134a575f80fd5b81356106d181611325565b5f5b8381101561136f578181015183820152602001611357565b50505f910152565b5f815180845261138e816020860160208601611355565b601f01601f19169290920160200192915050565b602081525f6106d16020830184611377565b5f602082840312156113c4575f80fd5b5035919050565b80356001600160a01b03811681146113e1575f80fd5b919050565b5f80604083850312156113f7575f80fd5b611400836113cb565b946020939093013593505050565b5f805f60608486031215611420575f80fd5b611429846113cb565b9250611437602085016113cb565b9150604084013590509250925092565b5f60208284031215611457575f80fd5b6106d1826113cb565b5f8060408385031215611471575f80fd5b61147a836113cb565b91506020830135801515811461148e575f80fd5b809150509250929050565b634e487b7160e01b5f52604160045260245ffd5b5f805f80608085870312156114c0575f80fd5b6114c9856113cb565b93506114d7602086016113cb565b925060408501359150606085013567ffffffffffffffff808211156114fa575f80fd5b818701915087601f83011261150d575f80fd5b81358181111561151f5761151f611499565b604051601f8201601f19908116603f0116810190838211818310171561154757611547611499565b816040528281528a602084870101111561155f575f80fd5b826020860160208301375f60208483010152809550505050505092959194509250565b5f8060408385031215611593575f80fd5b61159c836113cb565b91506115aa602084016113cb565b90509250929050565b600181811c908216806115c757607f821691505b6020821081036115e557634e487b7160e01b5f52602260045260245ffd5b50919050565b634e487b7160e01b5f52603260045260245ffd5b5f8351611610818460208801611355565b835190830190611624818360208801611355565b01949350505050565b5f6001600160a01b0380871683528086166020840152508360408301526080606083015261165e6080830184611377565b9695505050505050565b5f60208284031215611678575f80fd5b81516106d181611325565b8181038181111561036057634e487b7160e01b5f52601160045260245ffd5b634e487b7160e01b5f52603160045260245ffd","linkReferences":{}},"methodIdentifiers":{"approve(address,uint256)":"095ea7b3","balanceOf(address)":"70a08231","getApproved(uint256)":"081812fc","isApprovedForAll(address,address)":"e985e9c5","mint(address,uint256)":"40c10f19","name()":"06fdde03","owner()":"8da5cb5b","ownerOf(uint256)":"6352211e","renounceOwnership()":"715018a6","safeTransferFrom(address,address,uint256)":"42842e0e","safeTransferFrom(address,address,uint256,bytes)":"b88d4fde","setApprovalForAll(address,bool)":"a22cb465","supportsInterface(bytes4)":"01ffc9a7","symbol()":"95d89b41","tokenByIndex(uint256)":"4f6ccce7","tokenOfOwnerByIndex(address,uint256)":"2f745c59","tokenURI(uint256)":"c87b56dd","totalSupply()":"18160ddd","transferFrom(address,address,uint256)":"23b872dd","transferOwnership(address)":"f2fde38b"},"id":133}