{"abi":[{"type":"function","name":"exposed_Position_load","inputs":[{"name":"tradingAccountId","type":"uint128","internalType":"uint128"},{"name":"marketId","type":"uint128","internalType":"uint128"}],"outputs":[{"name":"","type":"tuple","internalType":"struct Position.Data","components":[{"name":"size","type":"int256","internalType":"int256"},{"name":"lastInteractionPrice","type":"uint128","internalType":"uint128"},{"name":"lastInteractionFundingFeePerUnit","type":"int128","internalType":"int128"}]}],"stateMutability":"pure"},{"type":"function","name":"exposed_clear","inputs":[{"name":"tradingAccountId","type":"uint128","internalType":"uint128"},{"name":"marketId","type":"uint128","internalType":"uint128"}],"outputs":[],"stateMutability":"nonpayable"},{"type":"function","name":"exposed_getAccruedFunding","inputs":[{"name":"tradingAccountId","type":"uint128","internalType":"uint128"},{"name":"marketId","type":"uint128","internalType":"uint128"},{"name":"fundingFeePerUnit","type":"int256","internalType":"SD59x18"}],"outputs":[{"name":"","type":"int256","internalType":"SD59x18"}],"stateMutability":"view"},{"type":"function","name":"exposed_getMarginRequirements","inputs":[{"name":"notionalValueX18","type":"uint256","internalType":"UD60x18"},{"name":"initialMarginRateX18","type":"uint256","internalType":"UD60x18"},{"name":"maintenanceMarginRateX18","type":"uint256","internalType":"UD60x18"}],"outputs":[{"name":"","type":"uint256","internalType":"UD60x18"},{"name":"","type":"uint256","internalType":"UD60x18"}],"stateMutability":"pure"},{"type":"function","name":"exposed_getNotionalValue","inputs":[{"name":"tradingAccountId","type":"uint128","internalType":"uint128"},{"name":"marketId","type":"uint128","internalType":"uint128"},{"name":"price","type":"uint256","internalType":"UD60x18"}],"outputs":[{"name":"","type":"uint256","internalType":"UD60x18"}],"stateMutability":"view"},{"type":"function","name":"exposed_getState","inputs":[{"name":"tradingAccountId","type":"uint128","internalType":"uint128"},{"name":"marketId","type":"uint128","internalType":"uint128"},{"name":"initialMarginRateX18","type":"uint256","internalType":"UD60x18"},{"name":"maintenanceMarginRateX18","type":"uint256","internalType":"UD60x18"},{"name":"price","type":"uint256","internalType":"UD60x18"},{"name":"fundingFeePerUnit","type":"int256","internalType":"SD59x18"}],"outputs":[{"name":"","type":"tuple","internalType":"struct Position.State","components":[{"name":"sizeX18","type":"int256","internalType":"SD59x18"},{"name":"notionalValueX18","type":"uint256","internalType":"UD60x18"},{"name":"initialMarginUsdX18","type":"uint256","internalType":"UD60x18"},{"name":"maintenanceMarginUsdX18","type":"uint256","internalType":"UD60x18"},{"name":"entryPriceX18","type":"uint256","internalType":"UD60x18"},{"name":"accruedFundingUsdX18","type":"int256","internalType":"SD59x18"},{"name":"unrealizedPnlUsdX18","type":"int256","internalType":"SD59x18"}]}],"stateMutability":"view"},{"type":"function","name":"exposed_getUnrealizedPnl","inputs":[{"name":"tradingAccountId","type":"uint128","internalType":"uint128"},{"name":"marketId","type":"uint128","internalType":"uint128"},{"name":"price","type":"uint256","internalType":"UD60x18"}],"outputs":[{"name":"","type":"int256","internalType":"SD59x18"}],"stateMutability":"view"},{"type":"function","name":"exposed_update","inputs":[{"name":"tradingAccountId","type":"uint128","internalType":"uint128"},{"name":"marketId","type":"uint128","internalType":"uint128"},{"name":"newPosition","type":"tuple","internalType":"struct Position.Data","components":[{"name":"size","type":"int256","internalType":"int256"},{"name":"lastInteractionPrice","type":"uint128","internalType":"uint128"},{"name":"lastInteractionFundingFeePerUnit","type":"int128","internalType":"int128"}]}],"outputs":[],"stateMutability":"nonpayable"},{"type":"error","name":"PRBMath_MulDiv18_Overflow","inputs":[{"name":"x","type":"uint256","internalType":"uint256"},{"name":"y","type":"uint256","internalType":"uint256"}]},{"type":"error","name":"PRBMath_SD59x18_Abs_MinSD59x18","inputs":[]},{"type":"error","name":"PRBMath_SD59x18_IntoUD60x18_Underflow","inputs":[{"name":"x","type":"int256","internalType":"SD59x18"}]},{"type":"error","name":"PRBMath_SD59x18_Mul_InputTooSmall","inputs":[]},{"type":"error","name":"PRBMath_SD59x18_Mul_Overflow","inputs":[{"name":"x","type":"int256","internalType":"SD59x18"},{"name":"y","type":"int256","internalType":"SD59x18"}]},{"type":"error","name":"PRBMath_UD60x18_IntoSD59x18_Overflow","inputs":[{"name":"x","type":"uint256","internalType":"UD60x18"}]}],"bytecode":{"object":"0x6080604052348015600e575f80fd5b50610a7c8061001c5f395ff3fe608060405234801561000f575f80fd5b5060043610610085575f3560e01c8063c5c8bab611610058578063c5c8bab614610118578063ceafef591461012b578063d1b0bb4414610193578063d7b2aeec146101bb575f80fd5b8063257fa09a146100895780635033c611146100af578063656fbd29146100f05780639822148c14610105575b5f80fd5b61009c610097366004610885565b6101ce565b6040519081526020015b60405180910390f35b6100c26100bd3660046108be565b6101ef565b60408051825181526020808401516001600160801b03169082015291810151600f0b908201526060016100a6565b6101036100fe3660046108be565b61024f565b005b6101036101133660046108ef565b610269565b61009c610126366004610885565b6102ac565b61013e61013936600461099b565b6102c4565b6040516100a691905f60e082019050825182526020830151602083015260408301516040830152606083015160608301526080830151608083015260a083015160a083015260c083015160c083015292915050565b6101a66101a13660046109ec565b610323565b604080519283526020830191909152016100a6565b61009c6101c9366004610885565b61033c565b5f806101da8585610354565b90506101e681846103fb565b95945050505050565b604080516060810182525f80825260208201819052918101919091526102158383610354565b60408051606081018252825481526001909201546001600160801b0381166020840152600160801b9004600f0b9082015290505b92915050565b5f61025a8383610354565b5f808255600190910155505050565b5f6102748484610354565b90506102a681838051825560208101516040909101516001600160801b03908116600160801b02911617600190910155565b50505050565b5f806102b88585610354565b90506101e68184610437565b6102fd6040518060e001604052805f81526020015f81526020015f81526020015f81526020015f81526020015f81526020015f81525090565b5f6103088888610354565b90506103178187878787610465565b98975050505050505050565b5f80610330858585610510565b91509150935093915050565b5f806103488585610354565b90506101e68184610532565b5f8060ff1961038460017f1bc067b952a51a4aceed0c94957339255c9d9ec48f1c55db3cdc6194155caa15610a29565b60405160200161039691815260200190565b604051602081830303815290604052805190602001201684846040516020016103db939291909283526001600160801b03918216602084015216604082015260600190565b60408051601f198184030181529190528051602090910120949350505050565b60018201545f90819061041990600160801b9004600f0b8490610561565b905061042f81610429865f015490565b9061056f565b949350505050565b60018201545f90819061041990610456906001600160801b0316610681565b61045f85610681565b90610561565b61049e6040518060e001604052805f81526020015f81526020015f81526020015f81526020015f81526020015f81526020015f81525090565b855481526104ac8684610532565b602082018190526104bd90866106e0565b604082015260208101516104d190856106e0565b606082015260018601546001600160801b031660808201526104f386836103fb565b60a08201526105028684610437565b60c082015295945050505050565b5f8061051c85856106e0565b915061052885846106e0565b9050935093915050565b5f6105578261055161054c610547875f015490565b6106ee565b610746565b906106e0565b9392505050565b90565b5f61055761055e8385610a3c565b5f8282600160ff1b8214806105875750600160ff1b81145b156105be576040517fa6070c2500000000000000000000000000000000000000000000000000000000815260040160405180910390fd5b5f805f84126105cd57836105d1565b835f035b91505f83126105e057826105e4565b825f035b90505f6105f18383610785565b90507f7fffffffffffffffffffffffffffffffffffffffffffffffffffffffffffffff81111561065c576040517f120b5b4300000000000000000000000000000000000000000000000000000000815260048101899052602481018890526044015b60405180910390fd5b5f19858518136106748161067057825f0390565b8290565b9998505050505050505050565b5f817f7fffffffffffffffffffffffffffffffffffffffffffffffffffffffffffffff811115610249576040517ff461868400000000000000000000000000000000000000000000000000000000815260048101849052602401610653565b5f61055761055e8484610785565b5f81600160ff1b810161072d576040517fec2b9e6700000000000000000000000000000000000000000000000000000000815260040160405180910390fd5b5f811261073a5782610557565b61055761055e82610a62565b5f8181811215610249576040517fbba41a1500000000000000000000000000000000000000000000000000000000815260048101849052602401610653565b5f80805f19848609848602925082811083820303915050805f036107b65750670de0b6b3a764000090049050610249565b670de0b6b3a76400008110610801576040517f5173648d0000000000000000000000000000000000000000000000000000000081526004810186905260248101859052604401610653565b5f670de0b6b3a7640000858709620400008185030493109091037d40000000000000000000000000000000000000000000000000000000000002919091177faccb18165bd6fe31ae1cf318dc5b51eee0e1ba569b88cd74c1773b91fac106690291505092915050565b80356001600160801b0381168114610880575f80fd5b919050565b5f805f60608486031215610897575f80fd5b6108a08461086a565b92506108ae6020850161086a565b9150604084013590509250925092565b5f80604083850312156108cf575f80fd5b6108d88361086a565b91506108e66020840161086a565b90509250929050565b5f805f83850360a0811215610902575f80fd5b61090b8561086a565b93506109196020860161086a565b92506060603f198201121561092c575f80fd5b506040516060810181811067ffffffffffffffff8211171561095c57634e487b7160e01b5f52604160045260245ffd5b604090815285013581526109726060860161086a565b6020820152608085013580600f0b811461098a575f80fd5b604082015292959194509192509050565b5f805f805f8060c087890312156109b0575f80fd5b6109b98761086a565b95506109c76020880161086a565b95989597505050506040840135936060810135936080820135935060a0909101359150565b5f805f606084860312156109fe575f80fd5b505081359360208301359350604090920135919050565b634e487b7160e01b5f52601160045260245ffd5b8181038181111561024957610249610a15565b8181035f831280158383131683831282161715610a5b57610a5b610a15565b5092915050565b5f600160ff1b8203610a7657610a76610a15565b505f039056","linkReferences":{}},"methodIdentifiers":{"exposed_Position_load(uint128,uint128)":"5033c611","exposed_clear(uint128,uint128)":"656fbd29","exposed_getAccruedFunding(uint128,uint128,int256)":"257fa09a","exposed_getMarginRequirements(uint256,uint256,uint256)":"d1b0bb44","exposed_getNotionalValue(uint128,uint128,uint256)":"d7b2aeec","exposed_getState(uint128,uint128,uint256,uint256,uint256,int256)":"ceafef59","exposed_getUnrealizedPnl(uint128,uint128,uint256)":"c5c8bab6","exposed_update(uint128,uint128,(int256,uint128,int128))":"9822148c"},"id":182}