{"abi":[{"type":"function","name":"branchAddress","inputs":[{"name":"selector","type":"bytes4","internalType":"bytes4"}],"outputs":[{"name":"","type":"address","internalType":"address"}],"stateMutability":"view"},{"type":"function","name":"branchAddresses","inputs":[],"outputs":[{"name":"","type":"address[]","internalType":"address[]"}],"stateMutability":"view"},{"type":"function","name":"branchFunctionSelectors","inputs":[{"name":"branch","type":"address","internalType":"address"}],"outputs":[{"name":"","type":"bytes4[]","internalType":"bytes4[]"}],"stateMutability":"view"},{"type":"function","name":"branches","inputs":[],"outputs":[{"name":"","type":"tuple[]","internalType":"struct Branch.Data[]","components":[{"name":"branch","type":"address","internalType":"address"},{"name":"selectors","type":"bytes4[]","internalType":"bytes4[]"}]}],"stateMutability":"view"}],"bytecode":{"object":"0x6080604052348015600e575f80fd5b506105e48061001c5f395ff3fe608060405234801561000f575f80fd5b506004361061004a575f3560e01c80638979f1641461004e578063942ca2381461006c578063aa3aabe314610081578063ab699c85146100a1575b5f80fd5b6100566100cc565b6040516100639190610412565b60405180910390f35b6100746100e8565b60405161006391906104c3565b61009461008f36600461050f565b6100fe565b6040516100639190610535565b6100b46100af366004610576565b61011c565b6040516001600160a01b039091168152602001610063565b60605f6100d7610152565b90506100e2816101b3565b91505090565b60605f6100f3610152565b90506100e2816102a6565b60605f610109610152565b905061011581846102b7565b9392505050565b5f80610126610152565b6001600160e01b031984165f9081526002820160205260409020549091506001600160a01b0316610115565b5f8060ff1961018260017f2d2da99d71d1efc4236a449de193a187f4a84e03a0841d399a2b879e1f55984f61059d565b60405160200161019491815260200190565b60408051601f1981840301815291905280516020909101201692915050565b60605f6101bf836102a6565b80519091508067ffffffffffffffff8111156101dd576101dd6105bc565b60405190808252806020026020018201604052801561022257816020015b604080518082019091525f8152606060208201528152602001906001900390816101fb5790505b5092505f5b8181101561029e575f838281518110610242576102426105d0565b602002602001015190505f61025787836102b7565b90506040518060400160405280836001600160a01b0316815260200182815250868481518110610289576102896105d0565b60209081029190910101525050600101610227565b505050919050565b60606102b182610373565b92915050565b6001600160a01b0381165f90815260038301602052604081206060916102dc8261037f565b90508067ffffffffffffffff8111156102f7576102f76105bc565b604051908082528060200260200182016040528015610320578160200160208202803683370190505b5092505f5b8181101561036a576103378382610388565b848281518110610349576103496105d0565b6001600160e01b031990921660209283029190910190910152600101610325565b50505092915050565b60605f61011583610393565b5f6102b1825490565b5f61011583836103ec565b6060815f018054806020026020016040519081016040528092919081815260200182805480156103e057602002820191905f5260205f20905b8154815260200190600101908083116103cc575b50505050509050919050565b5f825f018281548110610401576104016105d0565b905f5260205f200154905092915050565b5f60208083018184528085518083526040925060408601915060408160051b8701018488015f5b838110156104b557888303603f19018552815180516001600160a01b031684528701518784018790528051878501819052908801905f9060608601905b808310156104a05783516001600160e01b0319168252928a019260019290920191908a0190610476565b50968901969450505090860190600101610439565b509098975050505050505050565b602080825282518282018190525f9190848201906040850190845b818110156105035783516001600160a01b0316835292840192918401916001016104de565b50909695505050505050565b5f6020828403121561051f575f80fd5b81356001600160a01b0381168114610115575f80fd5b602080825282518282018190525f9190848201906040850190845b818110156105035783516001600160e01b03191683529284019291840191600101610550565b5f60208284031215610586575f80fd5b81356001600160e01b031981168114610115575f80fd5b818103818111156102b157634e487b7160e01b5f52601160045260245ffd5b634e487b7160e01b5f52604160045260245ffd5b634e487b7160e01b5f52603260045260245ffd","linkReferences":{}},"methodIdentifiers":{"branchAddress(bytes4)":"ab699c85","branchAddresses()":"942ca238","branchFunctionSelectors(address)":"aa3aabe3","branches()":"8979f164"},"id":167}