{"abi":[{"type":"function","name":"exposed_MarginCollateral_load","inputs":[{"name":"collateralType","type":"address","internalType":"address"}],"outputs":[{"name":"","type":"tuple","internalType":"struct MarginCollateralConfiguration.Data","components":[{"name":"depositCap","type":"uint128","internalType":"uint128"},{"name":"loanToValue","type":"uint120","internalType":"uint120"},{"name":"decimals","type":"uint8","internalType":"uint8"},{"name":"priceFeed","type":"address","internalType":"address"},{"name":"totalDeposited","type":"uint256","internalType":"uint256"},{"name":"priceFeedHearbeatSeconds","type":"uint32","internalType":"uint32"}]}],"stateMutability":"pure"},{"type":"function","name":"exposed_configure","inputs":[{"name":"collateralType","type":"address","internalType":"address"},{"name":"depositCap","type":"uint128","internalType":"uint128"},{"name":"loanToValue","type":"uint120","internalType":"uint120"},{"name":"decimals","type":"uint8","internalType":"uint8"},{"name":"priceFeed","type":"address","internalType":"address"},{"name":"priceFeedHearbeatSeconds","type":"uint32","internalType":"uint32"}],"outputs":[],"stateMutability":"nonpayable"},{"type":"function","name":"exposed_convertTokenAmountToUd60x18","inputs":[{"name":"collateralType","type":"address","internalType":"address"},{"name":"amount","type":"uint256","internalType":"uint256"}],"outputs":[{"name":"","type":"uint256","internalType":"UD60x18"}],"stateMutability":"view"},{"type":"function","name":"exposed_convertUd60x18ToTokenAmount","inputs":[{"name":"collateralType","type":"address","internalType":"address"},{"name":"amount","type":"uint256","internalType":"UD60x18"}],"outputs":[{"name":"","type":"uint256","internalType":"uint256"}],"stateMutability":"view"},{"type":"function","name":"exposed_getPrice","inputs":[{"name":"collateralType","type":"address","internalType":"address"}],"outputs":[{"name":"","type":"uint256","internalType":"UD60x18"}],"stateMutability":"view"},{"type":"function","name":"workaround_getTotalDeposited","inputs":[{"name":"collateralType","type":"address","internalType":"address"}],"outputs":[{"name":"","type":"uint256","internalType":"uint256"}],"stateMutability":"view"},{"type":"error","name":"CollateralPriceFeedNotDefined","inputs":[]},{"type":"error","name":"GracePeriodNotOver","inputs":[]},{"type":"error","name":"InvalidOracleReturn","inputs":[]},{"type":"error","name":"InvalidSequencerUptimeFeedReturn","inputs":[]},{"type":"error","name":"OraclePriceFeedHeartbeat","inputs":[{"name":"priceFeed","type":"address","internalType":"address"}]},{"type":"error","name":"OraclePriceFeedOutOfRange","inputs":[{"name":"priceFeed","type":"address","internalType":"address"}]},{"type":"error","name":"OracleSequencerUptimeFeedIsDown","inputs":[{"name":"sequencerUptimeFeed","type":"address","internalType":"address"}]},{"type":"error","name":"SafeCastOverflowedIntToUint","inputs":[{"name":"value","type":"int256","internalType":"int256"}]}],"bytecode":{"object":"0x6080604052348015600e575f80fd5b50610db38061001c5f395ff3fe608060405234801561000f575f80fd5b506004361061006f575f3560e01c80638fa26c231161004d5780638fa26c231461013f578063c1d3f8e814610152578063c6c05f2814610167575f80fd5b806308833f9e146100735780630c87f37c14610099578063661509af1461012c575b5f80fd5b610086610081366004610a8f565b61017a565b6040519081526020015b60405180910390f35b6100ac6100a7366004610a8f565b610197565b60405161009091905f60c0820190506fffffffffffffffffffffffffffffffff83511682526effffffffffffffffffffffffffffff602084015116602083015260ff60408401511660408301526001600160a01b0360608401511660608301526080830151608083015263ffffffff60a08401511660a083015292915050565b61008661013a366004610aaa565b610261565b61008661014d366004610aaa565b610282565b610165610160366004610ae2565b610299565b005b610086610175366004610a8f565b6102af565b5f80610185836102c3565b90506101908161035f565b9392505050565b6040805160c0810182525f80825260208201819052918101829052606081018290526080810182905260a08101919091526101d1826102c3565b6040805160c08101825282546fffffffffffffffffffffffffffffffff8116825270010000000000000000000000000000000081046effffffffffffffffffffffffffffff166020830152600160f81b900460ff169181019190915260018201546001600160a01b031660608201526002820154608082015260039091015463ffffffff1660a082015292915050565b5f8061026c846102c3565b905061027881846103f1565b9150505b92915050565b5f8061028d846102c3565b9050610278818461043b565b6102a7868686868686610489565b505050505050565b5f6102b9826102c3565b6002015492915050565b5f8060ff196102f360017f4693110e548948f348ad9c8c0e5b637b378994981b3a4246fc86241f8faded51610ba3565b60405160200161030591815260200190565b6040516020818303038152906040528051906020012016836040516020016103409291909182526001600160a01b0316602082015260400190565b60408051601f1981840301815291905280516020909101209392505050565b600181015460038201545f916001600160a01b03169063ffffffff168261038461058c565b465f9081526011820160205260409020549091506001600160a01b039081169084166103dc576040517ff976331100000000000000000000000000000000000000000000000000000000815260040160405180910390fd5b6103e78484836105ed565b9695505050505050565b81545f90600160f81b900460ff1660120361040f57815b905061027c565b825461042690600160f81b900460ff166012610bb6565b61043190600a610caf565b6101909083610cbd565b81545f90600160f81b900460ff166012036104565781610408565b82546101909061047190600160f81b900460ff166012610bb6565b61047c90600a610caf565b6104869084610cdc565b90565b5f610493876102c3565b805460ff909516600160f81b027effffffffffffffffffffffffffffffffffffffffffffffffffffffffffffff6effffffffffffffffffffffffffffff909716700100000000000000000000000000000000027fff000000000000000000000000000000000000000000000000000000000000009096166fffffffffffffffffffffffffffffffff9098169790971794909417949094169490941782556001820180546001600160a01b039092167fffffffffffffffffffffffff0000000000000000000000000000000000000000909216919091179055600301805463ffffffff90931663ffffffff19909316929092179091555050565b5f8060ff196105bc60017feeb5cd774bc9c6845792a7b59ceb11c49cb99339b2df9604c51808d2eb250cc2610ba3565b6040516020016105ce91815260200190565b60408051601f1981840301815291905280516020909101201692915050565b5f80846001600160a01b031663313ce5676040518163ffffffff1660e01b8152600401602060405180830381865afa15801561062b573d5f803e3d5ffd5b505050506040513d601f19601f8201168201806040525081019061064f9190610cf3565b9050601260ff8216111561067657604051634840b0ab60e11b815260040160405180910390fd5b6001600160a01b038316156107ae57826001600160a01b031663feaf968c6040518163ffffffff1660e01b815260040160a060405180830381865afa9250505080156106df575060408051601f3d908101601f191682019092526106dc91810190610d2c565b60015b610715576040517f382e6b6400000000000000000000000000000000000000000000000000000000815260040160405180910390fd5b83158061075e576040517fcbaf08250000000000000000000000000000000000000000000000000000000081526001600160a01b038a1660048201526024015b60405180910390fd5b5f6107698542610ba3565b9050610e1081116107a6576040517fd15f73b500000000000000000000000000000000000000000000000000000000815260040160405180910390fd5b505050505050505b846001600160a01b031663feaf968c6040518163ffffffff1660e01b815260040160a060405180830381865afa925050508015610808575060408051601f3d908101601f1916820190925261080591810190610d2c565b60015b61082557604051634840b0ab60e11b815260040160405180910390fd5b63ffffffff89166108368342610ba3565b1115610879576040517fa1ac05690000000000000000000000000000000000000000000000000000000081526001600160a01b038b166004820152602401610755565b5f8a6001600160a01b031663245a7bfc6040518163ffffffff1660e01b8152600401602060405180830381865afa1580156108b6573d5f803e3d5ffd5b505050506040513d601f19601f820116820180604052508101906108da9190610d78565b90505f816001600160a01b03166322adbc786040518163ffffffff1660e01b8152600401602060405180830381865afa158015610919573d5f803e3d5ffd5b505050506040513d601f19601f8201168201806040525081019061093d9190610d93565b90505f826001600160a01b03166370da2f676040518163ffffffff1660e01b8152600401602060405180830381865afa15801561097c573d5f803e3d5ffd5b505050506040513d601f19601f820116820180604052508101906109a09190610d93565b90508160170b871315806109b757508060170b8712155b156109f9576040517f045d8f840000000000000000000000000000000000000000000000000000000081526001600160a01b038e166004820152602401610755565b610a25610a078a6012610bb6565b610a1290600a610caf565b610a1b89610a36565b6104869190610cdc565b9d9c50505050505050505050505050565b5f80821215610a74576040517fa8ce443200000000000000000000000000000000000000000000000000000000815260048101839052602401610755565b5090565b6001600160a01b0381168114610a8c575f80fd5b50565b5f60208284031215610a9f575f80fd5b813561019081610a78565b5f8060408385031215610abb575f80fd5b8235610ac681610a78565b946020939093013593505050565b60ff81168114610a8c575f80fd5b5f805f805f8060c08789031215610af7575f80fd5b8635610b0281610a78565b955060208701356fffffffffffffffffffffffffffffffff81168114610b26575f80fd5b945060408701356effffffffffffffffffffffffffffff81168114610b49575f80fd5b93506060870135610b5981610ad4565b92506080870135610b6981610a78565b915060a087013563ffffffff81168114610b81575f80fd5b809150509295509295509295565b634e487b7160e01b5f52601160045260245ffd5b8181038181111561027c5761027c610b8f565b60ff828116828216039081111561027c5761027c610b8f565b600181815b80851115610c0957815f1904821115610bef57610bef610b8f565b80851615610bfc57918102915b93841c9390800290610bd4565b509250929050565b5f82610c1f5750600161027c565b81610c2b57505f61027c565b8160018114610c415760028114610c4b57610c67565b600191505061027c565b60ff841115610c5c57610c5c610b8f565b50506001821b61027c565b5060208310610133831016604e8410600b8410161715610c8a575081810a61027c565b610c948383610bcf565b805f1904821115610ca757610ca7610b8f565b029392505050565b5f61019060ff841683610c11565b5f82610cd757634e487b7160e01b5f52601260045260245ffd5b500490565b808202811582820484141761027c5761027c610b8f565b5f60208284031215610d03575f80fd5b815161019081610ad4565b805169ffffffffffffffffffff81168114610d27575f80fd5b919050565b5f805f805f60a08688031215610d40575f80fd5b610d4986610d0e565b9450602086015193506040860151925060608601519150610d6c60808701610d0e565b90509295509295909350565b5f60208284031215610d88575f80fd5b815161019081610a78565b5f60208284031215610da3575f80fd5b81518060170b8114610190575f80fd","linkReferences":{}},"methodIdentifiers":{"exposed_MarginCollateral_load(address)":"0c87f37c","exposed_configure(address,uint128,uint120,uint8,address,uint32)":"c1d3f8e8","exposed_convertTokenAmountToUd60x18(address,uint256)":"8fa26c23","exposed_convertUd60x18ToTokenAmount(address,uint256)":"661509af","exposed_getPrice(address)":"08833f9e","workaround_getTotalDeposited(address)":"c6c05f28"},"id":178}