{"abi":[{"type":"function","name":"DOMAIN_SEPARATOR","inputs":[],"outputs":[{"name":"","type":"bytes32","internalType":"bytes32"}],"stateMutability":"view"},{"type":"function","name":"UPGRADE_INTERFACE_VERSION","inputs":[],"outputs":[{"name":"","type":"string","internalType":"string"}],"stateMutability":"view"},{"type":"function","name":"allowance","inputs":[{"name":"owner","type":"address","internalType":"address"},{"name":"spender","type":"address","internalType":"address"}],"outputs":[{"name":"","type":"uint256","internalType":"uint256"}],"stateMutability":"view"},{"type":"function","name":"amountMintedPerAddress","inputs":[{"name":"user","type":"address","internalType":"address"}],"outputs":[{"name":"amount","type":"uint256","internalType":"uint256"}],"stateMutability":"view"},{"type":"function","name":"approve","inputs":[{"name":"spender","type":"address","internalType":"address"},{"name":"value","type":"uint256","internalType":"uint256"}],"outputs":[{"name":"","type":"bool","internalType":"bool"}],"stateMutability":"nonpayable"},{"type":"function","name":"balanceOf","inputs":[{"name":"account","type":"address","internalType":"address"}],"outputs":[{"name":"","type":"uint256","internalType":"uint256"}],"stateMutability":"view"},{"type":"function","name":"burn","inputs":[{"name":"from","type":"address","internalType":"address"},{"name":"amount","type":"uint256","internalType":"uint256"}],"outputs":[],"stateMutability":"nonpayable"},{"type":"function","name":"decimals","inputs":[],"outputs":[{"name":"","type":"uint8","internalType":"uint8"}],"stateMutability":"view"},{"type":"function","name":"eip712Domain","inputs":[],"outputs":[{"name":"fields","type":"bytes1","internalType":"bytes1"},{"name":"name","type":"string","internalType":"string"},{"name":"version","type":"string","internalType":"string"},{"name":"chainId","type":"uint256","internalType":"uint256"},{"name":"verifyingContract","type":"address","internalType":"address"},{"name":"salt","type":"bytes32","internalType":"bytes32"},{"name":"extensions","type":"uint256[]","internalType":"uint256[]"}],"stateMutability":"view"},{"type":"function","name":"getAmountMintedPerAddress","inputs":[{"name":"user","type":"address","internalType":"address"}],"outputs":[{"name":"","type":"uint256","internalType":"uint256"}],"stateMutability":"view"},{"type":"function","name":"initialize","inputs":[{"name":"owner","type":"address","internalType":"address"},{"name":"name","type":"string","internalType":"string"},{"name":"symbol","type":"string","internalType":"string"}],"outputs":[],"stateMutability":"nonpayable"},{"type":"function","name":"mint","inputs":[{"name":"to","type":"address","internalType":"address"},{"name":"amount","type":"uint256","internalType":"uint256"}],"outputs":[],"stateMutability":"nonpayable"},{"type":"function","name":"name","inputs":[],"outputs":[{"name":"","type":"string","internalType":"string"}],"stateMutability":"view"},{"type":"function","name":"nonces","inputs":[{"name":"owner","type":"address","internalType":"address"}],"outputs":[{"name":"","type":"uint256","internalType":"uint256"}],"stateMutability":"view"},{"type":"function","name":"owner","inputs":[],"outputs":[{"name":"","type":"address","internalType":"address"}],"stateMutability":"view"},{"type":"function","name":"permit","inputs":[{"name":"owner","type":"address","internalType":"address"},{"name":"spender","type":"address","internalType":"address"},{"name":"value","type":"uint256","internalType":"uint256"},{"name":"deadline","type":"uint256","internalType":"uint256"},{"name":"v","type":"uint8","internalType":"uint8"},{"name":"r","type":"bytes32","internalType":"bytes32"},{"name":"s","type":"bytes32","internalType":"bytes32"}],"outputs":[],"stateMutability":"nonpayable"},{"type":"function","name":"proxiableUUID","inputs":[],"outputs":[{"name":"","type":"bytes32","internalType":"bytes32"}],"stateMutability":"view"},{"type":"function","name":"renounceOwnership","inputs":[],"outputs":[],"stateMutability":"nonpayable"},{"type":"function","name":"symbol","inputs":[],"outputs":[{"name":"","type":"string","internalType":"string"}],"stateMutability":"view"},{"type":"function","name":"totalSupply","inputs":[],"outputs":[{"name":"","type":"uint256","internalType":"uint256"}],"stateMutability":"view"},{"type":"function","name":"transfer","inputs":[{"name":"to","type":"address","internalType":"address"},{"name":"value","type":"uint256","internalType":"uint256"}],"outputs":[{"name":"","type":"bool","internalType":"bool"}],"stateMutability":"nonpayable"},{"type":"function","name":"transferFrom","inputs":[{"name":"from","type":"address","internalType":"address"},{"name":"to","type":"address","internalType":"address"},{"name":"value","type":"uint256","internalType":"uint256"}],"outputs":[{"name":"","type":"bool","internalType":"bool"}],"stateMutability":"nonpayable"},{"type":"function","name":"transferOwnership","inputs":[{"name":"newOwner","type":"address","internalType":"address"}],"outputs":[],"stateMutability":"nonpayable"},{"type":"function","name":"updateMaxAmountToMintPerAddress","inputs":[{"name":"newAmount","type":"uint256","internalType":"uint256"}],"outputs":[],"stateMutability":"nonpayable"},{"type":"function","name":"upgradeToAndCall","inputs":[{"name":"newImplementation","type":"address","internalType":"address"},{"name":"data","type":"bytes","internalType":"bytes"}],"outputs":[],"stateMutability":"payable"},{"type":"event","name":"Approval","inputs":[{"name":"owner","type":"address","indexed":true,"internalType":"address"},{"name":"spender","type":"address","indexed":true,"internalType":"address"},{"name":"value","type":"uint256","indexed":false,"internalType":"uint256"}],"anonymous":false},{"type":"event","name":"EIP712DomainChanged","inputs":[],"anonymous":false},{"type":"event","name":"Initialized","inputs":[{"name":"version","type":"uint64","indexed":false,"internalType":"uint64"}],"anonymous":false},{"type":"event","name":"OwnershipTransferred","inputs":[{"name":"previousOwner","type":"address","indexed":true,"internalType":"address"},{"name":"newOwner","type":"address","indexed":true,"internalType":"address"}],"anonymous":false},{"type":"event","name":"Transfer","inputs":[{"name":"from","type":"address","indexed":true,"internalType":"address"},{"name":"to","type":"address","indexed":true,"internalType":"address"},{"name":"value","type":"uint256","indexed":false,"internalType":"uint256"}],"anonymous":false},{"type":"event","name":"Upgraded","inputs":[{"name":"implementation","type":"address","indexed":true,"internalType":"address"}],"anonymous":false},{"type":"error","name":"AddressEmptyCode","inputs":[{"name":"target","type":"address","internalType":"address"}]},{"type":"error","name":"ECDSAInvalidSignature","inputs":[]},{"type":"error","name":"ECDSAInvalidSignatureLength","inputs":[{"name":"length","type":"uint256","internalType":"uint256"}]},{"type":"error","name":"ECDSAInvalidSignatureS","inputs":[{"name":"s","type":"bytes32","internalType":"bytes32"}]},{"type":"error","name":"ERC1967InvalidImplementation","inputs":[{"name":"implementation","type":"address","internalType":"address"}]},{"type":"error","name":"ERC1967NonPayable","inputs":[]},{"type":"error","name":"ERC20InsufficientAllowance","inputs":[{"name":"spender","type":"address","internalType":"address"},{"name":"allowance","type":"uint256","internalType":"uint256"},{"name":"needed","type":"uint256","internalType":"uint256"}]},{"type":"error","name":"ERC20InsufficientBalance","inputs":[{"name":"sender","type":"address","internalType":"address"},{"name":"balance","type":"uint256","internalType":"uint256"},{"name":"needed","type":"uint256","internalType":"uint256"}]},{"type":"error","name":"ERC20InvalidApprover","inputs":[{"name":"approver","type":"address","internalType":"address"}]},{"type":"error","name":"ERC20InvalidReceiver","inputs":[{"name":"receiver","type":"address","internalType":"address"}]},{"type":"error","name":"ERC20InvalidSender","inputs":[{"name":"sender","type":"address","internalType":"address"}]},{"type":"error","name":"ERC20InvalidSpender","inputs":[{"name":"spender","type":"address","internalType":"address"}]},{"type":"error","name":"ERC2612ExpiredSignature","inputs":[{"name":"deadline","type":"uint256","internalType":"uint256"}]},{"type":"error","name":"ERC2612InvalidSigner","inputs":[{"name":"signer","type":"address","internalType":"address"},{"name":"owner","type":"address","internalType":"address"}]},{"type":"error","name":"FailedInnerCall","inputs":[]},{"type":"error","name":"InvalidAccountNonce","inputs":[{"name":"account","type":"address","internalType":"address"},{"name":"currentNonce","type":"uint256","internalType":"uint256"}]},{"type":"error","name":"InvalidInitialization","inputs":[]},{"type":"error","name":"LimitedMintingERC20_AmountExceedsLimit","inputs":[]},{"type":"error","name":"LimitedMintingERC20_UserIsNotActive","inputs":[]},{"type":"error","name":"LimitedMintingERC20_ZeroAmount","inputs":[]},{"type":"error","name":"NotInitializing","inputs":[]},{"type":"error","name":"OwnableInvalidOwner","inputs":[{"name":"owner","type":"address","internalType":"address"}]},{"type":"error","name":"OwnableUnauthorizedAccount","inputs":[{"name":"account","type":"address","internalType":"address"}]},{"type":"error","name":"UUPSUnauthorizedCallContext","inputs":[]},{"type":"error","name":"UUPSUnsupportedProxiableUUID","inputs":[{"name":"slot","type":"bytes32","internalType":"bytes32"}]}],"bytecode":{"object":"0x60a0604052306080523480156012575f80fd5b506080516121356100395f395f8181610e9801528181610ec1015261103f01526121355ff3fe60806040526004361061018e575f3560e01c80637ecebe00116100dc578063a9059cbb11610087578063d505accf11610062578063d505accf14610489578063d580c87f146104a8578063dd62ed3e146104d3578063f2fde38b14610536575f80fd5b8063a9059cbb146103ee578063ad3cb1cc1461040d578063d18cb39814610455575f80fd5b806390657147116100b7578063906571471461039c57806395d89b41146103bb5780639dc29fac146103cf575f80fd5b80637ecebe001461031057806384b0196e1461032f5780638da5cb5b14610356575f80fd5b80633644e5151161013c57806352d1902d1161011757806352d1902d146102c957806370a08231146102dd578063715018a6146102fc575f80fd5b80633644e5151461028357806340c10f19146102975780634f1ef286146102b6575f80fd5b806318160ddd1161016c57806318160ddd1461020c57806323b872dd14610249578063313ce56714610268575f80fd5b806306fdde0314610192578063095ea7b3146101bc57806311f551d4146101eb575b5f80fd5b34801561019d575f80fd5b506101a6610555565b6040516101b39190611c13565b60405180910390f35b3480156101c7575f80fd5b506101db6101d6366004611c40565b61060d565b60405190151581526020016101b3565b3480156101f6575f80fd5b5061020a610205366004611c68565b610626565b005b348015610217575f80fd5b507f52c63247e1f47db19d5ce0460030c497f067ca4cebf71ba98eeadabe20bace02545b6040519081526020016101b3565b348015610254575f80fd5b506101db610263366004611c7f565b610632565b348015610273575f80fd5b50604051601281526020016101b3565b34801561028e575f80fd5b5061023b610657565b3480156102a2575f80fd5b5061020a6102b1366004611c40565b610665565b61020a6102c4366004611d3f565b6106da565b3480156102d4575f80fd5b5061023b6106f5565b3480156102e8575f80fd5b5061023b6102f7366004611d9d565b610723565b348015610307575f80fd5b5061020a610766565b34801561031b575f80fd5b5061023b61032a366004611d9d565b610779565b34801561033a575f80fd5b50610343610783565b6040516101b39796959493929190611db6565b348015610361575f80fd5b507f9016d09d72d40fdae2fd8ceac6b6234c7706214fd39c1cd1e609a0528c199300546040516001600160a01b0390911681526020016101b3565b3480156103a7575f80fd5b5061020a6103b6366004611e87565b610882565b3480156103c6575f80fd5b506101a66109df565b3480156103da575f80fd5b5061020a6103e9366004611c40565b610a30565b3480156103f9575f80fd5b506101db610408366004611c40565b610a43565b348015610418575f80fd5b506101a66040518060400160405280600581526020017f352e302e3000000000000000000000000000000000000000000000000000000081525081565b348015610460575f80fd5b5061023b61046f366004611d9d565b6001600160a01b03165f9081526001602052604090205490565b348015610494575f80fd5b5061020a6104a3366004611ef6565b610a50565b3480156104b3575f80fd5b5061023b6104c2366004611d9d565b60016020525f908152604090205481565b3480156104de575f80fd5b5061023b6104ed366004611f63565b6001600160a01b039182165f9081527f52c63247e1f47db19d5ce0460030c497f067ca4cebf71ba98eeadabe20bace016020908152604080832093909416825291909152205490565b348015610541575f80fd5b5061020a610550366004611d9d565b610bd7565b60605f7f52c63247e1f47db19d5ce0460030c497f067ca4cebf71ba98eeadabe20bace005b905080600301805461058b90611f94565b80601f01602080910402602001604051908101604052809291908181526020018280546105b790611f94565b80156106025780601f106105d957610100808354040283529160200191610602565b820191905f5260205f20905b8154815290600101906020018083116105e557829003601f168201915b505050505091505090565b5f3361061a818585610c2d565b60019150505b92915050565b61062e610c3f565b5f55565b5f3361063f858285610cb3565b61064a858585610d66565b60019150505b9392505050565b5f610660610dc3565b905090565b7f9016d09d72d40fdae2fd8ceac6b6234c7706214fd39c1cd1e609a0528c199300546001600160a01b031633146106a85761069f81610dcc565b6106a881610e05565b335f90815260016020526040812080548392906106c6908490611fcc565b909155506106d690508282610e59565b5050565b6106e2610e8d565b6106eb82610f44565b6106d68282610f4c565b5f6106fe611034565b507f360894a13ba1a3210667c828492db98dca3e2076cc3735a920a3ca505d382bbc90565b5f807f52c63247e1f47db19d5ce0460030c497f067ca4cebf71ba98eeadabe20bace005b6001600160a01b039093165f9081526020939093525050604090205490565b61076e610c3f565b6107775f61107d565b565b5f610620826110fa565b5f60608082808083817fa16a46d94261c7517cc8ff89f61c0ce93598e3c849801011dee649a6a557d10080549091501580156107c157506001810154155b61082c576040517f08c379a000000000000000000000000000000000000000000000000000000000815260206004820152601560248201527f4549503731323a20556e696e697469616c697a6564000000000000000000000060448201526064015b60405180910390fd5b610834611122565b61083c611173565b604080515f808252602082019092527f0f000000000000000000000000000000000000000000000000000000000000009c939b5091995046985030975095509350915050565b7ff0c57e16840df040f15088dc2f81fe391c3923bec73e23a9662efc9c229c6a00805468010000000000000000810460ff16159067ffffffffffffffff165f811580156108cc5750825b90505f8267ffffffffffffffff1660011480156108e85750303b155b9050811580156108f6575080155b1561092d576040517ff92ee8a900000000000000000000000000000000000000000000000000000000815260040160405180910390fd5b845467ffffffffffffffff19166001178555831561096157845468ff00000000000000001916680100000000000000001785555b69152d02c7e14af68000005f55610978878761119c565b610981876111ae565b61098a886111f5565b83156109d557845468ff000000000000000019168555604051600181527fc7f505b2f371ae2175ee4913f4499e1f2633a7b5936321eed1cdaeb6115181d29060200160405180910390a15b5050505050505050565b7f52c63247e1f47db19d5ce0460030c497f067ca4cebf71ba98eeadabe20bace0480546060917f52c63247e1f47db19d5ce0460030c497f067ca4cebf71ba98eeadabe20bace009161058b90611f94565b610a3981610dcc565b6106d68282611206565b5f3361061a818585610d66565b83421115610a8d576040517f6279130200000000000000000000000000000000000000000000000000000000815260048101859052602401610823565b5f7f6e71edae12b1b97f4d1f60370fef10105fa2faae0126114a169c64845d6126c9888888610af78c6001600160a01b03165f9081527f5ab42ced628888259c08ac98db1eb0cf702fc1501344311d8b100cd1bfe4bb006020526040902080546001810190915590565b6040805160208101969096526001600160a01b0394851690860152929091166060840152608083015260a082015260c0810186905260e0016040516020818303038152906040528051906020012090505f610b518261123a565b90505f610b6082878787611281565b9050896001600160a01b0316816001600160a01b031614610bc0576040517f4b800e460000000000000000000000000000000000000000000000000000000081526001600160a01b0380831660048301528b166024820152604401610823565b610bcb8a8a8a610c2d565b50505050505050505050565b610bdf610c3f565b6001600160a01b038116610c21576040517f1e4fbdf70000000000000000000000000000000000000000000000000000000081525f6004820152602401610823565b610c2a8161107d565b50565b610c3a83838360016112ad565b505050565b33610c717f9016d09d72d40fdae2fd8ceac6b6234c7706214fd39c1cd1e609a0528c199300546001600160a01b031690565b6001600160a01b031614610777576040517f118cdaa7000000000000000000000000000000000000000000000000000000008152336004820152602401610823565b6001600160a01b038381165f9081527f52c63247e1f47db19d5ce0460030c497f067ca4cebf71ba98eeadabe20bace0160209081526040808320938616835292905220545f198114610d605781811015610d52576040517ffb8f41b20000000000000000000000000000000000000000000000000000000081526001600160a01b03841660048201526024810182905260448101839052606401610823565b610d6084848484035f6112ad565b50505050565b6001600160a01b038316610d8f57604051634b637e8f60e11b81525f6004820152602401610823565b6001600160a01b038216610db85760405163ec442f0560e01b81525f6004820152602401610823565b610c3a8383836113d6565b5f61066061153b565b805f03610c2a576040517f9ca5d1f500000000000000000000000000000000000000000000000000000000815260040160405180910390fd5b5f80543382526001602052604090912054610e21908390611fcc565b1115610c2a576040517fc0455c6400000000000000000000000000000000000000000000000000000000815260040160405180910390fd5b6001600160a01b038216610e825760405163ec442f0560e01b81525f6004820152602401610823565b6106d65f83836113d6565b306001600160a01b037f0000000000000000000000000000000000000000000000000000000000000000161480610f2657507f00000000000000000000000000000000000000000000000000000000000000006001600160a01b0316610f1a7f360894a13ba1a3210667c828492db98dca3e2076cc3735a920a3ca505d382bbc546001600160a01b031690565b6001600160a01b031614155b156107775760405163703e46dd60e11b815260040160405180910390fd5b610c2a610c3f565b816001600160a01b03166352d1902d6040518163ffffffff1660e01b8152600401602060405180830381865afa925050508015610fa6575060408051601f3d908101601f19168201909252610fa391810190611feb565b60015b610fce57604051634c9c8ce360e01b81526001600160a01b0383166004820152602401610823565b7f360894a13ba1a3210667c828492db98dca3e2076cc3735a920a3ca505d382bbc811461102a576040517faa1d49a400000000000000000000000000000000000000000000000000000000815260048101829052602401610823565b610c3a83836115ae565b306001600160a01b037f000000000000000000000000000000000000000000000000000000000000000016146107775760405163703e46dd60e11b815260040160405180910390fd5b7f9016d09d72d40fdae2fd8ceac6b6234c7706214fd39c1cd1e609a0528c199300805473ffffffffffffffffffffffffffffffffffffffff1981166001600160a01b03848116918217845560405192169182907f8be0079c531659141344cd1fd0a4f28419497f9722a3daafe3b4186f6b6457e0905f90a3505050565b5f807f5ab42ced628888259c08ac98db1eb0cf702fc1501344311d8b100cd1bfe4bb00610747565b7fa16a46d94261c7517cc8ff89f61c0ce93598e3c849801011dee649a6a557d10280546060917fa16a46d94261c7517cc8ff89f61c0ce93598e3c849801011dee649a6a557d1009161058b90611f94565b60605f7fa16a46d94261c7517cc8ff89f61c0ce93598e3c849801011dee649a6a557d10061057a565b6111a4611603565b6106d6828261166a565b6111b6611603565b610c2a816040518060400160405280600181526020017f31000000000000000000000000000000000000000000000000000000000000008152506116cd565b6111fd611603565b610c2a8161173f565b6001600160a01b03821661122f57604051634b637e8f60e11b81525f6004820152602401610823565b6106d6825f836113d6565b5f610620611246610dc3565b836040517f19010000000000000000000000000000000000000000000000000000000000008152600281019290925260228201526042902090565b5f805f8061129188888888611747565b9250925092506112a1828261180f565b50909695505050505050565b7f52c63247e1f47db19d5ce0460030c497f067ca4cebf71ba98eeadabe20bace006001600160a01b038516611310576040517fe602df050000000000000000000000000000000000000000000000000000000081525f6004820152602401610823565b6001600160a01b038416611352576040517f94280d620000000000000000000000000000000000000000000000000000000081525f6004820152602401610823565b6001600160a01b038086165f908152600183016020908152604080832093881683529290522083905581156113cf57836001600160a01b0316856001600160a01b03167f8c5be1e5ebec7d5bd14f71427d1e84f3dd0314c0f7b2291e5b200ac8c7c3b925856040516113c691815260200190565b60405180910390a35b5050505050565b7f52c63247e1f47db19d5ce0460030c497f067ca4cebf71ba98eeadabe20bace006001600160a01b0384166114235781816002015f8282546114189190611fcc565b909155506114ac9050565b6001600160a01b0384165f908152602082905260409020548281101561148e576040517fe450d38c0000000000000000000000000000000000000000000000000000000081526001600160a01b03861660048201526024810182905260448101849052606401610823565b6001600160a01b0385165f9081526020839052604090209083900390555b6001600160a01b0383166114ca5760028101805483900390556114e8565b6001600160a01b0383165f9081526020829052604090208054830190555b826001600160a01b0316846001600160a01b03167fddf252ad1be2c89b69c2b068fc378daa952ba7f163c4a11628f55a4df523b3ef8460405161152d91815260200190565b60405180910390a350505050565b5f7f8b73c3c69bb8fe3d512ecc4cf759cc79239f7b179b0ffacaa9a75d522b39400f611565611912565b61156d61198d565b60408051602081019490945283019190915260608201524660808201523060a082015260c00160405160208183030381529060405280519060200120905090565b6115b7826119e2565b6040516001600160a01b038316907fbc7cd75a20ee27fd9adebab32041f755214dbc6bffa90cc0225b39da2e5c2d3b905f90a28051156115fb57610c3a8282611a65565b6106d6611ad7565b7ff0c57e16840df040f15088dc2f81fe391c3923bec73e23a9662efc9c229c6a005468010000000000000000900460ff16610777576040517fd7e6bcf800000000000000000000000000000000000000000000000000000000815260040160405180910390fd5b611672611603565b7f52c63247e1f47db19d5ce0460030c497f067ca4cebf71ba98eeadabe20bace007f52c63247e1f47db19d5ce0460030c497f067ca4cebf71ba98eeadabe20bace036116be8482612046565b5060048101610d608382612046565b6116d5611603565b7fa16a46d94261c7517cc8ff89f61c0ce93598e3c849801011dee649a6a557d1007fa16a46d94261c7517cc8ff89f61c0ce93598e3c849801011dee649a6a557d1026117218482612046565b50600381016117308382612046565b505f8082556001909101555050565b610bdf611603565b5f80807f7fffffffffffffffffffffffffffffff5d576e7357a4501ddfe92f46681b20a084111561178057505f91506003905082611805565b604080515f808252602082018084528a905260ff891692820192909252606081018790526080810186905260019060a0016020604051602081039080840390855afa1580156117d1573d5f803e3d5ffd5b5050604051601f1901519150506001600160a01b0381166117fc57505f925060019150829050611805565b92505f91508190505b9450945094915050565b5f82600381111561182257611822612106565b0361182b575050565b600182600381111561183f5761183f612106565b03611876576040517ff645eedf00000000000000000000000000000000000000000000000000000000815260040160405180910390fd5b600282600381111561188a5761188a612106565b036118c4576040517ffce698f700000000000000000000000000000000000000000000000000000000815260048101829052602401610823565b60038260038111156118d8576118d8612106565b036106d6576040517fd78bce0c00000000000000000000000000000000000000000000000000000000815260048101829052602401610823565b5f7fa16a46d94261c7517cc8ff89f61c0ce93598e3c849801011dee649a6a557d1008161193d611122565b80519091501561195557805160209091012092915050565b81548015611964579392505050565b7fc5d2460186f7233c927e7db2dcc703c0e500b653ca82273b7bfad8045d85a470935050505090565b5f7fa16a46d94261c7517cc8ff89f61c0ce93598e3c849801011dee649a6a557d100816119b8611173565b8051909150156119d057805160209091012092915050565b60018201548015611964579392505050565b806001600160a01b03163b5f03611a1757604051634c9c8ce360e01b81526001600160a01b0382166004820152602401610823565b7f360894a13ba1a3210667c828492db98dca3e2076cc3735a920a3ca505d382bbc805473ffffffffffffffffffffffffffffffffffffffff19166001600160a01b0392909216919091179055565b60605f80846001600160a01b031684604051611a81919061211a565b5f60405180830381855af49150503d805f8114611ab9576040519150601f19603f3d011682016040523d82523d5f602084013e611abe565b606091505b5091509150611ace858383611b0f565b95945050505050565b3415610777576040517fb398979f00000000000000000000000000000000000000000000000000000000815260040160405180910390fd5b606082611b2457611b1f82611b84565b610650565b8151158015611b3b57506001600160a01b0384163b155b15611b7d576040517f9996b3150000000000000000000000000000000000000000000000000000000081526001600160a01b0385166004820152602401610823565b5080610650565b805115611b945780518082602001fd5b6040517f1425ea4200000000000000000000000000000000000000000000000000000000815260040160405180910390fd5b5f5b83811015611be0578181015183820152602001611bc8565b50505f910152565b5f8151808452611bff816020860160208601611bc6565b601f01601f19169290920160200192915050565b602081525f6106506020830184611be8565b80356001600160a01b0381168114611c3b575f80fd5b919050565b5f8060408385031215611c51575f80fd5b611c5a83611c25565b946020939093013593505050565b5f60208284031215611c78575f80fd5b5035919050565b5f805f60608486031215611c91575f80fd5b611c9a84611c25565b9250611ca860208501611c25565b9150604084013590509250925092565b634e487b7160e01b5f52604160045260245ffd5b5f67ffffffffffffffff80841115611ce657611ce6611cb8565b604051601f8501601f19908116603f01168101908282118183101715611d0e57611d0e611cb8565b81604052809350858152868686011115611d26575f80fd5b858560208301375f602087830101525050509392505050565b5f8060408385031215611d50575f80fd5b611d5983611c25565b9150602083013567ffffffffffffffff811115611d74575f80fd5b8301601f81018513611d84575f80fd5b611d9385823560208401611ccc565b9150509250929050565b5f60208284031215611dad575f80fd5b61065082611c25565b7fff00000000000000000000000000000000000000000000000000000000000000881681525f602060e06020840152611df260e084018a611be8565b8381036040850152611e04818a611be8565b606085018990526001600160a01b038816608086015260a0850187905284810360c0860152855180825260208088019350909101905f5b81811015611e5757835183529284019291840191600101611e3b565b50909c9b505050505050505050505050565b5f82601f830112611e78575f80fd5b61065083833560208501611ccc565b5f805f60608486031215611e99575f80fd5b611ea284611c25565b9250602084013567ffffffffffffffff80821115611ebe575f80fd5b611eca87838801611e69565b93506040860135915080821115611edf575f80fd5b50611eec86828701611e69565b9150509250925092565b5f805f805f805f60e0888a031215611f0c575f80fd5b611f1588611c25565b9650611f2360208901611c25565b95506040880135945060608801359350608088013560ff81168114611f46575f80fd5b9699959850939692959460a0840135945060c09093013592915050565b5f8060408385031215611f74575f80fd5b611f7d83611c25565b9150611f8b60208401611c25565b90509250929050565b600181811c90821680611fa857607f821691505b602082108103611fc657634e487b7160e01b5f52602260045260245ffd5b50919050565b8082018082111561062057634e487b7160e01b5f52601160045260245ffd5b5f60208284031215611ffb575f80fd5b5051919050565b601f821115610c3a57805f5260205f20601f840160051c810160208510156120275750805b601f840160051c820191505b818110156113cf575f8155600101612033565b815167ffffffffffffffff81111561206057612060611cb8565b6120748161206e8454611f94565b84612002565b602080601f8311600181146120a7575f84156120905750858301515b5f19600386901b1c1916600185901b1785556120fe565b5f85815260208120601f198616915b828110156120d5578886015182559484019460019091019084016120b6565b50858210156120f257878501515f19600388901b60f8161c191681555b505060018460011b0185555b505050505050565b634e487b7160e01b5f52602160045260245ffd5b5f825161212b818460208701611bc6565b919091019291505056","linkReferences":{}},"methodIdentifiers":{"DOMAIN_SEPARATOR()":"3644e515","UPGRADE_INTERFACE_VERSION()":"ad3cb1cc","allowance(address,address)":"dd62ed3e","amountMintedPerAddress(address)":"d580c87f","approve(address,uint256)":"095ea7b3","balanceOf(address)":"70a08231","burn(address,uint256)":"9dc29fac","decimals()":"313ce567","eip712Domain()":"84b0196e","getAmountMintedPerAddress(address)":"d18cb398","initialize(address,string,string)":"90657147","mint(address,uint256)":"40c10f19","name()":"06fdde03","nonces(address)":"7ecebe00","owner()":"8da5cb5b","permit(address,address,uint256,uint256,uint8,bytes32,bytes32)":"d505accf","proxiableUUID()":"52d1902d","renounceOwnership()":"715018a6","symbol()":"95d89b41","totalSupply()":"18160ddd","transfer(address,uint256)":"a9059cbb","transferFrom(address,address,uint256)":"23b872dd","transferOwnership(address)":"f2fde38b","updateMaxAmountToMintPerAddress(uint256)":"11f551d4","upgradeToAndCall(address,bytes)":"4f1ef286"},"id":294}