{"abi":[{"type":"constructor","inputs":[],"stateMutability":"nonpayable"},{"type":"function","name":"DOMAIN_SEPARATOR","inputs":[],"outputs":[{"name":"","type":"bytes32","internalType":"bytes32"}],"stateMutability":"view"},{"type":"function","name":"eip712Domain","inputs":[],"outputs":[{"name":"fields","type":"bytes1","internalType":"bytes1"},{"name":"name","type":"string","internalType":"string"},{"name":"version","type":"string","internalType":"string"},{"name":"chainId","type":"uint256","internalType":"uint256"},{"name":"verifyingContract","type":"address","internalType":"address"},{"name":"salt","type":"bytes32","internalType":"bytes32"},{"name":"extensions","type":"uint256[]","internalType":"uint256[]"}],"stateMutability":"view"},{"type":"function","name":"fillMarketOrder","inputs":[{"name":"tradingAccountId","type":"uint128","internalType":"uint128"},{"name":"marketId","type":"uint128","internalType":"uint128"},{"name":"priceData","type":"bytes","internalType":"bytes"}],"outputs":[],"stateMutability":"nonpayable"},{"type":"function","name":"fillOffchainOrders","inputs":[{"name":"marketId","type":"uint128","internalType":"uint128"},{"name":"offchainOrders","type":"tuple[]","internalType":"struct OffchainOrder.Data[]","components":[{"name":"tradingAccountId","type":"uint128","internalType":"uint128"},{"name":"marketId","type":"uint128","internalType":"uint128"},{"name":"sizeDelta","type":"int128","internalType":"int128"},{"name":"targetPrice","type":"uint128","internalType":"uint128"},{"name":"shouldIncreaseNonce","type":"bool","internalType":"bool"},{"name":"nonce","type":"uint120","internalType":"uint120"},{"name":"salt","type":"bytes32","internalType":"bytes32"},{"name":"v","type":"uint8","internalType":"uint8"},{"name":"r","type":"bytes32","internalType":"bytes32"},{"name":"s","type":"bytes32","internalType":"bytes32"}]},{"name":"priceData","type":"bytes","internalType":"bytes"}],"outputs":[],"stateMutability":"nonpayable"},{"type":"function","name":"initialize","inputs":[],"outputs":[],"stateMutability":"nonpayable"},{"type":"event","name":"EIP712DomainChanged","inputs":[],"anonymous":false},{"type":"event","name":"Initialized","inputs":[{"name":"version","type":"uint64","indexed":false,"internalType":"uint64"}],"anonymous":false},{"type":"event","name":"LogFillOrder","inputs":[{"name":"sender","type":"address","indexed":true,"internalType":"address"},{"name":"tradingAccountId","type":"uint128","indexed":true,"internalType":"uint128"},{"name":"marketId","type":"uint128","indexed":true,"internalType":"uint128"},{"name":"sizeDelta","type":"int256","indexed":false,"internalType":"int256"},{"name":"fillPrice","type":"uint256","indexed":false,"internalType":"uint256"},{"name":"orderFeeUsd","type":"uint256","indexed":false,"internalType":"uint256"},{"name":"settlementFeeUsd","type":"uint256","indexed":false,"internalType":"uint256"},{"name":"pnl","type":"int256","indexed":false,"internalType":"int256"},{"name":"fundingFeePerUnit","type":"int256","indexed":false,"internalType":"int256"}],"anonymous":false},{"type":"error","name":"AccountNotFound","inputs":[{"name":"tradingAccountId","type":"uint128","internalType":"uint128"},{"name":"sender","type":"address","internalType":"address"}]},{"type":"error","name":"AddressEmptyCode","inputs":[{"name":"target","type":"address","internalType":"address"}]},{"type":"error","name":"AddressInsufficientBalance","inputs":[{"name":"account","type":"address","internalType":"address"}]},{"type":"error","name":"CollateralPriceFeedNotDefined","inputs":[]},{"type":"error","name":"ECDSAInvalidSignature","inputs":[]},{"type":"error","name":"ECDSAInvalidSignatureLength","inputs":[{"name":"length","type":"uint256","internalType":"uint256"}]},{"type":"error","name":"ECDSAInvalidSignatureS","inputs":[{"name":"s","type":"bytes32","internalType":"bytes32"}]},{"type":"error","name":"ExceedsOpenInterestLimit","inputs":[{"name":"marketId","type":"uint128","internalType":"uint128"},{"name":"maxOpenInterest","type":"uint256","internalType":"uint256"},{"name":"newOpenInterest","type":"uint256","internalType":"uint256"}]},{"type":"error","name":"ExceedsSkewLimit","inputs":[{"name":"marketId","type":"uint128","internalType":"uint128"},{"name":"maxSkew","type":"uint256","internalType":"uint256"},{"name":"newSkew","type":"int256","internalType":"int256"}]},{"type":"error","name":"FailedInnerCall","inputs":[]},{"type":"error","name":"GracePeriodNotOver","inputs":[]},{"type":"error","name":"InsufficientMargin","inputs":[{"name":"tradingAccountId","type":"uint128","internalType":"uint128"},{"name":"marginBalanceUsdX18","type":"int256","internalType":"int256"},{"name":"requiredMarginUsdX18","type":"uint256","internalType":"uint256"},{"name":"totalFeesUsdX18","type":"uint256","internalType":"uint256"}]},{"type":"error","name":"InvalidDataStreamReport","inputs":[{"name":"streamId","type":"bytes32","internalType":"bytes32"},{"name":"reportStreamId","type":"bytes32","internalType":"bytes32"}]},{"type":"error","name":"InvalidInitialization","inputs":[]},{"type":"error","name":"InvalidOracleReturn","inputs":[]},{"type":"error","name":"InvalidOrderSigner","inputs":[{"name":"signer","type":"address","internalType":"address"},{"name":"expectedSigner","type":"address","internalType":"address"}]},{"type":"error","name":"InvalidSequencerUptimeFeedReturn","inputs":[]},{"type":"error","name":"InvalidSettlementStrategy","inputs":[]},{"type":"error","name":"InvalidSignedNonce","inputs":[{"name":"tradingAccountNonce","type":"uint128","internalType":"uint128"},{"name":"orderNonce","type":"uint120","internalType":"uint120"}]},{"type":"error","name":"NewPositionSizeTooSmall","inputs":[]},{"type":"error","name":"NoActiveMarketOrder","inputs":[{"name":"tradingAccountId","type":"uint128","internalType":"uint128"}]},{"type":"error","name":"NotInitializing","inputs":[]},{"type":"error","name":"OnlyKeeper","inputs":[{"name":"sender","type":"address","internalType":"address"},{"name":"keeper","type":"address","internalType":"address"}]},{"type":"error","name":"OraclePriceFeedHeartbeat","inputs":[{"name":"priceFeed","type":"address","internalType":"address"}]},{"type":"error","name":"OraclePriceFeedOutOfRange","inputs":[{"name":"priceFeed","type":"address","internalType":"address"}]},{"type":"error","name":"OracleSequencerUptimeFeedIsDown","inputs":[{"name":"sequencerUptimeFeed","type":"address","internalType":"address"}]},{"type":"error","name":"OrderAlreadyFilled","inputs":[{"name":"tradingAccountId","type":"uint128","internalType":"uint128"},{"name":"salt","type":"bytes32","internalType":"bytes32"}]},{"type":"error","name":"OrderMarketIdMismatch","inputs":[{"name":"marketId","type":"uint128","internalType":"uint128"},{"name":"orderMarketId","type":"uint128","internalType":"uint128"}]},{"type":"error","name":"PRBMath_MulDiv18_Overflow","inputs":[{"name":"x","type":"uint256","internalType":"uint256"},{"name":"y","type":"uint256","internalType":"uint256"}]},{"type":"error","name":"PRBMath_MulDiv_Overflow","inputs":[{"name":"x","type":"uint256","internalType":"uint256"},{"name":"y","type":"uint256","internalType":"uint256"},{"name":"denominator","type":"uint256","internalType":"uint256"}]},{"type":"error","name":"PRBMath_SD59x18_Abs_MinSD59x18","inputs":[]},{"type":"error","name":"PRBMath_SD59x18_Convert_Overflow","inputs":[{"name":"x","type":"int256","internalType":"int256"}]},{"type":"error","name":"PRBMath_SD59x18_Convert_Underflow","inputs":[{"name":"x","type":"int256","internalType":"int256"}]},{"type":"error","name":"PRBMath_SD59x18_Div_InputTooSmall","inputs":[]},{"type":"error","name":"PRBMath_SD59x18_Div_Overflow","inputs":[{"name":"x","type":"int256","internalType":"SD59x18"},{"name":"y","type":"int256","internalType":"SD59x18"}]},{"type":"error","name":"PRBMath_SD59x18_IntoUD60x18_Underflow","inputs":[{"name":"x","type":"int256","internalType":"SD59x18"}]},{"type":"error","name":"PRBMath_SD59x18_IntoUint256_Underflow","inputs":[{"name":"x","type":"int256","internalType":"SD59x18"}]},{"type":"error","name":"PRBMath_SD59x18_Mul_InputTooSmall","inputs":[]},{"type":"error","name":"PRBMath_SD59x18_Mul_Overflow","inputs":[{"name":"x","type":"int256","internalType":"SD59x18"},{"name":"y","type":"int256","internalType":"SD59x18"}]},{"type":"error","name":"PRBMath_UD60x18_Convert_Overflow","inputs":[{"name":"x","type":"uint256","internalType":"uint256"}]},{"type":"error","name":"PRBMath_UD60x18_IntoSD59x18_Overflow","inputs":[{"name":"x","type":"uint256","internalType":"UD60x18"}]},{"type":"error","name":"PRBMath_UD60x18_IntoUint128_Overflow","inputs":[{"name":"x","type":"uint256","internalType":"UD60x18"}]},{"type":"error","name":"PerpMarketDisabled","inputs":[{"name":"marketId","type":"uint128","internalType":"uint128"}]},{"type":"error","name":"PriceAdapterNotDefined","inputs":[{"name":"marketId","type":"uint128","internalType":"uint128"}]},{"type":"error","name":"SafeCastOverflowedIntDowncast","inputs":[{"name":"bits","type":"uint8","internalType":"uint8"},{"name":"value","type":"int256","internalType":"int256"}]},{"type":"error","name":"SafeCastOverflowedIntToUint","inputs":[{"name":"value","type":"int256","internalType":"int256"}]},{"type":"error","name":"SafeCastOverflowedUintDowncast","inputs":[{"name":"bits","type":"uint8","internalType":"uint8"},{"name":"value","type":"uint256","internalType":"uint256"}]},{"type":"error","name":"SafeCastOverflowedUintToInt","inputs":[{"name":"value","type":"uint256","internalType":"uint256"}]},{"type":"error","name":"SafeERC20FailedOperation","inputs":[{"name":"token","type":"address","internalType":"address"}]},{"type":"error","name":"SettlementDisabled","inputs":[]},{"type":"error","name":"TradeSizeTooSmall","inputs":[]},{"type":"error","name":"ZeroInput","inputs":[{"name":"parameter","type":"string","internalType":"string"}]}],"bytecode":{"object":"0x6080604052348015600e575f80fd5b5060156019565b60c9565b7ff0c57e16840df040f15088dc2f81fe391c3923bec73e23a9662efc9c229c6a00805468010000000000000000900460ff161560685760405163f92ee8a960e01b815260040160405180910390fd5b80546001600160401b039081161460c65780546001600160401b0319166001600160401b0390811782556040519081527fc7f505b2f371ae2175ee4913f4499e1f2633a7b5936321eed1cdaeb6115181d29060200160405180910390a15b50565b614ae7806100d65f395ff3fe608060405234801561000f575f80fd5b5060043610610064575f3560e01c80638129fc1c1161004d5780638129fc1c1461009857806384b0196e146100a0578063d1d7ab1e146100bb575f80fd5b80631e743ca6146100685780633644e5151461007d575b5f80fd5b61007b610076366004613f8c565b6100ce565b005b6100856106ed565b6040519081526020015b60405180910390f35b61007b6106fb565b6100a86108a0565b60405161008f9796959493929190614083565b61007b6100c9366004614136565b61099a565b845f6100db826001610b55565b80549091506101049033906c0100000000000000000000000090046001600160a01b0316610bfc565b61019a6040805161012080820183525f808352602080840182905283850182905260608085018390526080808601849052865161014081018852848152928301849052958201839052810182905293840181905260a084810182905260c0850182905260e0850182905261010085018290529184015290919082019081525f602082018190526040820181905260609091015290565b5f6101a6896001610b55565b90505f6101b28a610c74565b90505f6101bd610d10565b905061020488888080601f0160208091040260200160405190810160405280939291908181526020018383808284375f920191909152505050600884015486929150610d71565b602086015284525f5b898110156106df578a8a8281811061022757610227614193565b9050610140020180360381019061023e919061428c565b60a0860181905260400151600f0b5f036102b9576040517f525560be00000000000000000000000000000000000000000000000000000000815260206004820152601760248201527f6f6666636861696e4f726465722e73697a6544656c746100000000000000000060448201526064015b60405180910390fd5b5f6102ca8660a001515f0151610ed2565b90508560a00151602001516001600160801b03168d6001600160801b0316146103265760a08601516020015160405163c225e21160e01b81526102b0918f916004016001600160801b0392831681529116602082015260400190565b805460a0878101510151600160801b9091046001600160801b03166effffffffffffffffffffffffffffff909116146103bd57805460a08781015101516040517f0f1cf482000000000000000000000000000000000000000000000000000000008152600160801b9092046001600160801b031660048301526effffffffffffffffffffffffffffff1660248201526044016102b0565b60a0808701518051602080830151604080850151606086015160808701519787015160c0909701519251610472987f30ce6fb95c407e9d76d48ef50867db8105b8a7a20781e04c136451e22ee175f69895969395929490939091019788526001600160801b0396871660208901529486166040880152600f9390930b60608701529316608085015291151560a08401526effffffffffffffffffffffffffffff9190911660c083015260e08201526101000190565b60408051601f198184030181529181528151602092830120608089018190525f9081526007840190925290205460ff16156104f75760a0860151805160c0909101516040517fa59ada060000000000000000000000000000000000000000000000000000000081526001600160801b03909216600483015260248201526044016102b0565b6105266105078760800151610f39565b60a088015160e081015161010082015161012090920151909190610f86565b6001600160a01b0390811660c088018190526001830154909116146105945760c086015160018201546040517fee6204d80000000000000000000000000000000000000000000000000000000081526001600160a01b039283166004820152911660248201526044016102b0565b60a0860151604001515f600f9190910b1361010087018190526105b85785516105be565b85602001515b604087810182905260a088015101516105dc918691600f0b90610fb2565b60608701526101008601518015610608575060608601518660a00151606001516001600160801b031611155b806106365750856101000151158015610636575060608601518660a00151606001516001600160801b031610155b151560e0870181905261064957506106d7565b8560a00151608001511561067c57805460016001600160801b03600160801b808404821692909201811690910291161781555b6001816007015f886080015181526020019081526020015f205f6101000a81548160ff0219169083151502179055506106d58660a001515f01518e60016106cb8a60a0015160400151600f0b90565b8a6060015161106f565b505b60010161020d565b505050505050505050505050565b5f6106f66115c7565b905090565b7ff0c57e16840df040f15088dc2f81fe391c3923bec73e23a9662efc9c229c6a00805468010000000000000000810460ff16159067ffffffffffffffff165f811580156107455750825b90505f8267ffffffffffffffff1660011480156107615750303b155b90508115801561076f575080155b156107a6576040517ff92ee8a900000000000000000000000000000000000000000000000000000000815260040160405180910390fd5b845467ffffffffffffffff1916600117855583156107da57845468ff00000000000000001916680100000000000000001785555b61084e6040518060400160405280601481526020017f5a61726f732050657270657475616c73204445580000000000000000000000008152506040518060400160405280600181526020017f31000000000000000000000000000000000000000000000000000000000000008152506115d0565b831561089957845468ff000000000000000019168555604051600181527fc7f505b2f371ae2175ee4913f4499e1f2633a7b5936321eed1cdaeb6115181d29060200160405180910390a15b5050505050565b5f60608082808083817fa16a46d94261c7517cc8ff89f61c0ce93598e3c849801011dee649a6a557d10080549091501580156108de57506001810154155b610944576040517f08c379a000000000000000000000000000000000000000000000000000000000815260206004820152601560248201527f4549503731323a20556e696e697469616c697a6564000000000000000000000060448201526064016102b0565b61094c6115e2565b6109546116b5565b604080515f808252602082019092527f0f000000000000000000000000000000000000000000000000000000000000009c939b5091995046985030975095509350915050565b825f6109a6825f610b55565b80549091506109cf9033906c0100000000000000000000000090046001600160a01b0316610bfc565b610a046040518060c001604052805f81526020015f81526020015f81526020015f151581526020015f81526020015f81525090565b5f610a0f875f610b55565b90505f610a1b89611706565b80549091506001600160801b03898116911614610a6157805460405163c225e21160e01b81526001600160801b03808b16600483015290911660248201526044016102b0565b5f610a6b89610c74565b90505f610a76610d10565b9050610abd89898080601f0160208091040260200160405190810160405280939291908181526020018383808284375f920191909152505050600884015487929150610d71565b602087015285528254600160801b9004600f0b604086018190525f1260608601819052610aeb578451610af1565b84602001515b608086018190526040860151610b0991849190610fb2565b60a086018190526040860151610b25918d918d915f919061106f565b610b48835f815560010180546fffffffffffffffffffffffffffffffff19169055565b5050505050505050505050565b5f8060ff19610b8560017f4afdb43bc86b99e946919eed9b94acdb0f56ab4974b93329a1618862786cae32614353565b604051602001610b9791815260200190565b60405160208183030381529060405280519060200120168484604051602001610bdc939291909283526001600160801b03918216602084015216604082015260600190565b60408051601f198184030181529190528051602090910120949350505050565b806001600160a01b0316826001600160a01b031614158015610c2657506001600160a01b03811615155b15610c70576040517f4f8794ff0000000000000000000000000000000000000000000000000000000081526001600160a01b038084166004830152821660248201526044016102b0565b5050565b5f8060ff19610ca460017f7391160f00c346d035658daa8a3c1eb1fa2f98b67b37275a9487390ac54b119f614353565b604051602001610cb691815260200190565b604051602081830303815290604052805190602001201683604051602001610cf19291909182526001600160801b0316602082015260400190565b60408051601f1981840301815291905280516020909101209392505050565b5f8060ff19610d4060017feeb5cd774bc9c6845792a7b59ceb11c49cb99339b2df9604c51808d2eb250cc2614353565b604051602001610d5291815260200190565b60408051601f1981840301815291905280516020909101201692915050565b5f8080855460ff168015610d8757610d87614366565b03610e98575f856001018054610d9c9061437a565b80601f0160208091040260200160405190810160405280929190818152602001828054610dc89061437a565b8015610e135780601f10610dea57610100808354040283529160200191610e13565b820191905f5260205f20905b815481529060010190602001808311610df657829003601f168201915b5050505050806020019051810190610e2b91906143c6565b90505f610e388287611761565b9050610e4982602001518287611794565b5f81806020019051810190610e5e9190614449565b9050610e76610e738260e0015160170b61181a565b90565b610e8a610e7383610100015160170b61181a565b9095509350610eca92505050565b6040517f552386b100000000000000000000000000000000000000000000000000000000815260040160405180910390fd5b935093915050565b5f610edc8261185c565b60018101549091506001600160a01b0316610f34576040517f3a947e910000000000000000000000000000000000000000000000000000000081526001600160801b03831660048201523360248201526044016102b0565b919050565b5f610f80610f456115c7565b836040517f19010000000000000000000000000000000000000000000000000000000000008152600281019290925260228201526042902090565b92915050565b5f805f80610f968888888861188c565b925092509250610fa68282611954565b50909695505050505050565b5f80610fc7610e738660060160060154611a57565b8554909150600160801b9004600f0b5f610fe18284611a9c565b90505f610fee8388611b9b565b90505f610ffb8286611a9c565b90505f61100788611bb0565b90505f61102661102161101a8488611bf6565b8490611b9b565b611cc5565b90505f6110406110216110398587611bf6565b8590611b9b565b905061105f61104f6002611d04565b6110598484611d62565b90611d70565b9c9b505050505050505050505050565b61110d60408051610220810182525f8082526020808301829052835160608101855282815290810182905280840191909152909182019081526020015f81526020015f81526020015f81526020015f81526020015f81526020015f81526020015f81526020015f81526020015f81526020015f81526020015f81526020015f6001600160a01b031681526020015f151581526020015f151581525090565b5f611116610d10565b90505f6111238787610b55565b60068301546001600160a01b03166101c08501529050611151888861114c88611d87565b611d87565b611dcf565b158015610200850152611171576111688288611e1a565b61117181611e71565b5f61117b89610ed2565b90505f61118789610c74565b90506111938188611eb4565b61119c81611f14565b61018086018190526111b090829088611f45565b6101608601819052610180860151600383015560048201554260058201556111d9818888611f66565b6060860152825462010000900469ffffffffffffffffffff1660808601525f6112028b8b6120c0565b805461010088015290505f808061121a868e8d6120f0565b925092509250886102000151158015611237575061010089015115155b15156101e08a0181905261124b578261124d565b815b60c08a0181905261127e906112628884612317565b60808c015160608d015161127591611d62565b899291906123b0565b5050506112ac61129c8761016001518361241f90919063ffffffff16565b6112a6838a61244d565b90611b9b565b610140870152604080516060810190915261010087015181906112d390610e73908c611b9b565b81526020016112e189612475565b6001600160801b031681526020016112fe61114789610160015190565b600f0b9052604087018190525161012087018190526101008701516113269184918b916124bb565b6101a0880181905260a0880182905261134091849161263b565b61010086015161012087015161135a9185918d9190612696565b610120860151611372575f808255600182015561140a565b600b82015461139d90600160801b90046001600160801b0316611399886101200151612763565b1290565b156113d4576040517f1165bfd200000000000000000000000000000000000000000000000000000000815260040160405180910390fd5b604086015161140a9082908051825560208101516040909101516001600160801b03908116600160801b02911617600190910155565b6101408601515f12156114d057611425866101400151611cc5565b60e087018190526101c087015161143e918591906127bb565b856101c001516001600160a01b03166340c10f193061145e8960e0015190565b6040517fffffffff0000000000000000000000000000000000000000000000000000000060e085901b1681526001600160a01b03909216600483015260248201526044015f604051808303815f87803b1580156114b9575f80fd5b505af11580156114cb573d5f803e3d5ffd5b505050505b6040805160608101825260028701546001600160a01b0390811682526003880154811660208301526004880154169181019190915261014087015161154191905f1361151c575f61152d565b61152d611021896101400151612763565b608089015160608a0151879392919061280a565b506001600160801b038a8116908c16337ff6de7718dae7e66bff2d4fc1e8545ae5fbb1a6b2592c9d78c32ed70b240a223f8b8b60608c015160808d01516101408e01516101608f0151604080519687526020870195909552938501929092526060840152608083015260a082015260c00160405180910390a45050505050505050505050565b5f6106f6612a14565b6115d8612a87565b610c708282612af0565b7fa16a46d94261c7517cc8ff89f61c0ce93598e3c849801011dee649a6a557d10280546060917fa16a46d94261c7517cc8ff89f61c0ce93598e3c849801011dee649a6a557d100916116339061437a565b80601f016020809104026020016040519081016040528092919081815260200182805461165f9061437a565b80156116aa5780601f10611681576101008083540402835291602001916116aa565b820191905f5260205f20905b81548152906001019060200180831161168d57829003601f168201915b505050505091505090565b7fa16a46d94261c7517cc8ff89f61c0ce93598e3c849801011dee649a6a557d10380546060917fa16a46d94261c7517cc8ff89f61c0ce93598e3c849801011dee649a6a557d100916116339061437a565b5f61171082612b62565b80549091506001600160801b03165f03610f34576040517fbf4bc94f0000000000000000000000000000000000000000000000000000000081526001600160801b03831660048201526024016102b0565b81516060905f61177084612b92565b90505f61177d8383612ba8565b905061178a838287612d0b565b9695505050505050565b5f828060200190518101906117a99190614449565b8051909150841415806117d0575081816020015163ffffffff166117cd91906144f6565b42115b156118145780516040517f21c8c8400000000000000000000000000000000000000000000000000000000081526102b0918691600401918252602082015260400190565b50505050565b5f80821215611858576040517fa8ce4432000000000000000000000000000000000000000000000000000000008152600481018390526024016102b0565b5090565b5f8060ff19610ca460017f8d53eef876fe0bd8a1041a9151a1ff19778efab77c8e1ac1a9b867962feb87e5614353565b5f80807f7fffffffffffffffffffffffffffffff5d576e7357a4501ddfe92f46681b20a08411156118c557505f9150600390508261194a565b604080515f808252602082018084528a905260ff891692820192909252606081018790526080810186905260019060a0016020604051602081039080840390855afa158015611916573d5f803e3d5ffd5b5050604051601f1901519150506001600160a01b03811661194157505f92506001915082905061194a565b92505f91508190505b9450945094915050565b5f82600381111561196757611967614366565b03611970575050565b600182600381111561198457611984614366565b036119bb576040517ff645eedf00000000000000000000000000000000000000000000000000000000815260040160405180910390fd5b60028260038111156119cf576119cf614366565b03611a09576040517ffce698f7000000000000000000000000000000000000000000000000000000008152600481018290526024016102b0565b6003826003811115611a1d57611a1d614366565b03610c70576040517fd78bce0c000000000000000000000000000000000000000000000000000000008152600481018290526024016102b0565b5f6001600160ff1b03821115611858576040517f24775e06000000000000000000000000000000000000000000000000000000008152600481018390526024016102b0565b5f8282600160ff1b821480611ab45750600160ff1b81145b15611aeb576040517f9fe2b45000000000000000000000000000000000000000000000000000000000815260040160405180910390fd5b5f805f8412611afa5783611afe565b835f035b91505f8312611b0d5782611b11565b825f035b90505f611b2783670de0b6b3a764000084612db4565b90506001600160ff1b03811115611b74576040517fd49c26b300000000000000000000000000000000000000000000000000000000815260048101899052602481018890526044016102b0565b5f1985851813611b8e81611b8a57825f03610e73565b8290565b9998505050505050505050565b5f611ba9610e738385614509565b9392505050565b5f816001600160ff1b03811115610f80576040517ff4618684000000000000000000000000000000000000000000000000000000008152600481018490526024016102b0565b5f8282600160ff1b821480611c0e5750600160ff1b81145b15611c45576040517fa6070c2500000000000000000000000000000000000000000000000000000000815260040160405180910390fd5b5f805f8412611c545783611c58565b835f035b91505f8312611c675782611c6b565b825f035b90505f611c788383612e9c565b90506001600160ff1b03811115611b74576040517f120b5b4300000000000000000000000000000000000000000000000000000000815260048101899052602481018890526044016102b0565b5f8181811215610f80576040517fbba41a15000000000000000000000000000000000000000000000000000000008152600481018490526024016102b0565b5f611d18670de0b6b3a76400005f19614544565b821115611d54576040517f1cd951a7000000000000000000000000000000000000000000000000000000008152600481018390526024016102b0565b50670de0b6b3a76400000290565b5f611ba9610e7383856144f6565b5f611ba9610e7384670de0b6b3a764000085612db4565b80600f81900b8114610f34576040517f327269a700000000000000000000000000000000000000000000000000000000815260806004820152602481018390526044016102b0565b5f80611ddb85856120c0565b80549091501580611df9575080545f128015611df957505f83600f0b135b80611e11575080545f138015611e1157505f83600f0b125b95945050505050565b611e30600d83016001600160801b038316612f81565b610c70576040517f10aaa5560000000000000000000000000000000000000000000000000000000081526001600160801b03821660048201526024016102b0565b8054610100900460ff16611eb1576040517fadff81b500000000000000000000000000000000000000000000000000000000815260040160405180910390fd5b50565b600b820154611edd90600160801b90046001600160801b0316611ed961102184612763565b1090565b15610c70576040517faccd21a600000000000000000000000000000000000000000000000000000000815260040160405180910390fd5b5f610f80611f3b611f2c611f2785612f98565b611bb0565b611f3585612fc0565b90611bf6565b60038401546112a6565b5f611f5e611f54858585613063565b60048601546112a6565b949350505050565b82545f90600160801b9004600f0b80821284831283611f858488611b9b565b90505f811580611f93575084155b80611fb15750611fa2855f1290565b1515611fad835f1290565b1515145b90508015612024575f83151585151514158015611fcd57508515155b611feb57600d8a0154600160801b90046001600160801b0316611ffa565b600d8a01546001600160801b03165b905061201c8161201661200f6110218d612763565b8b906130b3565b906130b3565b9650506120b4565b5f61203661203184612763565b6130c1565b90505f6120576120316120528461204c8e612763565b90613100565b612763565b600d8c01549091505f9061208090600160801b90046001600160801b0316612016858d906130b3565b600d8d01549091505f906120a1906001600160801b03166120168d866130b3565b90506120ad8282611d62565b9950505050505b50505050509392505050565b5f8060ff19610b8560017f1bc067b952a51a4aceed0c94957339255c9d9ec48f1c55db3cdc6194155caa15614353565b5f80806001600160801b038516156121f2575f61210c86610c74565b87549091505f90612126906001600160801b0316886120c0565b90505f61213e876121368561310e565b859190610fb2565b90505f61215561214d85611f14565b859084611f45565b90505f612170836120166110216120528d6112a68a5f015490565b60098601549091505f9081906121a69084906001600160801b03165b60098a0154600160801b90046001600160801b03166131a4565b90925090505f6121c36121b9888761241f565b6112a6898961244d565b90506121cf8b84611d62565b9a506121db8a83611d62565b99506121e78982611b9b565b985050505050505050505b5f6121ff876005016131c6565b90505f5b8181101561230c575f61222161221c60058b01846131cf565b6131da565b9050876001600160801b0316816001600160801b0316036122425750612304565b5f61224c82610c74565b8a549091505f90612266906001600160801b0316846120c0565b90505f61228561227c835f0154610e7390614557565b6121368561310e565b90505f61229461214d85611f14565b90505f6122a18484613226565b60098601549091505f9081906122c19084906001600160801b031661218c565b90925090505f6122d46121b9888761241f565b90506122e08e84611d62565b9d506122ec8d83611d62565b9c506122f88c82611b9b565b9b505050505050505050505b600101612203565b505093509350939050565b5f806123258460020161323b565b90505f5b818110156123a5575f806123406002880184613245565b915091505f61234e83613262565b80549091505f9061237e90600160801b90046effffffffffffffffffffffffffffff1661201685612016866132df565b905061239361238c82611bb0565b8890611b9b565b96505060019093019250612329915050565b50611f5e8284611b9b565b6123c5826123c1611f278685611d62565b1390565b156118145783546040517f4b2d3acd0000000000000000000000000000000000000000000000000000000081526001600160801b0390911660048201526024810183905260448101849052606481018290526084016102b0565b60018201545f90819061243d90600160801b9004600f0b8490613100565b9050611f5e81611f35865f015490565b60018201545f90819061243d9061246c906001600160801b0316611bb0565b61204c85611bb0565b5f816001600160801b03811115610f80576040517f4916adce000000000000000000000000000000000000000000000000000000008152600481018490526024016102b0565b600a84015460018501545f9182916001600160801b0391821691166125016124e561102187612763565b6124fb6124f46110218a612763565b849061335c565b90611d62565b93508382101561256357808410806125615788546040517f5b7afd710000000000000000000000000000000000000000000000000000000081526001600160801b03909116600482015260248101849052604481018690526064016102b0565b505b600a8801545f9061258390600160801b90046001600160801b0316611bb0565b8954909150600160801b9004600f0b61259c818a611b9b565b94506125ab826123c187612763565b1561262e575f6125c66125bd87612763565b6123c184612763565b90508061262c578a546001600160801b03166125e1846130c1565b6040517f04034b740000000000000000000000000000000000000000000000000000000081526001600160801b039290921660048301526024820152604481018790526064016102b0565b505b5050505094509492505050565b61264481611d87565b83546001600160801b03918216600160801b02911617835561266582612475565b60019390930180546fffffffffffffffffffffffffffffffff19166001600160801b03909416939093179092555050565b5f61269f610d10565b9050821580156126ae57508115155b156127075784546126cc90600f8301906001600160801b0316612f81565b6126eb5784546126e990600f8301906001600160801b031661336a565b505b612701600586016001600160801b03861661336a565b50610899565b8215158015612714575081155b156108995761272f600586016001600160801b038616613375565b5061273c856005016131c6565b5f0361089957845461275b90600f8301906001600160801b0316613375565b505050505050565b5f81600160ff1b81016127a2576040517fec2b9e6700000000000000000000000000000000000000000000000000000000815260040160405180910390fd5b5f81126127af5782611ba9565b611ba9610e7382614557565b600283015f6127ce836124fb8787613380565b90506127de84825b849190613399565b505f6127e985613262565b90506127fd610e73856124fb846002015490565b6002909101555050505050565b5f6128466040518060e001604052805f81526020015f81526020015f81526020015f81526020015f151581526020015f81526020015f81525090565b5f61284f610d10565b90505f61285e82600b016131c6565b90505f5b818110156129f0575f612878600b8501836131cf565b90505f61288482613262565b90506128908c83613380565b80875261289e5750506129e8565b6128a7816132df565b602087015288151580156128be5750604086015189115b15612910576128ee8c8388602001516128e48a604001518e61335c90919063ffffffff16565b8f604001516133ae565b1515608088015260608701819052604087015161290a91611d62565b60408701525b8715158015612922575060a086015188115b15612974576129528c8388602001516129488a60a001518d61335c90919063ffffffff16565b8f602001516133ae565b151560808801526060870181905260a087015161296e91611d62565b60a08701525b8915158015612986575060c08601518a115b156129d5576129b38c8388602001516129ac8a60c001518f61335c90919063ffffffff16565b8f516133ae565b151560808801526060870181905260c08701516129cf91611d62565b60c08701525b85608001516129e55750506129f0565b50505b600101612862565b50611b8e8360c001516124fb8560a001518660400151611d6290919063ffffffff16565b5f7f8b73c3c69bb8fe3d512ecc4cf759cc79239f7b179b0ffacaa9a75d522b39400f612a3e61345e565b612a466134d9565b60408051602081019490945283019190915260608201524660808201523060a082015260c00160405160208183030381529060405280519060200120905090565b7ff0c57e16840df040f15088dc2f81fe391c3923bec73e23a9662efc9c229c6a005468010000000000000000900460ff16612aee576040517fd7e6bcf800000000000000000000000000000000000000000000000000000000815260040160405180910390fd5b565b612af8612a87565b7fa16a46d94261c7517cc8ff89f61c0ce93598e3c849801011dee649a6a557d1007fa16a46d94261c7517cc8ff89f61c0ce93598e3c849801011dee649a6a557d102612b4484826145b5565b5060038101612b5383826145b5565b505f8082556001909101555050565b5f8060ff19610ca460017f6a75b7da92e221e8242587cdbb5587bdd0f9484b3d4002a5221c0281b06077f4614353565b606081806020019051810190611ba991906146ec565b604080518082019091525f80825260208201525f836001600160a01b03166338416b5b6040518163ffffffff1660e01b8152600401602060405180830381865afa158015612bf8573d5f803e3d5ffd5b505050506040513d601f19601f82011682018060405250810190612c1c9190614789565b90505f816001600160a01b031663638786686040518163ffffffff1660e01b8152600401602060405180830381865afa158015612c5b573d5f803e3d5ffd5b505050506040513d601f19601f82011682018060405250810190612c7f9190614789565b6040517fe03dab1a0000000000000000000000000000000000000000000000000000000081529091506001600160a01b0383169063e03dab1a90612ccb903090889086906004016147a4565b60a0604051808303815f875af1158015612ce7573d5f803e3d5ffd5b505050506040513d601f19601f82011682018060405250810190610fa69190614812565b6060836001600160a01b031663f7e83aee846020015184865f0151604051602001612d4591906001600160a01b0391909116815260200190565b6040516020818303038152906040526040518463ffffffff1660e01b8152600401612d7192919061484d565b5f6040518083038185885af1158015612d8c573d5f803e3d5ffd5b50505050506040513d5f823e601f3d908101601f19168201604052611f5e9190810190614871565b5f80805f19858709858702925082811083820303915050805f03612deb57838281612de157612de1614530565b0492505050611ba9565b838110612e35576040517f63a057780000000000000000000000000000000000000000000000000000000081526004810187905260248101869052604481018590526064016102b0565b5f8486880960026001871981018816978890046003810283188082028403028082028403028082028403028082028403028082028403029081029092039091025f889003889004909101858311909403939093029303949094049190911702949350505050565b5f80805f19848609848602925082811083820303915050805f03612ecd5750670de0b6b3a764000090049050610f80565b670de0b6b3a76400008110612f18576040517f5173648d00000000000000000000000000000000000000000000000000000000815260048101869052602481018590526044016102b0565b5f670de0b6b3a7640000858709620400008185030493109091037d40000000000000000000000000000000000000000000000000000000000002919091177faccb18165bd6fe31ae1cf318dc5b51eee0e1ba569b88cd74c1773b91fac106690291505092915050565b5f8181526001830160205260408120541515611ba9565b5f610f80612fa862015180611d04565b611059846005015442612fbb9190614353565b611d04565b600b8101545f908190612fdf90610e73906001600160801b0316611a57565b90505f612ff5610e738560060160060154611a57565b8454909150600160801b9004600f0b8161301357505f949350505050565b5f61301e8284611a9c565b90505f61304c61303e613038670de0b6b3a764000061352e565b8461353b565b670de0b6b3a7640000613551565b90506130588186611bf6565b979650505050505050565b5f8061308f613072600261355a565b613089613084876112a68a6003015490565b61352e565b90611a9c565b9050611e1161309d84611bb0565b611f356130ac611f2789612f98565b8490611bf6565b5f611ba9610e738484612e9c565b5f8181811215610f80576040517f2463f3d5000000000000000000000000000000000000000000000000000000008152600481018490526024016102b0565b5f611ba9610e7383856148a3565b6008810154600e8201545f916001600160a01b03169063ffffffff1682613133610d10565b465f9081526011820160205260409020549091506001600160a01b039081169084166131995785546040517f2fb06fb40000000000000000000000000000000000000000000000000000000081526001600160801b0390911660048201526024016102b0565b61178a848483613602565b5f806131b085856130b3565b91506131bc85846130b3565b9050935093915050565b5f610f80825490565b5f611ba98383613a35565b5f6001600160801b03821115611858576040517f6dfcc65000000000000000000000000000000000000000000000000000000000815260806004820152602481018390526044016102b0565b5f611ba982612016611021612052875f015490565b5f610f8082613a5b565b5f8080806132538686613a65565b909450925050505b9250929050565b5f8060ff1961329260017f4693110e548948f348ad9c8c0e5b637b378994981b3a4246fc86241f8faded51614353565b6040516020016132a491815260200190565b604051602081830303815290604052805190602001201683604051602001610cf19291909182526001600160a01b0316602082015260400190565b600181015460038201545f916001600160a01b03169063ffffffff1682613304610d10565b465f9081526011820160205260409020549091506001600160a01b03908116908416613199576040517ff976331100000000000000000000000000000000000000000000000000000000815260040160405180910390fd5b5f611ba9610e738385614353565b5f611ba98383613a8e565b5f611ba98383613ada565b5f8061338f6002850184613bc4565b915050611f5e8190565b5f611f5e846001600160a01b03851684613bdb565b5f805f6133ba87613262565b90505f6133c78989613380565b90505f6133d48789611d70565b90505f828211613414576133e98b8b84613bf7565b6133f38483613c51565b90506134096001600160a01b038b168883613c99565b8795505f9450613450565b61341f8b8b85613bf7565b6134298484613c51565b905061343f6001600160a01b038b168883613c99565b61344989846130b3565b9550600194505b505050509550959350505050565b5f7fa16a46d94261c7517cc8ff89f61c0ce93598e3c849801011dee649a6a557d100816134896115e2565b8051909150156134a157805160209091012092915050565b815480156134b0579392505050565b7fc5d2460186f7233c927e7db2dcc703c0e500b653ca82273b7bfad8045d85a470935050505090565b5f7fa16a46d94261c7517cc8ff89f61c0ce93598e3c849801011dee649a6a557d100816135046116b5565b80519091501561351c57805160209091012092915050565b600182015480156134b0579392505050565b5f610f80610e7383614557565b5f8282125b61354a5781611ba9565b5090919050565b5f828213613540565b5f613571670de0b6b3a7640000600160ff1b6148c2565b8212156135ad576040517f99474eeb000000000000000000000000000000000000000000000000000000008152600481018390526024016102b0565b6135c6670de0b6b3a76400006001600160ff1b036148c2565b821315611d54576040517f9d581091000000000000000000000000000000000000000000000000000000008152600481018390526024016102b0565b5f80846001600160a01b031663313ce5676040518163ffffffff1660e01b8152600401602060405180830381865afa158015613640573d5f803e3d5ffd5b505050506040513d601f19601f8201168201806040525081019061366491906148ee565b9050601260ff8216111561368b57604051634840b0ab60e11b815260040160405180910390fd5b6001600160a01b038316156137be57826001600160a01b031663feaf968c6040518163ffffffff1660e01b815260040160a060405180830381865afa9250505080156136f4575060408051601f3d908101601f191682019092526136f191810190614922565b60015b61372a576040517f382e6b6400000000000000000000000000000000000000000000000000000000815260040160405180910390fd5b83158061376e576040517fcbaf08250000000000000000000000000000000000000000000000000000000081526001600160a01b038a1660048201526024016102b0565b5f6137798542614353565b9050610e1081116137b6576040517fd15f73b500000000000000000000000000000000000000000000000000000000815260040160405180910390fd5b505050505050505b846001600160a01b031663feaf968c6040518163ffffffff1660e01b815260040160a060405180830381865afa925050508015613818575060408051601f3d908101601f1916820190925261381591810190614922565b60015b61383557604051634840b0ab60e11b815260040160405180910390fd5b63ffffffff89166138468342614353565b1115613889576040517fa1ac05690000000000000000000000000000000000000000000000000000000081526001600160a01b038b1660048201526024016102b0565b5f8a6001600160a01b031663245a7bfc6040518163ffffffff1660e01b8152600401602060405180830381865afa1580156138c6573d5f803e3d5ffd5b505050506040513d601f19601f820116820180604052508101906138ea9190614789565b90505f816001600160a01b03166322adbc786040518163ffffffff1660e01b8152600401602060405180830381865afa158015613929573d5f803e3d5ffd5b505050506040513d601f19601f8201168201806040525081019061394d919061496e565b90505f826001600160a01b03166370da2f676040518163ffffffff1660e01b8152600401602060405180830381865afa15801561398c573d5f803e3d5ffd5b505050506040513d601f19601f820116820180604052508101906139b0919061496e565b90508160170b871315806139c757508060170b8712155b15613a09576040517f045d8f840000000000000000000000000000000000000000000000000000000081526001600160a01b038e1660048201526024016102b0565b6120ad613a178a6012614987565b613a2290600a614a78565b613a2b8961181a565b610e739190614a86565b5f825f018281548110613a4a57613a4a614193565b905f5260205f200154905092915050565b5f610f80826131c6565b5f8080613a7285856131cf565b5f81815260029690960160205260409095205494959350505050565b5f818152600183016020526040812054613ad357508154600181810184555f848152602080822090930184905584548482528286019093526040902091909155610f80565b505f610f80565b5f8181526001830160205260408120548015613bb4575f613afc600183614353565b85549091505f90613b0f90600190614353565b9050808214613b6e575f865f018281548110613b2d57613b2d614193565b905f5260205f200154905080875f018481548110613b4d57613b4d614193565b5f918252602080832090910192909255918252600188019052604090208390555b8554869080613b7f57613b7f614a9d565b600190038181905f5260205f20015f90559055856001015f8681526020019081526020015f205f905560019350505050610f80565b5f915050610f80565b5092915050565b5f808080613253866001600160a01b038716613d1e565b5f8281526002840160205260408120829055611f5e848461336a565b600283015f613c1083613c0a8787613380565b9061335c565b905080613c2757613c218285613d5e565b50613c33565b613c3184826127d6565b505b5f613c3d85613262565b90506127fd610e7385613c0a846002015490565b81545f90600160f81b900460ff16601203613c6d575080610f80565b8254613c8490600160f81b900460ff166012614987565b613c8f90600a614a78565b611ba99083614544565b604080516001600160a01b038416602482015260448082018490528251808303909101815260649091019091526020810180517bffffffffffffffffffffffffffffffffffffffffffffffffffffffff167fa9059cbb00000000000000000000000000000000000000000000000000000000179052613d19908490613d72565b505050565b5f818152600283016020526040812054819080613d4b57613d3f8585613dec565b92505f915061325b9050565b60019250905061325b565b509250929050565b5f611ba9836001600160a01b038416613df7565b5f613d866001600160a01b03841683613e13565b905080515f14158015613daa575080806020019051810190613da89190614ab1565b155b15613d19576040517f5274afe70000000000000000000000000000000000000000000000000000000081526001600160a01b03841660048201526024016102b0565b5f611ba98383612f81565b5f8181526002830160205260408120819055611ba98383613375565b6060611ba983835f845f80856001600160a01b03168486604051613e379190614acc565b5f6040518083038185875af1925050503d805f8114613e71576040519150601f19603f3d011682016040523d82523d5f602084013e613e76565b606091505b509150915061178a868383606082613e9657613e9182613ef6565b611ba9565b8151158015613ead57506001600160a01b0384163b155b15613eef576040517f9996b3150000000000000000000000000000000000000000000000000000000081526001600160a01b03851660048201526024016102b0565b5080611ba9565b805115613f065780518082602001fd5b6040517f1425ea4200000000000000000000000000000000000000000000000000000000815260040160405180910390fd5b80356001600160801b0381168114610f34575f80fd5b5f8083601f840112613f5e575f80fd5b50813567ffffffffffffffff811115613f75575f80fd5b60208301915083602082850101111561325b575f80fd5b5f805f805f60608688031215613fa0575f80fd5b613fa986613f38565b9450602086013567ffffffffffffffff80821115613fc5575f80fd5b818801915088601f830112613fd8575f80fd5b813581811115613fe6575f80fd5b89602061014083028501011115613ffb575f80fd5b602083019650809550506040880135915080821115614018575f80fd5b5061402588828901613f4e565b969995985093965092949392505050565b5f5b83811015614050578181015183820152602001614038565b50505f910152565b5f815180845261406f816020860160208601614036565b601f01601f19169290920160200192915050565b7fff00000000000000000000000000000000000000000000000000000000000000881681525f602060e060208401526140bf60e084018a614058565b83810360408501526140d1818a614058565b606085018990526001600160a01b038816608086015260a0850187905284810360c0860152855180825260208088019350909101905f5b8181101561412457835183529284019291840191600101614108565b50909c9b505050505050505050505050565b5f805f8060608587031215614149575f80fd5b61415285613f38565b935061416060208601613f38565b9250604085013567ffffffffffffffff81111561417b575f80fd5b61418787828801613f4e565b95989497509550505050565b634e487b7160e01b5f52603260045260245ffd5b634e487b7160e01b5f52604160045260245ffd5b604051610140810167ffffffffffffffff811182821017156141df576141df6141a7565b60405290565b6040805190810167ffffffffffffffff811182821017156141df576141df6141a7565b604051610120810167ffffffffffffffff811182821017156141df576141df6141a7565b8035600f81900b8114610f34575f80fd5b8015158114611eb1575f80fd5b8035610f348161423d565b80356effffffffffffffffffffffffffffff81168114610f34575f80fd5b60ff81168114611eb1575f80fd5b8035610f3481614273565b5f610140828403121561429d575f80fd5b6142a56141bb565b6142ae83613f38565b81526142bc60208401613f38565b60208201526142cd6040840161422c565b60408201526142de60608401613f38565b60608201526142ef6080840161424a565b608082015261430060a08401614255565b60a082015260c083013560c082015261431b60e08401614281565b60e08201526101008381013590820152610120928301359281019290925250919050565b634e487b7160e01b5f52601160045260245ffd5b81810381811115610f8057610f8061433f565b634e487b7160e01b5f52602160045260245ffd5b600181811c9082168061438e57607f821691505b6020821081036143ac57634e487b7160e01b5f52602260045260245ffd5b50919050565b6001600160a01b0381168114611eb1575f80fd5b5f604082840312156143d6575f80fd5b6143de6141e5565b82516143e9816143b2565b81526020928301519281019290925250919050565b805163ffffffff81168114610f34575f80fd5b805177ffffffffffffffffffffffffffffffffffffffffffffffff81168114610f34575f80fd5b8051601781900b8114610f34575f80fd5b5f610120828403121561445a575f80fd5b614462614208565b82518152614472602084016143fe565b6020820152614483604084016143fe565b604082015261449460608401614411565b60608201526144a560808401614411565b60808201526144b660a084016143fe565b60a08201526144c760c08401614438565b60c08201526144d860e08401614438565b60e08201526101006144eb818501614438565b908201529392505050565b80820180821115610f8057610f8061433f565b8082018281125f8312801582168215821617156145285761452861433f565b505092915050565b634e487b7160e01b5f52601260045260245ffd5b5f8261455257614552614530565b500490565b5f600160ff1b820361456b5761456b61433f565b505f0390565b601f821115613d1957805f5260205f20601f840160051c810160208510156145965750805b601f840160051c820191505b81811015610899575f81556001016145a2565b815167ffffffffffffffff8111156145cf576145cf6141a7565b6145e3816145dd845461437a565b84614571565b602080601f831160018114614616575f84156145ff5750858301515b5f19600386901b1c1916600185901b17855561275b565b5f85815260208120601f198616915b8281101561464457888601518255948401946001909101908401614625565b508582101561466157878501515f19600388901b60f8161c191681555b5050505050600190811b01905550565b5f82601f830112614680575f80fd5b815167ffffffffffffffff8082111561469b5761469b6141a7565b604051601f8301601f19908116603f011681019082821181831017156146c3576146c36141a7565b816040528381528660208588010111156146db575f80fd5b61178a846020830160208901614036565b5f80608083850312156146fd575f80fd5b83601f84011261470b575f80fd5b6040516060810167ffffffffffffffff828210818311171561472f5761472f6141a7565b816040528291506060860187811115614746575f80fd5b865b81811015614760578051845260209384019301614748565b505192945080831115614771575f80fd5b505061477f85828601614671565b9150509250929050565b5f60208284031215614799575f80fd5b8151611ba9816143b2565b5f6001600160a01b038086168352606060208401526147c66060840186614058565b9150808416604084015250949350505050565b5f604082840312156147e9575f80fd5b6147f16141e5565b905081516147fe816143b2565b808252506020820151602082015292915050565b5f805f60a08486031215614824575f80fd5b61482e85856147d9565b925061483d85604086016147d9565b9150608084015190509250925092565b604081525f61485f6040830185614058565b8281036020840152611e118185614058565b5f60208284031215614881575f80fd5b815167ffffffffffffffff811115614897575f80fd5b611f5e84828501614671565b8181035f831280158383131683831282161715613bbd57613bbd61433f565b5f826148d0576148d0614530565b600160ff1b82145f19841416156148e9576148e961433f565b500590565b5f602082840312156148fe575f80fd5b8151611ba981614273565b805169ffffffffffffffffffff81168114610f34575f80fd5b5f805f805f60a08688031215614936575f80fd5b61493f86614909565b945060208601519350604086015192506060860151915061496260808701614909565b90509295509295909350565b5f6020828403121561497e575f80fd5b611ba982614438565b60ff8281168282160390811115610f8057610f8061433f565b600181815b80851115613d5657815f19048211156149c0576149c061433f565b808516156149cd57918102915b93841c93908002906149a5565b5f826149e857506001610f80565b816149f457505f610f80565b8160018114614a0a5760028114614a1457614a30565b6001915050610f80565b60ff841115614a2557614a2561433f565b50506001821b610f80565b5060208310610133831016604e8410600b8410161715614a53575081810a610f80565b614a5d83836149a0565b805f1904821115614a7057614a7061433f565b029392505050565b5f611ba960ff8416836149da565b8082028115828204841417610f8057610f8061433f565b634e487b7160e01b5f52603160045260245ffd5b5f60208284031215614ac1575f80fd5b8151611ba98161423d565b5f8251614add818460208701614036565b919091019291505056","linkReferences":{}},"methodIdentifiers":{"DOMAIN_SEPARATOR()":"3644e515","eip712Domain()":"84b0196e","fillMarketOrder(uint128,uint128,bytes)":"d1d7ab1e","fillOffchainOrders(uint128,(uint128,uint128,int128,uint128,bool,uint120,bytes32,uint8,bytes32,bytes32)[],bytes)":"1e743ca6","initialize()":"8129fc1c"},"id":151}